:020000040800F2
:10000000D0060020DD0100087D0B00083F0B000832
:10001000790B0008E9050008FD1100080000000048
:10002000000000000000000000000000690D000852
:100030001909000800000000050C00087D0E0008EA
:10004000F7010008F7010008F7010008F7010008B0
:10005000F7010008F7010008F7010008F7010008A0
:10006000F7010008F7010008F7010008F701000890
:10007000F7010008F7010008F7010008F701000880
:10008000F7010008F7010008F7010008F701000870
:10009000F7010008F7010008F7010008F701000860
:1000A000F7010008F7010008F7010008F701000850
:1000B000F7010008F7010008F7010008F701000840
:1000C000F7010008F7010008F7010008F701000830
:1000D000F7010008350F0008F7010008F7010008D4
:1000E000F7010008F7010008F7010008F701000810
:1000F000F7010008F7010008F7010008F701000800
:10010000F7010008F7010008F7010008F7010008EF
:10011000F7010008E10E0008F7010008F7010008E8
:10012000F7010008F7010008F7010008F7010008CF
:1001300000F002F800F042F80AA090E8000C8244B7
:100140008344AAF10107DA4501D100F037F8AFF294
:10015000090EBAE80F0013F0010F18BFFB1A43F0A5
:10016000010318479C160000BC160000103A24BF7B
:1001700078C878C1FAD8520724BF30C830C144BF0C
:1001800004680C607047000000230024002500264E
:10019000103A28BF78C1FBD8520728BF30C148BFEA
:1001A0000B607047632900F00B81732900F0108108
:1001B000002070471FB51FBD10B510BD00F03AF903
:1001C0001146FFF7F7FF01F073F800F058F903B498
:1001D000FFF7F2FF03BC01F013F800000948804765
:1001E00009480047FEE7FEE7FEE7FEE7FEE7FEE719
:1001F000FEE7FEE7FEE7FEE704480549054A064B31
:1002000070470000810E000831010008D000002076
:10021000D0060020D0020020D0020020704700004D
:100220000FB4044910B503AA029800F0D5F810BC29
:100230005DF814FB300000202DE9F0410E46044625
:10024000002020622046E168884730B3252805D089
:10025000D4E901219047206A401CF2E7E16820467A
:1002600000278847050018D0A5F14100192802D8B9
:1002700020354FF400673246294620462760FFF7B5
:1002800091FF40B1012804D0F61D26F0070608367C
:10029000D8E7361DD6E72846DAE7206ABDE8F081C0
:1002A00070B50C460546012A05D02878800600D591
:1002B000EA69002302E0012305E05B1C934202D2BD
:1002C000E05C0028F9D1A869E618C01AA861286A7C
:1002D000184428622846AFF3008004E0D5E90121E4
:1002E00014F8010B9047B442F8D32846AFF30080CE
:1002F00070BD10B5203AC0F00B80B1E81850203A1C
:10030000A0E81850B1E81850A0E81850BFF4F5AFB5
:100310005FEA027C24BFB1E81850A0E8185044BF3F
:1003200018C918C0BDE810405FEA827C24BF51F8AC
:10033000043B40F8043B08BF7047D20728BF31F8A0
:10034000023B48BF11F8012B28BF20F8023B48BFF1
:1003500000F8012B70474FF0000200B51346944699
:100360009646203922BFA0E80C50A0E80C50B1F10D
:100370002001BFF4F7AF090728BFA0E80C5048BF21
:100380000CC05DF804EB890028BF40F8042B08BFBF
:10039000704748BF20F8022B11F0804F18BF00F8BB
:1003A000012B7047704770477047704710B543691D
:1003B00013B1AFF3008001E0FFF772FF012010BD21
:1003C000127800F124010A7000224A700122EDE740
:1003D00011684FF0FF32E9E7074B70B50D467B44DB
:1003E00000F011F80446284600F020F810B14FF054
:1003F000FF3070BD204670BDB30E000001694A1C7D
:1004000002610878704700B58FB0CDE90131002155
:10041000059105497944CDE9031011466846FFF777
:100420000BFF0FB000BD0000E5FFFFFF007B00F0F9
:1004300080007047754600F02BF8AE46050069460F
:10044000534620F00700854618B020B5FFF7D4FECC
:10045000BDE820404FF000064FF000074FF00008C5
:100460004FF0000B21F00701AC46ACE8C009ACE846
:10047000C009ACE8C009ACE8C0098D46704710B5AA
:100480000446AFF300802046BDE81040FFF79FBE52
:10049000004870476C00002008B50121082000F0DA
:1004A000C3FBC020ADF8000010208DF8030003202E
:1004B0008DF802006946054800F0B4FA01200449AD
:1004C00008600449C1F89C0108BD0000000C01400F
:1004D00098812142008021422DE9F04105460E46D7
:1004E0000527002432211E4800F080F800201D4915
:1004F000088029461C4800F016FE1AE0142000F07F
:10050000A3FE18480088012813DD154815490988FD
:10051000405C0A280DD113480088401E1049085C31
:100520000D2806D10F48008840F400400D4908808E
:1005300004E0381EA7F10101CFB2DFD100BF17B927
:100540000120BDE8F081002404E00548005D30553D
:10055000601CC4B2034800888442F6DB0020F0E748
:100560003800002028000020005000402DE9F04114
:1005700094B005460F4650221A496846FFF7B9FE67
:1005800000240026A04601E0601CC4B21DF804004F
:100590000028F9D1002606E0A85D0DF80400601CD3
:1005A000C4B2701CC6B2A85D0028F5D13F200DF87A
:1005B0000400601CC4B20D200DF80400601CC4B21D
:1005C0000A200DF8040039466846FFF785FF80468B
:1005D000B8F1000F03D0012014B0BDE8F081002075
:1005E000FAE700009016000800BFFEE703E04A1E8D
:1005F000D1B2002242540029F9D170472DE9F043CD
:1006000099B006460F4690465022334905A8FFF799
:1006100070FE314B50330FCB01AC0FC400240025CA
:10062000A14601E0601CC4B205A8005D0028F9D114
:10063000002506E0705D05A90855601CC4B2681C61
:10064000C5B2705D0028F5D12C2005A90855601CA5
:10065000C4B2002506E0785D05A90855601CC4B247
:10066000681CC5B2785D0028F5D12C2005A9085575
:10067000601CC4B2002507E018F8050005A908555C
:10068000601CC4B2681CC5B218F805000028F3D17C
:100690000D2005A90855601CC4B20A20085501A9FF
:1006A00005A8FFF719FF8146B9F1000F03D0062016
:1006B00019B0BDE8F0839DF806002B2809D19DF8FC
:1006C00007004F2805D19DF808004B2801D10020D4
:1006D000EEE79DF80C00EBE7A01700082DE9F04FBE
:1006E00099B006460F4690469946DDF888A05022FC
:1006F000464905A8FFF7FDFD444B50330FCB01AC35
:100700000FC400240025A34601E0601CC4B205A864
:10071000005D0028F9D1002506E0705D05A90855A7
:10072000601CC4B2681CC5B2705D0028F5D12C20D5
:1007300005A90855601CC4B2002506E0785D05A92E
:100740000855601CC4B2681CC5B2785D0028F5D19C
:100750002C2005A90855601CC4B2002507E018F834
:10076000050005A90855601CC4B2681CC5B218F87C
:1007700005000028F3D12C2005A90855601CC4B23F
:10078000002507E019F8050005A90855601CC4B24A
:10079000681CC5B219F805000028F3D12C2005A962
:1007A0000855601CC4B2002507E01AF8050005A929
:1007B0000855601CC4B2681CC5B21AF805000028B0
:1007C000F3D10D2005A90855601CC4B20A200855B4
:1007D00001A905A8FFF780FE8346BBF1000F03D0F7
:1007E000062019B0BDE8F08F9DF806002B2809D12E
:1007F0009DF807004F2805D19DF808004B2801D12E
:100800000020EEE79DF80C00EBE700004017000821
:100810002DE9F04798B006460F469046994650227B
:100820003C4904A8FFF765FD3A4B50330FCB8DE8E8
:100830000F0000240025A24601E0601CC4B204A8F9
:10084000005D0028F9D1002506E0705D04A9085577
:10085000601CC4B2681CC5B2705D0028F5D12C20A4
:1008600004A90855601CC4B2002506E0785D04A9FF
:100870000855601CC4B2681CC5B2785D0028F5D16B
:100880002C2004A90855601CC4B2002507E018F804
:10089000050004A90855601CC4B2681CC5B218F84C
:1008A00005000028F3D12C2004A90855601CC4B20F
:1008B000002507E019F8050004A90855601CC4B21A
:1008C000681CC5B219F805000028F3D10D2004A951
:1008D0000855601CC4B20A200855694604A8FFF7F1
:1008E000FBFD8246BAF1000F03D0062018B0BDE828
:1008F000F0879DF802002B2809D19DF803004F28AE
:1009000005D19DF804004B2801D10020EEE79DF8A9
:100910000800EBE7E01600087047000010B50A2455
:1009200032212548FFF762FE00202449088024A1D7
:10093000244800F0F8FB0BE0052000F085FC1E4881
:100940000078612804D11D480088012800D104E006
:10095000201EA4F10101CCB2EED100BF0CB90120E0
:1009600010BD32211448FFF741FE002013490880D2
:1009700015A1144800F0D7FB15E0052000F064FC39
:100980000E48008802280EDB0B4800782B2809D17E
:10099000094840786F2805D1074880786B2801D135
:1009A0000020DDE704E0201EA4F10101CCB2E4D177
:1009B00000BF0120D4E700003800002028000020FC
:1009C0002B2B2B0000500040610000001FB5114B85
:1009D0000FCB8DE80F0000240F216846FFF706FEBD
:1009E00069460DA0FFF778FD044614B1062004B057
:1009F00010BD9DF802002B2809D19DF803004F2857
:100A000005D19DF804004B2801D10020EFE79DF8A7
:100A10000800ECE76016000841542B454E544D0D7C
:100A20000A0000002DE9F0410246002500260020C2
:100A300000230024002791F803C00CF00F0591F863
:100A400003C00CF0100CBCF1000F03D091F802C0F1
:100A50004CEA050591F800C0BCF1000F31D01468D4
:100A600000202BE04FF0010C0CFA00F3B1F800C0AD
:100A70000CEA03069E4220D183004FF00F0C0CFAC3
:100A800003F7BC4305FA03FC4CEA040491F803C0E5
:100A9000BCF1280F06D14FF0010C0CFA00FCC2F893
:100AA00014C00AE091F803C0BCF1480F05D14FF023
:100AB000010C0CFA00FCC2F810C0401C0828D1D36D
:100AC0001460B1F800C0BCF1FF0F34DD54680020A1
:100AD0002EE000F1080C4FF0010808FA0CF3B1F811
:100AE00000C00CEA03069E4221D183004FF00F0C98
:100AF0000CFA03F7BC4305FA03FC4CEA040491F832
:100B000003C0BCF1280F05D100F1080C08FA0CF85D
:100B1000C2F8148091F803C0BCF1480F07D100F16E
:100B2000080C4FF0010808FA0CF8C2F81080401CBD
:100B30000828CED35460BDE8F0810161704700BF42
:100B4000FEE7000008B50121102000F06DF80F202D
:100B5000ADF8000010208DF8030003208DF802008E
:100B600069460448FFF75EFF0F210248FFF7E5FFE3
:100B700008BD00000010014000BFFEE77047000004
:100B800070B5002100230F22C47804B3154C2468EB
:100B900004F4E064C4F5E064210AC1F10403CA402E
:100BA000447804FA03F184781440214309010E4C7F
:100BB0000678A155047804F01F050124AC4005789F
:100BC0006D11AD0005F1E025C5F8004109E004789C
:100BD00004F01F050124AC40044D0678761145F859
:100BE000264070BD0CED00E000E400E080E100E094
:100BF00002490143024A1160704700000000FA05F3
:100C00000CED00E07047000029B1064AD2690243AA
:100C1000044BDA6104E0034AD2698243014BDA6192
:100C2000704700000010024029B1064A9269024351
:100C3000044B9A6104E0034A92698243014B9A6132
:100C4000704700000010024030B50021002200244F
:100C500000232D4D6D6805F00C0121B1042905D04C
:100C6000082923D105E0294D056022E0274D0560C4
:100C70001FE0254D6D6805F47012234D6D6805F475
:100C80008034022505EB92421CB9214D5543056085
:100C90000BE01D4D6D6805F400351DB11C4D55432D
:100CA000056002E0194D5543056002E0174D0560EF
:100CB00000BF00BF144D6D6805F0F0010909154D26
:100CC0006B5C0568DD4045600F4D6D6805F4E061C3
:100CD000090A104D6B5C4568DD4085600A4D6D6802
:100CE00005F46051C90A0B4D6B5C4568DD40C56079
:100CF000054D6D6805F44041890B074D6B5CC56877
:100D0000B5FBF3F5056130BD0010024000127A001A
:100D100000093D0014000020240000201FB50F4BE7
:100D20000FCB8DE80F00002469460DA0FFF7D4FB20
:100D3000044614B1062004B010BD9DF802002B2813
:100D400009D19DF803004F2805D19DF804004B28D8
:100D500001D10020EFE79DF80800ECE770160008CD
:100D600041542B5A0D0A0000704710B500F002F8EC
:100D700010BD00000CB500200190009033480068C1
:100D800040F480303149086000BF3048006800F40A
:100D9000003000900198401C0190009818B901980B
:100DA000B0F5A06FF1D12948006800F4003010B10F
:100DB0000120009001E0002000900098012843D11C
:100DC0002348006840F01000214908600846006888
:100DD00020F0030008600846006840F00200086048
:100DE0001A48406819494860084640684860084603
:100DF000406840F4806048600846406820F47C10F9
:100E000048600846406840F4E810486008460068BA
:100E100040F08070086000BF0C48006800F000706F
:100E20000028F9D00948406820F0030007494860CD
:100E30000846406840F00200486000BF0348406830
:100E400000F00C000828F9D10CBD00000010024091
:100E500000200240042808D14FF0E021096941F048
:100E600004014FF0E022116107E04FF0E021096931
:100E700021F004014FF0E02211617047704700003B
:100E800010B51348006840F0010011490860084699
:100E90004068104908400E494860084600680E49FD
:100EA00008400B4908600846006820F4802008606C
:100EB0000846406820F4FE0048604FF41F00886038
:100EC000FFF753FF4FF000600449086010BD0000B9
:100ED000001002400000FFF8FFFFF6FE08ED00E002
:100EE00010B540F22551104800F059F8D8B10E481D
:100EF00000F010F9C4B20D48008800F4004090B929
:100F00000A480088C0F30D0009490C5407480088BE
:100F1000401C0649088008460088C0F30D003128AF
:100F200001DD0020088010BD005000402800002096
:100F30003800002010B540F225510A4800F02FF883
:100F400070B1084800F0E6F8C4B22146064800F047
:100F5000E6F800BF8021044800F014F80028F9D01A
:100F600010BD0000003801400050004021B18289CE
:100F700042F40052828104E082894DF6FF731A40E8
:100F80008281704702460020B1F5007F00D100BF8A
:100F900013880B400BB1012000E00020704770B5B2
:100FA0000246002400230025002040F66A16B142C4
:100FB00000D100BFC1F3421501F01F03012606FA5C
:100FC00003F3012D02D19689334006E0022D02D1B0
:100FD000168A334001E0968A33400C12012606FA45
:100FE00004F41688344013B10CB1012000E0002055
:100FF00070BDF0B50346002400260025002040F611
:101000006A17B94200D100BF1846C1F3421401F07B
:101010001F06012707FA06F5012C01D10C3004E068
:10102000022C01D1103000E014301AB107682F43B0
:10103000076002E00768AF430760F0BD2DE9F047A5
:1010400086B005460E460024A24600BFA1460027F2
:10105000B08900B100BF2F462C8A4CF6FF700440C7
:10106000F08804432C82AC894EF6F3100440B0881B
:1010700031890843718908430443AC81AC8A4FF637
:10108000FF400440B0890443AC8201A8FFF7DCFDB7
:101090001F48874202D1DDF810A001E0DDF80CA066
:1010A000A88900F4004040B10AEBCA0000EB0A1026
:1010B00031684900B0FBF1F807E00AEBCA0000EB29
:1010C0000A1031688900B0FBF1F86420B8FBF0F039
:1010D00004012009642101FB1089A88900F4004063
:1010E00040B1322000EBC900B0FBF1F000F0070086
:1010F000044308E0322000EB09106421B0FBF1F05A
:1011000000F00F0004432C8106B0BDE8F08700001A
:101110000038014001468888C0F308007047C1F3D9
:1011200008028280704770B506460C4600250CE028
:10113000615D3046FFF7F3FF00BF80213046FFF7C7
:1011400021FF0028F9D0681C85B2605D0028EFD12E
:1011500070BD000010B586B0044601213020FFF7B5
:1011600063FD01210805FFF74FFD4FF48050ADF8F6
:10117000140003208DF8160018208DF8170005A91B
:101180001B48FFF74FFC0420ADF814008DF8170042
:1011900005A91848FFF746FC01940020ADF80800A7
:1011A000ADF80A00ADF80C00ADF810000C20ADF859
:1011B0000E0001A91048FFF741FF35208DF800000F
:1011C00003208DF801008DF8020001208DF8030046
:1011D0006846FFF7D5FC012240F225510648FFF78B
:1011E00008FF01210448FFF7C1FE06B010BD000052
:1011F00000100140001401400050004000BFFEE715
:1012000000BF704710B56FF00400FFF723FE0A48D7
:1012100000680A49B0FBF1F00949087008460078F7
:1012200000EB4001C1EBC0104FF6FF7101EAC000B6
:101230000449088010BD00000000002000127A0060
:101240002A0000202C0000200146114A12884A433F
:101250004FF0E0235A6100229A611A46126942F067
:1012600001021A6100BF4FF0E022106900F0010294
:101270001AB100F48032002AF5D04FF0E022126952
:1012800022F001024FF0E0231A6100229A617047B8
:101290002C00002000BF054A128802F04002002AFC
:1012A000F9D0C2B2014B1B1D1A80704700380140B3
:1012B0008EB000BF0024342101A8FFF74CF84FF492
:1012C000A060FFF795FCFFF79DFF4FF4E13000F0C1
:1012D00077F9FFF737FCFFF7DFF84FF4E130FFF75E
:1012E00039FFFFF773FB044624B155A15948FFF7B6
:1012F0001AFF03E058A15748FFF715FF4FF4FA70A3
:10130000FFF7A2FFFFF70AFB0446012C04D156A108
:101310005048FFF708FF43E058A14E48FFF703FF8E
:101320005AA25BA15EA0FFF769F9044624B95EA149
:101330004848FFF7F8FE07E060A14648FFF7F3FED4
:10134000214663A0FEF76CFF65A368A26BA16EA0A7
:10135000FFF75EFA044624B96DA13E48FFF7E3FEAD
:1013600007E070A13B48FFF7DEFE214658A0FEF7DC
:1013700057FF71A071A373A273A1009073A0FFF730
:10138000ADF9044624B973A13248FFF7CCFE07E05B
:1013900075A13048FFF7C7FE21464DA0FEF740FF7C
:1013A00001A976A0FFF7E2F8044601A975A0FEF7AF
:1013B00037FF01A975A0FFF7D9F8044601A971A06C
:1013C000FEF72EFF01A973A0FFF7D0F8044601A98C
:1013D0006CA0FEF725FFFFF7F9FA04461CB1214681
:1013E0006EA0FEF71DFFFFF799FC04461CB12146D5
:1013F0006AA0FEF715FF32216E48FFF7F7F80020CC
:101400006D4908801AE04FF49670FFF71DFF6B4896
:10141000006808B9012000E00020684908606648BB
:10142000008805280ADB63490A48FFF77CFE322161
:101430006048FFF7DBF800205F490880E3E7000021
:1014400045786974204154204661696C65640D0AD1
:1014500000000000003801404578697420415420A4
:101460004F4B0D0A00000000456E74657220415418
:10147000204661696C65640D0A000000456E746564
:1014800072204154204F4B0D0A0000003430000000
:101490003139322E3136382E302E313137000000BE
:1014A0005443504300000000436F6E666967205349
:1014B0004F434B204F4B0D0A00000000436F6E66F8
:1014C000696720534F434B204661696C65642C006B
:1014D0004572726F72203D2025630D0A00000000E6
:1014E0003139322E3136382E302E31003235352E0C
:1014F0003235352E3235352E300000003139322E5E
:101500003136382E302E35005354415449430000B3
:10151000436F6E6669672057414E4E204F4B0D0A50
:1015200000000000436F6E6669672057414E4E20F1
:101530004661696C65642C004E4643004E4F4E4533
:101540000000000031000000380000003131353269
:1015500030300000436F6E66696720554152542059
:101560004F4B0D0A00000000436F6E6669672055FF
:10157000415254204661696C65642C0055415254B7
:10158000000000000D0A25730D0A000057414E4E61
:1015900000000000534F434B000000004661696C9F
:1015A00065642C2045727265722069732025630D75
:1015B0000A0000003800002028000020800122429C
:1015C00010B586B00446012144F20400FFF72CFB5D
:1015D0004FF40070ADF8140003208DF816001820A9
:1015E0008DF8170005A91C48FFF71CFA4FF480601E
:1015F000ADF8140004208DF8170005A91648FFF770
:1016000011FA25208DF8000003208DF801008DF8D7
:10161000020001208DF803006846FFF7B1FA01943B
:101620000020ADF80800ADF80A00ADF80C00ADF8E8
:1016300010000C20ADF80E0001A90848FFF7FEFCD1
:10164000012240F225510548FFF7D3FC0121034850
:10165000FFF78CFC06B010BD0008014000380140C7
:10166000300000000000000000000000000000004A
:10167000300000000000000000000000000000003A
:10168000300000000000000000000000000000002A
:1016900041542B000000000000000000000000008A
:1016A000000000000000000000000000000000003A
:1016B000000000000000000000000000000000002A
:1016C000000000000000000000000000000000001A
:1016D000000000000000000000000000000000000A
:1016E00041542B57414E4E3D0000000000000000C9
:1016F00000000000000000000000000000000000EA
:1017000000000000000000000000000000000000D9
:1017100000000000000000000000000000000000C9
:1017200000000000000000000000000000000000B9
:101730003000000000000000000000000000000079
:1017400041542B554152543D000000000000000060
:101750000000000000000000000000000000000089
:101760000000000000000000000000000000000079
:101770000000000000000000000000000000000069
:101780000000000000000000000000000000000059
:101790003000000000000000000000000000000019
:1017A00041542B534F434B3D00000000000000000C
:1017B0000000000000000000000000000000000029
:1017C0000000000000000000000000000000000019
:1017D0000000000000000000000000000000000009
:1017E00000000000000000000000000000000000F9
:1017F00030000000000000000000000000000000B9
:101800002018000800000020380000006C010008CB
:1018100058180008380000209806000088010008C9
:1018200000A24A04000000000000000001020304BE
:101830000607080900000000010203040102030476
:101840000607080902040608000000000000000066
:08185000000000000000000090
:0400000508000131BD
:00000001FF
