:020000040800F2
:10000000C8060020CD010008310800087F0500085F
:100010002D0800089D030008350F000800000000AF
:10002000000000000000000000000000470A000877
:10003000B103000800000000B9080008590B0008CF
:10004000E7010008E7010008E7010008E7010008F0
:10005000E7010008E7010008E7010008E7010008E0
:10006000E7010008E7010008E7010008E7010008D0
:10007000E7010008E7010008E7010008E7010008C0
:10008000E7010008E7010008E7010008E7010008B0
:10009000E7010008E7010008E7010008E7010008A0
:1000A000E7010008E7010008E7010008E701000890
:1000B000E7010008E7010008E7010008E701000880
:1000C000E7010008E7010008E7010008E701000870
:1000D000E7010008110C0008E7010008E70100082B
:1000E000E7010008E7010008E7010008E701000850
:1000F000E7010008E7010008E7010008E701000840
:10010000E7010008E7010008E7010008E70100082F
:10011000E7010008BD0B0008E7010008E70100083F
:10012000E7010008E7010008E7010008E70100080F
:1001300000F002F800F03AF80AA090E8000C8244BF
:100140008344AAF10107DA4501D100F02FF8AFF29C
:10015000090EBAE80F0013F0010F18BFFB1A43F0A5
:10016000010318470813000028130000103A24BFA9
:1001700078C878C1FAD8520724BF30C830C144BF0C
:1001800004680C607047000000230024002500264E
:10019000103A28BF78C1FBD8520728BF30C148BFEA
:1001A0000B6070471FB51FBD10B510BD00F05AF8A9
:1001B0001146FFF7F7FF00F067FF00F078F803B48F
:1001C000FFF7F2FF03BC00F0EFFE00000948804794
:1001D00009480047FEE7FEE7FEE7FEE7FEE7FEE729
:1001E000FEE7FEE7FEE7FEE704480549054A064B41
:1001F000704700005D0B000831010008C8000020B6
:10020000C8060020C8020020C802002070474FF036
:10021000000200B5134694469646203922BFA0E856
:100220000C50A0E80C50B1F12001BFF4F7AF090762
:1002300028BFA0E80C5048BF0CC05DF804EB890053
:1002400028BF40F8042B08BF704748BF20F8022B96
:1002500011F0804F18BF00F8012B704770477047AE
:1002600070477047754600F02BF8AE4605006946AA
:10027000534620F00700854618B020B5FFF7B4FFBD
:10028000BDE820404FF000064FF000074FF0000897
:100290004FF0000B21F00701AC46ACE8C009ACE818
:1002A000C009ACE8C009ACE8C0098D46704710B57C
:1002B0000446AFF300802046BDE81040FFF77FBF43
:1002C000004870476400002008B50121082000F0B4
:1002D00005FBC020ADF8000010208DF803000320BE
:1002E0008DF802006946054800F0BCF80120044979
:1002F00008600449C1F89C0108BD0000000C0140E1
:1003000098812142008021422DE9F04105460E46A8
:100310000527002432211E4800F042F800201D4924
:10032000088029461C4800F09BFD1AE0142000F0CC
:100330005FFE18480088012813DD15481549098813
:10034000405C0A280DD113480088401E1049085C03
:100350000D2806D10F48008840F400400D49088060
:1003600004E0381EA7F10101CFB2DFD100BF17B9F9
:100370000120BDE8F081002404E00548005D30550F
:10038000601CC4B2034800888442F6DB0020F0E71A
:1003900030000020280000200050004000BFFEE791
:1003A00003E04A1ED1B2002242540029F9D170471D
:1003B0007047000010B50A2432212548FFF7F0FFEE
:1003C00000202449088024A1244800F049FD0BE0C6
:1003D000052000F00DFE1E480078612804D11D485C
:1003E0000088012800D104E0201EA4F10101CCB254
:1003F000EED100BF0CB9012010BD32211448FFF727
:10040000CFFF00201349088015A1144800F028FDF3
:1004100015E0052000F0ECFD0E48008802280EDBF8
:100420000B4800782B2809D1094840786F2805D15E
:10043000074880786B2801D10020DDE704E0201E0A
:10044000A4F10101CCB2E4D100BF0120D4E7000047
:1004500030000020280000202B2B2B0000500040F3
:10046000610000002DE9F041024600250026002031
:1004700000230024002791F803C00CF00F0591F829
:1004800003C00CF0100CBCF1000F03D091F802C0B7
:100490004CEA050591F800C0BCF1000F31D014689A
:1004A00000202BE04FF0010C0CFA00F3B1F800C073
:1004B0000CEA03069E4220D183004FF00F0C0CFA89
:1004C00003F7BC4305FA03FC4CEA040491F803C0AB
:1004D000BCF1280F06D14FF0010C0CFA00FCC2F859
:1004E00014C00AE091F803C0BCF1480F05D14FF0E9
:1004F000010C0CFA00FCC2F810C0401C0828D1D333
:100500001460B1F800C0BCF1FF0F34DD5468002066
:100510002EE000F1080C4FF0010808FA0CF3B1F8D6
:1005200000C00CEA03069E4221D183004FF00F0C5D
:100530000CFA03F7BC4305FA03FC4CEA040491F8F7
:1005400003C0BCF1280F05D100F1080C08FA0CF823
:10055000C2F8148091F803C0BCF1480F07D100F134
:10056000080C4FF0010808FA0CF8C2F81080401C83
:100570000828CED35460BDE8F0810161704700BF08
:10058000FEE7000010B500200F4908600F48006822
:1005900020F070400D4908600846006840F0405067
:1005A000086000200A49C1F89C01022000F046FDC5
:1005B000012005490860022000F040FD00200449A8
:1005C000C1F8980110BD000098812142000C014043
:1005D0000080214210B500200F4908600F480068D4
:1005E00020F070400D4908600846006840F0405017
:1005F000086001200A49C1F89C01022000F01EFD9C
:10060000012005490860022000F018FD002004497F
:10061000C1F8980110BD000098812142000C0140F2
:100620000080214270B5054600241748006820F07C
:100630007040154908600846006840F000400860B6
:10064000002616E0002011490860022000F0F6FCA8
:1006500001200F49C1F898016006040E0B487C3850
:10066000006808B1601CC4B2012000F0E7FC701CF7
:10067000C6B2082EE6DB15B9FFF7ACFF01E0FFF7C5
:1006800081FF204670BD0000000C0140988121428E
:100690000080214270B504461548006820F0704083
:1006A000134908600846006840F040500860002088
:1006B00010490860002517E0E0090E49091D08608F
:1006C0006006040E022000F0B9FC01200A49C1F8BE
:1006D0009801022000F0B2FC0020064908600220C8
:1006E00000F0ACFC681CC5B2082DE5DB70BD000055
:1006F000000C0140988121420080214210B50F4832
:10070000006820F070400D4908600846006840F01D
:100710004050086001200A4908600A49C1F8980160
:10072000042000F08BFC002005490860042000F044
:1007300085FC00200349C1F8980110BD000C014060
:100740009C8121420080214210B50F48006820F0B2
:1007500070400D4908600846006840F0405008604D
:1007600000200A4908600A49C1F89C01042000F0F1
:1007700065FC0120054908600549C1F89C01042079
:1007800000F05CFC10BD0000000C0140988121428B
:100790000080214210B500241448006820F0704009
:1007A000124908600846006840F0004008600120D7
:1007B0000F49086000F042FC01200E49C1F8980181
:1007C00000F03CFC07E0601CC4B2FA2C03DDFFF72C
:1007D000BBFF012010BD0648803800680028F2D118
:1007E0000349091F086000BFF4E70000000C014046
:1007F0009C8121420080214208B50121102000F097
:100800006DF80F20ADF8000010208DF803000320D4
:100810008DF8020069460448FFF724FE0F210248C4
:10082000FFF7ABFE08BD00000010014000BFFEE76F
:100830007047000070B5002100230F22C47804B374
:10084000154C246804F4E064C4F5E064210AC1F1A5
:100850000403CA40447804FA03F184781440214325
:1008600009010E4C0678A155047804F01F050124F7
:10087000AC4005786D11AD0005F1E025C5F80041EB
:1008800009E0047804F01F050124AC40044D06780B
:10089000761145F8264070BD0CED00E000E400E064
:1008A00080E100E002490143024A11607047000004
:1008B0000000FA050CED00E07047000029B1064A7F
:1008C000D2690243044BDA6104E0034AD2698243ED
:1008D000014BDA61704700000010024029B1064A5E
:1008E00092690243044B9A6104E0034A926982438D
:1008F000014B9A61704700000010024030B50021A2
:100900000022002400232D4D6D6805F00C0121B15B
:10091000042905D0082923D105E0294D056022E0EE
:10092000274D05601FE0254D6D6805F47012234DBD
:100930006D6805F48034022505EB92421CB9214D07
:10094000554305600BE01D4D6D6805F400351DB184
:100950001C4D5543056002E0194D5543056002E00A
:10096000174D056000BF00BF144D6D6805F0F00124
:100970000909154D6B5C0568DD4045600F4D6D68DC
:1009800005F4E061090A104D6B5C4568DD40856047
:100990000A4D6D6805F46051C90A0B4D6B5C4568E2
:1009A000DD40C560054D6D6805F44041890B074D7C
:1009B0006B5CC568B5FBF3F5056130BD0010024006
:1009C00000127A0000093D001400002024000020DD
:1009D00070B506460C46154608E03046721C96B2C5
:1009E00000F007F804F8010B681EC5B2002DF4D121
:1009F00070BD70B504460026FFF780FEA020FFF70B
:100A000049FEFFF7C7FE2012FFF744FEFFF7C2FEC4
:100A10002546E11704EB11610912A4EB0121C8B2CC
:100A2000FFF738FEFFF7B6FEFFF768FEA120FFF7DD
:100A300031FEFFF7AFFE0020FFF7F4FD0646FFF79B
:100A400083FE304670BD704710B500F001F810BD50
:100A50000CB50020019000903348006840F48030CD
:100A60003149086000BF3048006800F40030009051
:100A70000198401C0190009818B90198B0F5A06F3A
:100A8000F1D12948006800F4003010B10120009035
:100A900001E0002000900098012843D1234800681D
:100AA00040F01000214908600846006820F003006B
:100AB00008600846006840F0020008601A48406874
:100AC000194948600846406848600846406840F454
:100AD000806048600846406820F47C104860084602
:100AE000406840F4E81048600846006840F08070B4
:100AF000086000BF0C48006800F000700028F9D0C2
:100B00000948406820F003000749486008464068EB
:100B100040F00200486000BF0348406800F00C004D
:100B20000828F9D10CBD000000100240002002404E
:100B3000042808D14FF0E021096941F004014FF089
:100B4000E022116107E04FF0E021096921F0040182
:100B50004FF0E022116170477047000010B5134854
:100B6000006840F0010011490860084640681049DB
:100B700008400E494860084600680E4908400B4985
:100B800008600846006820F4802008600846406835
:100B900020F4FE0048604FF41F008860FFF754FF08
:100BA0004FF000600449086010BD000000100240D2
:100BB0000000FFF8FFFFF6FE08ED00E010B540F280
:100BC0002551104800F059F8D8B10E4800F010F93E
:100BD000C4B20D48008800F4004090B90A4800886B
:100BE000C0F30D0009490C5407480088401C064911
:100BF000088008460088C0F30D00312801DD002080
:100C0000088010BD00500040280000203000002067
:100C100010B540F225510A4800F02FF870B108488D
:100C200000F0E6F8C4B22146064800F0E6F800BF3E
:100C30008021044800F014F80028F9D010BD00000D
:100C4000003801400050004021B1828942F4005236
:100C5000828104E082894DF6FF731A4082817047D9
:100C600002460020B1F5007F00D100BF13880B4081
:100C70000BB1012000E00020704770B5024600244F
:100C800000230025002040F66A16B14200D100BFC3
:100C9000C1F3421501F01F03012606FA03F3012DEB
:100CA00002D19689334006E0022D02D1168A3340E4
:100CB00001E0968A33400C12012606FA04F41688E5
:100CC000344013B10CB1012000E0002070BDF0B53C
:100CD0000346002400260025002040F66A17B9428A
:100CE00000D100BF1846C1F3421401F01F060127CE
:100CF00007FA06F5012C01D10C3004E0022C01D1D9
:100D0000103000E014301AB107682F43076002E08A
:100D10000768AF430760F0BD2DE9F04786B0054690
:100D20000E460024A24600BFA1460027B08900B1AC
:100D300000BF2F462C8A4CF6FF700440F088044315
:100D40002C82AC894EF6F3100440B08831890843F8
:100D5000718908430443AC81AC8A4FF6FF400440DC
:100D6000B0890443AC8201A8FFF7C8FD1F48874241
:100D700002D1DDF810A001E0DDF80CA0A88900F494
:100D8000004040B10AEBCA0000EB0A10316849008C
:100D9000B0FBF1F807E00AEBCA0000EB0A1031687B
:100DA0008900B0FBF1F86420B8FBF0F004012009E1
:100DB000642101FB1089A88900F4004040B1322071
:100DC00000EBC900B0FBF1F000F00700044308E0BD
:100DD000322000EB09106421B0FBF1F000F00F00AD
:100DE00004432C8106B0BDE8F087000000380140C4
:100DF00001468888C0F308007047C1F3080282806A
:100E000070472DE9F04107460D461646002400BF05
:100E10000CE0295D3846FFF7F0FF00BF802138461F
:100E2000FFF71EFF0028F9D0601C84B2B442F0DB4B
:100E30000D213846FFF7E1FF00BF80213846FFF75C
:100E40000FFF0028F9D00A213846FFF7D6FF00BF70
:100E500080213846FFF704FF0028F9D0BDE8F08173
:100E600070B506460C4600250CE0615D3046FFF784
:100E7000C4FF00BF80213046FFF7F2FE0028F9D002
:100E8000681C85B2605D0028EFD170BD10B586B0DA
:100E9000044601213020FFF721FD01210805FFF75D
:100EA0000DFD4FF48050ADF8140003208DF81600AE
:100EB00018208DF8170005A91B48FFF7D3FA042066
:100EC000ADF814008DF8170005A91848FFF7CAFA05
:100ED00001940020ADF80800ADF80A00ADF80C0050
:100EE000ADF810000C20ADF80E0001A91048FFF776
:100EF00013FF35208DF8000003208DF801008DF8D8
:100F0000020001208DF803006846FFF793FC0122E0
:100F100040F225510648FFF7DAFE01210448FFF7A9
:100F200093FE06B010BD0000001001400014014007
:100F30000050004000BFFEE770B505460C4616465F
:100F400006E02178284600F009F8681C85B2641C88
:100F5000301EA6F10101CEB2F3D170BD70B50446CA
:100F60000E46FFF7CBFBA020FFF794FBFFF712FC28
:100F70002012FFF78FFBFFF70DFC2546E11704EB6E
:100F800011610912A4EB0121C8B2FFF783FBFFF73F
:100F900001FC3046FFF77EFBFFF7FCFBFFF7D4FBBD
:100FA0000A2000F025F870BD00BF704710B56FF043
:100FB0000400FFF7BDFD0A4800680A49B0FBF1F0E4
:100FC000094908700846007800EB4001C1EBC010E9
:100FD0004FF6FF7101EAC0000449088010BD00000F
:100FE0000000002000127A002A0000202C000020BF
:100FF0000146114A12884A434FF0E0235A61002209
:101000009A611A46126942F001021A6100BF4FF05C
:10101000E022106900F001021AB100F48032002AC7
:10102000F5D04FF0E022126922F001024FF0E023E8
:101030001A6100229A6170472C0000200146114A73
:1010400012784A434FF0E0235A6100229A611A460F
:10105000126942F001021A6100BF4FF0E0221069EC
:1010600000F001021AB100F48032002AF5D04FF0EE
:10107000E022126922F001024FF0E0231A610022FF
:101080009A6170472A000020ADF5247D00240025D8
:1010900064218BA8FFF7BBF8642172A8FFF7B7F8AB
:1010A000642159A8FFF7B3F8642140A8FFF7AFF80F
:1010B000642127A8FFF7ABF864210EA8FFF7A7F873
:1010C000342101A8FFF7A3F832264FF4A060FFF700
:1010D000E9FBFFF76BFF4FF4E13000F077F9FFF722
:1010E0008BFBFFF7F1F84FF4E130FFF7CFFE00BFC5
:1010F00005E004F130008BA90855601CC4B20A2C2D
:10110000F7DB002405E004F1410072A90855601CDA
:10111000C4B20A2CF7DB002405E004F1610059A9F0
:101120000855601CC4B20A2CF7DB64228BA900208E
:10113000FFF702FF642272A94FF48070FFF7FCFEF4
:10114000642259A94FF40070FFF7F6FE00205149C0
:101150000860322240A9FFF73BFC322227A94FF456
:101160008070FFF735FC32220EA94FF40070FFF7B4
:101170002FFC00204849C1F888010A2240A94748AD
:10118000FFF73FFE0A2227A94448FFF73AFE0A224A
:101190000EA94248FFF735FEFFF70CF9054625B9C1
:1011A0003FA13E48FFF75CFE03E042A13B48FFF74A
:1011B00057FE314601A8FFF7F3F844A13748FFF77F
:1011C0004FFE01A947A0FFF79FF8054601A9334844
:1011D000FFF746FE314601A8FFF7E2F84FA12F487E
:1011E000FFF73EFE01A953A0FFF78EF8054601A9BF
:1011F0002A48FFF735FE314601A8FFF7D1F855A17F
:101200002648FFF72DFE01A958A0FFF77DF80546F7
:1012100001A92248FFF724FE314601A8FFF7C0F8D4
:1012200001A95AA0FFF770F8054601A91B48FFF76E
:1012300017FE25B958A11948FFF712FE03E05BA17C
:101240001648FFF70DFE32215E48FFF7A9F800208F
:101250005D4908801CE04FF49670FFF7C9FE0D4809
:10126000001F006808B9012000E000200949091F9B
:1012700008605548008805280ADB52490748FFF7EF
:10128000EFFD32214F48FFF78BF800204E490880D0
:10129000E1E70000840122420000224200380140C0
:1012A000456E746572204154204D6F6465204F4B2C
:1012B0000D0A0000456E746572204154204D6F6424
:1012C00065204661696C65640D0A00000D0A2031D5
:1012D000746820436F6E6669672061636B3A0D0A1C
:1012E0000000000041542B57414E4E3D5354415491
:1012F00049432C3139322E3136382E302E352C32AE
:1013000035352E3235352E3235352E302C313932B9
:101310002E3136382E302E310D0A00000D0A2032C3
:10132000746820436F6E6669672061636B3A0D0ACB
:101330000000000041542B554152543D31313532AB
:1013400030302C382C312C4E4F4E452C4E46430D10
:101350000A0000000D0A2033746820436F6E66692E
:10136000672061636B3A0D0A0000000041542B5363
:101370004F434B3D544350432C3139322E31363894
:101380002E302E3131372C34300D0A0041542B458C
:101390004E544D0D0A0000004578697420415420D8
:1013A0004D6F6465204F4B0D0A000000457869744D
:1013B000204154204D6F6465204661696C65640D61
:1013C0000A000000300000202800002010B586B080
:1013D0000446012144F20400FFF780FA4FF4007044
:1013E000ADF8140003208DF8160018208DF81700B2
:1013F00005A91C48FFF736F84FF48060ADF81400DB
:1014000004208DF8170005A91648FFF72BF82520B2
:101410008DF8000003208DF801008DF802000120F6
:101420008DF803006846FFF705FA01940020ADF837
:101430000800ADF80A00ADF80C00ADF810000C2063
:10144000ADF80E0001A90848FFF766FC012240F242
:1014500025510548FFF73BFC01210348FFF7F4FB4A
:1014600006B010BD00080140003801408C1400088F
:1014700000000020300000006C010008BC140008CF
:1014800030000020980600008801000800A24A04ED
:101490000000000000000000010203040607080924
:1014A000000000000102030401020304060708090A
:0C14B0000204060800000000000000001C
:0400000508000131BD
:00000001FF
