:0F1295007D527C03ED1D70011C144C70F7DFF1CE
:0112A4002227
:0E12B500E4F5C7F5C5F5C675C3FF75C4FF2285
:1010BB00AD07AC06C2AF75C78375C501ECF5C3AF01
:1010CB00058FC475C65A75C6A500E5C21204D30DAB
:1010DB00BD00010C740129F9E43AFA90029F74FFE8
:0F10EB00F5F01204E545F070D31212B5D2AF2222
:10125A00AD07AC06C2AFECF5C3AF058FC475C78343
:10126A0075C50375C65A75C6A5001212B5D2AF2246
:1010FA00AD07AC06C2AF75C78375C502ECF5C3AFC1
:10110A00058FC412048DF5C275C65A75C6A5000DA1
:10111A00BD00010C740129F9E43AFA9002A674FFA1
:0F112A00F5F01204E545F070D31212B5D2AF22E2
:10080000EFD3940540037F012212048DFED394039D
:1008100040037F0222EF7041EE700B900001120442
:10082000A6F45293529412048DB4010B900001125D
:1008300004A64293F4529412048DFEB4020A90006E
:10084000011204A642934294EEB4030D90000112EB
:1008500004A6FEF45293EE4294EF64017043120436
:100860008DFE700B9000011204A6F452915292EE8C
:10087000B4010B9000011204A64291F452921204AA
:100880008DB4020A9000011204A642914292120411
:100890008DB4030D9000011204A6FEF45291EE42B5
:1008A00092EF6402704312048DFE700B90000112EF
:1008B00004A6F452955296EEB4010B900001120476
:1008C000A64295F4529612048DB4020A90000112C9
:1008D00004A64295429612048DB4030D90000112B5
:1008E00004A6FEF45295EE4296EF640370431204A0
:1008F0008DFE700B9000011204A6F452B152B2EEBC
:10090000B4010B9000011204A642B1F452B21204D9
:100910008DB4020A9000011204A642B142B2120440
:100920008DB4030D9000011204A6FEF452B1EE4204
:10093000B2EF6404704312048DFE700B900001123C
:1009400004A6F452B352B4EEB4010B9000011204A9
:10095000A642B3F452B412048DB4020A90000112FC
:1009600004A642B342B412048DB4030D90000112E8
:1009700004A6FEF452B3EE42B4EF640570431204D1
:100980008DFF700B9000011204A6F452C952CAEFF9
:10099000B4010B9000011204A642C9F452CA120419
:1009A0008DB4020A9000011204A642C942CA120480
:1009B0008DB4030D9000011204A6FFF452C9EF425A
:0409C000CA7F0022C8
:0D12C3007F577E00EF1F70011E144E70F764
:0112D00022FB
:02119E00AD079B
:1011A000C2AFC2B11212C3E4FCED30E004D2B18090
:1011B00002C2B1EDC313FD1212C30CECB408EAD2A3
:0911C000B1D2AF1212C30212C336
:1012A5008F828E83E493FF600612119EA380F52240
:1009C400AD07EDD3940240037F0122ED600241574D
:1009D400C28C9000021204A6B40104D2A98002C2FF
:1009E400A99000011204A6B40104D2B98002C2B9CC
:1009F40012048DFED3940340037F0222E58954FC44
:100A04004EF5899000031204A6FFB40103538E7FB0
:100A1400EF7003438E80EFB40205438904800353CF
:100A240089FB9000041204A6B40105438F018003DE
:100A3400538FFE9000051204FBE5F0F58C90000541
:100A44001204FBF58A9000071204A6B40102D28CAA
:100A54007F0022ED6401600241E1C28E9000021227
:100A640004A6B40104D2AB8002C2AB90000112040C
:100A7400A6B40104D2BB8002C2BB12048DFEC3948F
:100A84000340037F0222E58954CF4EF58990000389
:100A94001204A6FFB40103538EBFEF7003438E40CC
:100AA400EFB4020543894080035389BF90000412C8
:100AB40004A6B40105438F028003538FFD90000503
:100AC4001204FBE5F0F58D9000051204FBF58B9004
:100AD40000071204A6B40102D28E7F0022ED640244
:100AE4007074538EEF9000021204A6B4010543AF54
:100AF40004800353AFFB9000031204A6FED39402B8
:100B040040037F0222EEB40103538EFB90000312D4
:100B140004A67003438E049000031204A6B40205D5
:100B2400438E088003538EF79000041204A6B40188
:100B340005438F048003538FFB9000051204FBFDD3
:100B4400ACF0ECF5D68DD79000071204A6B40103DF
:090B5400438E107F00227F022273
:1000260090021EEBF0A3EAF0A3E9F090021DEFF0B8
:1000360064016002413690000004F0E4A3F0A3F0EE
:10004600A3F0A3F0A3F0A3F0900221F0900221E028
:10005600FFC394805014740E2FF582E43401F583A7
:10006600E4F0900221E004F080E2E4900221F090B6
:100076000221E0FFC394805014740E2FF582E434FD
:1000860000F583E4F0900221E004F080E290021E85
:10009600E0FBA3E0FAA3E0F912048DD394C0400379
:1000A6007F022290000A1204A6B40104D2BC800288
:1000B600C2BC12048DFFE598543F4FF598EF64C01B
:1000C6006007EF6440600221B09000021206257FAF
:1000D600007E307D2A7C0012056F900222120655A2
:1000E600E4FFFE7D01FC900222E0F8A3E0F9A3E024
:1000F600FAA3E0FBC312060140037F02229002220C
:10010600E0F8A3E0F9A3E0FAA3E0FBC3E49BFFE475
:100116009AFE740199FDE498FC900222120655900D
:10012600021EE0FBA3E0FAA3E0F99000011204A688
:10013600FB64017038C28E538EFE5389BF5389CF3C
:10014600438E40900222E0FCA3E0FDA3E0FEA3E084
:10015600FF78081206128F8D900222A3A3A3E0F562
:100166008BC2AB5389BF538FFDD28E8076EB640270
:100176007035538EEF438E01538EF7438E049002F3
:1001860022E0FCA3E0FDA3E0FEA3E0FF7808120650
:10019600128FD6900222A3A3A3E0F5D753AFFB5349
:1001A6008EF7438E10803C7F022290021EE0FBA356
:1001B600E0FAA3E0F912048DFF7013900008120410
:1001C600A6B40105438E20801A538EDF8015EFB446
:1001D60080119000081204A6B401054387808003AD
:1001E60053877F90021EE0FBA3E0FAA3E0F990009C
:1001F600091204A6B40104D2AC8002C2AC90000776
:100206001204A6B40104D29C8002C29C90000B1278
:1002160004A654C0FFE5A2543F4FF5A290000C126D
:1002260004A6B4010543971080035397EF7F00227D
:1002360090021DE06402600261969000077402F06D
:10024600E4A3F0A3F0A3F0A3F0A3F0A3F09002219F
:10025600F0900221E0FFC394805014748E2FF58233
:10026600E43401F583E4F0900221E004F080E2E456
:10027600900221F0900221E0FFC394805014748E06
:100286002FF582E43400F583E4F0900221E004F0D7
:1002960080E290021EE0FBA3E0FAA3E0F912048DCF
:1002A600FF64C06007EF64406002615690000A1266
:1002B60004A6B4010543B501800353B5FE12048DAF
:1002C600B4C005439A808003539A7F9000021206B9
:1002D600257F007E307D2A7C0012056F9002221257
:1002E6000655E4FFFE7D01FC900222E0F8A3E0F94A
:1002F600A3E0FAA3E0FBC312060140037F022290AB
:100306000222E0F8A3E0F9A3E0FAA3E0FBC3E49B32
:10031600FFE49AFE740199FDE498FC90022212060D
:1003260055538EEF538EF7438E04900222E0FCA3C2
:10033600E0FDA3E0FEA3E0FF78081206128FD69038
:100346000222A3A3A3E0F5D753AFFB438E1080038D
:100356007F022290021EE0FBA3E0FAA3E0F99000E0
:10036600091204A6B4010543AF01800353AFFE9002
:1003760000071204A6B40105439A108003539AEFAE
:1003860090000B1204A65401FFE5BA54FE4FF5BACD
:010396002244
:1011C900900002E0240EF582E43401F583EFF090FB
:1011D9000002E004F0C394804002E4F0900003E0D0
:0711E900700404F0D299220A
:1007D700900009E0248EF582E43401F583EFF09070
:1007E7000009E004F0C394804002E4F090000AE0BE
:0807F700700504F0439A022290
:1010620041025A00410259004102740041025B00F0
:10107200410273005702420000000000000000001D
:101082000000000000000000000000000000570205
:101092005C000000000000000000000000000000F2
:0810A200000000000000000046
:100EF400120CA11212371211F07F007EC2121139A6
:100F04007B017A0279427F701206C8D2C17FF41243
:100F14001295C2C17FF4121295D2C17FF4121295B8
:100F2400D2AFE4900270F090025AE06012B2C1E4D1
:100F3400F07B017A027976120B5DE4900275F090F1
:100F44000259E06007E4F07F32121295900274E0D7
:100F5400600DE4F07B017A02795C7F711206C8901F
:100F6400025BE06002E4F0900273E060BAE4F080B7
:010F7400B6C6
:10121400AA55FF212000FF0000000000000000008C
:1012240000000000000000000000000000000000BA
:03123400000000B7
:0810AA004102750041029900AA
:0811390090020EEEF0A3EFF0AE
:10114100A37440F0A37402F0A31206610001C2006F
:101151009002177401F0E4A3F0A304F0A3F0A374C8
:1011610040F0E4A3F07B017A0279107F01020026AE
:03002300020F7554
:0F0F7500C0E0C083C082C0D075D000C006C007E6
:100F8400309862AF99900299E0FE04F074762EF5E1
:100F940082E43402F583EFF0900275E0FE640260AF
:100FA40042900299E4F0EE14600F047036EF64AAE4
:100FB400703190027504F0802AEFB45518900275D0
:100FC4007402F0A374AAF0A37455F0900299740209
:100FD400F0D28E800EEF900275B4AA057401F080F1
:050FE40002E4F0C298D8
:0D0FE900D007D006D0D0D082D083D0E03227
:100D9700E49002A8F0A3F0A3F0A3EBF0A3EAF0A37A
:100DA700E9F012048DB4AA159002ABE0FBA3E0FAB8
:100DB700A3E0F99000011204A6645560037F0122A5
:100DC7009000021204A69002A9F07E0029F9EE3ADB
:100DD700FA9000041204A6B4550A9000051204A65E
:100DE70064AA60037F02229002A9E0A3F09002A800
:100DF7007403F09002A9E02403FFE433FE9002A8F5
:100E0700E0C39FEE6480F874809850299002AAE0AE
:100E1700FFA3E0FBA3E0FAA3E0F99002A8E0F582C4
:100E27007583001204A6FEEF6E9002AAF09002A846
:100E3700E004F080BE9002ABE0FBA3E0FAA3E0F988
:100E47009002A9E0FF7E00E92FF9EE3AFA9000033D
:100E57001204A6FF9002AAE06F60037F03227F00BF
:010E67002268
:0B0B5D0090020EEBF0A3EAF0A3E9F019
:100B6800A3E0FBA3E0FAA3E0F99000061204A6FEB6
:100B780090020EE0F9A3E0FAA3E0A3C9F0A3EAF01B
:100B8800A3E9F0EE24A97002813914700281671478
:100B98007002817214700281792405600281A0E4D8
:100BA800FF900211E0FBA3E0FAA3E02407F9E43A7E
:100BB800FAEF7C0029F9EC3AFA12048DFE745C2FE6
:100BC800F582E43402F583EEF00FEFB406D3E4FFC8
:100BD800900211E0FBA3E0FAA3E02413F9E43AFA47
:100BE800EF7C0029F9EC3AFA12048DFE74682FF5AF
:100BF80082E43402F583EEF00FEFB408D3E4FF90FB
:100C08000211E0FBA3E0FAA3E0241EF9E43AFAEFAC
:100C18007C0029F9EC3AFA12048DFE74732FF582E0
:100C2800E43402F583EEF00FEFB403D3900273803F
:100C38003C900211E0FBA3E0FAA3E0F99000071250
:100C480004A6FF900214F09000081204A6FE900279
:100C580015F0900271EFF0A3EEF090025B800E7B2E
:100C6800017A02798B7F700206C89002747401F0D1
:100C780022900211E0FBA3E0FAA3E0F9900007122A
:100C880004A6900214F09000081204A6900215F031
:080C9800900256F0900270F08A
:010CA0002231
:0506C800900216EFF0A6
:1006CD00900218EBF0A3EAF0A3E9F0E4A3F0781C94
:1006DD007C027D017BFF7A127914FE7F2312046761
:1006ED00900216E0FFB47006A37402F0800AEFB416
:1006FD0071069002177417F0900217E0240490020F
:10070D001EF0900216E0900222F0E490021BF09091
:10071D000217E0FF90021BE0FEC39F5028900218C5
:10072D00E0FBA3E0FAA3E0F98E827583001204A624
:10073D00FF74232EF582E43402F583EFF090021B53
:10074D00E004F080CA90021EE0FF90021B7403F0DB
:10075D0090021EE02403FDE433FC90021BE0FEC377
:10076D009DEC6480F87480985015741C2EF582E40D
:10077D003402F583E06FFF90021BE004F080D1900E
:10078D00021BE0241CF582E43402F583EFF09002A5
:10079D001BE004F0E0241CF582E43402F58374556B
:1007AD00F090021BE004F0E0241CF582E43402F525
:1007BD008374AAF090021BE004F07B017A02791C8D
:0A07CD00900217E0240AFD021171EA
:0C000E00C2AC8F993099FDC299D2AC228F
:10117100E4FE90023FEBF0A3EAF0A3E9F0EEC39D99
:10118100501A90023FE0FBA3E0FAA3E0F98E8275CA
:0C11910083001204A6FF12000E0E80E185
:01119D00222F
:0810B2004102AF004102AE0053
:10123700E490020EF0A304F0A3F0A3F0E4A3F0A35C
:1012470074DCF0A3E4F0A304F0FB7A02790EE4FF68
:031257000209C4C5
:1011F00090020E7401F0E4A3F0A304F0E4A3F0A3C2
:10120000F0A37450F0A3E4F0A304F0FB7A02790E8B
:04121000FF0209C40C
:03000B00021000E0
:10100000C0E0C0F0C083C082C0D075D000C000C0B6
:10101000079002AFE004F0E0C3940A400EE4F090C1
:1010200002AEE004F09002597401F0900270E060AA
:101030001D75F005A4FF9002AEE0C39FE5F064804B
:10104000F8748098400D9002747401F08000900252
:10105000AEE4F0D007D000D0D0D082D083D0F0D092
:02106000E0327C
:03001B0002127A54
:10127A00C0E0C083C082C28E90025A7401F0758D9C
:0B128A0050758B00D082D083D0E03282
:100CA10090020F74DFF090020E7403F07B017A0260
:100CB100790EE4FF12080090020F7420F0E4900214
:100CC1000EF07B017A02790EFF12080090020F7478
:100CD10025F0E490020EF07B017A02790E7F011279
:100CE100080090020F74DAF090020E7403F07B0199
:100CF1007A02790E7F0112080090020F7480F09041
:100D0100020E7403F07B017A02790E7F0212080051
:100D110090020F7403F0E490020EF07B017A0279E5
:100D21000E7F0212080090020F74C0F0E490020ED0
:100D3100F07B017A02790E7F0312080090020F7492
:100D4100E2F090020E7403F07B017A02790E7F04C7
:100D510012080090020F741CF0E490020EF07B0167
:100D61007A02790E7F0412080090020F740CF09041
:100D7100020E7403F07B017A02790E7F05120800DE
:100D810090020F7410F0E490020EF07B017A027968
:060D91000E7F05020800C0
:03000000020E6885
:0C0E6800787FE4F6D8FD758107020EAF1C
:10039700E709F608DFFA8046E709F208DFFA803E48
:1003A70088828C83E709F0A3DFFA8032E309F60835
:1003B700DFFA8078E309F208DFFA807088828C839D
:1003C700E309F0A3DFFA806489828A83E0A3F60851
:1003D700DFFA805889828A83E0A3F208DFFA804C2B
:1003E70080D280FA80C680D4806980F28033801002
:1003F70080A680EA809A80A880DA80E280CA80336B
:1004070089828A83ECFAE493A3C8C582C8CCC583E2
:10041700CCF0A3C8C582C8CCC583CCDFE9DEE780B2
:100427000D89828A83E493A3F608DFF9ECFAA9F031
:10043700EDFB2289828A83ECFAE0A3C8C582C8CC87
:10044700C583CCF0A3C8C582C8CCC583CCDFEADEA0
:10045700E880DB89828A83E493A3F208DFF980CC02
:1004670088F0EF60010E4E60C388F0ED2402B404FB
:100477000050B9F582EB2402B4040050AF232345A2
:0604870082239003E773DD
:10048D00BB010689828A83E0225002E722BBFE026D
:09049D00E32289828A83E49322A0
:1004A600BB010CE58229F582E5833AF583E022500B
:1004B60006E92582F8E622BBFE06E92582F8E22255
:0D04C600E58229F582E5833AF583E493226F
:1004D300BB010689828A83F0225002F722BBFE0108
:0204E300F32202
:1004E500C5F0F8A3E028F0C5F0F8E58215827002A2
:0604F5001583E038F0223F
:1004FB00BB0110E58229F582E5833AF583E0F5F03F
:10050B00A3E0225009E92582F886F008E622BBFE1B
:10051B000AE92582F8E2F5F008E222E5832AF58361
:08052B00E993F5F0A3E9932226
:1005330075F008758200EF2FFFEE33FECD33CDCC7F
:1005430033CCC58233C5829BED9AEC99E582984002
:100553000CF582EE9BFEED9AFDEC99FC0FD5F0D6DF
:10056300E4CEFBE4CDFAE4CCF9A88222B800C1B909
:100573000059BA002DEC8BF084CFCECDFCE5F0CB47
:10058300F97818EF2FFFEE33FEED33FDEC33FCEB80
:1005930033FB10D703994004EB99FB0FD8E5E4F93B
:1005A300FA227818EF2FFFEE33FEED33FDEC33FC28
:1005B300C933C910D7059BE99A4007EC9BFCE99A1C
:1005C300F90FD8E0E4C9FAE4CCFB2275F010EF2F61
:1005D300FFEE33FEED33FDCC33CCC833C810D70761
:1005E3009BEC9AE899400AED9BFDEC9AFCE899F89C
:0E05F3000FD5F0DAE4CDFBE4CCFAE4C8F9222F
:10060100EB9FF5F0EA9E42F0E99D42F0E89C45F04F
:0106110022C6
:10061200E8600FECC313FCED13FDEE13FEEF13FFC6
:03062200D8F122EA
:10062500BB010DE58229F582E5833AF58302069F34
:100635005007E92582F8020692BBFE07E92582F8F4
:100645000206ABE58229F582E5833AF5830206B811
:0C065500ECF0A3EDF0A3EEF0A3EFF02218
:10066100A8828583F0D083D0821206781206781290
:100671000678120678E473E493A3C583C5F0C583B5
:10068100C8C582C8F0A3C583C5F0C583C8C582C8E3
:010691002246
:100E7400020EF4E493A3F8E493A34003F68001F292
:100E840008DFF48029E493A3F85407240CC8C3337F
:100E9400C4540F4420C8834004F456800146F6DF4E
:100EA400E4800B0102040810204080901062E47E6C
:100EB400019360BCA3FF543F30E509541FFEE49343
:100EC400A360010ECF54C025E060A840B8E493A30A
:100ED400FAE493A3F8E493A3C8C582C8CAC583CA35
:100EE400F0A3C8C582C8CAC583CADFE9DEE780BEED
:0110BA000035
:0D069200E6FB08E6F908E6FA08E6CBF822D8
:0C069F00E0F8A3E0F9A3E0FAA3E0FB22DE
:0D06AB00E2FB08E2F908E2FA08E2CBF822CF
:1006B800E493F8740193F9740293FA740393FB2298
:00000001FF
