:020000040800F2
:1000000088080020CD0100088D090008A506000819
:100010008909000809030008ED120008000000002B
:10002000000000000000000000000000030C0008B9
:100030008505000800000000150A00085D0E000894
:10004000E7010008E7010008E7010008E7010008F0
:10005000E7010008E7010008E7010008E7010008E0
:10006000E7010008E7010008E7010008E7010008D0
:10007000E7010008E7010008E7010008E7010008C0
:10008000E7010008E7010008E7010008E7010008B0
:10009000E7010008E7010008E7010008E7010008A0
:1000A000E7010008E7010008E7010008E701000890
:1000B000E7010008E7010008E7010008E701000880
:1000C000E7010008E7010008E7010008E701000870
:1000D000E7010008E7010008E7010008E701000860
:1000E000E7010008E7010008E7010008E701000850
:1000F000E7010008E7010008E7010008E701000840
:10010000E7010008E7010008E7010008E70100082F
:10011000C10E0008250F0008E7010008E7010008EC
:10012000E7010008E70100081D030008E7010008D7
:1001300000F002F800F03AF80AA090E8000C8244BF
:100140008344AAF10107DA4501D100F02FF8AFF29C
:10015000090EBAE80F0013F0010F18BFFB1A43F0A5
:10016000010318475813000078130000103A24BF09
:1001700078C878C1FAD8520724BF30C830C144BF0C
:1001800004680C607047000000230024002500264E
:10019000103A28BF78C1FBD8520728BF30C148BFEA
:1001A0000B6070471FB51FBD10B510BD00F05AF8A9
:1001B0001146FFF7F7FF01F00BF900F078F803B4F0
:1001C000FFF7F2FF03BC01F093F8000009488047F5
:1001D00009480047FEE7FEE7FEE7FEE7FEE7FEE729
:1001E000FEE7FEE7FEE7FEE704480549054A064B41
:1001F00070470000610E00083101000888020020ED
:1002000088080020880400208804002070474FF0F0
:10021000000200B5134694469646203922BFA0E856
:100220000C50A0E80C50B1F12001BFF4F7AF090762
:1002300028BFA0E80C5048BF0CC05DF804EB890053
:1002400028BF40F8042B08BF704748BF20F8022B96
:1002500011F0804F18BF00F8012B704770477047AE
:1002600070477047754600F02BF8AE4605006946AA
:10027000534620F00700854618B020B5FFF7B4FFBD
:10028000BDE820404FF000064FF000074FF0000897
:100290004FF0000B21F00701AC46ACE8C009ACE818
:1002A000C009ACE8C009ACE8C0098D46704710B57C
:1002B0000446AFF300802046BDE81040FFF77FBF43
:1002C000004870472402002008B50121082000F0F2
:1002D000D3FBC020ADF8000010208DF803000320F0
:1002E0008DF802006946054800F04DF901200449E7
:1002F00008600449C1F89C0108BD0000000C0140E1
:10030000988121420080214200BFFEE703E04A1E9F
:10031000D1B2002242540029F9D1704710B50848E3
:1003200000F0D6F850B1064800F00EF80548007805
:1003300010B901200349087000F008F910BD000051
:10034000000200102800002000F0805111B1034984
:10035000086001E002494860704700000404024060
:100360000000024021B1026842F00102026004E094
:1003700002684FF6FE731A400260704701684FF63C
:10038000FE72114001600021016041608160C16026
:100390004B49884208D14A490839496841F00F0160
:1003A000474A083A51608AE045491431884208D1E9
:1003B00043490839496841F0F001414A083A51601F
:1003C0007DE03F492831884208D13D4908394968D4
:1003D00041F470613A4A083A516070E038493C3162
:1003E000884208D136490839496841F47041344A95
:1003F000083A516063E032495031884208D13049AF
:100400000839496841F470212D4A083A516056E094
:100410002B496431884208D129490839496841F497
:100420007001274A083A516049E0254978318842ED
:1004300008D123490839496841F07061204A083AD7
:1004400051603CE01F49884206D1011F096841F014
:100450000F01021F116032E01A491431884208D19D
:100460001849091F096841F0F001164A121F11606E
:1004700025E014492831884208D11249091F09682A
:1004800041F470610F4A121F116018E00D493C31B0
:10049000884208D10B49091F096841F47041094A93
:1004A000121F11600BE007495031884207D10549FE
:1004B000091F096841F47021024A121F1160704738
:1004C00008000240080402400146486880B27047B4
:1004D00001460020002201F0805313B1054B1A6839
:1004E00001E0054B1A6802EA01030BB1012000E0AC
:1004F0000020704700040240000002401AB1036867
:100500000B43036002E003688B430360704710B540
:100510000022026847F6F0739A430C6A8B68234303
:100520000C6923434C6923438C692343CC692343DF
:100530004C6A23438C6A23431A430260CB684360AE
:100540000B6883604B68C36010BD000010B50A489B
:10055000FFF7FAFE00210948FFF704FF08480749A2
:100560000C310860FA200549091D08600121034883
:10057000FFF7F8FE10BD000000020010300402403A
:100580002A01002070472DE9F0410246002500268F
:10059000002000230024002791F803C00CF00F0571
:1005A00091F803C00CF0100CBCF1000F03D091F8CF
:1005B00002C04CEA050591F800C0BCF1000F31D033
:1005C000146800202BE04FF0010C0CFA00F3B1F896
:1005D00000C00CEA03069E4220D183004FF00F0CAE
:1005E0000CFA03F7BC4305FA03FC4CEA040491F847
:1005F00003C0BCF1280F06D14FF0010C0CFA00FC2F
:10060000C2F814C00AE091F803C0BCF1480F05D14C
:100610004FF0010C0CFA00FCC2F810C0401C082876
:10062000D1D31460B1F800C0BCF1FF0F34DD5468C1
:1006300000202EE000F1080C4FF0010808FA0CF33E
:10064000B1F800C00CEA03069E4221D183004FF0AE
:100650000F0C0CFA03F7BC4305FA03FC4CEA040444
:1006600091F803C0BCF1280F05D100F1080C08FA7D
:100670000CF8C2F8148091F803C0BCF1480F07D100
:1006800000F1080C4FF0010808FA0CF8C2F81080CD
:10069000401C0828CED35460BDE8F081416170470A
:1006A0000161704700BFFEE710B500200F490860E8
:1006B0000F48006820F070400D4908600846006847
:1006C00040F04050086000200A49C1F89C01022017
:1006D00000F058FE012005490860022000F052FE9B
:1006E00000200449C1F8980110BD00009881214202
:1006F000000C01400080214210B500200F49086025
:100700000F48006820F070400D49086008460068F6
:1007100040F04050086001200A49C1F89C010220C5
:1007200000F030FE012005490860022000F02AFE9A
:1007300000200449C1F8980110BD000098812142B1
:10074000000C01400080214270B505460024174886
:10075000006820F07040154908600846006840F0C5
:1007600000400860002616E00020114908600220C1
:1007700000F008FE01200F49C1F898016006040E40
:100780000B487C38006808B1601CC4B2012000F03E
:10079000F9FD701CC6B2082EE6DB15B9FFF7ACFFF9
:1007A00001E0FFF781FF204670BD0000000C014012
:1007B000988121420080214270B5044615480068A6
:1007C00020F07040134908600846006840F040502F
:1007D0000860002010490860002517E0E0090E4974
:1007E000091D08606006040E022000F0CBFD012008
:1007F0000A49C1F89801022000F0C4FD0020064912
:100800000860022000F0BEFD681CC5B2082DE5DBC3
:1008100070BD0000000C01409881214200802142FF
:1008200010B50F48006820F070400D490860084678
:10083000006840F04050086001200A4908600A49F9
:10084000C1F89801042000F09DFD002005490860D2
:10085000042000F097FD00200349C1F8980110BD65
:10086000000C01409C8121420080214210B50F48BC
:10087000006820F070400D4908600846006840F0AC
:100880004050086000200A4908600A49C1F89C01EC
:10089000042000F077FD0120054908600549C1F8F2
:1008A0009C01042000F06EFD10BD0000000C014012
:1008B000988121420080214210B50024144800682C
:1008C00020F07040124908600846006840F000407F
:1008D000086001200F49086000F054FD01200E4916
:1008E000C1F8980100F04EFD07E0601CC4B2FA2C7C
:1008F00003DDFFF7BBFF012010BD0648803800680C
:100900000028F2D10349091F086000BFF4E7000086
:10091000000C01409C8121420080214208B5012148
:10092000102000F0A9F80F20ADF8000010208DF87D
:10093000030003208DF8020069460448FFF723FEF8
:100940000F210248FFF7ACFE08BD00000010014077
:1009500008B50121082000F08FF84FF40040ADF8F1
:10096000000010208DF8030002208DF80200694677
:100970000448FFF708FE4FF400410248FFF78EFEDF
:1009800008BD0000000C014000BFFEE770470000FA
:1009900070B5002100230F22C47804B3154C2468DD
:1009A00004F4E064C4F5E064210AC1F10403CA4020
:1009B000447804FA03F184781440214309010E4C71
:1009C0000678A155047804F01F050124AC40057891
:1009D0006D11AD0005F1E025C5F8004109E004788E
:1009E00004F01F050124AC40044D0678761145F84B
:1009F000264070BD0CED00E000E400E080E100E086
:100A000002490143024A1160704700000000FA05E4
:100A10000CED00E07047000029B1064A526902431C
:100A2000044B5A6104E0034A52698243014B5A6104
:100A3000704700000010024029B1064AD269024303
:100A4000044BDA6104E0034AD2698243014BDA6164
:100A5000704700000010024029B1064A12690243A3
:100A6000044B1A6104E0034A12698243014B1A6184
:100A7000704700000010024029B1064A9269024303
:100A8000044B9A6104E0034A92698243014B9A61E4
:100A9000704700000010024029B1064AD2680243A4
:100AA000044BDA6004E0034AD2688243014BDA6007
:100AB000704700000010024030B5002100220024E1
:100AC00000232D4D6D6805F00C0121B1042905D0DE
:100AD000082923D105E0294D056022E0274D056056
:100AE0001FE0254D6D6805F47012234D6D6805F407
:100AF0008034022505EB92421CB9214D5543056017
:100B00000BE01D4D6D6805F400351DB11C4D5543BE
:100B1000056002E0194D5543056002E0174D056080
:100B200000BF00BF144D6D6805F0F0010909154DB7
:100B30006B5C0568DD4045600F4D6D6805F4E06154
:100B4000090A104D6B5C4568DD4085600A4D6D6893
:100B500005F46051C90A0B4D6B5C4568DD40C5600A
:100B6000054D6D6805F44041890B074D6B5CC56808
:100B7000B5FBF3F5056130BD0010024000127A00AC
:100B800000093D00140000202400002070B5064636
:100B90000C46154608E03046721C96B200F007F885
:100BA00004F8010B681EC5B2002DF4D170BD70B5FC
:100BB00004460026FFF734FEA020FFF7FDFDFFF7F7
:100BC0007BFE2012FFF7F8FDFFF776FE2546E117C2
:100BD00004EB11610912A4EB0121C8B2FFF7ECFD8F
:100BE000FFF76AFEFFF71CFEA120FFF7E5FDFFF708
:100BF00063FE0020FFF7A8FD0646FFF737FE3046EC
:100C000070BD704710B500F001F810BD0CB50020A4
:100C1000019000903348006840F48030314908600A
:100C200000BF3048006800F4003000900198401C7C
:100C30000190009818B90198B0F5A06FF1D129483A
:100C4000006800F4003010B10120009001E00020A5
:100C500000900098012843D12348006840F010001C
:100C6000214908600846006820F003000860084633
:100C7000006840F0020008601A484068194948605E
:100C80000846406848600846406840F48060486014
:100C90000846406820F47C1048600846406840F4EC
:100CA000E81048600846006840F08070086000BFA7
:100CB0000C48006800F000700028F9D0094840682E
:100CC00020F00300074948600846406840F00200F1
:100CD000486000BF0348406800F00C000828F9D1C4
:100CE0000CBD0000001002400020024010B592B080
:100CF000044601211020FFF7BFFE0121C804FFF7C1
:100D00009BFE01210220FFF787FE4FF48060ADF8C3
:100D1000440003208DF8460018208DF8470011A9E3
:100D20003F48FFF730FC4FF40060ADF8440004206A
:100D30008DF8470011A93A48FFF725FC34208DF8BB
:100D4000300003208DF831008DF8320001208DF83D
:100D500033000CA8FFF71CFE324800F025F90D9473
:100D60000020ADF83800ADF83A00ADF83C00ADF821
:100D700040000C20ADF83E000DA92A4800F0BEF955
:100D800040F22441274800F0EAF8012240F22441D1
:100D9000244800F08EF901224021224800F0FAF8A0
:100DA0002148FFF7EBFAFA200490002003900B9003
:100DB0001E48029000200890802006900020099094
:100DC0001848001D008801900020079005904FF4FE
:100DD00000500A9001A91448FFF799FB1448FFF747
:100DE000B3FA012202211048FFF788FB00210E48C8
:100DF000FFF7B8FA3A208DF8300002208DF8310064
:100E00008DF8320001208DF833000CA8FFF7C0FDEB
:100E1000FFF79CFB0121034800F0B0F812B010BDB1
:100E200000100140004C0040300402402A01002024
:100E300000020010042808D14FF0E021096941F0B8
:100E400004014FF0E022116107E04FF0E021096951
:100E500021F004014FF0E02211617047704700005B
:100E600010B51348006840F00100114908600846B9
:100E70004068104908400E494860084600680E491D
:100E800008400B4908600846006820F4802008608C
:100E90000846406820F4FE0048604FF41F00886058
:100EA000FFF7B0FE4FF000600449086010BD00007D
:100EB000001002400000FFF8FFFFF6FE08ED00E022
:100EC00070B50025002440F22441124800F0C7F814
:100ED000F8B1104800F07EF940F224410D4800F0CE
:100EE00035F80D48007890B901200B4908700B487F
:100EF000FFF7EAFAC0F1FA00C5B200BF05E0084802
:100F0000005D07490855601CC4B2AC42F7DBFFF72F
:100F10001DFB70BD004C0040280000203004024042
:100F20003000002010B540F22551064800F097F837
:100F300038B1044800F04EF9C4B22146024800F02E
:100F40004EF910BD00500040004C004001F400720A
:100F5000B2F5007F00D100BFCA430280704710B5D0
:100F60000022002340F66A14A14200D100BF0A12F9
:100F700001249440A3B2DC43048010BD21B18289D6
:100F800042F40052828104E082894DF6FF731A40D8
:100F9000828170471AB1838A0B43838202E0838A7D
:100FA0008B4383827047000010B50446204884427A
:100FB00009D101218803FFF76FFD00214FF4804024
:100FC000FFF76AFD32E01B48844209D10121480441
:100FD000FFF742FD00214FF40030FFF73DFD25E013
:100FE0001548844209D101218804FFF735FD00210D
:100FF0004FF48020FFF730FD18E01048844209D1FB
:101000000121C804FFF728FD00214FF40020FFF75D
:1010100023FD0BE00A48844208D101210805FFF7AF
:101020001BFD00214FF48010FFF716FD10BD0000DE
:10103000003801400044004000480040004C00409F
:101040000050004002460020B1F5007F00D100BFF3
:1010500013880B400BB1012000E00020704770B5F1
:101060000246002400230025002040F66A16B14203
:1010700000D100BFC1F3421501F01F03012606FA9B
:1010800003F3012D02D19689334006E0022D02D1EF
:10109000168A334001E0968A33400C12012606FA84
:1010A00004F41688344013B10CB1012000E0002094
:1010B00070BDF0B50346002400260025002040F650
:1010C0006A17B94200D100BF1846C1F3421401F0BB
:1010D0001F06012707FA06F5012C01D10C3004E0A8
:1010E000022C01D1103000E014301AB107682F43F0
:1010F000076002E00768AF430760F0BD2DE9F047E5
:1011000086B005460E460024A24600BFA146002731
:10111000B08900B100BF2F462C8A4CF6FF70044006
:10112000F08804432C82AC894EF6F3100440B0885A
:1011300031890843718908430443AC81AC8A4FF676
:10114000FF400440B0890443AC8201A8FFF7B4FC1F
:101150001F48874202D1DDF810A001E0DDF80CA0A5
:10116000A88900F4004040B10AEBCA0000EB0A1065
:1011700031684900B0FBF1F807E00AEBCA0000EB68
:101180000A1031688900B0FBF1F86420B8FBF0F078
:1011900004012009642101FB1089A88900F40040A2
:1011A00040B1322000EBC900B0FBF1F000F00700C5
:1011B000044308E0322000EB09106421B0FBF1F099
:1011C00000F00F0004432C8106B0BDE8F08700005A
:1011D0000038014001468888C0F308007047C1F319
:1011E0000802828070472DE9F04107460D461646F9
:1011F000002400BF0CE0295D3846FFF7F0FF00BF78
:1012000080213846FFF71EFF0028F9D0601C84B209
:10121000B442F0DBBDE8F08170B506460C4600250F
:101220000CE0615D3046FFF7DAFF00BF80213046F9
:10123000FFF708FF0028F9D0681C85B2605D002820
:10124000EFD170BD10B586B0044601213020FFF704
:1012500013FC01210805FFF7EFFB4FF48050ADF8B8
:10126000140003208DF8160018208DF8170005A92A
:101270001B48FFF788F90420ADF814008DF817001B
:1012800005A91848FFF77FF901940020ADF8080080
:10129000ADF80A00ADF80C00ADF810000C20ADF868
:1012A0000E0001A91048FFF729FF35208DF8000036
:1012B00003208DF801008DF8020001208DF8030055
:1012C0006846FFF765FB012240F225510648FFF70B
:1012D000F0FE01210448FFF751FE06B010BD0000EA
:1012E00000100140001401400050004000BFFEE724
:1012F00000BF704710B56FF00400FFF79BFD0A4870
:1013000000680A49B0FBF1F0094908700846007806
:1013100000EB4001C1EBC0104FF6FF7101EAC000C5
:101320000449088010BD00000000002000127A006F
:101330002A0000202C0000200146114A12884A434E
:101340004FF0E0235A6100229A611A46126942F076
:1013500001021A6100BF4FF0E022106900F00102A3
:101360001AB100F48032002AF5D04FF0E022126961
:1013700022F001024FF0E0231A6100229A617047C7
:101380002C0000200146114A12784A434FF0E02316
:101390005A6100229A611A46126942F001021A61EA
:1013A00000BF4FF0E022106900F001021AB100F412
:1013B0008032002AF5D04FF0E022126922F00102BB
:1013C0004FF0E0231A6100229A6170472A00002042
:1013D00090B000BF202108A8FEF719FF2021684621
:1013E000FEF715FF4FF4A060FFF70AFBFFF782FF3F
:1013F000FFF794FAFEF768FF4FF4E130FFF722FFA2
:10140000FFF7A6FA4FF4E130FFF770FC1CA121486A
:10141000FFF702FF192208A94FF48070FFF7B6FB0F
:101420001E2208A91B48FFF7DEFE1BA11948FFF783
:10143000F3FEC820FFF780FF19A11648FFF7ECFE66
:10144000C820FFF779FF19E04FF4FA70FFF774FF37
:101450001748006808B9012000E00020144908601E
:101460001448007850B114490A48FFF7D5FEC82146
:101470001148FEF74BFF00200E490870E4E700001A
:10148000415432344332353620546578743A0D0A6B
:1014900000000000004C0040200D0A0D0A00000072
:1014A0000D0A444D412054657874200D0A0D0A0040
:1014B000800122422800002030000020DC140008B7
:1014C00000000020300000006C0100080C1500082E
:1014D00030000020580800008801000800A24A04DB
:1014E00000000000000000000102030406070809D4
:1014F00000000000010203040102030406070809BA
:0C150000020406080000000000000000CB
:0400000508000131BD
:00000001FF
