:020000040800F2
:100000004012002095590008490300084B030008DE
:100010004F030008530300085703000800000000C6
:100020000000000000000000000000005B0300086A
:100030005D030008000000005F0300088103000862
:10004000AF590008AF590008AF590008AF59000870
:10005000AF590008AF590008AF590008AF59000860
:10006000AF590008AF590008AF590008AF59000850
:10007000AF590008AF590008AF590008AF59000840
:10008000AF590008AF590008AF590008AF59000830
:10009000AF590008AF590008AF590008AF59000820
:1000A000AF590008AF590008AF590008AF59000810
:1000B000AF590008CF0500084F060008AF590008E7
:1000C000AF590008AF590008AF590008AF590008F0
:1000D000AF590008B507000861030008BF13000806
:1000E000AF590008AF590008AF590008AF590008D0
:1000F000AF590008AF590008AF590008AF590008C0
:10010000AF590008AF590008AF590008AF590008AF
:100110009D0F00086B4F0008AF590008AF59000849
:10012000AF590008AF590008AF590008AF5900088F
:1001300000F002F800F053F80AA090E8000C8244A6
:100140008344AAF10107DA4501D100F048F8AFF283
:10015000090EBAE80F0013F0010F18BFFB1A43F0A5
:1001600001031847D48B0000F48B00000A4410F8F8
:10017000014B14F00F0508BF10F8015B240908BFFC
:1001800010F8014B6D1E05D010F8013B6D1E01F8F3
:10019000013BF9D1641E03D0641E01F8015BFBD161
:1001A0009142E4D37047000000230024002500267C
:1001B000103A28BF78C1FBD8520728BF30C148BFCA
:1001C0000B6070471FB508F003FB040000200021FE
:1001D00008F042FB401C60601FBD10B510BD08F068
:1001E000BBFA1146FFF7EEFF00F023F808F0E2FA41
:1001F00003B4FFF7F2FF03BC05F0BCFB4448006802
:10020000012815D143480078012811D10020414927
:100210000870414801680068401C3F4A1060B1F511
:10022000967F05DB00201146086001203B490860ED
:10023000704705F01BFA4FF4A06006F04FF941F645
:100240001F41632000F0D6F903F015FD4FF416505E
:1002500003F082FC01F04CFA05F06AF804F07EFD30
:1002600004F0CCFD05F048F801F032F94FF4E1302C
:1002700004F02EFE4FF4E13001F03EF84FF4E1308F
:1002800000F02CFE4FF4E13000F03AFA24A226A14F
:1002900028A000F039FB4FF4FA7005F024FA36E09C
:1002A0002548007801282ED10020234908702348D2
:1002B00001780078401C214A1070142916DB0020B8
:1002C0001146087001F0AEF901F0B7F800F099FCA2
:1002D00004F088FE00F0E7FE05F027F818480068F3
:1002E00008B9012000E00020154908601548017890
:1002F0000078401C134A1070022904DB00201146CC
:10030000087004F0AAFC04F0B8FDFFF777FFC7E718
:100310000C00002004000020080000201000002035
:100320003233313700000000746573742E757372B8
:100330002E636E0054435000000000200500002092
:100340008C01224206000020704700BFFEE700BF7C
:10035000FEE700BFFEE700BFFEE77047704770474B
:1003600010B540F22551094806F074F838B1074835
:1003700005F0F0FFC4B2204601F0C3F900BF10BD84
:1003800003480068401C0249086070470044004070
:10039000900000200CB50020019000906C4800688F
:1003A00040F480306A49086000BF6948006800F482
:1003B000003000900198401C0190009818B90198F5
:1003C000B0F5A06FF1D16248006800F4003010B1C0
:1003D0000120009001E0002000900098012843D106
:1003E0005C48006840F010005A4908600846006800
:1003F00020F0030008600846006840F00200086032
:10040000534840685249486008464068486008467A
:10041000406840F4806048600846406820F47C10E2
:1004200048600846406840F4E810486008460068A4
:1004300040F08070086000BF4548006800F0007020
:100440000028F9D04248406820F003004049486045
:100450000846406840F00200486000BF3C484068E1
:1004600000F00C000828F9D10CBD10B5FFF792FF81
:1004700010BD10B53648006840F0010034490860EE
:1004800008464068344908403149486008460068D9
:10049000324908402E4908600846006820F4802050
:1004A00008600846406820F4FE0048604FF41F00D2
:1004B0008860FFF7DAFF4FF000602949086010BD3F
:1004C00010B5002100200022214B5B6803F00C01D5
:1004D00021B1042906D0082928D107E0214B224C5C
:1004E000236027E01F4B204C236023E0184B5B6800
:1004F00003F47010164B5B6803F48032022303EBA5
:10050000904022B9194B4343174C23600DE0104B28
:100510005B6803F4003323B1144B4343124C236054
:1005200003E0104B4343104C236003E00D4B0E4C93
:10053000236000BF00BF064B5B68C3F303130C4C82
:10054000E15C094B1B68CB40074C236010BD0000E9
:1005500000100240002002400000FFF8FFFFF6FEFE
:1005600008ED00E000127A001400002000093D00B0
:10057000180000207FB505460C460121022005F039
:1005800052FDADF80850ADF804400020ADF80A0067
:10059000ADF8060001A9394806F0E2F8012211463B
:1005A000364806F054FC1D208DF8000000208DF820
:1005B000010003208DF8020001208DF80300684639
:1005C00005F091FF01212D4806F026FC7FBD10B5F6
:1005D00001212A4806F0E9FE58B10121274806F01A
:1005E000F5FE2748006808B9012000E000202449F2
:1005F000086010BD7FB505460C460121042005F0BA
:1006000012FDADF80850ADF804400020ADF80A0026
:10061000ADF8060001A91B4806F0A2F80122114618
:10062000184806F014FC1E208DF8000000208DF8FC
:10063000010003208DF8020001208DF803006846B8
:1006400005F051FF01210F4806F0E6FB7FBD10B514
:1006500001210C4806F0A9FE70B10121094806F0FD
:10066000B5FE01200849087008490870084908705B
:10067000084908700849087010BD000000040040D7
:100680008C012242000800400000002001000020F0
:1006900002000020030000200400002000B58BB001
:1006A000F84806F097FEF8480090F84801900020BE
:1006B0000290F020039000200490802005900020FC
:1006C0000690079008904FF48050099000200A90FF
:1006D0006946EC4806F020FF0121EA4806F047FF92
:1006E0000BB000BD10B50021E64806F040FFF02138
:1006F000E44806F051FF0121E24806F038FF10BD42
:1007000010B586B004460121880305F07FFC012165
:10071000084605F06EFC01940020ADF80800ADF825
:100720000A00ADF80C00ADF810000C20ADF80E007A
:1007300001A9D548001F05F010FD4FF40070ADF879
:10074000140003208DF8160018208DF8170005A955
:10075000CF4805F09FF94FF48060ADF814000420F5
:100760008DF8170005A9CA4805F094F925208DF8E1
:10077000000003208DF801008DF8020001208DF8A3
:100780000300684605F0AFFE012240F22441BE4856
:10079000001F05F07AFD01224021BB48001F05F033
:1007A00099FD0121B848001F05F063FDFFF776FFB2
:1007B00006B010BD10B540F22441B348001F05F04B
:1007C00049FEC0B140F22441AF48001F05F06CFE65
:1007D000AD48001F05F0BEFDAA4806F0DFFEC0F1DF
:1007E000F000AC49088008460288A849AA4807F0EA
:1007F000E7FCFFF777FF10BD10B50A24F021A648EB
:1008000004F09EFF0020A5490880A5A19E48001F76
:1008100004F0A6FF642004F066FF9F48007861287A
:1008200007D19E480088012803D1F0219A4804F09E
:1008300087FF0020994908809AA19348001F04F07F
:100840008FFF15E0322004F04EFF94480088022804
:100850000EDB914800782B2809D18F4840786F280B
:1008600005D18D4880786B2801D1002010BD04E0AF
:10087000201EA4F10101CCB2E4D100BF0120F5E7B4
:100880002DE9F04105460E4605270024F021824857
:1008900004F056FF00208149088029467A48001F4D
:1008A00004F05EFF1AE0142004F01DFF7B4800886E
:1008B000012813DD784879490988405C30280DD13A
:1008C00076480088401E7449085C0D2806D173489C
:1008D000008840F400407149088003E0781EC0B2EF
:1008E000071EE0D100BF17B90120BDE8F081002448
:1008F00004E06948005D3055601CC4B26748008858
:100900008442F6DB0020F0E72DE9F0418EB0064688
:100910000F4690463422644901A807F096FC002453
:10092000002501E0601CC4B201A8005D0028F9D1D7
:10093000222001A90855601CC4B2002505E0705DA5
:1009400001A90855601CC4B26D1C705D0028F6D169
:10095000222001A90855601CC4B22C200855601C37
:10096000C4B222200855601CC4B2002505E0785DA1
:1009700001A90855601CC4B26D1C785D0028F6D131
:10098000222001A90855601CC4B22C200855601C07
:10099000C4B2002506E018F8050001A90855601C3E
:1009A000C4B26D1C18F805000028F4D10D2001A96F
:1009B0000855601CC4B20A200855FFF71DFFF0213E
:1009C0003A4804F0BDFE394939A0FFF759FFF0213C
:1009D000364804F0B5FE35493AA0FFF751FFF02143
:1009E000324804F0ADFE31493BA0FFF749FFF0214A
:1009F0002E4804F0A5FE2D4901A8FFF741FFF02184
:100A00002A4804F09DFE294938A0FFF739FFF0215C
:100A1000264804F095FE254939A0FFF731FFF02163
:100A2000224804F08DFE21493AA0FFF729FFF0216A
:100A30001E4804F085FE1D493BA0FFF721FFF02171
:100A40001A4804F07DFE19493CA0FFF719FFF02178
:100A5000164804F075FE154941A0FFF711FFF0217B
:100A6000124804F06DFE114943A0FFF709FFF02181
:100A70000E4804F065FE0D4942A0FFF701FF0EB0DD
:100A8000BDE8F081580002400438014044040020D1
:100A9000000801403E0000205402002028000020F1
:100AA0002B2B2B0061000000688C000864010020E3
:100AB00041542B574B4D4F443D224E4554220D0A75
:100AC0000000000041542B534F434B42454E3D2202
:100AD0006F6E220D0A00000041542B534F434B41CF
:100AE000454E3D226F6666220D0A000041542B538D
:100AF0004F434B42534C3D226C6F6E67220D0A00F0
:100B000041542B534F434B525354494D3D36300DB6
:100B10000A00000041542B4845415254454E3D22A5
:100B20006F6666220D0A000041542B48454152541D
:100B300054503D224E4554220D0A000041542B557D
:100B40004152543D3131353230302C224E4F4E45DA
:100B5000222C382C312C225253343835220D0A00E5
:100B600041542B41504E3D22434D4E4554222C22A0
:100B7000222C22220D0A000041542B453D226F6E8B
:100B8000220D0A0041542B530D0A00002DE9F041BB
:100B900094B005460F4650228049684607F055FB41
:100BA00000240026A04601E0601CC4B21DF8040029
:100BB0000028F9D1002606E0A85D0DF80400601CAD
:100BC000C4B2701CC6B2A85D0028F5D13F200DF854
:100BD0000400601CC4B20D200DF80400601CC4B2F7
:100BE0000A200DF8040039466846FFF749FE8046A2
:100BF000B8F1000F03D0012014B0BDE8F08100204F
:100C0000FAE710B58CB066480068012830D10F2192
:100C1000644807F04CFB64A1674804F0A1FD642020
:100C200004F061FD0020654908600CE05D486349FF
:100C30000968405C6249614A126888545F480068EC
:100C4000401C5E4908605D4800681028EEDB5B4888
:100C5000006810280CD10020584908600F21514825
:100C600007F025FB002057490880012056490860FD
:100C700056480068012802D10020544908605448B1
:100C8000006801283BD1002452480068B8B904A884
:100C900051A1554A12780123CDE90021029000228A
:100CA00020210C2004F095FD0446224604A9424868
:100CB00004F06CFD47480068401C4649086001206C
:100CC0004A49086014224A49364804F03BFE484825
:100CD000007801280FD14748006860B900203C49DE
:100CE000086042490860434908604349086039493F
:100CF00008603449088000203649086000BF294850
:100D00004078552840D127480078AA283CD125486A
:100D10008079012838D139480068A8BBF0213848CB
:100D200007F0C5FA0020254908600CE01D4823495A
:100D30000968415C3248214A126881541F480068A2
:100D4000401C1E4908601D480068F028EED31B486F
:100D50000068F02818D1002018490860F0211148D7
:100D600007F0A5FA2649202004F074FD25490880E3
:100D7000084602882449104804F008FD204880797C
:100D8000012801D1214908601C480068012802D1CE
:100D900000201A4908600CB010BD00009C8C0008AF
:100DA000C4000020540200207573722E636E23412C
:100DB000542B4353510D0A000038014034000020E9
:100DC00044030020280000202C000020D400002034
:100DD000E0000020380000204B4C453033323030EA
:100DE00035303031000000009E0000200C00002053
:100DF0005001002010000020080000200401002005
:100E0000540300203C0000202E0100203000002070
:100E100000B597B0FB4806F0DDFAFB480C90FB48A4
:100E20000D9000200E9028200F9000201090802020
:100E3000119000201290139014904FF48050159050
:100E4000002016900CA9EF4806F066FB0121ED4842
:100E500006F08DFBEB48283006F0BCFAEA4801901A
:100E6000EB48029010200390282004900020059069
:100E70008020069000200790089009904FF4805041
:100E80000A9000200B9001A9DE48283006F044FBB0
:100E90000121DC48283006F06AFB17B000BD10B510
:100EA0000021D84806F063FB2821D64806F074FBE1
:100EB0000121D44806F05BFB10BD10B50021D148DC
:100EC000283006F054FB2821CE48283006F064FB79
:100ED0000121CC48283006F04AFB10BD10B586B081
:100EE00004460121C80405F09EF80121022005F006
:100EF00080F801940020ADF80800ADF80A00ADF8C4
:100F00000C00ADF810000C20ADF80E0001A9BE4891
:100F1000001F05F022F94FF48060ADF814000320A3
:100F20008DF8160018208DF8170005A9B94804F0AF
:100F3000B1FD4FF40060ADF8140004208DF81700E7
:100F400005A9B44804F0A6FD34208DF80000032064
:100F50008DF801008DF8020001208DF8030068462D
:100F600005F0C1FA012240F22441A748001F05F014
:100F70008CF901224021A448001F05F0ABF90122A1
:100F80008021A148001F05F0A5F901219E48001FFE
:100F900005F06FF9FFF73CFF06B010BD10B540F249
:100FA00024419948001F05F055FAC0B140F2244190
:100FB0009548001F05F078FA9348001F05F0CAF91C
:100FC000904806F0EBFAC0F12800934908800846E3
:100FD00002888E49914807F0F3F8FFF760FF10BDD3
:100FE0008E48C0798E4908708C48007A8D49087007
:100FF0008A48407A8C4908708848807A8B49087002
:101000008648C07A8A4908708448007B89490870FC
:101010008248407B884908708048807B87490870F7
:101020007E48C07B864908707C48007C85490870F2
:101030007A48407C844908707848807C83490870ED
:101040007648C07C824908707448007D81490870E8
:101050007248407D804908707048807D7F490870E3
:101060006E48C07D7E4908706C48007E7D490870DE
:101070006A48407E7C4908706848807E7B490870D9
:101080006648C07E7A4908706448007F79490988BB
:1010900041EA0020774908806048407F098808437A
:1010A00074490880704710B57348006801280ED154
:1010B0005A495548001F04F003FC40B9574880794D
:1010C000712804D1FFF78CFF01206C49086010BD26
:1010D0002DE9F0438BB00646062596F8008096F879
:1010E000019000241C2104A807F003F9644A07CAF0
:1010F00001AB07C38DF806508DF80B808DF80C906E
:101100002F46032404E001A8005D4740601CC4B2E0
:10111000E81C8442F7DB01A80755601CC4B25520C7
:1011200001A90855601CC4B2AA200855601CC4B2AD
:10113000AA1D3548001F04F029FB0BB0BDE8F08361
:10114000F0B58BB00646062500241C2104A807F044
:10115000D0F84B4A0C3207CA01AB07C38DF80650D2
:101160008DF80C602F46032404E001A8005D474081
:10117000601CC4B2E81C8442F7DB01A80755601C60
:10118000C4B2552001A90855601CC4B2AA20085554
:10119000601CC4B2AA1D1C48001F04F0F7FA0BB073
:1011A000F0BD70B58AB0062500241C2103A807F005
:1011B000A0F8334A183207CA8DE807008DF80250AC
:1011C0002E46032404E01DF804004640601CC4B20F
:1011D000E81C8442F7DB0DF80460601CC4B25520A3
:1011E0000DF80400601CC4B2AA200DF80400601CB5
:1011F000C4B2AA1D69460448001F04F0C7FA0AB029
:1012000070BD000030040240044C00402406002061
:101210004C06002000100140480000207406002009
:101220004C0000204D0000204E0000204F00002008
:1012300050000020510000205200002053000020E8
:1012400054000020550000205600002057000020C8
:10125000590000205A0000205B0000205C000020A4
:101260005D0000205E000020580000205F0000208C
:101270006000002062000020D80000204400002010
:10128000EC8C00082DE9F0438BB005460E4617465E
:1012900000244FF01E08C1462822154901A806F077
:1012A000D4FF05F1120001A90F540A300E54032493
:1012B00005E001A8005D80EA0909601CC4B2202C89
:1012C000F7DB01A800F80490601CC4B2552001A906
:1012D0000855601CC4B2AA200855601CC4B208F1AD
:1012E0000602044804F052FA0BB0BDE8F083000097
:1012F000108D0008004C004010B586B00446012156
:10130000102004F083FE1020ADF814008DF81700B3
:1013100003208DF8160005A9644804F0BBFB1021DA
:10132000624804F064FC0121082004F06FFE0121F2
:10133000880404F078FE4FF48060ADF814000320B8
:101340008DF8160018208DF8170005A9584804F0EC
:10135000A1FB4FF40060ADF8140004208DF81700D5
:1013600005A9534804F096FB01940020ADF808004D
:10137000ADF80A00ADF80C00ADF810000C20ADF887
:101380000E0001A94B4804F0E8FE0121494804F091
:1013900070FF012240F22551464804F076FF2720D5
:1013A0008DF8000003208DF801008DF80200012067
:1013B0008DF80300684605F096F806B010BD70B5CC
:1013C000002540F225513B4805F044F810B3394858
:1013D00004F0C0FFC4B23848008800F40040C8B927
:1013E0003548008800F4804060B10A2C03D000200A
:1013F0003149088020E03048008840F400402E4900
:10140000088019E00D2C06D12B48008840F480405C
:101410002949088010E028480088C0F30D002749BA
:101420000C5425480088401C234908800846008841
:10143000C72801DD0020088070BD10B52048006875
:1014400001282BD11F48C07901282ED1102117481F
:1014500004F0CFFB18480088F8B1002404E01748D6
:10146000005D19490855641C122CF8DB3020164920
:101470004874122C19D11221104806F018FF0020D0
:101480000D4908801021094804F0B1FB01200F49E3
:10149000086023210B4806F00AFF06E008480068B0
:1014A00018B91021014804F0A2FB10BD0010014042
:1014B000000C014000480040640000209706002016
:1014C000BC00002074060020A9060020680000204F
:1014D00000B591B001214FF4067004F097FD012191
:1014E000084604F086FD4FF4004004F0F3FC0120B0
:1014F000ADF82C0000208DF82F000BA96E4804F0E9
:10150000C9FA0220ADF82C0000208DF82F000BA99D
:10151000694804F0BFFA2020ADF82C0000208DF8B7
:101520002F000BA9654804F0B5FA654805F052FF95
:1015300064480090644801900020029003200390CA
:1015400000200490802005904000069080000790C5
:10155000202008900002099000200A90694658480F
:1015600005F0DAFF0121564806F001F855484C38DD
:1015700006F05AF800200C9001208DF834008DF808
:1015800035004FF460200E9000200F9003208DF85E
:1015900040000CA94B484C3806F06DF84FF4404021
:1015A00004F098FC05230122082146484C3806F037
:1015B000FAF805230222092142484C3806F0F3F8D4
:1015C000052303220F213F484C3806F0ECF8012197
:1015D0003C484C3806F086F801213A484C3806F071
:1015E00076F838484C3806F094F800BF35484C3847
:1015F00006F094F80028F9D132484C3806F098F8F3
:1016000000BF30484C3806F098F80028F9D1012185
:101610002C484C3806F09BF811B000BD01467047CD
:10162000024670472DE9F04128480068012841D161
:101630000020264908602448008825490880098838
:1016400040F64852501A07F0A4FA06460022214BF1
:1016500007F018F9044607F06DFA1F4908601A48A8
:1016600040881E490880098840F64852501A07F001
:1016700090FA06460022174B07F004F9044607F0DB
:1016800059FA174908601048808816490880098867
:1016900040F64852501A07F07CFA064600220D4BDD
:1016A00007F0F0F8044607F045FA0F4908600120FA
:1016B0000E490860BDE8F081000C014000100140B7
:1016C000080002404C2401406C000020C0000020B3
:1016D00072000020002041407800002074000020AB
:1016E0007C00002076000020800000208400002084
:1016F00000204149488008804049086040490880EE
:10170000704701463C4B1B88581CC31700EBD35352
:101710005B12A0EB43239AB237484088904205D031
:1017200035480388001DC154001F028070470146E0
:1017300031484088304A128890420FD02E48428863
:10174000001D805C08702C4A5288501CC21700EBA8
:10175000D2525212A0EB4222274B5A8070472648A1
:10176000008800F50070244A5288811AC81701EBDE
:10177000D0504012A1EB402080B27047F8B504462B
:101780000D460026002000902FE06846FFF7CFFFAF
:101790001B48008820B99DF80000EE2800D024E006
:1017A00017480088A84208DA9DF8001014480288FB
:1017B0000088401C124B1880A1549DF800000F496E
:1017C000096840EA01200D490860084600686FF486
:1017D0004031884208D10A4806880020074908603D
:1017E000074908803046F8BD00BFFFF7B8FF002862
:1017F000CBDC0020F7E70000BC06002088000020BA
:101800008C000020014606E04FF47A7200E0521E80
:10181000002AFCDC491E0029F6DC704710B504469E
:1018200003E0207802F0DAF9641C20780028F8D16F
:1018300010BD70B505460E46002404E0285D02F098
:10184000CDF9601C84B2B442F8DB70BD70B50546BA
:101850000E4600240AE035F81410080A02F0BEF91A
:1018600015F8140002F0BAF9601C84B2B442F2DB3D
:1018700070BD10B5EE2002F0B1F9042002F0AEF90F
:10188000FF2002F0ABF9FC2002F0A8F9FF2002F0E3
:10189000A5F9FF2002F0A2F910BD10B50446EE2014
:1018A00002F09CF9412002F099F9200A02F096F921
:1018B000E0B202F093F9FF2002F090F9FC2002F070
:1018C0008DF9FF2002F08AF9FF2002F087F910BDA0
:1018D00010B50446EE2002F081F9422002F07EF9B4
:1018E000200A02F07BF9E0B202F078F9FF2002F062
:1018F00075F9FC2002F072F9FF2002F06FF9FF2069
:1019000002F06CF910BD70B506460C461546EE2087
:1019100002F064F9A32002F061F9F0B202F05EF97E
:10192000200A02F05BF9E0B202F058F9280A02F04E
:1019300055F9E8B202F052F9FF2002F04FF9FC200D
:1019400002F04CF9FF2002F049F9FF2002F046F9BD
:1019500070BD10B5EE2002F041F9012002F03EF911
:10196000FF2002F03BF9FC2002F038F9FF2002F0E2
:1019700035F9FF2002F032F910BD70B504460D466E
:10198000EE2002F02BF9432002F028F9E0B202F039
:1019900025F9E8B202F022F9FF2002F01FF9FC203D
:1019A00002F01CF9FF2002F019F9FF2002F016F9ED
:1019B00070BD70B506460C461546EE2002F00EF9D5
:1019C000452002F00BF9F0B202F008F9200A02F00B
:1019D00005F9E0B202F002F9280A02F0FFF8E8B2D5
:1019E00002F0FCF8FF2002F0F9F8FC2002F0F6F813
:1019F000FF2002F0F3F8FF2002F0F0F870BD70B5A0
:101A000004460D46EE2002F0E9F8442002F0E6F824
:101A1000200A02F0E3F8E0B202F0E0F8280A02F04F
:101A2000DDF8E8B202F0DAF8FF2002F0D7F8FC2087
:101A300002F0D4F8FF2002F0D1F8FF2002F0CEF837
:101A400070BD2DE9F04104460D4616461F46DDF8EF
:101A50001880EE2002F0C2F8202002F0BFF8200A21
:101A600002F0BCF8E0B202F0B9F8280A02F0B6F8C9
:101A7000E8B202F0B3F8F0B202F0B0F8F8B202F057
:101A8000ADF84046FFF7CAFEFF2002F0A7F8FC20A1
:101A900002F0A4F8FF2002F0A1F8FF2002F09EF867
:101AA000BDE8F0812DE9F04106460C4615461F467B
:101AB000DDF81880EE2002F091F8212002F08EF877
:101AC000F0B202F08BF8200A02F088F8E0B202F0DF
:101AD00085F8280A02F082F8E8B202F07FF8F8B23E
:101AE00002F07CF808F0FF0002F078F8FF2002F026
:101AF00075F8FC2002F072F8FF2002F06FF8FF206A
:101B000002F06CF8BDE8F08170B504460D46EE2099
:101B100002F064F8312002F061F8200A02F05EF869
:101B2000E0B202F05BF8E8B202F058F8FF2002F0F1
:101B300055F8FC2002F052F8FF2002F04FF8FF2089
:101B400002F04CF870BD2DE9F04104460D461646F2
:101B50001F46EE2002F042F8322002F03FF8200A41
:101B600002F03CF8E0B202F039F8280A02F036F848
:101B7000E8B202F033F8300A02F030F8F0B202F0C6
:101B80002DF8F8B202F02AF8FF2002F027F8FC2026
:101B900002F024F8FF2002F021F8FF2002F01EF8E6
:101BA000BDE8F0812DE9F05F04460D4616461F465C
:101BB000DDE90CABDDE90A89EE2002F00FF83320F5
:101BC00002F00CF8200A02F009F8E0B202F006F880
:101BD000280A02F003F8E8B202F000F8300A01F037
:101BE000FDFFF0B201F0FAFF380A01F0F7FFF8B29A
:101BF00001F0F4FF4FEA182001F0F0FF08F0FF00B9
:101C000001F0ECFF4FEA192001F0E8FF09F0FF00B6
:101C100001F0E4FF4FEA1A2001F0E0FF0AF0FF00B4
:101C200001F0DCFF0BF0FF0001F0D8FFFF2001F016
:101C3000D5FFFC2001F0D2FFFF2001F0CFFFFF20F5
:101C400001F0CCFFBDE8F09F2DE9F04104460D46C0
:101C500016461F46DDF81880EE2001F0BFFF8020F9
:101C600001F0BCFF200A01F0B9FFE0B201F0B6FFBD
:101C7000280A01F0B3FFE8B201F0B0FF300A01F02A
:101C8000ADFFF0B201F0AAFFF8B201F0A7FF08F033
:101C9000FF0001F0A3FFFF2001F0A0FFFC2001F0F6
:101CA0009DFFFF2001F09AFFFF2001F097FFBDE8A4
:101CB000F08170B504460D46EE2001F08FFF5020F4
:101CC00001F08CFF200A01F089FFE0B201F086FFED
:101CD000280A01F083FFE8B201F080FFFF2001F045
:101CE0007DFFFC2001F07AFFFF2001F077FFFF204D
:101CF00001F074FF70BD2DE9F04104460D46164613
:101D00001F46EE2001F06AFF512001F067FF200A14
:101D100001F064FFE0B201F061FF280A01F05EFF0C
:101D2000E8B201F05BFF300A01F058FFF0B201F0B9
:101D300055FF380A01F052FFF8B201F04FFFFF20C3
:101D400001F04CFFFC2001F049FFFF2001F046FFAD
:101D5000FF2001F043FFBDE8F08170B505460E4657
:101D60001446EE2001F03AFF632001F037FFE8B29D
:101D700001F034FF4FF6FF7000EA44013046FFF7F0
:101D800065FDFF2001F02AFFFC2001F027FFFF2066
:101D900001F024FFFF2001F021FF70BD2DE9F0418B
:101DA00004460D4616461F46EE2001F017FF592047
:101DB00001F014FF200A01F011FFE0B201F00EFF64
:101DC000280A01F00BFFE8B201F008FF394630465F
:101DD000FFF73CFDFF2001F001FFFC2001F0FEFEBB
:101DE000FF2001F0FBFEFF2001F0F8FEBDE8F081CE
:101DF0002DE9F04104460D4616461F46EE2001F03F
:101E0000EDFE752001F0EAFE200A01F0E7FEE0B2E7
:101E100001F0E4FE280A01F0E1FEE8B201F0DEFE86
:101E200039463046FFF712FDFF2001F0D7FEFC20B7
:101E300001F0D4FEFF2001F0D1FEFF2001F0CEFE24
:101E4000BDE8F0812DE9F04104460D4616461F46D7
:101E5000EE2001F0C3FE762001F0C0FE200A01F062
:101E6000BDFEE0B201F0BAFE280A01F0B7FEE8B20A
:101E700001F0B4FE39463046FFF7E8FCFF2001F0E0
:101E8000ADFEFC2001F0AAFEFF2001F0A7FEFF201E
:101E900001F0A4FEBDE8F0812DE9F04104460D46B5
:101EA00016461F46EE2001F099FE772001F096FEBF
:101EB000E0B201F093FEE8B201F090FEF0B201F062
:101EC0008DFEF8B201F08AFEFF2001F087FEFC20B3
:101ED00001F084FEFF2001F081FEFF2001F07EFE74
:101EE000BDE8F08170B505460C46EE2001F076FEA7
:101EF000682001F073FE4FF6FF7000EA44012846A7
:101F0000FFF7A4FCFF2001F069FEFC2001F066FE53
:101F1000FF2001F063FEFF2001F060FE70BD70B590
:101F200005460C46EE2001F059FE692001F056FEF0
:101F30004FF6FF7000EA44012846FFF787FCFF20B8
:101F400001F04CFEFC2001F049FEFF2001F046FEAE
:101F5000FF2001F043FE70BD70B504460D461646E5
:101F6000EE2001F03BFE522001F038FE200A01F085
:101F700035FEE0B201F032FE280A01F02FFEE8B291
:101F800001F02CFE300A01F029FEF0B201F026FE2D
:101F9000FF2001F023FEFC2001F020FEFF2001F0D5
:101FA0001DFEFF2001F01AFE70BD70B504460D46FF
:101FB0001646EE2001F012FE532001F00FFE200A1B
:101FC00001F00CFEE0B201F009FE280A01F006FE65
:101FD000E8B201F003FE300A01F000FEF0B201F0B9
:101FE000FDFDFF2001F0FAFDFC2001F0F7FDFF20D0
:101FF00001F0F4FDFF2001F0F1FD70BD2DE9F0418D
:1020000004460D4616461F46DDF81880EE2001F006
:10201000E5FD672001F0E2FD200A01F0DFFDE0B2FE
:1020200001F0DCFD280A01F0D9FDE8B201F0D6FD8F
:10203000300A01F0D3FDF0B201F0D0FD380A01F012
:10204000CDFDF8B201F0CAFD4FEA182001F0C6FD3F
:1020500008F0FF0001F0C2FDFF2001F0BFFDFC20F1
:1020600001F0BCFDFF2001F0B9FDFF2001F0B6FD3D
:10207000BDE8F0812DE9F04104460D4616461F46A5
:10208000EE2001F0ABFD542001F0A8FD200A01F084
:10209000A5FDE0B201F0A2FD280A01F09FFDE8B223
:1020A00001F09CFD300A01F099FDF0B201F096FDBF
:1020B000380A01F093FDF8B201F090FDFF2001F025
:1020C0008DFDFC2001F08AFDFF2001F087FDFF203F
:1020D00001F084FDBDE8F0812DE9F04104460D4694
:1020E00016461F46EE2001F079FD552001F076FDE1
:1020F000200A01F073FDE0B201F070FD280A01F042
:102100006DFDE8B201F06AFD300A01F067FDF0B242
:1021100001F064FD380A01F061FDF8B201F05EFDE6
:10212000FF2001F05BFDFC2001F058FDFF2001F0D5
:1021300055FDFF2001F052FDBDE8F0812DE9F04191
:1021400004460D4616461F46EE2001F047FD562078
:1021500001F044FD200A01F041FDE0B201F03EFD36
:10216000280A01F03BFDE8B201F038FD300A01F029
:1021700035FDF0B201F032FD380A01F02FFDF8B262
:1021800001F02CFDFF2001F029FDFC2001F026FDCF
:10219000FF2001F023FDFF2001F020FDBDE8F081CC
:1021A0002DE9F04104460D4616461F46EE2001F08B
:1021B00015FD572001F012FD200A01F00FFDE0B2DD
:1021C00001F00CFD280A01F009FDE8B201F006FD5E
:1021D000300A01F003FDF0B201F000FD380A01F011
:1021E000FDFCF8B201F0FAFCFF2001F0F7FCFC2046
:1021F00001F0F4FCFF2001F0F1FCFF2001F0EEFC07
:10220000BDE8F08110B50446EE2001F0E7FC602047
:1022100001F0E4FCE0B201F0E1FCFF2001F0DEFCA3
:10222000FC2001F0DBFCFF2001F0D8FCFF2001F0D6
:10223000D5FC10BD10B50446EE2001F0CFFC6120A6
:1022400001F0CCFCE0B201F0C9FCFF2001F0C6FCBB
:10225000FC2001F0C3FCFF2001F0C0FCFF2001F0D6
:10226000BDFC10BD2DE9F04104460D4616461F4643
:10227000EE2001F0B3FC652001F0B0FC200A01F073
:10228000ADFCE0B201F0AAFC280A01F0A7FCE8B21C
:1022900001F0A4FC300A01F0A1FCF0B201F09EFCB8
:1022A000380A01F09BFCF8B201F098FCFF2001F025
:1022B00095FCFC2001F092FCFF2001F08FFCFF2038
:1022C00001F08CFCBDE8F0812DE9F041074688461D
:1022D00015461E4600240FB144F00104B8F1000F6A
:1022E00001D044F0020415B144EA8500C4B216B12D
:1022F00044EA4610C4B2EE2001F070FC702001F0F8
:102300006DFCE0B201F06AFCFF2001F067FCFC20EC
:1023100001F064FCFF2001F061FCFF2001F05EFC95
:10232000BDE8F08110B5EE2001F058FC722001F0FC
:1023300055FCFF2001F052FCFC2001F04FFCFF2077
:1023400001F04CFCFF2001F049FC10BD10B5EE205F
:1023500001F044FC732001F041FCFF2001F03EFC41
:10236000FC2001F03BFCFF2001F038FCFF2001F0D5
:1023700035FC10BD10B5EE2001F030FC092001F055
:102380002DFCDE2001F02AFCED2001F027FC1320BB
:1023900001F024FC312001F021FCFF2001F01EFCA3
:1023A000FC2001F01BFCFF2001F018FCFF2001F0D5
:1023B00015FC10BD10B5EE2001F010FC082001F056
:1023C0000DFCA52001F00AFC5A2001F007FC5F205B
:1023D00001F004FCF52001F001FCFF2001F0FEFB00
:1023E000FC2001F0FBFBFF2001F0F8FBFF2001F0D7
:1023F000F5FB10BD10B50446EE2001F0EFFBA02068
:1024000001F0ECFBE0B201F0E9FBFF2001F0E6FB9C
:10241000FC2001F0E3FBFF2001F0E0FBFF2001F0D6
:10242000DDFB10BD10B50446EE2001F0D7FBA12066
:1024300001F0D4FBE0B201F0D1FBFF2001F0CEFBB4
:10244000FC2001F0CBFBFF2001F0C8FBFF2001F0D6
:10245000C5FB10BD10B50446EE2001F0BFFBA22065
:1024600001F0BCFBE0B201F0B9FBFF2001F0B6FBCC
:10247000FC2001F0B3FBFF2001F0B0FBFF2001F0D6
:10248000ADFB10BD70B504460D46EE2001F0A6FB75
:10249000A42001F0A3FBE0B201F0A0FBE8B201F040
:1024A0009DFBFF2001F09AFBFC2001F097FBFF2031
:1024B00001F094FBFF2001F091FB70BD10B50446C4
:1024C000EE2001F08BFB052001F088FBE0B201F06B
:1024D00085FBFF2001F082FBFC2001F07FFBFF2049
:1024E00001F07CFBFF2001F079FB10BD2DE9F047E6
:1024F00005460E4617461C46DDE90889EE2001F028
:102500006DFB852001F06AFBE8B201F067FBF0B2D9
:1025100001F064FBF8B201F061FB200A01F05EFB00
:10252000E0B201F05BFB4FEA182001F057FB08F026
:10253000FF0001F053FB4FEA192001F04FFB09F0B7
:10254000FF0001F04BFBFF2001F048FBFC2001F0F5
:1025500045FBFF2001F042FBFF2001F03FFBBDE8FF
:10256000F08770B504460E461546EE2001F036FBA6
:10257000872001F033FB200E01F030FBC4F307404D
:1025800001F02CFBC4F3072001F028FBE0B201F0BE
:1025900025FB31462846FFF74CF9FF2001F01EFBD2
:1025A000FC2001F01BFBFF2001F018FBFF2001F0D5
:1025B00015FB70BD70B504460D46EE2001F00EFB14
:1025C000882001F00BFB200E01F008FBC4F307404C
:1025D00001F004FBC4F3072001F000FBE0B201F0BE
:1025E000FDFA280A01F0FAFAE8B201F0F7FAFF2042
:1025F00001F0F4FAFC2001F0F1FAFF2001F0EEFA0C
:10260000FF2001F0EBFA70BD10B50446EE2001F09A
:10261000E5FAB12001F0E2FA012001F0DFFAFF2033
:1026200001F0DCFAFC2001F0D9FAFF2001F0D6FA23
:10263000FF2001F0D3FA10BD10B50446EE2001F0E2
:10264000CDFAB12001F0CAFA002001F0C7FA200A41
:1026500001F0C4FAE0B201F0C1FAFF2001F0BEFAC5
:10266000FC2001F0BBFAFF2001F0B8FAFF2001F0D6
:10267000B5FA10BD10B50446EE2001F0AFFAB32054
:1026800001F0ACFAE0B201F0A9FAFF2001F0A6FADD
:10269000FC2001F0A3FAFF2001F0A0FAFF2001F0D6
:1026A0009DFA10BD70B504460D461646EE2001F0A9
:1026B00095FAB12001F092FA022001F08FFA200A77
:1026C00001F08CFAE0B201F089FA280A01F086FAEA
:1026D000E8B201F083FAF0B201F080FAFF2001F0D5
:1026E0007DFAFC2001F07AFAFF2001F077FAFF2052
:1026F00001F074FA70BD70B504460D461646EE2022
:1027000001F06CFAB12001F069FA032001F066FAD9
:10271000200A01F063FAE0B201F060FA280A01F041
:102720005DFAE8B201F05AFAF0B201F057FAFF2070
:1027300001F054FAFC2001F051FAFF2001F04EFAAA
:10274000FF2001F04BFA70BD70B504460D461646E9
:10275000EE2001F043FAB12001F040FA042001F02C
:102760003DFA200A01F03AFAE0B201F037FA280AFD
:1027700001F034FAE8B201F031FAF0B201F02EFAC9
:10278000FF2001F02BFAFC2001F028FAFF2001F0D5
:1027900025FAFF2001F022FA70BD70B504460D46FF
:1027A0001646EE2001F01AFAB12001F017FA1020B7
:1027B00001F014FA200A01F011FAE0B201F00EFA69
:1027C000280A01F00BFAE8B201F008FAF0B201F0C1
:1027D00005FAFF2001F002FAFC2001F0FFF9FF20CA
:1027E00001F0FCF9FF2001F0F9F970BD70B5044665
:1027F0000D461646EE2001F0F1F9B12001F0EEF998
:10280000102001F0EBF9200A01F0E8F9E0B201F044
:10281000E5F9280A01F0E2F9E8B201F0DFF9304603
:10282000FEF7FCFFFF2001F0D9F9FC2001F0D6F9FA
:10283000FF2001F0D3F9FF2001F0D0F970BD2DE9A0
:10284000F04105460E4614461F46DDF81880EE207E
:1028500001F0C4F9B12001F0C1F9072001F0BEF97F
:10286000280A01F0BBF9E8B201F0B8F9300A01F02A
:10287000B5F9F0B201F0B2F90FB1012100E0002189
:10288000C8B201F0ABF908F00F0141F0800001F08F
:10289000A5F9200E01F0A2F9C4F3074001F09EF95A
:1028A000C4F3072001F09AF9E0B201F097F9FF2094
:1028B00001F094F9FC2001F091F9FF2001F08EF96C
:1028C000FF2001F08BF9BDE8F0812DE9FF410446BE
:1028D0000D461F46DDF828800026EE2001F07EF927
:1028E000B12001F07BF9072001F078F9200A01F00E
:1028F00075F9E0B201F072F9280A01F06FF9E8B257
:1029000001F06CF9022001F069F907F00F01B8F14C
:10291000000F01D0802200E000221143C8B201F074
:102920005DF9002607E0C6F1030102AA505C01F040
:1029300055F9701CC6B2042EF5DBFF2001F04EF9EC
:10294000FC2001F04BF9FF2001F048F9FF2001F0D5
:1029500045F9BDE8FF8170B505460E461446EE20E8
:1029600001F03CF9B12001F039F9102001F036F9FD
:10297000280A01F033F9E8B201F030F9300A01F029
:102980002DF9F0B201F02AF9200E01F027F9C4F375
:10299000074001F023F9C4F3072001F01FF9E0B26A
:1029A00001F01CF9FF2001F019F9FC2001F016F9E3
:1029B000FF2001F013F9FF2001F010F970BD70B590
:1029C00005460E461446EE2001F008F9B12001F04C
:1029D00005F9102001F002F9280A01F0FFF8E8B229
:1029E00001F0FCF8300A01F0F9F8F0B201F0F6F865
:1029F000200E01F0F3F8C4F3074001F0EFF8C4F340
:102A0000072001F0EBF8E0B201F0E8F8FF2001F058
:102A1000E5F8FC2001F0E2F8FF2001F0DFF8FF20EC
:102A200001F0DCF870BD70B504460D461646EE2088
:102A300001F0D4F8B12001F0D1F8102001F0CEF867
:102A4000200A01F0CBF8E0B201F0C8F8280A01F042
:102A5000C5F8E8B201F0C2F8300A01F0BFF8F0B2F0
:102A600001F0BCF8FF2001F0B9F8FC2001F0B6F845
:102A7000FF2001F0B3F8FF2001F0B0F870BD70B591
:102A800005460E461446EE2001F0A8F8B12001F0EC
:102A9000A5F8102001F0A2F8280A01F09FF8E8B28A
:102AA00001F09CF8300A01F099F8F0B201F096F8C4
:102AB000200E01F093F8C4F3074001F08FF8C4F33F
:102AC000072001F08BF8E0B201F088F8FF2001F058
:102AD00085F8FC2001F082F8FF2001F07FF8FF204C
:102AE00001F07CF870BD70B504460D461646EE2028
:102AF00001F074F8B12001F071F8102001F06EF8C7
:102B0000200A01F06BF8E0B201F068F8280A01F041
:102B100065F8E8B201F062F8F0B201F05FF8FF206A
:102B200001F05CF8FC2001F059F8FF2001F056F8A4
:102B3000FF2001F053F870BD70B504460D46EE203D
:102B400001F04CF8B12001F049F8112001F046F8ED
:102B5000200A01F043F8E0B201F040F8280A01F041
:102B60003DF8E8B201F03AF8FF2001F037F8FC2018
:102B700001F034F8FF2001F031F8FF2001F02EF8C9
:102B800070BD70B504460D46EE2001F027F8B12067
:102B900001F024F8202001F021F8200A01F01EF8AD
:102BA000E0B201F01BF8280A01F018F8E8B201F0D1
:102BB00015F8FF2001F012F8FC2001F00FF8FF20BB
:102BC00001F00CF8FF2001F009F870BD70B5044663
:102BD0000D46EE2001F002F8B12000F0FFFF2120A9
:102BE00000F0FCFF200A00F0F9FFE0B200F0F6FF71
:102BF000280A00F0F3FFE8B200F0F0FFFF2000F039
:102C0000EDFFFC2000F0EAFFFF2000F0E7FFFF20CF
:102C100000F0E4FF70BD70B504460D46EE2000F0F4
:102C2000DDFFB12000F0DAFF222000F0D7FF200AFC
:102C300000F0D4FFE0B200F0D1FF280A00F0CEFF90
:102C4000E8B200F0CBFFFF2000F0C8FFFC2000F04E
:102C5000C5FFFF2000F0C2FFFF2000F0BFFF70BDE6
:102C600070B504460D461646EE2000F0B7FFB120C1
:102C700000F0B4FF232000F0B1FF200A00F0AEFF07
:102C8000E0B200F0ABFF280A00F0A8FFE8B200F0C5
:102C9000A5FFF0B200F0A2FFFF2000F09FFFFC2094
:102CA00000F09CFFFF2000F099FFFF2000F096FF4E
:102CB00070BD70B504460D46EE2000F08FFFB120C8
:102CC00000F08CFF242000F089FF200A00F086FF2E
:102CD000E0B200F083FF280A00F080FFE8B200F0C5
:102CE0007DFFFF2000F07AFFFC2000F077FFFF203F
:102CF00000F074FFFF2000F071FF70BD70B5044656
:102D00000D46EE2000F06AFFB12000F067FF25209D
:102D100000F064FF200A00F061FFE0B200F05EFF07
:102D2000280A00F05BFFE8B200F058FFFF2000F037
:102D300055FFFC2000F052FFFF2000F04FFFFF2066
:102D400000F04CFF70BD2DE9F04104460D461746DA
:102D50001E46EE2000F042FFB12000F03FFF302081
:102D600000F03CFF200A00F039FFE0B200F036FF2F
:102D7000280A00F033FFE8B200F030FFF8B200F0AC
:102D80002DFF300A00F02AFFF0B200F027FFFF20ED
:102D900000F024FFFC2000F021FFFF2000F01EFFC8
:102DA000FF2000F01BFFBDE8F08170B504460D4622
:102DB0001646EE2000F012FFB12000F00FFF312088
:102DC00000F00CFF200A00F009FFE0B200F006FF5F
:102DD000280A00F003FFE8B200F000FFF0B200F0B4
:102DE000FDFEFF2000F0FAFEFC2000F0F7FEFF20C1
:102DF00000F0F4FEFF2000F0F1FE70BD2DE9F0417F
:102E000004460D4617469846069EEE2000F0E6FE64
:102E1000B12000F0E3FE322000F0E0FE200A00F0D6
:102E2000DDFEE0B200F0DAFE280A00F0D7FEE8B2DC
:102E300000F0D4FEF8B200F0D1FE300A00F0CEFE71
:102E4000F0B200F0CBFE31464046FEF7F2FCFF2028
:102E500000F0C4FEFC2000F0C1FEFF2000F0BEFE2A
:102E6000FF2000F0BBFEBDE8F08170B504460D46C2
:102E70001646EE2000F0B2FEB12000F0AFFE332087
:102E800000F0ACFE200A00F0A9FEE0B200F0A6FEC1
:102E9000280A00F0A3FEE8B200F0A0FEF0B200F0B5
:102EA0009DFEFF2000F09AFEFC2000F097FEFF2020
:102EB00000F094FEFF2000F091FE70BD2DE9F04778
:102EC00004460D4616461F46DDE90889EE2000F04F
:102ED00085FEB12000F082FE342000F07FFE200A43
:102EE00000F07CFEE0B200F079FE280A00F076FEE9
:102EF000E8B200F073FEC6F3072000F06FFEF0B2F8
:102F000000F06CFE380A00F069FEF8B200F066FED0
:102F1000C8F3072000F062FE08F0FF0000F05EFE3C
:102F20004FEA192000F05AFE09F0FF0000F056FEAB
:102F3000FF2000F053FEFC2000F050FEFF2000F0C8
:102F40004DFEFF2000F04AFEBDE8F08710B50446B4
:102F5000EE2000F043FEB12000F040FE122000F011
:102F60003DFE200A00F03AFEE0B200F037FE10BD50
:102F700070B504460D46200A00F030FEE0B200F0C5
:102F80002DFE002000F02AFE012000F027FEE8B20E
:102F900000F024FE70BD70B505460C46280A00F00E
:102FA0001DFEE8B200F01AFE002000F017FE04201B
:102FB00000F014FE200E00F011FEC4F3074000F0F4
:102FC0000DFEC4F3072000F009FEE0B200F006FE9B
:102FD00070BD70B505460C46280A00F0FFFDE8B24A
:102FE00000F0FCFD002000F0F9FD042000F0F6FDEB
:102FF000200E00F0F3FDC4F3074000F0EFFDC4F332
:10300000072000F0EBFDE0B200F0E8FD70BD70B508
:1030100005460C46280A00F0E1FDE8B200F0DEFDAE
:10302000002000F0DBFD042000F0D8FD200E00F0B1
:10303000D5FDC4F3074000F0D1FDC4F3072000F034
:10304000CDFDE0B200F0CAFD70BD01460A4600E0C9
:10305000491C08780028FBD1881A704770B50446CF
:103060000D46200A00F0BAFDE0B200F0B7FD284698
:10307000FFF7EBFFC0F30726304600F0AFFD284610
:10308000FFF7E3FFC6B2304600F0A8FD2846FEF782
:10309000C5FB70BD70B504460D46200A00F09EFDCC
:1030A000E0B200F09BFD002000F098FD022000F04F
:1030B00095FD280A00F092FDE8B200F08FFD70BD8A
:1030C00070B504460D46200A00F088FDE0B200F01D
:1030D00085FD012000F082FDE8B200F07FFD70BDAB
:1030E00070B504460D46200A00F078FDE0B200F00D
:1030F00075FD022000F072FDE8B200F06FFD70BDBA
:1031000010B5FF2000F06AFDFC2000F067FDFF20F5
:1031100000F064FDFF2000F061FD10BD70B50546B4
:103120000E461446EE2000F059FDB12000F056FD89
:10313000402000F053FD280A00F050FDE8B200F0F6
:103140004DFD300A00F04AFDF0B200F047FD200EC0
:1031500000F044FDC4F3074000F040FDC4F3072035
:1031600000F03CFDE0B200F039FDFF2000F036FD3C
:10317000FC2000F033FDFF2000F030FDFF2000F0C8
:103180002DFD70BD70B504460D46EE2000F026FD05
:10319000B12000F023FD412000F020FD200A00F0C6
:1031A0001DFDE0B200F01AFD280A00F017FDE8B29C
:1031B00000F014FDFF2000F011FDFC2000F00EFDDA
:1031C000FF2000F00BFDFF2000F008FD70BD70B582
:1031D00004460D46EE2000F001FDB12000F0FEFC9B
:1031E000422000F0FBFC200A00F0F8FCE0B200F006
:1031F000F5FC280A00F0F2FCE8B200F0EFFCFF203A
:1032000000F0ECFCFC2000F0E9FCFF2000F0E6FC04
:10321000FF2000F0E3FC70BD70B504460D46EE20C3
:1032200000F0DCFCB12000F0D9FC442000F0D6FC1A
:10323000200A00F0D3FCE0B200F0D0FC280A00F035
:10324000CDFCE8B200F0CAFCFF2000F0C7FCFC2077
:1032500000F0C4FCFF2000F0C1FCFF2000F0BEFC29
:1032600070BD70B504460D461646EE2000F0B6FC63
:10327000B12000F0B3FC182000F0B0FC200A00F0F0
:10328000ADFCE0B200F0AAFC280A00F0A7FCE8B20E
:1032900000F0A4FC300A00F0A1FCF0B200F09EFCAB
:1032A000FF2000F09BFCFC2000F098FCFF2000F0C9
:1032B00095FCFF2000F092FC70BD70B504460D46F1
:1032C0001646EE2000F08AFCB12000F087FC1920A1
:1032D00000F084FC200A00F081FCE0B200F07EFCEB
:1032E000280A00F07BFCE8B200F078FC300A00F01D
:1032F00075FCF0B200F072FCFF2000F06FFCFC20C7
:1033000000F06CFCFF2000F069FCFF2000F066FC80
:1033100070BD2DE9F04104460D4617461E46EE20CD
:1033200000F05CFCB12000F059FC132000F056FCCA
:10333000200A00F053FCE0B200F050FC280A00F034
:103340004DFCE8B200F04AFCF8B200F047FC300A4D
:1033500000F044FCF0B200F041FCFF2000F03EFC25
:10336000FC2000F03BFCFF2000F038FCFF2000F0C8
:1033700035FCBDE8F0812DE9F04706460C461546C0
:103380001F46DDE90889EE2000F028FC862000F0C9
:1033900025FCF0B200F022FC200A00F01FFCE0B295
:1033A00000F01CFC280A00F019FCE8B200F016FC42
:1033B000F8B200F013FC08F0FF0000F00FFC09F079
:1033C000FF0000F00BFCFF2000F008FCFC2000F0E8
:1033D00005FCFF2000F002FCFF2000F0FFFBBDE831
:1033E000F08770B505460E462C460EB144F08004B9
:1033F000EE2000F0F3FBC12000F0F0FBE0B200F0A3
:10340000EDFB04F1C101C8B200F0E8FBFF2000F0C1
:10341000E5FBFC2000F0E2FBFF2000F0DFFBFF20DB
:1034200000F0DCFB70BD70B504460D46EE2000F0E8
:10343000D5FBB12000F0D2FBAA2000F0CFFB200E7C
:1034400000F0CCFBC4F3074000F0C8FBC4F3072036
:1034500000F0C4FBE0B200F0C1FB280E00F0BEFBA0
:10346000C5F3074000F0BAFBC5F3072000F0B6FB38
:10347000E8B200F0B3FB70BD70B504460D46200AFB
:1034800000F0ACFBE0B200F0A9FB280A00F0A6FBBC
:10349000E8B200F0A3FB70BD10B5FF2000F09EFB6A
:1034A000FC2000F09BFBFF2000F098FBFF2000F0C9
:1034B00095FB10BD70B504460D46EE2000F08EFB66
:1034C000B12000F08BFBAB2000F088FB200E00F059
:1034D00085FBC4F3074000F081FBC4F3072000F034
:1034E0007DFBE0B200F07AFB280E00F077FBC5F31D
:1034F000074000F073FBC5F3072000F06FFBE8B254
:1035000000F06CFBFF2000F069FBFC2000F066FB84
:10351000FF2000F063FBFF2000F060FB70BD2DE991
:10352000F04104460D4616461F46EE2000F056FBBD
:10353000B12000F053FB602000F050FB200A00F0A7
:103540004DFBE0B200F04AFB280A00F047FBE8B26E
:1035500000F044FB39463046FEF76BF9FF2000F0DF
:103560003DFBFC2000F03AFBFF2000F037FBFF2082
:1035700000F034FBBDE8F0812DE9F04104460D4632
:1035800016461F46EE2000F029FBB12000F026FB76
:10359000602000F023FB200A00F020FBE0B200F0E6
:1035A0001DFB280A00F01AFBE8B200F017FB3946B1
:1035B0003046FEF74BF9FF2000F010FBFC2000F036
:1035C0000DFBFF2000F00AFBFF2000F007FBBDE829
:1035D000F0812DE9F04106460F4615469846002435
:1035E000EE2000F0FBFAB12000F0F8FA602000F0C5
:1035F000F5FA300A00F0F2FAF0B200F0EFFA380A09
:1036000000F0ECFAF8B200F0E9FA16E055F82410F0
:10361000080E00F0E3FA55F82410C1F3074000F05B
:10362000DDFA35F82410C1F3072000F0D7FA15F8B9
:10363000240000F0D3FA601CC4B24445E6DBFF204E
:1036400000F0CCFAFC2000F0C9FAFF2000F0C6FA26
:10365000FF2000F0C3FABDE8F0812DE9F0470546F0
:103660000E469046994600270024EE2000F0B6FA58
:10367000B12000F0B3FA602000F0B0FA280A00F0A0
:10368000ADFAE8B200F0AAFA300A00F0A7FAF0B2F8
:1036900000F0A4FA11E058F82740200E00F09EFA3E
:1036A000C4F3074000F09AFAC4F3072000F096FA3A
:1036B000E0B200F093FA781CC7B24F45EBDBFF2075
:1036C00000F08CFAFC2000F089FAFF2000F086FA66
:1036D000FF2000F083FABDE8F08770B504460D4680
:1036E0001646EE2000F07AFAB12000F077FA612059
:1036F00000F074FA200A00F071FAE0B200F06EFAFD
:10370000280A00F06BFAE8B200F068FAF0B200F0B4
:1037100065FAFF2000F062FAFC2000F05FFAFF205B
:1037200000F05CFAFF2000F059FA70BD2DE9F0417D
:1037300004460D4616461F46EE2000F04FFAB12013
:1037400000F04CFA622000F049FA200A00F046FA34
:10375000E0B200F043FA280A00F040FAE8B200F0C4
:103760003DFAF0B200F03AFAF8B200F037FAFF2072
:1037700000F034FAFC2000F031FAFF2000F02EFABD
:10378000FF2000F02BFABDE8F08170B504460D462D
:103790001646EE2000F022FAB12000F01FFA632056
:1037A00000F01CFA200A00F019FAE0B200F016FA54
:1037B000280A00F013FAE8B200F010FA002000F036
:1037C0000DFA300A00F00AFAF0B200F007FAFF2012
:1037D00000F004FAFC2000F001FAFF2000F0FEF9EE
:1037E000FF2000F0FBF970BD70B504460D46EE20D9
:1037F00000F0F4F9B12000F0F1F9632000F0EEF9E7
:10380000200A00F0EBF9E0B200F0E8F9280A00F035
:10381000E5F9E8B200F0E2F9012000F0DFF9FF205D
:1038200000F0DCF9FC2000F0D9F9FF2000F0D6F917
:10383000FF2000F0D3F970BD2DE9F04104460D469C
:1038400016461F46DDF81880EE2000F0C7F9B120BB
:1038500000F0C4F9632000F0C1F9200A00F0BEF9BD
:10386000E0B200F0BBF9280A00F0B8F9E8B200F0C5
:10387000B5F9022000F0B2F9300A00F0AFF9F0B269
:1038800000F0ACF9380A00F0A9F9F8B200F0A6F996
:103890004FEA182000F0A2F908F0FF0000F09EF9AE
:1038A000FF2000F09BF9FC2000F098F9FF2000F0C9
:1038B00095F9FF2000F092F9BDE8F0812DE9F04183
:1038C00004460D4616461F464FF00008EE2000F055
:1038D00085F9B12000F082F9502000F07FF9200A2C
:1038E00000F07CF9E0B200F079F9280A00F076F9EE
:1038F000E8B200F073F9300A00F070F9F0B200F0AD
:103900006DF967B100BF07E017F8080000F066F92D
:1039100008F1010000F0FF08B8F1070FF4DBFF2009
:1039200000F05CF9FC2000F059F9FF2000F056F996
:10393000FF2000F053F9BDE8F0812DE9F041044685
:103940000D4616461F464FF00008EE2000F046F9DF
:10395000B12000F043F9512000F040F9200A00F0B6
:103960003DF9E0B200F03AF9280A00F037F9E8B280
:1039700000F034F9300A00F031F9F0B200F02EF91D
:1039800067B100BF07E017F8080000F027F908F159
:10399000010000F0FF08B8F1070FF4DBFF2000F092
:1039A0001DF9FC2000F01AF9FF2000F017F9FF20A4
:1039B00000F014F9BDE8F08170B504460D461646D6
:1039C000EE2000F00BF9B12000F008F9522000F0D1
:1039D00005F9200A00F002F9E0B200F0FFF8280A29
:1039E00000F0FCF8E8B200F0F9F83046FDF716FFF9
:1039F000FF2000F0F3F8FC2000F0F0F8FF2000F0CA
:103A0000EDF8FF2000F0EAF870BD70B504460D46F1
:103A1000EE2000F0E3F8B12000F0E0F8532000F0D1
:103A2000DDF8200A00F0DAF8E0B200F0D7F8280A52
:103A300000F0D4F8E8B200F0D1F8FF2000F0CEF8A2
:103A4000FC2000F0CBF8FF2000F0C8F8FF2000F0C9
:103A5000C5F870BD70B504460D461646EE2000F060
:103A6000BDF8B12000F0BAF8542000F0B7F8200AF1
:103A700000F0B4F8E0B200F0B1F8280A00F0AEF8B7
:103A8000E8B200F0ABF8300A00F0A8F8F0B200F0AD
:103A9000A5F8FF2000F0A2F8FC2000F09FF8FF201E
:103AA00000F09CF8FF2000F099F870BD70B5044656
:103AB0000D46EE2000F092F8B12000F08FF855206E
:103AC00000F08CF8200A00F089F8E0B200F086F8E7
:103AD000280A00F083F8E8B200F080F8FF2000F038
:103AE0007DF8FC2000F07AF8FF2000F077F8FF2046
:103AF00000F074F870BD10B5EE2000F06FF8822071
:103B000000F06CF8FF2000F069F8FC2000F066F887
:103B1000FF2000F063F8FF2000F060F810BD70B5E2
:103B200004460025EE2000F059F844B100BF04E03F
:103B3000605D00F053F8681CC5B2132DF8DBFF2060
:103B400000F04CF8FC2000F049F8FF2000F046F8A7
:103B5000FF2000F043F870BD10B586B00446012187
:103B6000052002F053FA0121480402F05CFA042017
:103B7000ADF8140018208DF8170003208DF81600FA
:103B800005A9214801F086FF0820ADF814000420A3
:103B90008DF8170005A91C4801F07CFF1B4802F0B6
:103BA00099FA01940020ADF80800ADF80A00ADF8CC
:103BB0000C00ADF810000C20ADF80E0001A9134860
:103BC00002F0CBFA012240F22551104802F05DFBD1
:103BD00001210E4802F04DFB06B010BD10B50446A1
:103BE00021460A4802F0B2FB00BF8021074802F0DC
:103BF0001BFC0028F9D000BF4021044802F014FC4F
:103C00000028F9D010BD0000000801400044004029
:103C100010B502F08DF8012002F00FF900BF21204D
:103C200002F0C9F80028FAD0102003F039FF022072
:103C300003F022FF002002F020F9002002F02FF90B
:103C40004FF4806002F022F94FF42011002002F0BE
:103C5000F7F8012002F000F900BF392002F0ABF8BC
:103C60000028FAD0022002F0FAF800BF02F000F9B2
:103C70000828FBD110BD08B54FF4C06002F02EFC3F
:103C800026208DF8000001208DF80100684602F022
:103C90002AFC08BD10B5F7480078F7490978884232
:103CA00015D0F4480078F4490870F248007828B933
:103CB000F2A203211620FEF799FD08E0ED480078F6
:103CC000012804D1EFA203211620FEF78FFDEF4853
:103CD0000078EF490978884215D0EC480078EC4923
:103CE0000870EA48007828B9EAA204211620FEF7F5
:103CF0007DFD08E0E5480078012804D1E7A2042111
:103D00001620FEF773FDE7480078E74909788842F6
:103D100015D0E4480078E4490870E248007828B9F2
:103D2000E2A205211620FEF761FD08E0DD480078DB
:103D3000012804D1DFA205211620FEF757FDDF4838
:103D40000078DF490978884215D0DC480078DC49E2
:103D50000870DA48007828B9DAA208211620FEF7A0
:103D600045FD08E0D5480078012804D1D7A20821F4
:103D70001620FEF73BFDD748007860B9D64800789A
:103D800048B909211620FEF721FF0022092116203B
:103D9000FEF766FF2DE0CF48007868B9CE4800787E
:103DA000012809D109211620FEF710FF022209215E
:103DB0001620FEF755FF1CE0C648007801280CD1FC
:103DC000C548007848B909211620FEF7FFFE0122F8
:103DD00009211620FEF744FF0BE0BE4800780128B9
:103DE00007D1BD480078012803D109211620FEF72C
:103DF000C8FEBA480078BA490978884215D0B74851
:103E00000078B7490870B548007828B99BA20A2104
:103E10001620FEF7EBFC08E0B0480078012804D13A
:103E200098A20A211620FEF7E1FCAE480078AE49C0
:103E30000978884215D0AB480078AB490870A9488A
:103E4000007828B993A20B211620FEF7CFFC08E0DA
:103E5000A4480078012804D190A20B211620FEF777
:103E6000C5FCA2480078A2490978884215D09F482D
:103E700000789F4908709D48007828B98BA20C21D2
:103E80001620FEF7B3FC08E098480078012804D11A
:103E900088A20C211620FEF7A9FC964800789649C6
:103EA0000978884215D09348007893490870914862
:103EB000007828B983A20F211620FEF797FC08E0AE
:103EC0008C480078012804D180A20F211620FEF72B
:103ED0008DFC8A48007860B98948007848B910217B
:103EE0001620FEF773FE002210211620FEF7B8FE02
:103EF0002DE08248007868B981480078012809D10E
:103F000010211620FEF762FE022210211620FEF775
:103F1000A7FE1CE07948007801280CD17848007889
:103F200048B910211620FEF751FE0122102116205B
:103F3000FEF796FE0BE071480078012807D1704823
:103F40000078012803D110211620FEF71AFE6D48D3
:103F500000786D490978884215D06A4800786A4926
:103F600008706848007828B944A211211620FEF78D
:103F70003DFC08E063480078012804D141A21121EA
:103F80001620FEF733FC61480078614909788842C1
:103F900015D05E4800785E4908705C48007828B902
:103FA0003CA212211620FEF721FC08E057480078B9
:103FB000012804D139A212211620FEF717FC55481A
:103FC000007855490978884215D0524800785249FE
:103FD00008705048007828B934A213211620FEF743
:103FE00005FC08E04B480078012804D131A21321D8
:103FF0001620FEF7FBFB49480078494909788842BA
:1040000015D046480078464908704448007828B9D9
:104010002CA216210846FEF7E9FB08E03F4800788D
:10402000012804D129A216210846FEF7DFFB3D48EE
:10403000007860B93C48007848B917211620FEF78F
:10404000C5FD002217211620FEF70AFE8BE0354839
:10405000007868B934480078012867D11721162004
:10406000FEF7B4FD022217211620FEF7F9FD7AE0D3
:104070005CE0000052000020E6000020CEDEB1AD82
:1040800000000000D3D0B1AD0000000059000020B6
:10409000E9000020B1C3B9D800000000B1C3BFAA35
:1040A0000000000055000020EC000020CEDECBAE6A
:1040B00000000000D3D0CBAE000000005C00002068
:1040C000EF000020B7A7B9D800000000B7A7BFAA2B
:1040D000000000004C0000204F0000205300002092
:1040E000E70000205A000020EA00002056000020CF
:1040F000ED0000205D000020F00000204D000020B9
:104100005000002054000020E80000205B00002048
:10411000EB00002057000020EE0000205E00002091
:10412000F10000204E00002051000020FE480078E1
:1041300001280CD1FD48007848B917211620FEF758
:1041400045FD012217211620FEF78AFD0BE0F648F7
:104150000078012807D1F5480078012803D11721FC
:104160001620FEF70EFD10BD08B5F14800880228A4
:1041700009D1F0480068012805D10020ED49086008
:104180000320FEF759FAEA48008808280ED1E948CA
:10419000006801280AD10020E6490860E64A0821A3
:1041A0000620FEF723FB0920FEF746FAE0480088C8
:1041B0000B2809D1DF480068012805D10020DD491E
:1041C00008600C20FEF738FAD94800880D2809D17C
:1041D000D8480068012805D10020D64908600E2083
:1041E000FEF72AFAD24800880F2809D1D148006882
:1041F000012805D10020CF4908601020FEF71CFAE5
:10420000CB480088102809D1CA480068012805D188
:104210000020C84908601120FEF70EFAC448008843
:1042200013280AD10020C5490860C5490860C5495E
:104230000860C5490860C5490860BD480088142861
:104240002DD10120BD490860C1480068012807D16F
:10425000C04A01211420FEF7C9FA0020BC490860B9
:104260000120B7490860BC480068012817D1BB4845
:104270000068424202211420FEF76DFBB848006836
:10428000424209211420FEF766FBB648006842420C
:1042900010211420FEF75FFB0020AF490860A448FE
:1042A0000088152841D10020A4490860A44908606D
:1042B0001021AD4801F08EFC012805D1ABA20521EB
:1042C0001520FEF793FA18E01021A74801F082FCB0
:1042D00098B9A7A205211520FEF788FA0120974971
:1042E00008609B480068012807D19A4A06211520DA
:1042F000FEF77CFA0020964908604FF480719A48D6
:1043000001F068FC012805D199A207211520FEF7CC
:104310006DFA0AE04FF48071934801F05BFC20B91C
:1043200092A207211520FEF761FA8148008816281D
:1043300035D1002081490860824908600120804908
:10434000086085480068012820D1022001230090E0
:1043500082480068424207211620FEF770FA0220C8
:10436000012300907E48006842420E211620FEF78D
:1043700066FA0220012300907A4800684242152123
:104380001620FEF75CFA0020734908600120794985
:10439000086079480068012801D1FFF77BFC644878
:1043A0000088172802D10120684908606048008809
:1043B00018280ED1002061490860614908605D48F5
:1043C0000068012805D100205A4908602520FEF721
:1043D00033F957480088192850D1012057490860FF
:1043E0005B480068012811D15A4A01211920FEF7C3
:1043F000FDF90020564908600120604908606048C6
:104400000068012802D100205D4908605D4800680D
:10441000012814D15C48C07928B90222032119204F
:10442000FEF71EFC08E05848C079012804D101229B
:1044300003211920FEF714FC0020524908600120D6
:104440003F49086044480068012817D14348006884
:10445000424202211920FEF77EFA4148006842429A
:1044600009211920FEF777FA3E48006842421021E0
:104470001920FEF770FA00203749086008BD10B512
:10448000AFF2084203211620FEF7B0F9AFF2FC327A
:1044900004211620FEF7AAF9AFF2F032052116200A
:1044A000FEF7A4F9AFF2E43208211620FEF79EF9D8
:1044B000002209211620FEF7D3FBAFF240420A2169
:1044C0001620FEF793F9AFF234420B211620FEF7C7
:1044D0008DF9AFF228420C211620FEF787F9AFF2D2
:1044E0001C420F211620FEF781F900221021162010
:1044F000FEF7B6FBAFF27C4211211620FEF776F9EB
:10450000AFF2704212211620FEF770F9AFF264424A
:1045100013211620FEF76AF9AFF258421621084619
:10452000FEF764F9002231E04E0000205100002027
:104530009400002000010020B7000020BC000020F3
:10454000C0000020C4000020CC000020C8000020D3
:1045500068000020A90600208400002078000020C8
:104560007C0000208000002000100140B9D800002D
:10457000BFAA0000D800002044000020D000002086
:10458000F8000020FC000020900B002017211620CE
:10459000FEF766FB10BD10B5012202210320FEF7D5
:1045A000FCF810BD70477047704770477047704700
:1045B0002DE9F04104460D461646022C0ED1012D80
:1045C0000CD10020F74900220A6000BF03E0315CF3
:1045D000F44A1154401C0428F9DB00BF072C14D105
:1045E000012D12D100271421EF4803F060FE00BF17
:1045F00007E0F05DEC49C8550846C05D00B902E02F
:104600007F1C142FF5DB00BF00BF072C15D1022D36
:1046100013D10020E54900220A604A600A8100BFE8
:1046200007E0315CE14A11541146095C01B902E02E
:10463000401C0A28F5DB00BF00BF182C01D1032D58
:104640000BD00F2C01D1012D07D00B2C01D1012D46
:1046500003D00D2C0ED1012D0CD10020D449002205
:104660000A6000BF03E0315CD14A1154401C0428A9
:10467000F9DB00BF182C01D1042D07D00F2C01D17C
:10468000022D03D0022C0ED1012D0CD10020C549E2
:1046900000220A6000BF03E0315CC24A1154401C92
:1046A0000428F9DB00BF122C15D1022D13D10020F4
:1046B000C04900220A604A600A8100BF07E0315CFD
:1046C000BC4A11541146095C01B902E0401C0A2899
:1046D000F5DB00BF00BF082C01D0102C1DD1012D2F
:1046E0000CD10020B44900220A6000BF03E0315C15
:1046F000B14A1154401C0428F9DB00BF022D0CD133
:104700000020AE4900220A6000BF03E0315CAB4AE2
:104710001154401C0428F9DB00BFBDE8F0812DE9ED
:10472000FE4F04460D469046042C07D1012D05D1BD
:104730005020A34908700120A2490860152C0DD112
:10474000082D0BD1B8F1000F08D19F48006801284F
:1047500004D110219D4801F04AFA0EE0152C0CD12D
:10476000082D0AD1B8F1010F07D197480068012838
:1047700003D11021954801F03CFA954800680128C2
:1047800016D1172C09D1022D07D1B8F1000F04D191
:1047900001028E4801F02BFA0AE0172C08D1022DF5
:1047A00006D1B8F1010F03D1E901884801F021FADF
:1047B000022C25D1022D23D1002786A207CA8DE81D
:1047C00007001021864803F072FD00BF04E01DF8C9
:1047D00007008349C8557F1C0C2FF8DB002606E034
:1047E0007048815D7E4A06F10C001154761C042E3F
:1047F000F6DB54207249087001207A49086000BF36
:10480000072C35D1032D33D100261E21764803F025
:104810004EFD222074498855012609E0701E624928
:10482000085C714988550846805D00B902E0761C35
:10483000142EF3D300BF22206B498855761C2C2000
:104840008855761C00270AE05848C05DF119664A71
:104850005054F0191146085C00B902E07F1C0A2F81
:10486000F2D300BF604A07210620FDF7BFFF00BF5B
:104870000B2C07D1022D05D152205149087001207F
:10488000584908600D2C07D1022D05D153204C4901
:1048900008700120534908600F2C1FD1032D1DD132
:1048A000524A002313605360002004E0404A125C27
:1048B0004E4B1A54401C0428F8D3002105E0394A15
:1048C000525C4318494EF254491C0429F7D355222F
:1048D0003B4B1A700122434B1A6000BF182C24D1A5
:1048E000022D22D14148002101604160304A172148
:1048F0001920FDF77BFF002604E02D48805D3B4931
:104900008855761C042EF8D3002705E02548C05DA5
:10491000F119364A50547F1C042FF7D355202849EB
:10492000087001202F49086000BF122C18D1032DF8
:1049300016D102AA2EA11F4803F07EFB40F2D241FD
:104940000298884203D11320FDF776FE02E0222070
:10495000FDF772FE1748002101604160018100BF30
:10496000082C5BD1032D59D10026002721480021B6
:10497000016000BF0FE01048805D1049895D8842EA
:1049800001D17F1C06E00C48805D0C49895D88429E
:1049900000D002E0761C042EEDDB00BF042F39D1DD
:1049A00000262EE0A30000200A0900201E09002096
:1049B0009F00002056090020AF000020B300002017
:1049C0009E000020E0000020BC00002000100140FC
:1049D000C80000204B4C4530333230303530303158
:1049E00046090020DC00002028090020A700002044
:1049F000256C6400B7000020C548805DC549885516
:104A0000761C042EF8DB5620C34908700120C349E8
:104A1000086002E01D20FDF70FFE00BF102C50D1F2
:104A2000032D4ED100264FF0000ABA480021016044
:104A300000BF10E0B648805DB949895D884202D167
:104A40000AF1010A06E0B248805DB549895D8842F5
:104A500000D002E0761C042EECDB00BFBAF1040F9C
:104A60002BD1002604E0AA48805DAA498855761C0F
:104A7000042EF8DBAB48002101604160002704E010
:104A8000A948C05DA749C8557F1C042FF8D34FF033
:104A9000000908E09F4810F8090007EB0901A14A46
:104AA000505409F10109B9F1040FF3D357209A4981
:104AB000087001209949086002E02120FDF7BCFD43
:104AC00000BFBDE8FE8F99490880704770B504ACFF
:104AD00070CC70BD7047704770472DE9FE4F04469B
:104AE0000D466678A77894F807802079E17840EA47
:104AF0000129A079617940EA012A207A0106607AC9
:104B000041EA0041A07A41EA0020E17A40EA010B43
:104B10000D2E2CD008DC012E0FD0032E0ED00B2E24
:104B200029D00C2E6FD11EE00F2E2CD0552E6BD01D
:104B3000B12E43D0F72EF5D12BE000BF7C4B5B7933
:104B4000DFF8ECC19CF804C043EA0C22784BDB7818
:104B5000DFF8DCC19CF802C043EA0C21744B5878A2
:104B6000FFF7BAFF76E00120FFF7B5FF72E0002003
:104B7000FFF7B1FF6EE0A81F82B26D49891C0120CA
:104B8000FFF7A8FF66E0002211461046FFF7A2FFDC
:104B900060E06748017AC079654A9279DFF890C190
:104BA000CDE9002002919CF805309CF804209CF887
:104BB00003109CF80200FFF789FF4BE0012F03D19F
:104BC0004846FFF780FF40E0A8F110000C283AD2D9
:104BD000DFE800F0060C131B213939343939272E50
:104BE000627A51464846FFF79AFD2DE004F108022B
:104BF00051464846FFF7DCFC26E05A4651464846F7
:104C0000FFF7D5FC20E024E020E05A465146484614
:104C1000FFF7CCFC18E05A4651464846FFF7C5FC62
:104C200012E0637A227A51464846FFF7BDFC0BE05A
:104C3000227A51464846FFF7B6FC05E05146484601
:104C4000FFF7B0FC00E000BF00BF03E0FFF7A3FCEC
:104C500000E000BF00BFBDE8FE8F10B54021344822
:104C6000FCF78CFD3349088008460088002809DDE0
:104C70002F484078072805D0084601882C48FFF7C0
:104C80002CFF1EE02B48008800281ADD28484078B9
:104C9000072816D128A206210846FDF7A7FDFFF731
:104CA000EEFB71B600BF2848006800F4E0602749B9
:104CB0000843001D24490860BFF34F8F00BF00BFA9
:104CC000FEE72348007801280FD100202049087012
:104CD000204801780078401C1E4A1070022904DB2D
:104CE000002011460870FFF73FFA10480088192885
:104CF00004D10421184800F07CFF07E00B4800882D
:104D0000192803D00421144800F071FF10BD0000E1
:104D1000AF000020B70000209E000020DC00002033
:104D2000B3000020A70000209F0000209400002076
:104D3000C00800209C0000204B4C453033323030FE
:104D400035303031000000000CED00E00000FA05C5
:104D500002000020E40000200010014008B50121FD
:104D6000342001F053F94FF48070ADF800001020AA
:104D70008DF8030003208DF8020069464C4800F0CE
:104D800089FE4FF480714A4800F031FF0420ADF8ED
:104D900000006946474800F07DFE0421454800F0C8
:104DA00026FF0120ADF800006946434800F072FE7E
:104DB0000121414800F01DFF0220ADF800006946C6
:104DC0003D4800F067FE02213B4800F010FF042040
:104DD000ADF800006946384800F05CFE0421364812
:104DE00000F005FF0820ADF800006946324800F0E9
:104DF00051FE0821304800F0FAFE08BD08B5012137
:104E0000182001F003F901212C4800F014FF402084
:104E1000ADF8000048208DF803006946264800F0F0
:104E200039FE8020ADF8000048208DF80300694667
:104E3000214800F02FFE4FF40050ADF8000028206C
:104E40008DF8030069461E4800F024FE4FF48040B0
:104E5000ADF8000028208DF803006946184800F0DE
:104E600019FE4FF40040ADF8000028208DF8030033
:104E70006946134800F00EFE08BD1248007801286C
:104E800015D100200F4908700F4801780078401CA8
:104E90000D4A107032290ADB0020114608700B48B9
:104EA000006808B9012000E0002008490860704748
:104EB00000080140001401400010014000023000D1
:104EC000000C014001000020F2000020800122427D
:104ED00010B586B004460121302001F097F8012179
:104EE000080501F0A0F84FF48050ADF8140003203D
:104EF0008DF8160018208DF8170005A9E24800F07B
:104F0000C9FD0420ADF814008DF8170005A9DF488D
:104F100000F0C0FD01940020ADF80800ADF80A00D3
:104F2000ADF80C00ADF810000C20ADF80E0001A992
:104F3000D74801F012F90121D54801F09AF9012270
:104F400040F22551D24801F0A0F935208DF800003B
:104F500003208DF801008DF8020001208DF8030078
:104F6000684601F0C0FA06B010BD10B540F22551F8
:104F7000C74801F06FFA10B3C54801F0EBF9C4B2AD
:104F8000C448008800F40040C8B9C248008800F452
:104F9000804060B10A2C03D00020BE49088020E088
:104FA000BC48008840F40040BA49088019E00D2C44
:104FB00006D1B848008840F48040B649088010E027
:104FC000B4480088C0F30D00B3490C54B1480088C0
:104FD000401CB049088008460088C72801DD002031
:104FE000088010BDFEB5AD480068012833D100200F
:104FF000AA490860A748008880B1002404E0A648B8
:10500000005DA7490855641C132CF8DB06D112215A
:10501000A14803F04CF900209E490880002505E0D6
:10502000A048415DA04AE81D11546D1C112DF7DB0D
:105030009E489C4959220123CDE9002102901A463D
:105040002021122000F0C5FB9849914800F088FB10
:105050000120974908609748006801287ED1002602
:105060000020944908609448007852280ED1934952
:105070009348914A12780023CDE900200291012241
:105080002021042000F0A5FB06465DE08A48007858
:1050900053280ED189488A49874A12780023CDE9DE
:1050A0000021029001222021042000F092FB0646FC
:1050B0004AE08148007854280ED1804881497E4AD0
:1050C00012780023CDE90021029001222021102036
:1050D00000F07FFB064637E07748007855280ED170
:1050E00076497948744A12780023CDE9002002916C
:1050F00001222021082000F06CFB064624E06E48C7
:10510000007856280ED16D4970486B4A12780023FA
:10511000CDE90020029101222021042000F059FB5A
:10512000064611E06448007857280DD16348664967
:10513000614A12780023CDE900210290012220214A
:10514000082000F046FB064632465C49504800F015
:105150001DFB002058490870012000E002E05C4976
:10516000086000BF5B48006801286FD15A4800689A
:1051700048B9F0225949464800F008FB56480068F3
:10518000401C554908600120554908604248007894
:10519000012823D15348006800BB00204D49086016
:1051A0004F4908604F4908604F4908604A49086004
:1051B0001E21394803F07BF8002036490880012081
:1051C0004A4908600221304800F013FD322000F007
:1051D0008AFA02212C4800F00AFD37E041480068B5
:1051E000012833D100203B4908603D4908603D4912
:1051F00008603D490860384908601E21264803F0D0
:1052000056F8002023490880F022344900F005FABE
:10521000F0223749002000F012FA02211A4800F06B
:10522000E8FC322000F05FFA0221174800F0DFFCB2
:10523000322000F058FA0221134800F0DAFC322044
:1052400000F051FA0221104800F0D1FC12484078D9
:10525000552817D110480078AA2813D10E48807914
:10526000A1280FD11E210C4803F021F80020094984
:105270000880F0221F4900F0E2F9F0221D4904489D
:1052800000F084FAFEBD000000100140001401404F
:1052900000500040F400002060090020D0000020F1
:1052A0007E090020A90600200C010020AC0B002084
:1052B000F8000020DC0000209E000020CA0B002027
:1052C0009F00002046090020A7000020B700002012
:1052D00000010020300000200801002054030020BD
:1052E0000C00002010000020080000200401002015
:1052F00090090020900A002008B50121102000F03C
:1053000085FE4FF48070ADF8000010208DF803008A
:1053100003208DF802006946044800F0BBFB4FF4FF
:105320008071024800F065FC08BD70470010014024
:1053300008B50121082000F069FEC020ADF800008A
:1053400010208DF8030003208DF802006946C44840
:1053500000F0A0FB0120C3490860C349C1F89C01CB
:1053600008BD10B5BE48006820F07040BC49086018
:105370000846006840F0405008600020B9490860C5
:10538000B949C1F89C01042000F089F90120B54910
:105390000860B549C1F89C01042000F080F910BDF7
:1053A00010B50024AE48006820F07040AC49086099
:1053B0000846006840F0004008600120A949091D26
:1053C000086000F06CF90120A749C1F8980100F0CD
:1053D00066F907E0601CC4B2FA2C03DDFFF7C1FFD9
:1053E000012010BD9F487C3800680028F2D19D49FB
:1053F000086000BFF5E770B504469948006820F0E2
:105400007040974908600846006840F040500860C6
:10541000002094490860002517E0E0099149091D22
:1054200008606006040E022000F039F901208E4960
:10543000C1F89801022000F032F900208949086083
:10544000022000F02CF9681CC5B2082DE5DB70BD08
:1054500010B58348006820F0704081490860084614
:10546000006840F04050086001207E49091D086036
:105470007D49C1F89801042000F011F90020794914
:10548000091D0860042000F00AF900207649C1F8DF
:10549000980110BD70B504460E46FFF7D9FFA02055
:1054A000FFF7A9FFFFF77CFF2012FFF7A4FFFFF72C
:1054B00077FF2546E11704EB11610912A4EB0121E6
:1054C000C8B2FFF798FFFFF76BFF3046FFF793FF77
:1054D000FFF766FFFFF745FF0A2000F004F970BDF3
:1054E00010B500205F4908605D48006820F07040FA
:1054F0005B4908600846006840F0405008600020A2
:105500005949C1F89C01022000F0C9F80120554911
:105510000860022000F0C3F800205349C1F8980148
:1055200010BD10B500204F4908604D48006820F0BC
:1055300070404B4908600846006840F040500860E1
:1055400001204949C1F89C01022000F0A8F801207F
:1055500044490860022000F0A2F800204249C1F846
:10556000980110BD70B5054600243D48006820F044
:1055700070403B4908600846006840F00040086001
:10558000002616E0002037490860022000F087F866
:1055900001203549C1F898016006040E31487C3875
:1055A000006808B1601CC4B2012000F078F8701CDB
:1055B000C6B2082EE6DB15B9FFF7B3FF01E0FFF72F
:1055C0008FFF204670BD70B504460026FFF740FFF0
:1055D000A020FFF710FFFFF7E3FE2012FFF70BFFFD
:1055E000FFF7DEFE2546E11704EB11610912A4EB7B
:1055F0000121C8B2FFF7FFFEFFF7D2FEFFF728FF39
:10560000A120FFF7F8FEFFF7CBFE0020FFF7AAFF6F
:105610000646FFF7A6FE304670BD70B505460C463F
:10562000164606E021782846FFF734FF681C85B24D
:10563000641C301EA6F10101CEB2F3D170BD70B56D
:1056400006460C46154608E03046721C96B2FFF737
:10565000BAFF04F8010B681EC5B2002DF4D170BD6D
:10566000000C0140988121420080214210B56FF06A
:10567000040000F082FF2E4800682E49B0FBF1F0D4
:105680002D4908700846007800EB4001C1EBC010BE
:105690004FF6FF7101EAC0002849088010BD01469D
:1056A000254A12784A434FF0E0235A6100229A615A
:1056B0001A46126942F001021A6100BF4FF0E0225F
:1056C000106900F001021AB100F48032002AF5D00E
:1056D0004FF0E022126922F001024FF0E0231A613C
:1056E00000229A6170470146144A12884A434FF0DB
:1056F000E0235A6100229A611A46126942F00102BF
:105700001A6100BF4FF0E022106900F001021AB1E7
:1057100000F48032002AF5D04FF0E022126922F026
:1057200001024FF0E0231A6100229A6170470000E5
:105730001400002000127A002A0100202C01002011
:1057400003E04A1ED1B2002242540029F9D1704729
:1057500003E04A1ED1B2002242540029F9D1704719
:1057600070B506460C4600250CE0615D304600F041
:10577000EDFD00BF8021304600F056FE0028F9D034
:10578000681C85B2605D0028EFD170BD2DE9F04145
:1057900007460D461646002400BF15E0295D384631
:1057A00000F0D4FD00BF8021384600F03DFE002807
:1057B000F9D0285DAA2805D1281910F8010C552820
:1057C00000D103E0601C84B2B442E7DB00BFBDE857
:1057D000F0812DE9F04305460E46DDE907C8099C36
:1057E000281DC7B20021AA206054491C55206054CE
:1057F000491C281D6054491C6654491C6254491CAC
:105800006354491C04F801C0491C002106E018F843
:105810000190E01D00F80190481C81B2A942F6DB1E
:10582000032103E0605C4740481C81B2E81D8842C8
:10583000F8DCE91D6754481C81B255206054481CAF
:1058400081B2AA206054481C81B205F10A00C0B29E
:10585000BDE8F083F0B502460C462146062500203F
:10586000434EF270CE78424F3E710AB9032306E0F0
:10587000012A01D1A72302E0202A00D172233C4E45
:10588000B3718E783A4FFE718F78CE1CF65D384F2B
:105890003E72032004E0364E365C7540461CF0B282
:1058A0000928F8DB324E3554461CF0B25526304FED
:1058B0003E54461CF0B2AA263E54461CF0B2F0BD3F
:1058C0002DE9F04781460E4600270025A8463446BC
:1058D00094F805A02078AA2802D16078552802D033
:1058E0000120BDE8F087A57860190079552803D11B
:1058F00060194079AA2801D00220F2E7A8460327C0
:1059000004E0E05D80EA0808781CC7B2E81C874222
:10591000F7DB6019C078404501D00320E1E7BAF118
:10592000000F0DD007211248C01CFFF711FF3146B0
:105930002020FFF78FFF0C220D494846FFF726FF76
:105940000020CEE710B50346002000BF03E01C5C3A
:105950000C54441CE0B29042F9DB904207D1002085
:1059600003E0541EE2B200249C54002AF9D110BD79
:105970002E01002000BF704700BF054A128802F0C8
:105980004002002AF9D0C2B2014B1B1D1A80704799
:10599000003801400948804709480047FEE7FEE714
:1059A000FEE7FEE7FEE7FEE7FEE7FEE7FEE7FEE7CF
:1059B00004480549054A064B704700007304000877
:1059C00031010008400C002040120020400E002051
:1059D000400E002010B50446CC48844208D1012175
:1059E000042000F02DFB0021042000F029FB46E0FC
:1059F000C748844208D10121082000F021FB002182
:105A0000082000F01DFB3AE0C248844208D1012181
:105A1000102000F015FB0021102000F011FB2EE0FB
:105A2000BD48844208D10121202000F009FB00215B
:105A3000202000F005FB22E0B848844208D1012173
:105A4000402000F0FDFA0021402000F0F9FA16E0B5
:105A5000B348844208D10121802000F0F1FA0021EE
:105A6000802000F0EDFA0AE0AE48844207D101211F
:105A7000801500F0E5FA0021A01500F0E1FA10BD54
:105A800010B50121084600F0DBFA0021012000F0EA
:105A9000D7FA10BD2DE9F04102460025002600206E
:105AA00000230024002791F803C00CF00F0591F8A3
:105AB00003C00CF0100CBCF1000F03D091F802C031
:105AC0004CEA050591F800C0BCF1000F31D0146814
:105AD00000202BE04FF0010C0CFA00F3B1F800C0ED
