:1012E0004100F8004100F70041011A004100F900F7
:1012F000410119005A00DC0000000000000000005D
:1013000000000000000000000000000000000000DD
:10131000005F00FA00000000000000000000000074
:1013200000000000000000000000000000000000BD
:03133000000000BA
:1016DA00121799121C68121CCAD2AF121B82121856
:1016EA00539000F7E06035E4F09000A7E004F07052
:1016FA00069000A6E004F09000AFE004F0700690B7
:10170A0000AEE004F09000ABE004F070069000AA8E
:10171A00E004F09000F6E004F01200269000F8E0F1
:10172A00601EE4F0B2C17B017A007908121609EF53
:10173A0070097B017A007908121066E4900058F06B
:10174A0090011EE07002A3E06029E490011EF0A35C
:10175A00F09000F6E004F09000F9E06008121A8BAD
:10176A00E49000F9F0900119E06008120F08E49083
:10177A000119F090011AE070030216E87B017A0061
:0F178A0079DC7F71121403E490011AF00216E863
:0E1DF400E4F5C7F5C5F5C675C3FF75C4FF223B
:041D5C00AD07AC061D
:101D6000D2AF75C78375C501ECF5C3AF058FC475D8
:0E1D7000C50175C65A75C6A500AFC2121DF496
:011D7E002242
:101DA100AD07AC06C2AFECF5C3AF058FC475C783F1
:101DB10075C50375C65A75C6A500121DF4D2AF22AA
:101D7F00AB07AA0675C78375C502EAF5C3AF038F14
:101D8F00C4AF058FC275C50275C65A75C6A50002C8
:021D9F001DF431
:100A4900EFD3940540037F0122120654FED3940389
:100A590040037F0222EF7041EE700B9000011206F5
:100A69006DF452935294120654B4010B9000011282
:100A7900066D4293F45294120654FEB4020A900091
:100A89000112066D42934294EEB4030D90000112D7
:100A9900066DFEF45293EE4294EF64017043120620
:100AA90054FE700B90000112066DF452915292EEB1
:100AB900B4010B90000112066D4291F45292120694
:100AC90054B4020A90000112066D42914292120634
:100AD90054B4030D90000112066DFEF45291EE42DA
:100AE90092EF64027043120654FE700B90000112DB
:100AF900066DF452955296EEB4010B900001120660
:100B09006D4295F45296120654B4020A90000112ED
:100B1900066D42954296120654B4030D90000112D7
:100B2900066DFEF45295EE4296EF64037043120689
:100B390054FE700B90000112066DF452B152B2EEE0
:100B4900B4010B90000112066D42B1F452B21206C3
:100B590054B4020A90000112066D42B142B2120663
:100B690054B4030D90000112066DFEF452B1EE4229
:100B7900B2EF64047043120654FE700B9000011228
:100B8900066DF452B352B4EEB4010B900001120693
:100B99006D42B3F452B4120654B4020A9000011221
:100BA900066D42B342B4120654B4030D900001120B
:100BB900066DFEF452B3EE42B4EF640570431206BB
:100BC90054FF700B90000112066DF452C952CAEF1E
:100BD900B4010B90000112066D42C9F452CA120603
:100BE90054B4020A90000112066D42C942CA1206A3
:100BF90054B4030D90000112066DFFF452C9EF427F
:040C0900CA7F00227C
:1017990090005A74DFF09000597403F07B017A00CD
:1017A9007959E4FF120A4990005A7420F0E4900034
:1017B90059F0FF120A4990005A7425F0E490005933
:1017C900F07F01120A4990005A74DAF090005974B6
:1017D90003F07F01120A4990005A7480F090005971
:1017E9007403F07F02120A4990005A7403F0E490DE
:1017F9000059F07F02120A4990005A74C0F0E4902F
:101809000059F07F03120A4990005A74E2F09000DF
:10181900597403F07F04120A4990005A741CF0E4C9
:10182900900059F07F04120A4990005A740CF09004
:1018390000597403F07F05120A4990005A7410F098
:0A184900E4900059F07F05020A49FF
:10133300420121000042011E000042011C00004145
:0B13430001200041011B0041012300BC
:101C6800E490005CF090005AF0A304F0E4A3F0A321
:101C7800F0A37450F0A3E4F0A304F0FB7A007959C0
:101C8800FF120C0D90005B7401F0A3F0E4A3F0A325
:101C98007450F0A3E4F0A304F0FB7A0079597F02B2
:101CA800120C0D90005B7401F0A3F0E4A3F0A37490
:101CB80050F0A3E4F0A304F0FB7A007959E4FF02A2
:021CC8000C0D01
:03000B00021A06D0
:101A0600C0E0C083C082C0D075D000C00790011D61
:101A1600E004F0700690011CE004F0C390011DE0A4
:101A2600940A90011CE094004034900123E004F0F5
:101A360090011CE4F0A3F090011FE004F070069002
:101A4600011EE004F09000F77401F0C390011FE05E
:101A5600940590011EE094004004E4F0A3F0900188
:101A66000EE0FF6010900123E0C39F400D90011A25
:101A76007401F08000900123E4F0D007D0D0D0822A
:051A8600D083D0E03226
:03001B00021DC102
:101DC100C0E0C083C0829000F87401F0C28ED0825E
:051DD100D083D0E032D8
:100C0D00AD07EDD3940240037F0122ED6003020C8A
:100C1D00A1C28C90000212066DB40104D2A980020B
:100C2D00C2A990000112066DB40104D2B98002C2AE
:100C3D00B9120654FED3940340037F0222E5895472
:100C4D00FC4EF58990000312066DFFB40103538E1F
:100C5D007FEF7003438E80EFB40205438904800358
:100C6D005389FB90000412066DB40105438F01807A
:100C7D0003538FFE90000512069AE5F0F58C900057
:100C8D000512069AF58A90000712066DB40102D27C
:100C9D008C7F0022ED64016003020D2CC28E90004A
:100CAD000212066DB40104D2AB8002C2AB900001FA
:100CBD0012066DB40104D2BB8002C2BB120654FEF3
:100CCD00C3940340037F0222E58954CF4EF58990EA
:100CDD00000312066DFFB40103538EBFEF70034383
:100CED008E40EFB4020543894080035389BF9000C5
:100CFD000412066DB40105438F028003538FFD90DE
:100D0D00000512069AE5F0F58D90000512069AF58C
:100D1D008B90000712066DB40102D28E7F0022ED7A
:100D2D0064027074538EEF90000212066DB40105CB
:100D3D0043AF04800353AFFB90000312066DFED347
:100D4D00940240037F0222EEB40103538EFB900008
:100D5D000312066D7003438E0490000312066DB4EA
:100D6D000205438E088003538EF790000412066D22
:100D7D00B40105438F048003538FFB9000051206C9
:100D8D009AFDACF0ECF5D68DD790000712066DB438
:0B0D9D000103438E107F00227F022222
:04134E004100580002
:0B086700900066EBF0A3EAF0A3E9F0BC
:10087200EF64016003020A4690000004F0E4900075
:1008820002F0A3F0A3F0A3F0A3F0A3F07F2890005E
:1008920030E4F0A3DFFC7F28900008E4F0A3DFFC43
:1008A200900066E0FBA3E0FAA3E0F9120654D394A9
:1008B200C040037F012290000A12066DB40104D2E7
:1008C200BC8002C2BC120654FFE598543F4FF59813
:1008D200EF64C06008EF644060030209C090000248
:1008E2001207C47F007E307D2A7C0012070E900022
:1008F200691207F4E4FFFE7D01FC900069E0F8A3B1
:10090200E0F9A3E0FAA3E0FBC31207A040037F02D1
:1009120022900069E0F8A3E0F9A3E0FAA3E0FBC3A8
:10092200E49BFFE49AFE740199FDE498FC9000694F
:100932001207F4900066E0FBA3E0FAA3E0F990004E
:100942000112066DFB64017038C28E538EFE53890C
:10095200BF5389CF438E40900069E0FCA3E0FDA322
:10096200E0FEA3E0FF78081207B18F8D900069A323
:10097200A3A3E0F58BC2AB5389BF538FFDD28E8008
:1009820076EB64027035538EEF438E01538EF7433C
:100992008E04900069E0FCA3E0FDA3E0FEA3E0FF6B
:1009A20078081207B18FD6900069A3A3A3E0F5D708
:1009B20053AFFB538EF7438E10803C7F0222900090
:1009C20066E0FBA3E0FAA3E0F9120654FF7013906D
:1009D200000812066DB40105438E20801A538EDF83
:1009E2008015EFB4801190000812066DB401054322
:1009F2008780800353877F900066E0FBA3E0FAA321
:100A0200E0F990000912066DB40104D2AC8002C272
:100A1200AC90000712066DB40104D29C8002C29C05
:100A220090000B12066D54C0FFE5A2543F4FF5A291
:100A320090000C12066DB401054397108003539782
:060A4200EF7F00227F039C
:010A4800228B
:101CCA009000597440F0A37402F0A31208000001B6
:101CDA00C2009000607401F0E4A3F0A304F0E4A34E
:101CEA00F0A37440F0E4A3F07B017A0079597F01F4
:031CFA0002086776
:0C000E00C2AC8F993099FDC299D2AC228F
:030023000218ECD4
:0F18EC00C0E0C083C082C0D075D000C006C00766
:1018FB0030986FAF99900005E0FE04F074082EF558
:10190B0082E43400F583EFF0900005E0C3942540AA
:10191B0002E4F0900058E0FE64026044900005E49D
:10192B00F0EE14600F047038EF64AA703390005817
:10193B0004F0802CEFB4551A9000587402F090000C
:10194B000874AAF0A37455F09000057402F0D28EBF
:10195B00800EEF900058B4AA057401F08002E4F0F9
:02196B00C29820
:0D196D00D007D006D0D0D082D083D0E03299
:101D2F00E4FE900099EBF0A3EAF0A3E9F0EEC39D77
:101D3F00501A900099E0FBA3E0FAA3E0F98E8275A8
:0C1D4F00830012066DFF12000E0E80E1F2
:011D5B002265
:101352004100D4004100D6004100D9004100C9003B
:101362004100CA004100CB004100CD004100CE0047
:101372004100B7004100D5004100D7004100D8002C
:101382004100DA004100DB004100C0014200C1001F
:10139200014200C300014200C500014200C7000132
:1013A2004100A3784100B6064100D1004100D300BC
:1013B2004100D2004100B0004100CC004100B10028
:1013C2004200B800004100B4004100D0004100B525
:1013D200004200BE00004100B2004100CF004100C7
:1013E200B3004200BC000041009C0041009D00414E
:1013F200009E0041009F004100A0004200A10000A9
:101B8200C284C282C283C281C2C6C280C2C5C2A787
:101B9200D284D282D283121DE5121DE5D281D2C631
:101BA200D280121DE5121DE5121DE5121DD6C2845A
:101BB200C282C283C281C2C6C280121DE5D2A7E41C
:101BC2009000B0F09000CCF09000B1F09000B8F02E
:101BD200A3F09000B4F09000D0F09000B5F0900027
:101BE200BEF0A3F09000B2F09000CFF09000B3F0FE
:071BF2009000BCF0A3F022FB
:101853009000D1E0B40111900106E0FF640160043F
:10186300EFB40204D284801BC284900106E070139B
:10187300D281121DE5121DE5121DE5C281900106FC
:101883007403F09000D2E0B40111900107E0FF640B
:10189300016004EFB40204D283801BC28490010769
:1018A300E07013D280121DE5121DE5121DE5C28002
:1018B3009001077403F09000D3E0B4011090010885
:1018C300E0FF64016004EFB40203D28222C282907B
:1018D3000108E07013D2C6121DE5121DE5121DE5C5
:0918E300C2C69001087403F02252
:100026009000D4E0640160030201B79000B0E06084
:10003600337401F0E49000CCF09000B1F09000B879
:10004600F0A3F0C2877F01121B09BF01179000CCF5
:100056007401F0E49000B0F0D2879000A6F0A3F00F
:100066009000D5F09000CCE07003020118E49000F7
:10007600B0F09000CC04F0E49000B1F09000B8F03D
:10008600A3F0C2869000D104F0C39000A7E09416B6
:100096009000A6E0940040119000D5E0700B90000F
:1000A600A6F0A3F09000D504F020A1159000C9E0B9
:1000B60004F0E0C3941C4009E49000C0F09000C92D
:1000C600F030A10B9000C07401F0E49000C9F090EC
:1000D60000C0E070069000D5E070087F011215128E
:1000E600EF70259000D57401F0E49000CCF09000FC
:1000F600B104F0D286E49000D1F0C284121DD6D2AB
:1001060081121DE5C281800AE49000D5F09000CCF2
:1001160004F09000B1E0605EE49000D5F09000B08D
:10012600F09000CCF09000B104F0E49000B8F0A399
:10013600F0B287B2867F01121512EF70399000A5D2
:10014600E004F070069000A4E004F0E49000D4F01F
:10015600900111F0900026F09000B0F09000CCF0E5
:100166009000B1F09000B8F0A304F0D286D287E4F4
:100176009000A6F0A3F09000B8E07002A3E06056ED
:100186009000B6E0FFD39000A7E09F9000A6E09411
:1001960000501EB2869000D17401F0E49000B0F0D9
:1001A6009000CCF09000B1F09000B8F0A304F0807D
:1001B60025D286E49000D1F09000B004F0E49000DF
:1001C600CCF09000B1F09000B8F0A3F0D286D287C0
:1001D6009000A6F0A3F09000D6E06401600302034D
:1001E600759000B2E060337401F0E49000CFF090B7
:1001F60000B3F09000BCF0A3F0C2C77F03121B0946
:10020600BF01179000CF7401F0E49000B2F0D2C79E
:100216009000AAF0A3F09000D8F09000CFE0700311
:100226000202D6E49000B2F09000CF04F0E4900011
:10023600B3F09000BCF0A3F0C2919000D204F0C3DA
:100246009000ABE094169000AAE094004011900054
:10025600D8E0700B9000AAF0A3F09000D804F0202C
:10026600C4179000CBE004F0E0C3941C400BE4906C
:1002760000C3F0A3F09000CBF030C40D9000C3E4AF
:10028600F0A304F0E49000CBF09000C3E07002A36A
:10029600E070069000D8E070087F03121512EF7028
:1002A600259000D87401F0E49000CFF09000B304DC
:1002B600F0D291E49000D2F0C283121DD6D2801201
:1002C6001DE5C280800AE49000D8F09000CF04F0CB
:1002D6009000B3E0605EE49000D8F09000B2F09039
:1002E60000CFF09000B304F0E49000BCF0A3F0B2AD
:1002F600C7B2917F03121512EF70399000A5E00482
:10030600F070069000A4E004F0E4900112F0900072
:1003160027F09000D6F09000B2F09000CFF0900059
:10032600B3F09000BCF0A304F0D291D2C7E49000E1
:10033600AAF0A3F09000BCE07002A3E06056900023
:10034600B6E0FFD39000ABE09F9000AAE094005087
:100356001EB2919000D27401F0E49000B2F09000C9
:10036600CFF09000B3F09000BCF0A304F08025D24B
:1003760091E49000D2F09000B204F0E49000CFF047
:100386009000B3F09000BCF0A3F0D291D2C79000D9
:10039600AAF0A3F09000D9E064016003020533904F
:1003A60000B4E060337401F0E49000D0F09000B542
:1003B600F09000BEF0A3F0C2947F05121B09BF01A6
:1003C600179000D07401F0E49000B4F0D29490003D
:1003D600AEF0A3F09000DBF09000D0E070030204D2
:1003E60094E49000B4F09000D004F0E49000B5F0EE
:1003F6009000BEF0A3F0C2939000D304F0C3900027
:10040600AFE094169000AEE0940040119000DBE05F
:10041600700B9000AEF0A3F09000DB04F020C21742
:100426009000CEE004F0E0C3941C400BE49000C7BB
:10043600F0A3F09000CEF030C20D9000C7E4F0A318
:1004460004F0E49000CEF09000C7E07002A3E070E4
:10045600069000DBE070087F05121512EF702590FC
:1004660000DB7401F0E49000D0F09000B504F0D207
:1004760093E49000D3F0C282121DD6D2C6121DE5B7
:10048600C2C6800AE49000DBF09000D004F0900031
:10049600B5E0605EE49000DBF09000B4F09000D030
:1004A600F09000B504F0E49000BEF0A3F0B294B270
:1004B600937F05121512EF70399000A5E004F070D5
:1004C600069000A4E004F0E4900113F0900028F0F8
:1004D6009000D9F09000B4F09000D0F09000B5F004
:1004E6009000BEF0A304F0D293D294E49000AEF054
:1004F600A3F09000BEE07002A3E060569000B6E064
:10050600FFD39000AFE09F9000AEE09400501EB283
:10051600939000D37401F0E49000B4F09000D0F012
:100526009000B5F09000BEF0A304F08025D293E4CD
:100536009000D3F09000B404F0E49000D0F0900066
:10054600B5F09000BEF0A3F0D293D2949000AEF036
:08055600A3F0120DA80211BC74
:101B0900E4FE90009CE0C3943C4002E4F0EF24FE24
:101B1900601E14602C14603A146048240470573015
:101B2900905490009CE004F0E0C394034048804244
:101B390030CC4390009DE004F0E0C394034037802B
:101B49003130923290009EE004F0E0C394034026C5
:101B5900802030852190009FE004F0E0C394034089
:101B690015800F3095109000A0E004F0E0C39403B5
:081B790040047E01E4F0AF0618
:011B81002241
:10151200C39000A2E0943C9000A1E094004004E457
:10152200F0A3F0EF24FE604114606414700302150E
:10153200B71470030215DD2404600302160620901E
:10154200239000A2E004F070069000A1E004F0C332
:101552009000A2E094059000A1E0940050030216CE
:10156200060215FD7E0102160620CC1F9000A2E0A5
:1015720004F070069000A1E004F0C39000A2E09491
:10158200059000A1E09400407B80707E0180752070
:10159200921F9000A2E004F070069000A1E004F017
:1015A200C39000A2E094059000A1E0940040558011
:1015B2004A7E01804F20851F9000A2E004F0700651
:1015C2009000A1E004F0C39000A2E094059000A175
:1015D200E09400402F80247E0180292095249000F1
:1015E200A2E004F070069000A1E004F0C39000A213
:1015F200E094059000A1E094004009E4FEF0A3F01D
:0616020080027E01AF062C
:0116080022BF
:1011BC002086047F0180027F009000DCEFF02091FC
:1011CC00047F0180027F009000DDEFF02093047F0C
:1011DC000180027F009000DEEFF02087047F018009
:1011EC00027F009000DFEFF020C7047F0180027FB8
:1011FC00009000E0EFF02094047F0180027F0090CB
:10120C0000E1EFF03090047F0180027F009000E25B
:10121C00EFF03092047F0180027F009000E3EFF04A
:10122C003095047F0180027F009000E4EFF030A144
:10123C00047F0180027F009000E5EFF030C4047F52
:10124C000180027F009000E6EFF030C2047F018045
:10125C00027F009000E7EFF03084047F0180027F72
:10126C00009000E8EFF03083047F0180027F009053
:10127C0000E9EFF03082047F0180027F009000EAE9
:10128C00EFF03081047F0180027F009000EBEFF0E3
:10129C003080047F0180027F009000ECEFF030C6BC
:1012AC00047F0180027F009000EDEFF030A7047FF7
:1012BC000180027F009000EEEFF0E4A3F07F01FECE
:1012CC00121D5C9000F1EFF0E4FFFE121D5C90002B
:0412DC00F2EFF0221B
:0E1DD60000007F037E1A7DDFDDFEDEFCDFFAFB
:011DE40022DC
:0E1DE50000007F2B7E067DCBDDFEDEFCDFFAEC
:011DF30022CD
:100F08009000FAE0FFB40104C286800BEF7004D2AF
:100F1800868004A28692869000FBE0FFB40104C29A
:100F280091800BEF7004D2918004A291929190006D
:100F3800FCE0FFB40104C293800BEF7004D29380ED
:100F480004A29392939000FDE0FFB40104C287804D
:100F58000BEF7004D2878004A28792879000FEE08E
:100F6800FFB40104C2C7800BEF7004D2C78004A28B
:100F7800C792C79000FFE0FFB40104C294800BEF52
:100F88007004D2948004A2949294900106E0FFB475
:100F98000104D2848005EF7002C284900107E0FF4B
:100FA800B40104D2838005EF7002C283900108E087
:100FB800FFB40104D2828005EF7002C28290010959
:100FC800E0FFB40104D281800BEF7004C281800479
:100FD800A281928190010AE0FFB40104D280800BC3
:100FE800EF7004C2808004A280928090010BE0FF21
:100FF800B40104D2C6800BEF7004C2C68004A2C636
:1010080092C690010CE0FFB40104D2A7800BEF70E8
:1010180004C2A78004A2A792A7900111E0FFB4011F
:10102800089000D47401F08007EF70049000D4F0A9
:10103800900112E0FFB401089000D67401F0800717
:10104800EF70049000D6F0900113E0FFB401079010
:0E10580000D97401F022EF70049000D9F0224C
:101CFD00AA55FF212000FF00000000000000000099
:101D0D0000000000000000000000000000000000C6
:101D1D0000000000000000000000000000000000B6
:021D2D000000B4
:10160900E4900059F0A3F0A3F0A3EBF0A3EAF0A350
:10161900E9F0120654B4AA1590005CE0FBA3E0FAC5
:10162900A3E0F990000112066D645560037F012261
:1016390090000212066D90005AF07E0029F9EE3AE8
:10164900FA90000412066DB4550A90000512066D51
:1016590064AA60037F022290005AE0A3F090005927
:101669007403F090005AE02403FFE433FE9000591C
:10167900E0C39FEE6480F8748098502990005BE085
:10168900FFA3E0FBA3E0FAA3E0F9900059E0F5829B
:1016990075830012066DFEEF6E90005BF0900059A5
:1016A900E004F080BE90005CE0FBA3E0FAA3E0F95F
:1016B90090005AE0FF7E00E92FF9EE3AFA90000314
:1016C90012066DFF90005BE06F60037F03227F00CD
:0116D90022EE
:0B106600900059EBF0A3EAF0A3E9F0C2
:10107100A3E0FBA3E0FAA3E0F990000612066DFEDF
:10108100900059E0F9A3E0FAA3E0A3C9F0A3EAF0C4
:10109100A3E9F0EE24A470030211541470030211A9
:1010A1008214700302118D24FE7003021194240531
:1010B10060030211BBE4FF90005CE0FBA3E0FAA334
:1010C100E02407F9E43AFAEF7C0029F9EC3AFA1244
:1010D1000654FE6402600C74FA2FF582E43400F5C4
:1010E10083EEF00FEFB406CFE4FF90005CE0FBA3CA
:1010F100E0FAA3E02413F9E43AFAEF7C0029F9ECD1
:101101003AFA120654FE6402600C74062FF582E46A
:101111003401F583EEF00FEFB407CFE4FF90005CEC
:10112100E0FBA3E0FAA3E0241EF9E43AFAEF7C0025
:1011310029F9EC3AFA120654FE6402600C74112F7C
:10114100F582E43401F583EEF00FEFB403CF9001A3
:1011510019803C90005CE0FBA3E0FAA3E0F9900069
:101161000712066DFF90005FF090000812066DFEF9
:10117100900060F090010FEFF0A3EEF09000F98085
:101181000E7B017A0079F17F7002140390011A74C9
:1011910001F02290005CE0FBA3E0FAA3E0F99000EB
:1011A1000712066D90005FF090000812066D900026
:0A11B10060F09000F0F090010EF0E5
:0111BB002211
:05140300900061EFF014
:10140800900063EBF0A3EAF0A3E9F0E4A3F07867B7
:101418007C007D017BFF7A1C79FDFE7F3212062E4F
:10142800900061E0FFB47006A37402F0800AEFB484
:1014380071069000627417F0900062E02404900036
:1014480069F0900061E090006DF0E4900066F09023
:101458000062E0FF900066E0FEC39F5028900063A2
:10146800E0FBA3E0FAA3E0F98E8275830012066D13
:10147800FF746E2EF582E43400F583EFF090006679
:10148800E004F080CA900069E0FF9000667403F001
:10149800900069E02403FDE433FC900066E0FEC39D
:1014A8009DEC6480F8748098501574672EF582E47A
:1014B8003400F583E06FFF900066E004F080D1907F
:1014C8000066E02467F582E43400F583EFF09000CD
:1014D80066E004F0E02467F582E43400F58374558F
:1014E800F0900066E004F0E02467F582E43400F54B
:1014F8008374AAF0900066E004F07B017A007967B3
:0A150800900062E0240AFD021D2F8E
:0C1BF9009000D9F09000A4E0FEA3E0FFF3
:081C0500900059EEF0A3EFF08E
:101C0D00E4A3F0A3F0FFFE0F121D5CEF7F00FEC0FA
:101C1D0006C007E4FE121D5CEFFDD0E02DFFD0E005
:101C2D003400FE900059E0FCA3E0FDC3EF9DFFEEF4
:101C3D009CFEA3EFF0EEA3F0E4FFFE121DA19000B9
:101C4D005BE0FDE4FFFE121D7F0090005CE0FD7F78
:0A1C5D00017E00121D7F00E4FEFF6F
:011C6700225A
:101A8B0090010FE0FDFEA3E0FB7A002400FFEA3E8D
:101A9B00FEC3EF94FAEE94FF502CEDFEEB2403FD06
:101AAB00EA33CD2400FFED3E900059F0A3EFF0E4B4
:101ABB00FFFE121DA190005AE0FDE4FFFE121D7FF8
:101ACB0000900059802D90010FE0FEA3E07C0024D4
:101ADB0000FFEC3EFEC3EF94FAEE94FF401FE4FFD1
:101AEB00FE121DA1900110E0FDE4FFFE121D7F0010
:0D1AFB0090010FE0FD7F017E00121D7F00B5
:011B080022BA
:100DA8007F017E00121D5CEF7F00FEC006C007E4D5
:100DB800FE121D5CEFFDD0E02DFFD0E03400FED325
:100DC800EF9403EE94005037121BFDE49000A4F05A
:100DD800A3F07F01FE121D5CEF7F00FEC006C00776
:100DE800E4FE121D5CEFFDD0E02DFFD0E03400FEE4
:100DF800D3EF9400EE94004003020F07020EEF7F3A
:100E0800017E00121D5CEF7F00FEC006C007E4FEF5
:100E1800121D5CEFFDD0E02DFFD0E03400FED3EFD3
:100E28009402EE94005038E4121BF9E49000A4F008
:100E3800A3F07F01FE121D5CEF7F00FEC006C00715
:100E4800E4FE121D5CEFFDD0E02DFFD0E03400FE83
:100E5800D3EF9400EE94004003020F07020EEF7FD9
:100E6800017E00121D5CEF7F00FEC006C007E4FE95
:100E7800121D5CEFFDD0E02DFFD0E03400FED3EF73
:100E88009401EE94005038E49000D6F0121BF9E477
:100E98009000A4F0A3F07F01FE121D5CEF7F00FE1E
:100EA800C006C007E4FE121D5CEFFDD0E02DFFD0A8
:100EB800E03400FED3EF9400EE9400504280287F87
:100EC800017E00121D5CEF7F00FEC006C007E4FE35
:100ED800121D5CEFFDD0E02DFFD0E03400FED3EF13
:100EE8009400EE9400500EE49000D4F09000D6F0F8
:100EF8009000D9F022121BFDE49000A4F0A3F02288
:0300000002197A68
:0C197A00787FE4F6D8FD7581070219C1E2
:10055E00E709F608DFFA8046E709F208DFFA803E7F
:10056E0088828C83E709F0A3DFFA8032E309F6086C
:10057E00DFFA8078E309F208DFFA807088828C83D4
:10058E00E309F0A3DFFA806489828A83E0A3F60888
:10059E00DFFA805889828A83E0A3F208DFFA804C62
:1005AE0080D280FA80C680D4806980F28033801039
:1005BE0080A680EA809A80A880DA80E280CA8033A2
:1005CE0089828A83ECFAE493A3C8C582C8CCC5831A
:1005DE00CCF0A3C8C582C8CCC583CCDFE9DEE780EA
:1005EE000D89828A83E493A3F608DFF9ECFAA9F069
:1005FE00EDFB2289828A83ECFAE0A3C8C582C8CCBF
:10060E00C583CCF0A3C8C582C8CCC583CCDFEADED7
:10061E00E880DB89828A83E493A3F208DFF980CC39
:10062E0088F0EF60010E4E60C388F0ED2402B40432
:10063E000050B9F582EB2402B4040050AF232345D9
:06064E0082239005AE734B
:10065400BB010689828A83E0225002E722BBFE02A4
:09066400E32289828A83E49322D7
:10066D00BB010CE58229F582E5833AF583E0225042
:10067D0006E92582F8E622BBFE06E92582F8E2228C
:0D068D00E58229F582E5833AF583E49322A6
:10069A00BB0110E58229F582E5833AF583E0F5F09E
:1006AA00A3E0225009E92582F886F008E622BBFE7B
:1006BA000AE92582F8E2F5F008E222E5832AF583C1
:0806CA00E993F5F0A3E9932286
:1006D20075F008758200EF2FFFEE33FECD33CDCCDF
:1006E20033CCC58233C5829BED9AEC99E582984062
:1006F2000CF582EE9BFEED9AFDEC99FC0FD5F0D63F
:10070200E4CEFBE4CDFAE4CCF9A88222B800C1B968
:100712000059BA002DEC8BF084CFCECDFCE5F0CBA6
:10072200F97818EF2FFFEE33FEED33FDEC33FCEBDF
:1007320033FB10D703994004EB99FB0FD8E5E4F99A
:10074200FA227818EF2FFFEE33FEED33FDEC33FC87
:10075200C933C910D7059BE99A4007EC9BFCE99A7B
:10076200F90FD8E0E4C9FAE4CCFB2275F010EF2FC0
:10077200FFEE33FEED33FDCC33CCC833C810D707C0
:100782009BEC9AE899400AED9BFDEC9AFCE899F8FB
:0E0792000FD5F0DAE4CDFBE4CCFAE4C8F9228E
:1007A000EB9FF5F0EA9E42F0E99D42F0E89C45F0AF
:0107B0002226
:1007B100E8600FECC313FCED13FDEE13FEEF13FF26
:0307C100D8F1224A
:1007C400BB010DE58229F582E5833AF58302083EF3
:1007D4005007E92582F8020831BBFE07E92582F8B3
:1007E40002084AE58229F582E5833AF5830208572F
:0C07F400ECF0A3EDF0A3EEF0A3EFF02278
:10080000A8828583F0D083D08212081712081712AD
:100810000817120817E473E493A3C583C5F0C583D2
:10082000C8C582C8F0A3C583C5F0C583C8C582C842
:0108300022A5
:101986000216DAE493A3F8E493A34003F68001F287
:1019960008DFF48029E493A3F85407240CC8C33362
:1019A600C4540F4420C8834004F456800146F6DF31
:1019B600E4800B01020408102040809012E0E47ECF
:1019C600019360BCA3FF543F30E509541FFEE49326
:1019D600A360010ECF54C025E060A840B8E493A3ED
:1019E600FAE493A3F8E493A3C8C582C8CAC583CA18
:1019F600F0A3C8C582C8CAC583CADFE9DEE780BED0
:0114020000E9
:0D083100E6FB08E6F908E6FA08E6CBF82237
:0C083E00E0F8A3E0F9A3E0FAA3E0FB223D
:0D084A00E2FB08E2F908E2FA08E2CBF8222E
:10085700E493F8740193F9740293FA740393FB22F7
:00000001FF
