:10144D004100E9004100E80041010B004100EA00C4
:10145D0041010A005A00CD0000000000000000000C
:10146D00000000000000000000000000000000006F
:10147D00005F00EB00000000000000000000000015
:10148D00000000000000000000000000000000004F
:03149D000000004C
:10177700121931121D02121E06D2AF121C16121EAA
:10178700989000E8E06037E4F0B2C1900098E00478
:10179700F07006900097E004F09000A0E004F0706D
:1017A7000690009FE004F090009CE004F070069023
:1017B700009BE004F09000E7E004F01200269000A0
:1017C700E9E0600BE4F07B017A0079081211C5901B
:1017D700010FE07002A3E060A5E490010FF0A3F011
:1017E7009000E7E004F09000EAE06008121B98E43C
:1017F7009000EAF090010BE06049640170127B01F0
:101807007A0079E27F7012156CE4900049F0802E1F
:1018170090010BE064027002801990010BE06403F1
:10182700701C9000FFE0FF60159000E7E0C39F4049
:101837000DE4F07B017A0079CD7F7112156CE4908D
:10184700010BF090010AE07003021785120A9DE46C
:0718570090010AF002178561
:0E1F5F00E4F5C7F5C5F5C675C3FF75C4FF22CE
:041EC200AD07AC06B6
:101EC600D2AF75C78375C501ECF5C3AF058FC47571
:0E1ED600C50175C65A75C6A500AFC2021F5FD2
:101F0600AD07AC06C2AFECF5C3AF058FC475C7838A
:101F160075C50375C65A75C6A500121F5FD2AF22D6
:101EE400AB07AA0675C78375C502EAF5C3AF038FAE
:101EF400C4AF058FC275C50275C65A75C6A5000262
:021F04001F5F5D
:100CA000EFD394057480948040037F012212067272
:100CB000FED394037480948040037F0222EF70443B
:100CC000EE700B90000112068BF4529352941206B0
:100CD000726401700B90000112068B4293F45294DF
:100CE000120672FE6402700A90000112068B429393
:100CF0004294EE6403700D90000112068BFEF452D4
:100D000093EE4294EF64017046120672FE700B90EF
:100D1000000112068BF452915292EE6401700B9016
:100D2000000112068B4291F4529212067264027014
:100D30000A90000112068B429142921206726403DD
:100D4000700D90000112068BFEF45291EE4292EF6C
:100D500064027046120672FE700B90000112068B40
:100D6000F452955296EE6401700B90000112068BBE
:100D70004295F452961206726402700A90000112B3
:100D8000068B429542961206726403700D90000124
:100D900012068BFEF45295EE4296EF6403704612F3
:100DA0000672FE700B90000112068BF452B152B223
:100DB000EE6401700B90000112068B42B1F452B246
:100DC0001206726402700A90000112068B42B14250
:100DD000B21206726403700D90000112068BFEF4CD
:100DE00052B1EE42B2EF64047046120672FE700B0E
:100DF00090000112068BF452B352B4EE6401700BF2
:100E000090000112068B42B3F452B41206726402CF
:100E1000700A90000112068B42B342B4120672644B
:100E200003700D90000112068BFEF452B3EE42B433
:100E3000EF64057049120672FF7E00700B9000018E
:100E400012068BF452C952CAEF64014E700B900027
:100E50000112068B42C9F452CA1206726402700A69
:100E600090000112068B42C942CA120672640370D6
:100E70000D90000112068BFFF452C9EF42CA7F00A9
:010E8000224F
:1019310090004B74DFF090004A7403F07B017A0051
:10194100794AE4FF120CA090004B7420F0E490005F
:101951004AF0FF120CA090004B7425F0E490004A6D
:10196100F07F01120CA090004B74DAF090004A74E1
:1019710003F07F01120CA090004B7480F090004A9C
:101981007403F07F02120CA090004B7403F0E490FA
:10199100004AF07F02120CA090004B74C0F0E4905A
:1019A100004AF07F03120CA090004B74E2F090000B
:1019B1004A7403F07F04120CA090004B741CF0E4F5
:1019C10090004AF07F04120CA090004B740CF09030
:1019D100004A7403F07F05120CA090004B7410F0C4
:0A19E100E490004AF07F05020CA01C
:1014A000420112000042010F000042010D00004104
:0714B00001110041010C00D5
:101D0200E490004DF090004BF0A304F0E4A3F0A3A4
:101D1200F0A374A9F0A3749AF0A37401F0FB7A0003
:101D2200794AFF120E8190004C7401F0A3F0E4A3F3
:101D3200F0A37450F0A3E4F0A304F0FB7A00794A14
:101D42007F02120E8190004C7401F0A3F0E4A3F024
:101D5200A37450F0A3E4F0A304F0FB7A00794AE400
:041D6200FF020E81ED
:03000B00021D666D
:101D6600C0E0C083C082C0D090010EE004F07006CF
:101D760090010DE004F0C390010EE0940A90010D6D
:101D8600E09400402BE4F0A3F0900110E004F07022
:101D96000690010FE004F09000E87401F0C3900192
:101DA60010E0940590010FE094004004E4F0A3F0E5
:091DB600D0D0D082D083D0E032FD
:03001B00021F269B
:101F2600C0E0C083C0829000E97401F0758D007531
:0B1F36008B00C28ED082D083D0E0323E
:100E8100AD07EDD394027480948040037F0122ED7D
:100E91006003020F27C28C90000212068B6401705E
:100EA10004D2A98002C2A990000112068B640170CC
:100EB10004D2B98002C2B9120672FED394037480BF
:100EC100948040037F0222E58954FC4EF58990000D
:100ED1000312068BFF7E0064017003538E7FEF4E79
:100EE1007003438E80EF64024E70054389048003D2
:100EF1005389FB90000412068B64017005438F0136
:100F01008003538FFE9000051206B8E5F0F58C9032
:100F110000051206B8F58A90000712068B6401706D
:100F210002D28C7F0022ED64016003020FC0C28EE9
:100F310090000212068B64017004D2AB8002C2AB36
:100F410090000112068B64017004D2BB8002C2BB07
:100F5100120672FEC394037480948040037F0222C0
:100F6100E58954CF4EF58990000312068BFF7E0070
:100F710064017003538EBFEF4E7003438E40EF64E4
:100F8100024E700543894080035389BF90000412CB
:100F9100068B64017005438F028003538FFD90001F
:100FA100051206B8E5F0F58D9000051206B8F58B2F
:100FB10090000712068B64017002D28E7F0022ED31
:100FC10064026003021048538EEF90000212068BF8
:100FD1006401700543AF04800353AFFB900003121B
:100FE100068BFD7C00D394027480948040037F02C1
:100FF10022ED64014C7003538EFB90000312068BAB
:101001007003438E0490000312068B640270054343
:101011008E088003538EF790000412068B640170D2
:1010210005438F048003538FFB9000051206B8FD22
:10103100ACF0ECF5D68DD790000712068B640170E9
:0A10410003438E107F00227F02227D
:0414B70041004900A7
:0B088500900057EBF0A3EAF0A3E9F0AD
:10089000EF64016003020A9A90000004F0E4900003
:1008A00002F0A3F0A3F0A3F0A3F0A3F0FFEFC39432
:1008B0002074809480500F74292FF582E43400F561
:1008C00083E4F00F80E7E4FFEFC394217480948009
:1008D000500F74082FF582E43400F583E4F00F80A4
:1008E000E7900057E0FBA3E0FAA3E0F9120672FDDF
:1008F0007C00D394C07480948040037F01229000D8
:100900000A12068B64017004D2BC8002C2BC1206BB
:1009100072FFE598543F4FF598ED64C04C6008EFC6
:1009200064406003020A0B9000021207E27F007E1F
:10093000307D2A7C0012072C90005A120812E4FF26
:10094000FE7D01FC90005AE0F8A3E0F9A3E0FAA3D1
:10095000E0FBC31207BE40037F022290005AE0F87A
:10096000A3E0F9A3E0FAA3E0FBC3E49BFFE49AFE53
:10097000740199FDE498FC90005A120812900057F7
:10098000E0FBA3E0FAA3E0F990000112068BFB7AEA
:100990000064017038C28E538EFE5389BF5389CFD5
:1009A000438E4090005AE0FCA3E0FDA3E0FEA3E0EC
:1009B000FF78081207CF8F8D90005AA3A3A3E0F50C
:1009C0008BC2AB5389BF538FFDD28E807DEB640207
:1009D0004A7035538EEF438E01538EF7438E049049
:1009E000005AE0FCA3E0FDA3E0FEA3E0FF780812BC
:1009F00007CF8FD690005AA3A3A3E0F5D753AFFB40
:100A0000538EF7438E1080427F0222900057E0FB06
:100A1000A3E0FAA3E0F9120672FF7E0070149000C2
:100A20000812068B64017005438E20801D538EDFF3
:100A30008018EF64804E701290000812068B6401DB
:100A40007005438780800353877F900057E0FBA3A6
:100A5000E0FAA3E0F990000912068B64017004D259
:100A6000AC8002C2AC90000712068B64017004D205
:100A70009C8002C29C90000B12068B54C0FFE5A222
:100A8000543F4FF5A290000C12068B640170054391
:0C0A9000971080035397EF7F00227F0334
:010A9C002237
:101E060090004A7440F0A37402F0A312081E000169
:101E1600C2009000517401F0E4A3F0A304F0E4A31F
:101E2600F0A37440F0E4A3F07B017A00794A7F01C5
:031E36000208851A
:0C000E00C2AC8F993099FDC299D2AC228F
:03002300021A7C42
:101A7C00C0E0C083C082C0D075D000C004C005C017
:031A8C0006C0078A
:101A8F00309869AF99900005E0FE04F074082EF5C8
:101A9F0082E43400F583EFF0900049E0FE640260C9
:101AAF0049900005E4F0EE14600F04703DEF64AA56
:101ABF00703890004904F08031EFFD7C0064557060
:101ACF001A9000497402F090000874AAF0A374559C
:101ADF00F09000057402F0D28E800FED64AA4C9046
:0C1AEF000049700404F08002E4F0C2988A
:101AFB00D007D006D005D004D0D0D082D083D0E090
:011B0B0032A7
:101E6B00E4FE90008AEBF0A3EAF0A3E9F0EEC39D49
:101E7B00501A90008AE0FBA3E0FAA3E0F98E82757A
:0C1E8B00830012068BFF12000E0E80E197
:011E97002228
:1014BB004100C5004100C7004100CA004100BA000D
:1014CB004100BB004100BC004100BE004100BF0019
:1014DB004100A8004100C6004100C8004100C900FE
:1014EB004100CB004100CC004100B1014200B200F1
:1014FB00014200B400014200B600014200B80001F5
:10150B00410094784100A7064100C2004100C4008D
:10151B004100C3004100A1004100BD004100A200F9
:10152B004200A900004100A5004100C1004100A6F6
:10153B00004200AF00004100A3004100C000410089
:10154B00A4004200AD000041008D0041008E00411F
:10155B00008F00410090004100910042009200007A
:101C1600C284C282C283C281C2C6C280C2C5C2A7F2
:101C2600D284D282D283121F50121F50D281D2C6C2
:101C3600D280121F50121F50121F50121F41C28411
:101C4600C282C283C281C2C6C280121F50D2A7906E
:101C560000A17401F0E49000BDF09000A2F09000A5
:101C6600A9F0A3F09000A504F0E49000C1F0900064
:101C7600A6F09000AFF0A3F09000A304F0E490006B
:0D1C8600C0F09000A4F09000ADF0A3F0229B
:101E98009000C2E064017004D2848002C284900081
:101EA800C3E064017004D2838002C2839000C4E05E
:0A1EB80064017003D28222C282226C
:100026009000C5E0FF640160030201C19000A1E0F9
:100036006038EF6401703304F0E49000BDF0900086
:10004600A2F09000A9F0A3F0C2877F011219EBEF8E
:10005600640170169000BD04F0E49000A1F0D28710
:10006600900097F0A3F09000C6F09000BDE07003FA
:10007600020122E49000A1F09000BD04F0E490009B
:10008600A2F09000A9F0A3F0C2869000C204F0C3CB
:10009600900098E09416900097E09400401190002C
:1000A600C6E0700B900097F0A3F09000C604F02015
:1000B600A1199000BAE004F0E0C3941C7480948007
:1000C6004009E49000B1F09000BAF030A10B900026
:1000D600B17401F0E49000BAF09000B1E0700690BF
:1000E60000C6E070087F01121680EF70259000C6EA
:1000F6007401F0E49000BDF09000A204F0D286E412
:100106009000C2F0C284121F41D281121F50C281D8
:10011600800AE49000C6F09000BD04F09000A2E0D2
:10012600605EE49000C6F09000A1F09000BDF090F3
:1001360000A204F0E49000A9F0A3F0B287B2867F93
:1001460001121680EF7039900096E004F070069068
:100156000095E004F0E4900102F0900022F0900097
:10016600A1F09000BDF09000A2F09000C5F09000C4
:10017600A9F0A304F0D286D287E4900097F0A3F00A
:100186009000A9E07002A3E060569000A7E0FFD3BC
:10019600900098E09F900097E09400501EB28690E1
:1001A60000C27401F0E49000A1F09000BDF0900050
:1001B600A2F09000A9F0A304F08025D286E4900076
:1001C600C2F09000A104F0E49000BDF09000A2F00F
:1001D6009000A9F0A3F0D286D287900097F0A3F002
:1001E6009000C7E0FF640160030203899000A3E06A
:1001F6006038EF6401703304F0E49000C0F09000C2
:10020600A4F09000ADF0A3F0C2C77F031219EBEF84
:10021600640170169000C004F0E49000A3F0D2C709
:1002260090009BF0A3F09000C9F09000C0E070032E
:100236000202EAE49000A3F09000C004F0E490000B
:10024600A4F09000ADF0A3F0C2919000C304F0C3F7
:1002560090009CE0941690009BE094004011900062
:10026600C9E0700B90009BF0A3F09000C904F02049
:10027600C41B9000BCE004F0E0C3941C748094801E
:10028600400BE49000B4F0A3F09000BCF030C40D35
:100296009000B4E4F0A304F0E49000BCF09000B445
:1002A600E07002A3E070069000C9E070087F0312B8
:1002B6001680EF70259000C97401F0E49000C0F03C
:1002C6009000A404F0D291E49000C3F0C283121F00
:1002D60041D280121F50C280800AE49000C9F0907B
:1002E60000C004F09000A4E0605EE49000C9F090C5
:1002F60000A3F09000C0F09000A404F0E49000ADDC
:10030600F0A3F0B2C7B2917F03121680EF70399056
:100316000096E004F07006900095E004F0E4900189
:1003260003F0900023F09000C7F09000A3F0900037
:10033600C0F09000A4F09000ADF0A304F0D291D2EA
:10034600C7E490009BF0A3F09000ADE07002A3E03C
:1003560060569000A7E0FFD390009CE09F90009B22
:10036600E09400501EB2919000C37401F0E4900036
:10037600A3F09000C0F09000A4F09000ADF0A304AC
:10038600F08025D291E49000C3F09000A304F0E43D
:100396009000C0F09000A4F09000ADF0A3F0D291D0
:1003A600D2C790009BF0A3F09000CAE0FF64016002
:1003B600030205519000A5E06038EF640170330434
:1003C600F0E49000C1F09000A6F09000AFF0A3F02A
:1003D600C2947F051219EBEF640170169000C104F8
:1003E600F0E49000A5F0D29490009FF0A3F0900066
:1003F600CCF09000C1E070030204B2E49000A5F0D6
:100406009000C104F0E49000A6F09000AFF0A3F0D5
:10041600C2939000C404F0C39000A0E0941690002C
:100426009FE0940040119000CCE0700B90009FF08C
:10043600A3F09000CC04F020C21B9000BFE004F0B3
:10044600E0C3941C74809480400BE49000B8F0A341
:10045600F09000BFF030C20D9000B8E4F0A304F0B5
:10046600E49000BFF09000B8E07002A3E070069040
:1004760000CCE070087F05121680EF70259000CC46
:100486007401F0E49000C1F09000A604F0D293E469
:100496009000C4F0C282121F41D2C6121F50C2C6BB
:1004A600800AE49000CCF09000C104F09000A6E031
:1004B600605EE49000CCF09000A5F09000C1F09052
:1004C60000A604F0E49000AFF0A3F0B294B2937FDC
:1004D60005121680EF7039900096E004F0700690D1
:1004E6000095E004F0E4900104F0900024F0900000
:1004F600CAF09000A5F09000C1F09000A6F0900020
:10050600AFF0A304F0D293D294E490009FF0A3F04E
:100516009000AFE07002A3E060569000A7E0FFD322
:100526009000A0E09F90009FE09400501EB2939030
:1005360000C47401F0E49000A5F09000C1F09000B2
:10054600A6F09000AFF0A304F08025D293E49000CB
:10055600C4F09000A504F0E49000C1F09000A6F06D
:100566009000AFF0A3F0D293D29490009FF0A3F046
:0605760012104B021327D6
:1019EB00E4FE90008DE0C3943C748094804002E44C
:1019FB00F0EF24FE60221460341460461460582407
:101A0B0004706B30906890008DE004F0E0C3940399
:101A1B00748094804058805230CC5390008EE004F8
:101A2B00F0E0C39403748094804043803D30923E39
:101A3B0090008FE004F0E0C3940374809480402EF8
:101A4B008028308529900090E004F0E0C394037463
:101A5B0080948040198013309514900091E004F02D
:101A6B00E0C394037480948040047E01E4F0AF06DD
:011A7B002248
:10168000C3900093E0943C900092E094004004E406
:10169000F0A3F0EF24FE604114606414700302179D
:1016A0002514700302174B24046003021774209062
:1016B00023900093E004F07006900092E004F0C3E1
:1016C000900093E09405900092E09400500302177C
:1016D0007402176B7E0102177420CC1F900093E0F8
:1016E00004F07006900092E004F0C3900093E09440
:1016F00005900092E09400407B80707E0180752010
:10170000921F900093E004F07006900092E004F0C5
:10171000C3900093E09405900092E09400405580BF
:101720004A7E01804F20851F900093E004F07006F0
:10173000900092E004F0C3900093E0940590009232
:10174000E09400402F80247E018029209524900081
:1017500093E004F07006900092E004F0C3900093D0
:10176000E09405900092E094004009E4FEF0A3F0BC
:0617700080027E01AF06BD
:011776002250
:101327002086047F0180027F009000CDEFF020919E
:10133700047F0180027F009000CEEFF02093047FAE
:101347000180027F009000CFEFF02087047F0180AB
:10135700027F009000D0EFF020C7047F0180027F5A
:10136700009000D1EFF02094047F0180027F00906D
:1013770000D2EFF03090047F0180027F009000D30D
:10138700EFF03092047F0180027F009000D4EFF0ED
:101397003095047F0180027F009000D5EFF030A1E7
:1013A700047F0180027F009000D6EFF030C4047FF5
:1013B7000180027F009000D7EFF030C2047F0180E8
:1013C700027F009000D8EFF03084047F0180027F15
:1013D700009000D9EFF03083047F0180027F0090F6
:1013E70000DAEFF03082047F0180027F009000DB9B
:1013F700EFF03081047F0180027F009000DCEFF086
:101407003080047F0180027F009000DDEFF030C65E
:10141700047F0180027F009000DEEFF030A7047F99
:101427000180027F009000DFEFF0E4A3F0A3F07FDC
:1014370001FE121EC29000E2EFF0E4FFFE121EC290
:061447009000E3EFF0222B
:0E1F410000007F037E1A7DDFDDFEDEFCDFFA8E
:011F4F00226F
:0E1F500000007F2B7E067DCBDDFEDEFCDFFA7F
:011F5E002260
:101DBF00E4FD9000FFE0603ED39464748094805003
:101DCF003590010FE07002A3E0602B0DE490010F3E
:101DDF00F0A3F09000FFE075F00AA4FFEDC39FE5BC
:101DEF00F06480F8748098400DE4FD7B017A0079EF
:061DFF00CD7F7112156C8E
:011E050022BA
:100A9D009000EBE064017004C286800E9000EBE0E4
:100AAD007004D2868004A28692869000ECE06401E8
:100ABD007004C291800E9000ECE07004D29180041D
:100ACD00A29192919000EDE064017004C293800EAA
:100ADD009000EDE07004D2938004A2939293900065
:100AED00EEE064017004C287800E9000EEE07004A9
:100AFD00D2878004A28792879000EFE06401700492
:100B0D00C2C7800E9000EFE07004D2C78004A2C768
:100B1D0092C79000F0E064017004C294800E9000C2
:100B2D00F0E07004D2948004A29492949000F1E0CD
:100B3D0064017004D29080089000F1E07002C290C0
:100B4D009000F2E064017004D29280089000F2E00F
:100B5D007002C2929000F3E064017004D295800897
:100B6D009000F3E07002C2959000F4E0640170040F
:100B7D00D2A180089000F4E07002C2A19000F5E0CF
:100B8D0064017004D2C480089000F5E07002C2C404
:100B9D009000F6E064017004D2C280089000F6E087
:100BAD007002C2C29000F7E064017004D284800824
:100BBD009000F7E07002C2849000F8E064017004C8
:100BCD00D28380089000F8E07002C2839000F9E0B3
:100BDD0064017004D28280089000F9E07002C28234
:100BED009000FAE064017004D281800E9000FAE06A
:100BFD007004C2818004A28192819000FBE06401A7
:100C0D007004D280800E9000FBE07004C2808004DE
:100C1D00A28092809000FCE064017004D2C6800E28
:100C2D009000FCE07004C2C68004A2C692C690007B
:100C3D00FDE064017004D2A7800E9000FDE0700409
:100C4D00C2A78004A2A792A7900102E064017007D9
:100C5D009000C504F0800A900102E070049000C578
:100C6D00F0900103E0640170079000C704F0800A62
:100C7D00900103E070049000C7F0900104E064015E
:100C8D0070069000CA04F022900104E070049000F8
:030C9D00CAF02278
:101E3900AA55FF212000FF0000000000000000005B
:101E49000000000000000000000000000000000089
:101E59000000000000000000000000000000000079
:021E6900000077
:10185E00E4900114F0A3F0A3F0A3EBF0A3EAF0A33D
:10186E00E9F012067264AA7015900117E0FBA3E06E
:10187E00FAA3E0F990000112068B645560037F0114
:10188E002290000212068B900115F07E0029F9EECF
:10189E003AFA90000412068B6455700A90000512F5
:1018AE00068B64AA60037F0222900115E0A3F090DC
:1018BE0001147403F0900115E02403FFE433FE904D
:1018CE000114E0C39FEE6480F87480985029900153
:1018DE0016E0FFA3E0FBA3E0FAA3E0F9900114E009
:1018EE00F58275830012068BFEEF6E900116F09056
:1018FE000114E004F080BE900117E0FBA3E0FAA310
:10190E00E0F9900115E0FF7E00E92FF9EE3AFA902A
:10191E00000312068BFF900116E06F60037F032217
:02192E007F0038
:011930002294
:0B11C50090004AEBF0A3EAF0A3E9F071
:1011D000A3E0FBA3E0FAA3E0F990000612068BFE61
:1011E00090004AE0F9A3E0FAA3E0A3C9F0A3EAF073
:1011F000A3E9F0EE24A470030212BF1470030212DC
:10120000ED1470030212F824FE70030212FF24058D
:101210006003021326E4FFEFC394067480948050A9
:101220002B90004DE0FBA3E0FAA3E02407F9E43A99
:10123000FAEF7C0029F9EC3AFA120672FE74EB2FF1
:10124000F582E43400F583EEF00F80CBE4FFEFC3CA
:10125000940774809480502B90004DE0FBA3E0FA3B
:10126000A3E02413F9E43AFAEF7C0029F9EC3AFA06
:10127000120672FE74F72FF582E43400F583EEF067
:101280000F80CBE4FFEFC3940374809480502B90C5
:10129000004DE0FBA3E0FAA3E0241EF9E43AFAEFE4
:1012A0007C0029F9EC3AFA120672FE74022FF582DC
:1012B000E43401F583EEF00F80CB90010A803C907E
:1012C000004DE0FBA3E0FAA3E0F990000712068BC3
:1012D000FF900050F090000812068BFE900051F035
:1012E000900100EFF0A3EEF09000EA800E7B017A0F
:1012F0000079E27F7002156C90010B7401F022906E
:10130000004DE0FBA3E0FAA3E0F990000712068B82
:10131000900050F090000812068B900051F0900061
:06132000E1F09000FFF077
:0113260022A4
:05156C00900052EFF0B9
:10157100900054EBF0A3EAF0A3E9F0E4A3F078586B
:101581007C007D017BFF7A1E7939FE7F3212064C89
:10159100900052E0FF7E0064707006A37402F08038
:1015A1000CEF64714E70069000537417F090005365
:1015B100E0240490005AF0900052E090005EF0E4C4
:1015C100900057F0900053E0FF900057E0FEC39F5A
:1015D1005028900054E0FBA3E0FAA3E0F98E827555
:1015E100830012068BFF745F2EF582E43400F583CD
:1015F100EFF0900057E004F080CA90005AE0FF90AD
:1016010000577403F090005AE02403FDE433FC908A
:101611000057E0FEC39DEC6480F874809850157407
:10162100582EF582E43400F583E06FFF900057E017
:1016310004F080D1900057E02458F582E43400F59D
:1016410083EFF0900057E004F0E02458F582E43491
:1016510000F5837455F0900057E004F0E02458F54C
:1016610082E43400F58374AAF0900057E004F07B23
:0F167100017A007958900053E0240AFD021E6BA5
:0C1C93009000CAF0900095E0FEA3E0FF76
:081C9F0090004AEEF0A3EFF003
:101CA700E4A3F0A3F0FFFE0F121EC2EF7F00FEC0F9
:101CB70006C007E4FE121EC2EFFDD0E02DFFD0E004
:101CC7003400FE90004AE0FCA3E0FDC3EF9DFFEE69
:101CD7009CFEA3EFF0EEA3F0E4FFFE121F069000B8
:101CE7004CE0FDE4FFFE121EE40090004DE0FD7F96
:0A1CF700017E00121EE400E4FEFF6F
:011D010022BF
:101B9800900100E0FDFEA3E0FC7A002400FFEA3E8D
:101BA800FEC3EF94FAEE94FF502CEDFEEC2403FDF7
:101BB800E433CD2400FFED3E90004AF0A3EFF0E4BB
:101BC800FFFE121F0690004BE0FDE4FFFE121EE42C
:101BD8000090004A802D900100E0FEA3E07C0024E4
:101BE80000FFEC3EFEC3EF94FAEE94FF401FE4FFC3
:101BF800FE121F06900100E0FDE4FFFE121EE40045
:0D1C0800900101E0FD7F017E00121EE4004E
:011C150022AC
:10104B007F017E00121EC2EF7F00FEC006C007E4C8
:10105B00FE121EC2EFFDD0E02DFFD0E03400FED318
:10106B00EF9403EE94005037121C97E4900095F028
:10107B00A3F07F01FE121EC2EF7F00FEC006C00769
:10108B00E4FE121EC2EFFDD0E02DFFD0E03400FED7
:10109B00D3EF9400EE940040030211C402119A7F27
:1010AB00017E00121EC2EF7F00FEC006C007E4FEE9
:1010BB00121EC2EFFDD0E02DFFD0E03400FED3EFC7
:1010CB009402EE94005038E4121C93E4900095F0D7
:1010DB00A3F07F01FE121EC2EF7F00FEC006C00709
:1010EB00E4FE121EC2EFFDD0E02DFFD0E03400FE77
:1010FB00D3EF9400EE940040030211C402119A7FC7
:10110B00017E00121EC2EF7F00FEC006C007E4FE88
:10111B00121EC2EFFDD0E02DFFD0E03400FED3EF66
:10112B009401EE94005040E4900023F09000C7F03F
:10113B00900024F0121C93E4900095F0A3F07F0133
:10114B00FE121EC2EF7F00FEC006C007E4FE121E99
:10115B00C2EFFDD0E02DFFD0E03400FED3EF9400C2
:10116B00EE9400505480287F017E00121EC2EF7F48
:10117B0000FEC006C007E4FE121EC2EFFDD0E02D3C
:10118B00FFD0E03400FED3EF9400EE94005020E447
:10119B00900022F09000C5F0900023F09000C7F073
:1011AB00900024F09000CAF0900102F0A380071287
:0A11BB001C97E4900095F0A3F022C9
:03000000021B0CD4
:0C1B0C00787FE4F6D8FD758107021B53BA
:10057C00E709F608DFFA8046E709F208DFFA803E61
:10058C0088828C83E709F0A3DFFA8032E309F6084E
:10059C00DFFA8078E309F208DFFA807088828C83B6
:1005AC00E309F0A3DFFA806489828A83E0A3F6086A
:1005BC00DFFA805889828A83E0A3F208DFFA804C44
:1005CC0080D280FA80C680D4806980F2803380101B
:1005DC0080A680EA809A80A880DA80E280CA803384
:1005EC0089828A83ECFAE493A3C8C582C8CCC583FC
:1005FC00CCF0A3C8C582C8CCC583CCDFE9DEE780CC
:10060C000D89828A83E493A3F608DFF9ECFAA9F04A
:10061C00EDFB2289828A83ECFAE0A3C8C582C8CCA0
:10062C00C583CCF0A3C8C582C8CCC583CCDFEADEB9
:10063C00E880DB89828A83E493A3F208DFF980CC1B
:10064C0088F0EF60010E4E60C388F0ED2402B40414
:10065C000050B9F582EB2402B4040050AF232345BB
:06066C0082239005CC730F
:10067200BB010689828A83E0225002E722BBFE0286
:09068200E32289828A83E49322B9
:10068B00BB010CE58229F582E5833AF583E0225024
:10069B0006E92582F8E622BBFE06E92582F8E2226E
:0D06AB00E58229F582E5833AF583E4932288
:1006B800BB0110E58229F582E5833AF583E0F5F080
:1006C800A3E0225009E92582F886F008E622BBFE5D
:1006D8000AE92582F8E2F5F008E222E5832AF583A3
:0806E800E993F5F0A3E9932268
:1006F00075F008758200EF2FFFEE33FECD33CDCCC1
:1007000033CCC58233C5829BED9AEC99E582984043
:100710000CF582EE9BFEED9AFDEC99FC0FD5F0D620
:10072000E4CEFBE4CDFAE4CCF9A88222B800C1B94A
:100730000059BA002DEC8BF084CFCECDFCE5F0CB88
:10074000F97818EF2FFFEE33FEED33FDEC33FCEBC1
:1007500033FB10D703994004EB99FB0FD8E5E4F97C
:10076000FA227818EF2FFFEE33FEED33FDEC33FC69
:10077000C933C910D7059BE99A4007EC9BFCE99A5D
:10078000F90FD8E0E4C9FAE4CCFB2275F010EF2FA2
:10079000FFEE33FEED33FDCC33CCC833C810D707A2
:1007A0009BEC9AE899400AED9BFDEC9AFCE899F8DD
:0E07B0000FD5F0DAE4CDFBE4CCFAE4C8F92270
:1007BE00EB9FF5F0EA9E42F0E99D42F0E89C45F091
:0107CE002208
:1007CF00E8600FECC313FCED13FDEE13FEEF13FF08
:0307DF00D8F1222C
:1007E200BB010DE58229F582E5833AF58302085CB7
:1007F2005007E92582F802084FBBFE07E92582F877
:10080200020868E58229F582E5833AF583020875D4
:0C081200ECF0A3EDF0A3EEF0A3EFF02259
:10081E00A8828583F0D083D0821208351208351253
:10082E000835120835E473E493A3C583C5F0C58378
:10083E00C8C582C8F0A3C583C5F0C583C8C582C824
:01084E002287
:101B1800021777E493A3F8E493A34003F68001F255
:101B280008DFF48029E493A3F85407240CC8C333CE
:101B3800C4540F4420C8834004F456800146F6DF9D
:101B4800E4800B010204081020408090144DE47ECC
:101B5800019360BCA3FF543F30E509541FFEE49392
:101B6800A360010ECF54C025E060A840B8E493A359
:101B7800FAE493A3F8E493A3C8C582C8CAC583CA84
:101B8800F0A3C8C582C8CAC583CADFE9DEE780BE3C
:01156B00007F
:0D084F00E6FB08E6F908E6FA08E6CBF82219
:0C085C00E0F8A3E0F9A3E0FAA3E0FB221F
:0D086800E2FB08E2F908E2FA08E2CBF82210
:10087500E493F8740193F9740293FA740393FB22D9
:00000001FF
