:0F07EF007D527C03ED1D70011C144C70F7DFF17F
:0107FE0022D8
:0E190200E4F5C7F5C5F5C675C3FF75C4FF2231
:1018AD00AD07AC06C2AFECF5C3AF058FC475C783EA
:1018BD0075C50375C65A75C6A500121902D2AF2299
:10186900AB07AA0675C78375C502EAF5C3AF038F2F
:10187900C4AF058FC275C50275C65A75C6A50002E3
:02188900190242
:04180000AD07AC067E
:10180400D2AF75C78375C501ECF5C3AF058FC47539
:0E181400C50175C65A75C6A500AFC2121902ED
:0118220022A3
:100B4A00EFD3940540037F01221205C4FED3940318
:100B5A0040037F0222EF7041EE700B9000011205F4
:100B6A00DDF4529352941205C4B4010B90000112A1
:100B7A0005DD4293F452941205C4FEB4020A9000B1
:100B8A00011205DD42934294EEB4030D9000011266
:100B9A0005DDFEF45293EE4294EF640170431205B0
:100BAA00C4FE700B9000011205DDF452915292EED0
:100BBA00B4010B9000011205DD4291F45292120524
:100BCA00C4B4020A9000011205DD42914292120554
:100BDA00C4B4030D9000011205DDFEF45291EE42F9
:100BEA0092EF640270431205C4FE700B900001126A
:100BFA0005DDF452955296EEB4010B9000011205F0
:100C0A00DD4295F452961205C4B4020A900001120C
:100C1A0005DD429542961205C4B4030D90000112F7
:100C2A0005DDFEF45295EE4296EF64037043120519
:100C3A00C4FE700B9000011205DDF452B152B2EEFF
:100C4A00B4010B9000011205DD42B1F452B2120553
:100C5A00C4B4020A9000011205DD42B142B2120583
:100C6A00C4B4030D9000011205DDFEF452B1EE4248
:100C7A00B2EF640470431205C4FE700B90000112B7
:100C8A0005DDF452B352B4EEB4010B900001120523
:100C9A00DD42B3F452B41205C4B4020A9000011240
:100CAA0005DD42B342B41205C4B4030D900001122B
:100CBA0005DDFEF452B3EE42B4EF6405704312054B
:100CCA00C4FF700B9000011205DDF452C952CAEF3D
:100CDA00B4010B9000011205DD42C9F452CA120593
:100CEA00C4B4020A9000011205DD42C942CA1205C3
:100CFA00C4B4030D9000011205DDFFF452C9EF429E
:040D0A00CA7F00227A
:100D0E00AD07EDD3940240037F0122ED6002A1A155
:100D1E00C28C9000021205DDB40104D2A98002C279
:100D2E00A99000011205DDB40104D2B98002C2B946
:100D3E001205C4FED3940340037F0222E58954FCBE
:100D4E004EF5899000031205DDFFB40103538E7F2B
:100D5E00EF7003438E80EFB4020543890480035382
:100D6E0089FB9000041205DDB40105438F01800359
:100D7E00538FFE90000512060AE5F0F58C900005E3
:100D8E0012060AF58A9000071205DDB40102D28C14
:100D9E007F0022ED64016002C12BC28E9000021210
:100DAE0005DDB40104D2AB8002C2AB900001120586
:100DBE00DDB40104D2BB8002C2BB1205C4FEC394D3
:100DCE000340037F0222E58954CF4EF5899000033C
:100DDE001205DDFFB40103538EBFEF7003438E4047
:100DEE00EFB4020543894080035389BF900004127B
:100DFE0005DDB40105438F028003538FFD9000057E
:100E0E0012060AE5F0F58D90000512060AF58B9094
:100E1E0000071205DDB40102D28E7F0022ED6402BE
:100E2E007074538EEF9000021205DDB4010543AFCE
:100E3E0004800353AFFB9000031205DDFED3940232
:100E4E0040037F0222EEB40103538EFB9000031287
:100E5E0005DD7003438E049000031205DDB4020518
:100E6E00438E088003538EF79000041205DDB40103
:100E7E0005438F048003538FFB90000512060AFD75
:100E8E00ACF0ECF5D68DD79000071205DDB401035A
:090E9E00438E107F00227F022226
:0E08000078ADEBF208EAF208E9F278ACEFF21C
:10080E006401600221F9780004F2E408F208F208AB
:10081E00F208F208F208F278B0F278B0E2FFC39470
:10082E0080501174D32FF582E43401F583E4F0E2A5
:10083E0004F280E6E478B0F278B0E2FFC394805020
:10084E001174D32FF582E43400F583E4F0E204F260
:10085E0080E678ADE2FB08E2FA08E2F91205C4D3AD
:10086E0094C040037F022290000A1205DDB40104F9
:10087E00D2BC8002C2BC1205C4FFE598543F4FF5AE
:10088E0098EF64C06007EF6440600221759000022B
:10089E001207347F007E307D2A7C0012067E78B1EE
:1008AE00120764E4FFFE7D01FC78B1E2FB08E2F979
:1008BE0008E2FA08E2CBF8C312071040037F0222C7
:1008CE0078B1E2FB08E2F908E2FA08E2CBF8C3E4F9
:1008DE009BFFE49AFE740199FDE498FC78B112072F
:1008EE006478ADE2FB08E2FA08E2F9900001120525
:1008FE00DDFB64017036C28E538EFE5389BF538961
:10090E00CF438E4078B1E2FC08E2FD08E2FE08E239
:10091E00FF78081207218F8D78B1080808E2F58B51
:10092E00C2AB5389BF538FFDD28E8073EB640270BE
:10093E0033538EEF438E01538EF7438E0478B1E21C
:10094E00FC08E2FD08E2FE08E2FF78081207218F9C
:10095E00D678B1080808E2F5D753AFFB538EF743AC
:10096E008E10803B7F022278ADE2FB08E2FA08E2AD
:10097E00F91205C4FF70139000081205DDB40105CD
:10098E00438E20801A538EDF8015EFB480119000B5
:10099E00081205DDB40105438780800353877F78F5
:1009AE00ADE2FB08E2FA08E2F99000091205DDB4A7
:1009BE000104D2AC8002C2AC9000071205DDB40176
:1009CE0004D29C8002C29C90000B1205DD54C0FF25
:1009DE00E5A2543F4FF5A290000C1205DDB40105BF
:1009EE0043971080035397EF7F002278ACE26402A6
:1009FE006002614778077402F2E408F208F208F226
:100A0E0008F208F208F278B0F278B0E2FFC39480F0
:100A1E00501174532FF582E43402F583E4F0E204AE
:100A2E00F280E6E478B0F278B0E2FFC39480501121
:100A3E0074532FF582E43401F583E4F0E204F2807E
:100A4E00E678ADE2FB08E2FA08E2F91205C4FF64AB
:100A5E00C06007EF64406002610890000A1205DD75
:100A6E00B4010543B501800353B5FE1205C4B4C0ED
:100A7E0005439A808003539A7F9000021207347FB9
:100A8E00007E307D2A7C0012067E78B1120764E467
:100A9E00FFFE7D01FC78B1E2FB08E2F908E2FA08FC
:100AAE00E2CBF8C312071040037F022278B1E2FBBB
:100ABE0008E2F908E2FA08E2CBF8C3E49BFFE49AF5
:100ACE00FE740199FDE498FC78B1120764538EEF21
:100ADE00538EF7438E0478B1E2FC08E2FD08E2FE85
:100AEE0008E2FF78081207218FD678B1080808E2CD
:100AFE00F5D753AFFB438E1080037F022278ADE211
:100B0E00FB08E2FA08E2F99000091205DDB40105CE
:100B1E0043AF01800353AFFE9000071205DDB40111
:100B2E0005439A108003539AEF90000B1205DD5483
:0B0B3E0001FFE5BA54FE4FF5BA7F003E
:010B49002289
:100FC800812600812500814000812700813F00970C
:100FD8000E000000000000000000000000000000FB
:100FE800000000000000000097280000000000003A
:100FF80000000000000000000000000000000000E9
:0110080000E7
:1015680012118012184612188B1207BF12164AD28F
:10157800AF7FF41207EF1217D07826E2601DB2C1D0
:10158800E4F27BFE7A007942121325EF70097BFEA4
:101598007A007942120EA7E47841F27825E26008D1
:1015A800E4F21200261217597840E2600DE4F27B4B
:1015B800FE7A0079287F711210A77827E260071257
:1015C80014F3E47827F2783FE260ABE4F2121255A4
:0215D80080A4ED
:10182300AA55FF212000FF00000000000000000077
:1018330000000000000000000000000000000000A5
:03184300000000A2
:0610090081410081650039
:1007BF00789F7440F2087402F2081207700001C2A9
:1007CF000078A67401F2E408F20804F208F2087443
:1007DF0040F2E408F27BFE7A00799F7F0102080065
:030023000215DAE9
:0D15DA00C0E0C0D075D000C000C006C00742
:1015E700309855AF997865E2FE04F274422EF8EF11
:1015F700F27841E2FE6402603D7865E4F2EE146041
:101607000E047032EF64AA702D784104F28027EF40
:10161700B4551678417402F20874AAF2087455F2A8
:1016270078657402F2D28E800DEF7841B4AA057402
:0816370001F28002E4F2C29806
:0B163F00D007D006D000D0D0D0E032A1
:10132500E4789FF208F208F208EBF208EAF208E91D
:10133500F21205C4B4AA1478A2E2FB08E2FA08E2A4
:10134500F99000011205DD645560037F01229000CC
:10135500021205DD78A0F27E0029F9EE3AFA900036
:10136500041205DDB4550A9000051205DD64AA6076
:10137500037F022278A0E208F2789F7403F278A036
:10138500E22403FFE433FE18E2C39FEE6480F874A1
:101395008098502578A1E2FF08E2FB08E2FA08E20E
:1013A500F9789FE2F5827583001205DDFEEF6E7810
:1013B500A1F2789FE204F280C578A2E2FB08E2FA86
:1013C50008E2F978A0E2FF7E00E92FF9EE3AFA90FB
:1013D50000031205DDFF78A1E26F60037F03227F22
:0113E5000007
:0113E60022E4
:0A0EA700789FEBF208EAF208E9F286
:100EB10008E2FB08E2FA08E2F99000061205DDFEFD
:100EC100789FE2F908E2FA08E208C9F208EAF208B2
:100ED100E9F2EE24A97002E16B147002E19414703E
:100EE10002E19F147002E1A524056002E1C7E4FF5D
:100EF10078A2E2FB08E2FA08E22407F9E43AFAEF01
:100F01007C0029F9EC3AFA1205C4FE74282FF8EE98
:100F1100F20FEFB406DAE4FF78A2E2FB08E2FA0886
:100F2100E22413F9E43AFAEF7C0029F9EC3AFA12D7
:100F310005C4FE74342FF8EEF20FEFB408DAE4FFC3
:100F410078A2E2FB08E2FA08E2241EF9E43AFAEF99
:100F51007C0029F9EC3AFA1205C4FE743F2FF8EE31
:100F6100F20FEFB403DA783F803678A2E2FB08E2B1
:100F7100FA08E2F99000071205DDFF78A5F290006A
:100F8100081205DDFE78A6F2783DEFF208EEF27860
:100F910027800D7BFE7A0079577F700210A7784079
:100FA1007401F22278A2E2FB08E2FA08E2F9900069
:100FB100071205DD78A5F29000081205DD78A6F28A
:060FC1007822F2783CF2F8
:010FC7002207
:0410A70078A7EFF245
:1010AB0078A9EBF208EAF208E9F2E408F2087C000E
:1010BB007DFE7BFF7A187923FE7F2312059E78A78E
:1010CB00E2FFB47006087402F28009EFB471057880
:1010DB00A87417F278A8E2240478AFF278A7E27824
:1010EB00B3F2E478ACF278A8E2FF78ACE2FEC39FEF
:1010FB00502078A9E2FB08E2FA08E2F98E827583A8
:10110B00001205DDFF74B42EF8EFF278ACE204F2B6
:10111B0080D478AFE2FF78AC7403F278AFE22403AB
:10112B00FDE433FC78ACE2FEC39DEC6480F8748084
:10113B0098500E74AD2EF8E26FFF78ACE204F2809B
:10114B00DA78ACE224ADF8EFF278ACE204F2E22408
:10115B00ADF87455F278ACE204F2E224ADF874AA5F
:10116B00F278ACE204F27BFE7A0079AD78A8E22447
:05117B000AFD0217A5AA
:0C000E00C2AC8F993099FDC299D2AC228F
:1017A500E4FE78D0EBF208EAF208E9F2EEC39D50C8
:1017B5001978D0E2FB08E2FA08E2F98E8275830017
:0A17C5001205DDFF12000E0E80E297
:0117CF0022F7
:06100F008167008166000C
:10184600E4789FF20804F208F208F2E408F2087459
:10185600DCF208E4F20804F27BFE7A00799FE4FFEA
:03186600020D0E62
:10188B00E4789FF208F20804F2E408F208F2087414
:10189B0050F208E4F20804F27BFE7A00799FFF0213
:0218AB000D0E20
:03000B000216B921
:1016B900C0E0C0F0C0D075D000C000C0077867E2B4
:1016C90004F2E2C3940A400BE4F218E204F278252A
:1016D9007401F2783CE2601B75F005A4FF7866E2BC
:1016E900C39FE5F06480F8748098400B78407401DA
:1016F900F280007866E4F2D007D000D0D0D0F0D0E4
:02170900E032CC
:03001B000218CDFB
:1018CD00C0E0C0D075D000C000C28E78267401F281
:0718DD00D000D0D0D0E032B2
:1010150082710000827500008277000082830000E3
:1010250081960081990081970081790081920081E4
:101035007A0082810000817D00819500817E008299
:10104500870000817B00819400817C0082850000FF
:10105500818901828A0001828C00018198FF816D5E
:1010650078817F06818E00818F00819000819100BB
:10107500819300818000819A00819B00819C008181
:101085009D00819E00816E00816F008170008173DB
:1010950000817400816800816900816A00826B00AB
:0110A500004A
:1011800078A074DFF2187403F27BFE7A00799FE492
:10119000FF120B4A78A07420F2E418F27BFE7A006A
:1011A000799FFF120B4A78A07425F2E418F27BFEB7
:1011B0007A00799F7F01120B4A78A074DAF21874D2
:1011C00003F27BFE7A00799F7F01120B4A78A074AC
:1011D00080F2187403F27BFE7A00799F7F02120B73
:1011E0004A78A07403F2E418F27BFE7A00799F7FBC
:1011F00002120B4A78A074C0F2E418F27BFE7A0067
:10120000799F7F03120B4A78A074E2F2187403F2FC
:101210007BFE7A00799F7F04120B4A78A0741CF23F
:10122000E418F27BFE7A00799F7F04120B4A78A0C3
:10123000740CF2187403F27BFE7A00799F7F05121A
:101240000B4A78A07410F2E418F27BFE7A00799FC2
:051250007F05020B4ABE
:10164A00C284C282C283C281C2C6C280C2A7D284F5
:10165A00D282D2831218F31218F3D281D2C6D28060
:10166A001218F31218F31218F31218E4C284C28281
:10167A00C283C281C2C6C2801218F3D2A778797413
:10168A0001F2E47892F2787AF27881F208F2787DBF
:10169A0004F2E47895F2787EF27887F208F2787BA1
:0F16AA0004F2E47894F2787CF27885F208F22268
:100026007872E22401F218E23400F27876E22401D2
:10003600F218E23400F27878E22401F218E2340091
:10004600F2783FE2FF64026022EFB4010678797429
:10005600018006EF7015787904F2E47892F2787AE6
:10006600F27881F208F2783F7402F27840E2FF6497
:10007600026022EFB40106787B74018006EF7015EA
:10008600787B04F2E47894F2787CF27885F208F2D0
:1000960078407402F27841E2FF64026022EFB40114
:1000A60006787D74018006EF7015787D04F2E47899
:1000B60095F2787EF27887F208F278417402F27847
:1000C60079E2602C7401F2E47892F2787AF278811F
:1000D600F208F2C2877F0112170BBF0113789274E0
:1000E60001F2E47879F2D2877871F208F2789AF21E
:1000F6007892E27002218AE47879F2789204F2E446
:10010600787AF27881F208F2C286789604F2C37899
:1001160072E2941618E29400400E789AE27009781A
:1001260071F208F2789A04F220A112788EE204F2B3
:10013600E2C3941C4007E47889F2788EF230A10974
:1001460078897401F2E4788EF27889E27005789AFB
:10015600E270087F01121473EF7021789A7401F22D
:10016600E47892F2787A04F2D286E47896F2C2843F
:100176001218E4D2811218F3C2818008E4789AF248
:10018600789204F2787AE26039E4789AF27879F231
:100196007892F2787A04F2E47881F208F2B287B2C1
:1001A600867F01121473EF70197879F27892F278DB
:1001B6007AF27881F20804F2D286D287E47871F274
:1001C60008F27882E2700218E26047787FE2FFD395
:1001D6007872E29F18E294005019B28678967401FC
:1001E600F2E47879F27892F2787AF27881F2080479
:1001F600F2801FD286E47896F2787904F2E4789257
:10020600F2787AF27881F208F2D286D2877871F2A1
:1002160008F2787BE2602C7401F2E47894F2787C40
:10022600F27885F208F2C2C77F0312170BBF0113DB
:1002360078947401F2E4787BF2D2C77875F208F20A
:10024600789CF27894E2700241E5E4787BF2789447
:1002560004F2E4787CF27885F208F2C29178970489
:10026600F2C37876E2941618E29400400E789CE287
:1002760070097875F208F2789C04F220C41478901C
:10028600E204F2E2C3941C4009E4788AF208F278A8
:1002960090F230C40B788AE4F20804F2E47890F223
:1002A600788BE2700218E27005789CE270087F0392
:1002B600121473EF7021789C7401F2E47894F2784A
:1002C6007C04F2D291E47897F2C2831218E4D280C9
:1002D6001218F3C2808008E4789CF2789404F278CD
:1002E6007CE26039E4789CF2787BF27894F2787C50
:1002F60004F2E47885F208F2B2C7B2917F031214D1
:1003060073EF7019787BF27894F2787CF27885F244
:100316000804F2D291D2C7E47875F208F27886E240
:10032600700218E26047787FE2FFD37876E29F1882
:10033600E294005019B29178977401F2E4787BF256
:100346007894F2787CF27885F20804F2801FD291D4
:10035600E47897F2787B04F2E47894F2787CF27889
:1003660085F208F2D291D2C77875F208F2787DE26A
:10037600602C7401F2E47895F2787EF27887F208C0
:10038600F2C2947F0512170BBF011378957401F220
:10039600E4787DF2D2947877F208F2789EF2789536
:1003A600E270028140E4787DF2789504F2E4787E8A
:1003B600F27887F208F2C293789904F2C37878E269
:1003C600941618E29400400E789EE270097877F24F
:1003D60008F2789E04F220C2147893E204F2E2C393
:1003E600941C4009E4788CF208F27893F230C20B40
:1003F600788CE4F20804F2E47893F2788DE27002E5
:1004060018E27005789EE270087F05121473EF708B
:1004160021789E7401F2E47895F2787E04F2D29304
:10042600E47899F2C2821218E4D2C61218F3C2C650
:100436008008E4789EF2789504F2787EE26039E4EA
:10044600789EF2787DF27895F2787E04F2E47887E9
:10045600F208F2B294B2937F05121473EF70197812
:100466007DF27895F2787EF27887F20804F2D293DC
:10047600D294E47877F208F27888E2700218E260A3
:1004860046787FE2FFD37878E29F18E2940050180E
:10049600B29378997401F2E4787DF27895F2787ED9
:1004A600F27887F20804F222D293E47899F2787D02
:1004B60004F2E47895F2787EF27887F208F2D29325
:0804C600D2947875F208F222CD
:10170B00E4FE7868E2C3943C4002E4F2EF24FD600F
:10171B001824FE60242404703230902F7868E20481
:10172B00F2E2C394034024801E30921F7869E204D6
:10173B00F2E2C394034014800E30950F786AE204F2
:0D174B00F2E2C3940340047E01E4F2AF0615
:01175800226E
:10147300C3786CE2943C18E294004004E4F208F26E
:10148300EF24FD602724FE6042240470602090183E
:10149300786CE22401F218E23400F2C308E2940506
:1014A30018E294004047803C7E01804120921878E6
:1014B3006CE22401F218E23400F2C308E294051846
:1014C300E294004028801D7E01802220951D786CC7
:1014D300E22401F218E23400F2C308E2940518E2B0
:0F14E30094004009E4FEF208F280027E01AF0699
:0114F20022D7
:0E18E40000007F037E1A7DDFDDFEDEFCDFFAF2
:0118F20022D3
:0E18F30000007F2B7E067DCBDDFEDEFCDFFAE3
:0119010022C3
:10175900A286E433780EF2A291E43308F2A293E46C
:101769003308F2A287E43308F2A2C7E43308F2A2ED
:1017790094E43308F27896E27814F27897E27815CF
:10178900F27899E27816F27889E27814F2788A0880
:0C179900E27815F2788C08E27816F22253
:1017D0007896E2B40104D2848002C2847897E2B49D
:1017E0000104D2838002C2837899E2B40103D282D9
:0417F00022C282226D
:1014F300783DE2FDFE08E2FB7A002400FFEA3EFEAF
:10150300C3EF94FAEE94FF5027EDFEEB2403FDEABC
:1015130033CD240078A0F2ED3E18F2E4FFFE12185A
:10152300AD78A0E2FDE4FFFE12186900789F802ADF
:10153300783DE2FE08E27C002400FFEC3EFEC3EFB0
:1015430094FAEE94FF401DE4FFFE1218AD783EE2DC
:10155300FDE4FFFE12186900783DE2FD7F017E0085
:0415630012186900F1
:011567002261
:101255007828E2FFB40104C2868005EF7002D286C9
:101265007829E2FFB40104C2918005EF7002D291A2
:10127500782AE2FFB40104C2938005EF7002D2938D
:10128500782BE2FFB40104C2878005EF7002D28794
:10129500782CE2FFB40104C2C78005EF7002D2C703
:1012A500782DE2FFB40104C2948005EF7002D29458
:1012B5007834E2FFB40104D2848005EF7002C28461
:1012C5007835E2FFB40104D2838005EF7002C28352
:1012D5007836E2FFB40104D2828005EF7002C28243
:1012E5007837E2FFB40104D2818005EF7002C28134
:1012F5007838E2FFB40104D2808005EF7002C28025
:101305007839E2FFB40104D2C68005EF7002C2C687
:10131500783AE2FFB40103D2A722EF7002C2A722F6
:030000000213E701
:0C13E700787FE4F6D8FD75810702142E13
:1004CE00E709F608DFFA8046E709F208DFFA803E10
:1004DE0088828C83E709F0A3DFFA8032E309F608FD
:1004EE00DFFA8078E309F208DFFA807088828C8365
:1004FE00E309F0A3DFFA806489828A83E0A3F60819
:10050E00DFFA805889828A83E0A3F208DFFA804CF2
:10051E0080D280FA80C680D4806980F280338010C9
:10052E0080A680EA809A80A880DA80E280CA803332
:10053E0089828A83ECFAE493A3C8C582C8CCC583AA
:10054E00CCF0A3C8C582C8CCC583CCDFE9DEE7807A
:10055E000D89828A83E493A3F608DFF9ECFAA9F0F9
:10056E00EDFB2289828A83ECFAE0A3C8C582C8CC4F
:10057E00C583CCF0A3C8C582C8CCC583CCDFEADE68
:10058E00E880DB89828A83E493A3F208DFF980CCCA
:10059E0088F0EF60010E4E60C388F0ED2402B404C3
:1005AE000050B9F582EB2402B4040050AF2323456A
:0605BE00822390051E736C
:1005C400BB010689828A83E0225002E722BBFE0235
:0905D400E32289828A83E4932268
:1005DD00BB010CE58229F582E5833AF583E02250D3
:1005ED0006E92582F8E622BBFE06E92582F8E2221D
:0D05FD00E58229F582E5833AF583E4932237
:10060A00BB0110E58229F582E5833AF583E0F5F02E
:10061A00A3E0225009E92582F886F008E622BBFE0B
:10062A000AE92582F8E2F5F008E222E5832AF58351
:08063A00E993F5F0A3E9932216
:1006420075F008758200EF2FFFEE33FECD33CDCC6F
:1006520033CCC58233C5829BED9AEC99E5829840F2
:100662000CF582EE9BFEED9AFDEC99FC0FD5F0D6CF
:10067200E4CEFBE4CDFAE4CCF9A88222B800C1B9F9
:100682000059BA002DEC8BF084CFCECDFCE5F0CB37
:10069200F97818EF2FFFEE33FEED33FDEC33FCEB70
:1006A20033FB10D703994004EB99FB0FD8E5E4F92B
:1006B200FA227818EF2FFFEE33FEED33FDEC33FC18
:1006C200C933C910D7059BE99A4007EC9BFCE99A0C
:1006D200F90FD8E0E4C9FAE4CCFB2275F010EF2F51
:1006E200FFEE33FEED33FDCC33CCC833C810D70751
:1006F2009BEC9AE899400AED9BFDEC9AFCE899F88C
:0E0702000FD5F0DAE4CDFBE4CCFAE4C8F9221E
:10071000EB9FF5F0EA9E42F0E99D42F0E89C45F03F
:0107200022B6
:10072100E8600FECC313FCED13FDEE13FEEF13FFB6
:03073100D8F122DA
:10073400BB010DE58229F582E5833AF5830207962C
:100744005007E92582F8020789BBFE07E92582F8EC
:100754000207A2E58229F582E5833AF5830207AF11
:0C076400ECF208EDF208EEF208EFF222D1
:10077000D083D082E493F208740193F20874029358
:09078000F208740393F27404738F
:1013F300021568E493A3F8E493A34003F68001F293
:1014030008DFF48029E493A3F85407240CC8C333FA
:10141300C4540F4420C8834004F456800146F6DFC9
:10142300E4800B0102040810204080900FC8E47E82
:10143300019360BCA3FF543F30E509541FFEE493BE
:10144300A360010ECF54C025E060A840B8E493A385
:10145300FAE493A3F8E493A3C8C582C8CAC583CAB0
:10146300F0A3C8C582C8CAC583CADFE9DEE780BE68
:0110A6000049
:0D078900E6FB08E6F908E6FA08E6CBF822E0
:0C079600E0F8A3E0F9A3E0FAA3E0FB22E6
:0D07A200E2FB08E2F908E2FA08E2CBF822D7
:1007AF00E493F8740193F9740293FA740393FB22A0
:00000001FF
