:020000040800F2
:10000000F8060020CD01000871070008E30600088B
:100010006D07000801040008990E000800000000A8
:1000200000000000000000000000000011090008AE
:100030001905000800000000F9070008CD0A0008B3
:10004000E7010008E7010008E7010008E7010008F0
:10005000E7010008E7010008E7010008E7010008E0
:10006000E7010008E7010008E7010008E7010008D0
:10007000E7010008E7010008E7010008E7010008C0
:10008000E7010008E7010008E7010008E7010008B0
:10009000E7010008E7010008E7010008E7010008A0
:1000A000E7010008E7010008E7010008E701000890
:1000B000E7010008E7010008E7010008E701000880
:1000C000E7010008E7010008E7010008E701000870
:1000D000E7010008E7010008E7010008E701000860
:1000E000E7010008E7010008E7010008E701000850
:1000F000E7010008E7010008E7010008E701000840
:10010000E7010008E7010008E7010008E70100082F
:10011000310B0008850B0008E7010008E701000823
:10012000E7010008E7010008E7010008E70100080F
:1001300000F002F800F03AF80AA090E8000C8244BF
:100140008344AAF10107DA4501D100F02FF8AFF29C
:10015000090EBAE80F0013F0010F18BFFB1A43F0A5
:10016000010318476412000084120000103A24BFF3
:1001700078C878C1FAD8520724BF30C830C144BF0C
:1001800004680C607047000000230024002500264E
:10019000103A28BF78C1FBD8520728BF30C148BFEA
:1001A0000B6070471FB51FBD10B510BD00F08CF877
:1001B0001146FFF7F7FF00F0BBFE00F0AAF803B40A
:1001C000FFF7F2FF03BC00F069FE0000094880471A
:1001D00009480047FEE7FEE7FEE7FEE7FEE7FEE729
:1001E000FEE7FEE7FEE7FEE704480549054A064B41
:1001F00070470000D10A000831010008F800002013
:10020000F8060020F8020020F8020020704710B520
:10021000203AC0F00B80B1E81850203AA0E81850FE
:10022000B1E81850A0E81850BFF4F5AF5FEA027CBF
:1002300024BFB1E81850A0E8185044BF18C918C02E
:10024000BDE810405FEA827C24BF51F8043B40F8CF
:10025000043B08BF7047D20728BF31F8023B48BFB4
:1002600011F8012B28BF20F8023B48BF00F8012BF2
:1002700070474FF0000200B5134694469646203969
:1002800022BFA0E80C50A0E80C50B1F12001BFF44F
:10029000F7AF090728BFA0E80C5048BF0CC05DF8B5
:1002A00004EB890028BF40F8042B08BF704748BF03
:1002B00020F8022B11F0804F18BF00F8012B704777
:1002C0007047704770477047754600F02BF8AE4690
:1002D00005006946534620F00700854618B020B552
:1002E000FFF782FFBDE820404FF000064FF0000707
:1002F0004FF000084FF0000B21F00701AC46ACE8CE
:10030000C009ACE8C009ACE8C009ACE8C0098D463A
:10031000704710B50446AFF300802046BDE810409A
:10032000FFF74DBF004870479400002008B5012139
:10033000082000F073FAC020ADF8000010208DF8FE
:10034000030003208DF802006946054800F03CF9DF
:100350000120044908600449C1F89C0108BD00005F
:10036000000C014098812142008021422DE9F0419A
:1003700005460E460527002432211E4800F042F8AB
:1003800000201D49088029461C4800F01BFD1AE08A
:10039000142000F0A7FD18480088012813DD154837
:1003A00015490988405C0A280DD113480088401E71
:1003B0001049085C0D2806D10F48008840F4004021
:1003C0000D49088003E0781EC0B2071EE0D100BFCF
:1003D00017B90120BDE8F081002404E00548005D64
:1003E0003055601CC4B2044800888442F6DB00200B
:1003F000F0E70000300000202800002000500040FE
:1004000000BFFEE703E04A1ED1B200224254002999
:10041000F9D170472DE9F04F89B006460F464FF4E9
:100420007A7096FBF0F000F0FF0A4FF47A7096FBBA
:10043000F0F100FB116000F0FF0B4FF005090625FD
:100440000024122104A8FFF714FF2F4A07CA01ABAA
:1004500007C38DF806508DF809708DF80BA08DF844
:100460000CB0A846032405E001A8005D80EA080856
:10047000601CC4B2E81C8442F6DB01A800F80480CA
:10048000601CC4B2552001A90855601CC4B2AA2042
:100490000855601CC4B232211C48FFF7B3FF00208E
:1004A0001B490880AA1D01A91A4800F072FC47B335
:1004B0001CE0052000F016FD15480088042815DB17
:1004C0001248007821280FD11048407820280BD1FD
:1004D0000E488078A84207D10C48C078404503D127
:1004E000002009B0BDE8F08F0220FAE7A9F1010071
:1004F000C0B2B0F10009DCD1B9F1000F01D1012087
:10050000EFE70020EDE70000A813000862000020DC
:100510002A000020004C00407047000010B50A245B
:1005200032212448FFF76EFF00202349088023A1D1
:10053000234800F047FC0BE0052000F0D3FC1D48E9
:100540000078612804D11C480088012800D103E00C
:10055000601EC0B2041EEFD100BF0CB9012010BD57
:1005600032211448FFF74EFF00201349088015A1DF
:10057000134800F027FC15E0052000F0B3FC0E48FE
:10058000008802280EDB0B4800782B2809D1094887
:1005900040786F2805D1074880786B2801D100206A
:1005A000DDE703E0601EC0B2041EE5D100BF0120FC
:1005B000D5E7000030000020280000202B2B2B0066
:1005C00000500040610000002DE9F0410246002586
:1005D0000026002000230024002791F803C00CF01F
:1005E0000F0591F803C00CF0100CBCF1000F03D004
:1005F00091F802C04CEA050591F800C0BCF1000F6B
:1006000031D0146800202BE04FF0010C0CFA00F3FD
:10061000B1F800C00CEA03069E4220D183004FF0DF
:100620000F0C0CFA03F7BC4305FA03FC4CEA040474
:1006300091F803C0BCF1280F06D14FF0010C0CFA61
:1006400000FCC2F814C00AE091F803C0BCF1480FE6
:1006500005D14FF0010C0CFA00FCC2F810C0401C90
:100660000828D1D31460B1F800C0BCF1FF0F34DD0D
:10067000546800202EE000F1080C4FF0010808FA41
:100680000CF3B1F800C00CEA03069E4221D18300AE
:100690004FF00F0C0CFA03F7BC4305FA03FC4CEACD
:1006A000040491F803C0BCF1280F05D100F1080C37
:1006B00008FA0CF8C2F8148091F803C0BCF1480F96
:1006C00007D100F1080C4FF0010808FA0CF8C2F845
:1006D0001080401C0828CED35460BDE8F081016131
:1006E000704700BFFEE7000008B50121102000F0B0
:1006F00095F80F20ADF8000010208DF803000320BE
:100700008DF8020069460448FFF75EFF0F2102489A
:10071000FFF7E5FF08BD0000001001401FB50F4BBB
:100720000FCB8DE80F00002469460DA0FFF71EFED9
:10073000044614B1062004B010BD9DF802002B2819
:1007400009D19DF803004F2805D19DF804004B28DE
:1007500001D10020EFE79DF80800ECE71012000837
:1007600041542B52454C440D0A00000000BFFEE7E7
:100770007047000070B5002100230F22C47804B335
:10078000154C246804F4E064C4F5E064210AC1F166
:100790000403CA40447804FA03F1847814402143E6
:1007A00009010E4C0678A155047804F01F050124B8
:1007B000AC4005786D11AD0005F1E025C5F80041AC
:1007C00009E0047804F01F050124AC40044D0678CC
:1007D000761145F8264070BD0CED00E000E400E025
:1007E00080E100E002490143024A116070470000C5
:1007F0000000FA050CED00E07047000029B1064A40
:10080000D2690243044BDA6104E0034AD2698243AD
:10081000014BDA61704700000010024029B1064A1E
:1008200092690243044B9A6104E0034A926982434D
:10083000014B9A61704700000010024030B5002162
:100840000022002400232D4D6D6805F00C0121B11C
:10085000042905D0082923D105E0294D056022E0AF
:10086000274D05601FE0254D6D6805F47012234D7E
:100870006D6805F48034022505EB92421CB9214DC8
:10088000554305600BE01D4D6D6805F400351DB145
:100890001C4D5543056002E0194D5543056002E0CB
:1008A000174D056000BF00BF144D6D6805F0F001E5
:1008B0000909154D6B5C0568DD4045600F4D6D689D
:1008C00005F4E061090A104D6B5C4568DD40856008
:1008D0000A4D6D6805F46051C90A0B4D6B5C4568A3
:1008E000DD40C560054D6D6805F44041890B074D3D
:1008F0006B5CC568B5FBF3F5056130BD00100240C7
:1009000000127A0000093D0014000020240000209D
:10091000704710B500F002F810BD00000CB50020C3
:10092000019000903348006840F4803031490860FD
:1009300000BF3048006800F4003000900198401C6F
:100940000190009818B90198B0F5A06FF1D129482D
:10095000006800F4003010B10120009001E0002098
:1009600000900098012843D12348006840F010000F
:10097000214908600846006820F003000860084626
:10098000006840F0020008601A4840681949486051
:100990000846406848600846406840F48060486007
:1009A0000846406820F47C1048600846406840F4DF
:1009B000E81048600846006840F08070086000BF9A
:1009C0000C48006800F000700028F9D00948406821
:1009D00020F00300074948600846406840F00200E4
:1009E000486000BF0348406800F00C000828F9D1B7
:1009F0000CBD0000001002400020024010B586B07F
:100A0000044601211020FFF709FF0121C804FFF768
:100A1000F5FE4FF48060ADF8140003208DF8160049
:100A200018208DF8170005A91C48FFF7CDFD4FF4DD
:100A30000060ADF8140004208DF8170005A91748D0
:100A4000FFF7C2FD01940020ADF80800ADF80A00E0
:100A5000ADF80C00ADF810000C20ADF80E0001A9A7
:100A60000F4800F021F934208DF8000003208DF8A4
:100A700001008DF8020001208DF803006846FFF7A1
:100A800079FE012240F22551054800F0E8F80121E5
:100A9000034800F0A1F806B010BD000000100140AE
:100AA000004C0040042808D14FF0E021096941F0D2
:100AB00004014FF0E022116107E04FF0E0210969E5
:100AC00021F004014FF0E0221161704770470000EF
:100AD00010B51348006840F001001149086008464D
:100AE0004068104908400E494860084600680E49B1
:100AF00008400B4908600846006820F48020086020
:100B00000846406820F4FE0048604FF41F008860EB
:100B1000FFF7FFFE4FF000600449086010BD0000C1
:100B2000001002400000FFF8FFFFF6FE08ED00E0B5
:100B300010B540F22551104800F067F8D8B10E48C2
:100B400000F01EF9C4B20D48008800F4004090B9CE
:100B50000A480088C0F30D0009490C540748008872
:100B6000401C0649088008460088C0F30D00312863
:100B700001DD0020088010BD004C00402A0000204C
:100B80006200002010B540F22551104800F03DF8F9
:100B9000D8B10E4800F0F4F8C4B20D48008800F453
:100BA000004090B90A480088C0F30D0009490C5470
:100BB00007480088401C0649088008460088C0F3A2
:100BC0000D00312801DD0020088010BD00500040DC
:100BD000280000203000002021B1828942F4005218
:100BE000828104E082894DF6FF731A40828170474A
:100BF00002460020B1F5007F00D100BF13880B40F2
:100C00000BB1012000E00020704770B502460024BF
:100C100000230025002040F66A16B14200D100BF33
:100C2000C1F3421501F01F03012606FA03F3012D5B
:100C300002D19689334006E0022D02D1168A334054
:100C400001E0968A33400C12012606FA04F4168855
:100C5000344013B10CB1012000E0002070BDF0B5AC
:100C60000346002400260025002040F66A17B942FA
:100C700000D100BF1846C1F3421401F01F0601273E
:100C800007FA06F5012C01D10C3004E0022C01D149
:100C9000103000E014301AB107682F43076002E0FB
:100CA0000768AF430760F0BD2DE9F04786B0054601
:100CB0000E460024A24600BFA1460027B08900B11D
:100CC00000BF2F462C8A4CF6FF700440F088044386
:100CD0002C82AC894EF6F3100440B0883189084369
:100CE000718908430443AC81AC8A4FF6FF4004404D
:100CF000B0890443AC8201A8FFF7A0FD1F488742DA
:100D000002D1DDF810A001E0DDF80CA0A88900F404
:100D1000004040B10AEBCA0000EB0A1031684900FC
:100D2000B0FBF1F807E00AEBCA0000EB0A103168EB
:100D30008900B0FBF1F86420B8FBF0F00401200951
:100D4000642101FB1089A88900F4004040B13220E1
:100D500000EBC900B0FBF1F000F00700044308E02D
:100D6000322000EB09106421B0FBF1F000F00F001D
:100D700004432C8106B0BDE8F08700000038014034
:100D800001468888C0F308007047C1F308028280DA
:100D900070472DE9F04107460D461646002400BF76
:100DA0000CE0295D3846FFF7F0FF00BF8021384690
:100DB000FFF71EFF0028F9D0601C84B2B442F0DBBC
:100DC000BDE8F08170B506460C4600250CE0615D7B
:100DD0003046FFF7DAFF00BF80213046FFF708FFFB
:100DE0000028F9D0681C85B2605D0028EFD170BD85
:100DF00010B586B0044601213020FFF70FFD012118
:100E00000805FFF7FBFC4FF48050ADF814000320F9
:100E10008DF8160018208DF8170005A91B48FFF75C
:100E2000D3FB0420ADF814008DF8170005A918486D
:100E3000FFF7CAFB01940020ADF80800ADF80A00E6
:100E4000ADF80C00ADF810000C20ADF80E0001A9B3
:100E50001048FFF729FF35208DF8000003208DF89A
:100E600001008DF8020001208DF803006846FFF7AD
:100E700081FC012240F225510648FFF7F0FE0121D6
:100E80000448FFF7A9FE06B010BD000000100140A5
:100E9000001401400050004000BFFEE700BF704753
:100EA00010B56FF00400FFF7FDFD0A4800680A491D
:100EB000B0FBF1F0094908700846007800EB4001EA
:100EC000C1EBC0104FF6FF7101EAC0000449088071
:100ED00010BD00000000002000127A002C0000204D
:100EE0002E0000200146114A12884A434FF0E023A9
:100EF0005A6100229A611A46126942F001021A618F
:100F000000BF4FF0E022106900F001021AB100F4B6
:100F10008032002AF5D04FF0E022126922F001025F
:100F20004FF0E0231A6100229A6170472E000020E2
:100F300094B00024342107A8FFF79BF9182251A18F
:100F400001A8FFF764F94FF4A060FFF74BFCFFF72F
:100F5000A7FF4FF4E130FFF751FDFFF7C5FBFFF7A7
:100F6000E5F94FF4E130FFF743FFFFF7D7FBFFF759
:100F7000D5FA044624B949A14D48FFF723FF03E001
:100F80004CA14B48FFF71EFF322107A8FFF73AFAA2
:100F90004EA14748FFF716FF07A953A0FFF7E6F950
:100FA000044624B15EA14248FFF70CFF03E007A905
:100FB0003F48FFF707FF322107A8FFF723FA5CA19C
:100FC0003B48FFF7FFFE07A960A0FFF7CFF90446F3
:100FD00024B153A13648FFF7F5FE03E007A93448D2
:100FE000FFF7F0FE322107A8FFF70CFA5FA13048A7
:100FF000FFF7E8FE07A964A0FFF7B8F9044624B19B
:1010000047A12B48FFF7DEFE03E007A92848FFF7BA
:10101000D9FE322107A8FFF7F5F907A962A0FFF76B
:10102000A5F9044607A92248FFF7CCFE24B961A11F
:101030001F48FFF7C7FE03E063A11D48FFF7C2FE8C
:10104000002142F21070FFF7E5F91AE04FF49670B4
:10105000FFF748FF6248006808B9012000E000205F
:101060005F4908605F4800880A280ADB5E495F48DC
:10107000FFF7A8FE32215C48FFF7C4F90020594968
:101080000880E3E701010101010000000000020205
:10109000020202010101010100010200456E7465B6
:1010A00072204154204D6F6465204F4B0D0A0000A3
:1010B000004C0040456E746572204154204D6F64B1
:1010C00065204661696C65640D0A00000D0A2031D7
:1010D000746820436F6E6669672057414E4E2061E9
:1010E000636B3A0D0A00000041542B57414E4E3DB0
:1010F0005354415449432C3139322E3136382E3035
:101100002E352C3235352E3235352E3235352E30C2
:101110002C3139322E3136382E302E310D0A000066
:10112000436F6E666967204572726F720D0A000028
:101130000D0A2032746820436F6E6669672055413E
:1011400052542061636B3A0D0A00000041542B5544
:101150004152543D3131353230302C382C312C4E07
:101160004F4E452C4E46430D0A0000000D0A203319
:10117000746820436F6E66696720534F434B20614C
:10118000636B3A0D0A00000041542B534F434B3D13
:10119000544350432C3139322E3136382E302E31D3
:1011A00031372C34300D0A0041542B454E544D0D2F
:1011B0000A00000045786974204154204D6F646531
:1011C000204F4B0D0A0000004578697420415420DF
:1011D0004D6F6465204661696C65640D0A0000000E
:1011E000800122422A0000206200002000500040BE
:1011F00030000000000000000000000000000000BF
:1012000030000000000000000000000000000000AE
:10121000300000000000000000000000000000009E
:1012200041542B00000000000000000000000000FE
:1012300000000000000000000000000000000000AE
:10124000000000000000000000000000000000009E
:10125000000000000000000000000000000000008E
:10126000000000000000000000000000000000007E
:1012700041542B57414E4E3D00000000000000003D
:10128000000000000000000000000000000000005E
:10129000000000000000000000000000000000004E
:1012A000000000000000000000000000000000003E
:1012B000000000000000000000000000000000002E
:1012C00030000000000000000000000000000000EE
:1012D00041542B554152543D0000000000000000D5
:1012E00000000000000000000000000000000000FE
:1012F00000000000000000000000000000000000EE
:1013000000000000000000000000000000000000DD
:1013100000000000000000000000000000000000CD
:10132000300000000000000000000000000000008D
:1013300041542B534F434B3D000000000000000080
:10134000000000000000000000000000000000009D
:10135000000000000000000000000000000000008D
:10136000000000000000000000000000000000007D
:10137000000000000000000000000000000000006D
:10138000300000000000000000000000000000002D
:10139000AA5500202100570000000000AA55002097
:1013A000210058FFFF000000AA5500202100730013
:1013B00000000000AA550020210072FFFF0000007D
:1013C000AA55002021005500E81300080000002065
:1013D000300000006C0100081814000830000020E4
:1013E000C80600008801000800A24A0400000000AE
:1013F00000000000010203040607080900000000C5
:101400000102030401020304060708090204060896
:081410000000000000000000D4
:0400000508000131BD
:00000001FF
