:020000040800F2
:10000000600A0020553E0008B1020008B302000853
:10001000B7020008BB020008BF0200080000000091
:10002000000000000000000000000000C302000803
:10003000C502000800000000C7020008E90200082D
:100040006F3E00086F3E00086F3E00086F3E0008DC
:100050006F3E00086F3E00086F3E00086F3E0008CC
:100060006F3E00086F3E00086F3E00086F3E0008BC
:100070006F3E00086F3E00086F3E00086F3E0008AC
:100080006F3E00086F3E00086F3E00086F3E00089C
:100090006F3E00086F3E00086F3E00086F3E00088C
:1000A0006F3E00086F3E00086F3E00086F3E00087C
:1000B0006F3E000837050008B70500086F3E0008CE
:1000C0006F3E00086F3E00086F3E00086F3E00085C
:1000D0006F3E00089B060008C9020008670D000873
:1000E0006F3E00086F3E00086F3E00086F3E00083C
:1000F0006F3E00086F3E00086F3E00086F3E00082C
:100100006F3E00086F3E00086F3E00086F3E00081B
:100110003D0C00086F3E00086F3E00086F3E00086F
:100120006F3E00086F3E00086F3E00086F3E0008FB
:1001300000F002F800F043F80AA090E8000C8244B6
:100140008344AAF10107DA4501D100F038F8AFF293
:10015000090EBAE80F0013F0010F18BFFB1A43F0A5
:1001600001031847F86F000018700000103A24BF10
:1001700078C878C1FAD8520724BF30C830C144BF0C
:1001800004680C607047000000230024002500264E
:10019000103A28BF78C1FBD8520728BF30C148BFEA
:1001A0000B6070471FB506F073FD040000200021AE
:1001B00006F0B2FD401C60601FBD10B510BD06F01A
:1001C0002BFD1146FFF7EEFF00F008F806F052FD98
:1001D00003B4FFF7F2FF03BC03F02CFE03F0B0FC06
:1001E0004FF4A06004F0DAFB41F61F41632000F0F9
:1001F000B5F903F008FA4FF4E13003F075F900F0B7
:100200003FFF03F023FC00F02DFE4FF4E13000F03F
:1002100047FD4FF4E13000F0B1FC4FF4E13000F065
:10022000EDF91AA21BA11EA000F0E1FA4FF4FA703A
:1002300003F0C3FC29E01B480078012823D10020EB
:1002400018490870184801780078401C164A107048
:10025000142916DB00201146087000F0ADFE00F0F6
:10026000C0FD00F092FB03F069FC00F00BFD03F011
:1002700066FC0E48006808B9012000E000200B4928
:10028000086003F069FB03F031FCD4E73233313707
:1002900000000000746573742E7573722E636E0017
:1002A0005443500000000020040000208C01224232
:1002B000704700BFFEE700BFFEE700BFFEE700BFDC
:1002C000FEE770477047704710B540F22551094866
:1002D00004F020FB38B1074804F09CFAC4B2204671
:1002E00000F0D7FE00BF10BD03480068401C024963
:1002F00008607047004400406C0000200CB50020EE
:10030000019000906C48006840F480306A490860B1
:1003100000BF6948006800F4003000900198401C5C
:100320000190009818B90198B0F5A06FF1D162481A
:10033000006800F4003010B10120009001E00020BE
:1003400000900098012843D15C48006840F01000FC
:100350005A4908600846006820F003000860084613
:10036000006840F002000860534840685249486005
:100370000846406848600846406840F4806048602D
:100380000846406820F47C1048600846406840F405
:10039000E81048600846006840F08070086000BFC0
:1003A0004548006800F000700028F9D042484068D5
:1003B00020F00300404948600846406840F00200D1
:1003C000486000BF3C48406800F00C000828F9D1A4
:1003D0000CBD10B5FFF792FF10BD10B53648006890
:1003E00040F001003449086008464068344908403C
:1003F0003149486008460068324908402E49086083
:100400000846006820F4802008600846406820F410
:10041000FE0048604FF41F008860FFF7DAFF4FF0DE
:1004200000602949086010BD10B50021002000229D
:10043000214B5B6803F00C0121B1042906D0082987
:1004400028D107E0214B224C236027E01F4B204C92
:10045000236023E0184B5B6803F47010164B5B6855
:1004600003F48032022303EB904022B9194B43433B
:10047000174C23600DE0104B5B6803F4003323B18D
:10048000144B4343124C236003E0104B4343104C86
:10049000236003E00D4B0E4C236000BF00BF064BF2
:1004A0005B68C3F303130C4CE15C094B1B68CB4046
:1004B000074C236010BD00000010024000200240E5
:1004C0000000FFF8FFFFF6FE08ED00E000127A00E2
:1004D0000800002000093D000C0000207FB5054603
:1004E0000C460121022003F0FEFFADF80850ADF8E4
:1004F00004400020ADF80A00ADF8060001A9384814
:1005000004F08EFB01221146354804F000FF1D2047
:100510008DF8000000208DF8010003208DF8020006
:1005200001208DF80300684604F03DFA01212C48B3
:1005300004F0D2FE7FBD10B50121294805F095F9E0
:1005400058B10121264805F0A1F92648006808B9EC
:10055000012000E000202349086010BD7FB505465A
:100560000C460121042003F0BEFFADF80850ADF8A1
:1005700004400020ADF80A00ADF8060001A91A48B1
:1005800004F04EFB01221146174804F0C0FE1E2065
:100590008DF8000000208DF8010003208DF8020086
:1005A00001208DF80300684604F0FDF901210E4892
:1005B00004F092FE7FBD10B501210B4805F055F9FE
:1005C00060B10121084805F061F901200749087070
:1005D00007490870074908700749087010BD0000F6
:1005E000000400408C01224200080040000000206E
:1005F00001000020020000200300002010B586B09A
:1006000004460121042003F061FF0121880303F067
:100610005DFF4FF40070ADF8140003208DF8160054
:1006200018208DF8170005A9D84803F093FC4FF463
:100630008060ADF8140004208DF8170005A9D34898
:1006400003F088FC01940020ADF80800ADF80A0022
:10065000ADF80C00ADF810000C20ADF80E0001A9AB
:10066000CB4803F0DAFF0121C94804F062F8012207
:1006700040F22551C64804F068F825208DF80000A6
:1006800003208DF801008DF8020001208DF8030091
:10069000684604F088F906B010BD10B540F2255147
:1006A000BB4804F037F9D8B1B94804F0B3F8C4B284
:1006B000B848008800F4004090B9B6480088C0F3FC
:1006C0000D00B5490C54B3480088401CB14908805E
:1006D00008460088C0F30D00312801DD00200880A5
:1006E00010BD10B50A243221AB4803F093FA002064
:1006F000A8490880A9A1A64803F09CFA642003F049
:100700005CFAA5480078612807D1A2480088012832
:1007100003D13221A04803F07DFA00209D490880D2
:100720009FA19B4803F086FA15E0322003F045FABA
:100730009848008802280EDB974800782B2809D1BA
:10074000954840786F2805D1934880786B2801D16F
:10075000002010BD04E0201EA4F10101CCB2E4D1C0
:1007600000BF0120F5E72DE9F04105460E460527BB
:1007700000243221884803F04DFA00208549088082
:100780002946834803F056FA1AE0142003F015FABC
:1007900080480088012813DD7F487E490988405C35
:1007A0000A280DD17B480088401E7B49085C0D2833
:1007B00006D17848008840F400407649088004E07B
:1007C000381EA7F10101CFB2DFD100BF17B9012058
:1007D000BDE8F081002404E06F48005D3055601CE6
:1007E000C4B26C4800888442F6DB0020F0E72DE9B3
:1007F000F0418EB006460F4690463422694901A862
:1008000005F083FF0024002501E0601CC4B201A8AC
:10081000005D0028F9D1222001A90855601CC4B24E
:10082000002505E0705D01A90855601CC4B26D1C6F
:10083000705D0028F6D1222001A90855601CC4B2C1
:100840002C200855601CC4B222200855601CC4B27C
:10085000002505E0785D01A90855601CC4B26D1C37
:10086000785D0028F6D1222001A90855601CC4B289
:100870002C200855601CC4B2002506E018F80500BD
:1008800001A90855601CC4B26D1C18F805000028A9
:10089000F4D10D2001A90855601CC4B20A200855E6
:1008A000FFF71FFF3221404803F0B4F93E493FA053
:1008B000FFF759FF32213C4803F0ACF93A4940A018
:1008C000FFF751FF3221384803F0A4F9364941A01F
:1008D000FFF749FF3221344803F09CF9324901A85F
:1008E000FFF741FF3221304803F094F92E493EA032
:1008F000FFF739FF32212C4803F08CF92A493FA039
:10090000FFF731FF3221284803F084F9264940A03F
:10091000FFF729FF3221244803F07CF9224941A046
:10092000FFF721FF3221204803F074F91E4941A04E
:10093000FFF719FF32211C4803F06CF91A4943A054
:10094000FFF711FF3221184803F064F9164944A05B
:10095000FFF709FF3221144803F05CF9124949A05E
:10096000FFF701FF3221104803F054F90E494BA064
:10097000FFF7F9FE32210C4803F04CF90A494AA06E
:10098000FFF7F1FE0EB0BDE8F081704700080140AE
:10099000003801401C0000200A0100202B2B2B00F6
:1009A0006100000028710008D800002041542B5736
:1009B0004B4D4F443D224E4554220D0A000000008D
:1009C00041542B534F434B42454E3D226F6E220DF7
:1009D0000A00000041542B534F434B41454E3D22EA
:1009E0006F6666220D0A000041542B534F434B4261
:1009F000534C3D226C6F6E67220D0A0041542B53FD
:100A00004F434B525354494D3D36300D0A000000C0
:100A100041542B4845415254454E3D226F6E220DA4
:100A20000A00000041542B4845415254544D3D3179
:100A3000300D0A0041542B484541525444543D2244
:100A4000343134323433220D0A00000041542B4833
:100A50004541525454503D224E4554220D0A000047
:100A600041542B554152543D3131353230302C22D6
:100A70004E4F4E45222C382C312C225253343835CF
:100A8000220D0A0041542B41504E3D22434D4E450C
:100A900054222C22222C22220D0A000041542B45E4
:100AA0003D226F6E220D0A0041542B530D0A0000A7
:100AB00000B597B0744804F0EDFE74480C9074488B
:100AC0000D9000200E9028200F9000201090802084
:100AD000119000201290139014904FF480501590B4
:100AE000002016900CA9684804F076FF01216648A2
:100AF00004F09DFF6448283004F0CCFE6348019068
:100B00006448029010200390282004900020059053
:100B10008020069000200790089009904FF48050A4
:100B20000A9000200B9001A95748283004F054FF88
:100B300001215548283004F07AFF17B000BD10B5E8
:100B40000021514804F073FF28214F4804F084FF2E
:100B500001214D4804F06BFF10BD10B500214A483B
:100B6000283004F064FF28214748283004F074FF3F
:100B700001214548283004F05AFF10BD10B586B059
:100B800004460121C80403F0AEFC0121022003F059
:100B900090FC01940020ADF80800ADF80A00ADF813
:100BA0000C00ADF810000C20ADF80E0001A937487C
:100BB000001F03F032FD4FF48060ADF814000320F5
:100BC0008DF8160018208DF8170005A9324803F09B
:100BD000C1F94FF40060ADF8140004208DF817003F
:100BE00005A92D4803F0B6F934208DF80000032044
:100BF0008DF801008DF8020001208DF80300684691
:100C000003F0D1FE012240F224412048001F03F0EE
:100C10009CFD012240211D48001F03F0BBFD012265
:100C200080211A48001F03F0B5FD01211748001F5D
:100C300003F07FFDFFF73CFF06B010BD10B540F29A
:100C400024411248001F03F065FED0B140F2244158
:100C50000E48001F03F088FE0C48001F03F0DAFD69
:100C6000094804F0FBFEC0F128000C490880084642
:100C700002880749074805F003FDFFF76EFFFFF7FD
:100C80005EFF10BD7047000030040240044C00407D
:100C90003C01002064010020001001401E000020E3
:100CA00010B586B004460121102003F00FFC10207F
:100CB000ADF814008DF8170003208DF8160005A973
:100CC0005F4803F047F910215D4803F0F0F9012176
:100CD000082003F0FBFB0121880403F004FC4FF41F
:100CE0008060ADF8140003208DF8160018208DF8F0
:100CF000170005A9534803F02DF94FF40060ADF833
:100D0000140004208DF8170005A94E4803F022F9BD
:100D100001940020ADF80800ADF80A00ADF80C0011
:100D2000ADF810000C20ADF80E0001A9464803F004
:100D300074FC0121444803F0FCFC012240F22551DF
:100D4000414803F002FD27208DF8000003208DF8B4
:100D500001008DF8020001208DF80300684603F0C1
:100D600022FE06B010BD70B5002540F22551364870
:100D700003F0D0FD10B3344803F04CFDC4B2334847
:100D8000008800F40040C8B93048008800F4804072
:100D900060B10A2C03D000202C49088020E02B48A9
:100DA000008840F400402949088019E00D2C06D144
:100DB0002648008840F480402449088010E02348F9
:100DC0000088C0F30D0022490C5420480088401CC4
:100DD0001E49088008460088C72801DD00200880D9
:100DE00070BD10B51B480068012823D11A48C0798E
:100DF000012823D11021124803F05BF91348008821
:100E0000E0B1002404E01248005D14490855641C58
:100E1000132CF8DB12D112210D4805F0A8FC00209C
:100E20000A4908801021064803F041F901200C49C5
:100E3000086003E01021024803F039F910BD0000FA
:100E400000100140000C014000480040400000201C
:100E50008C010020A8000020220000209E0100201C
:100E60004400002000B591B001214FF4067003F05A
:100E70002DFB0121084603F01CFB4FF4004003F05A
:100E800089FA0120ADF82C0000208DF82F000BA965
:100E90006D4803F05FF80220ADF82C0000208DF8BB
:100EA0002F000BA9684803F055F82020ADF82C005E
:100EB00000208DF82F000BA9644803F04BF864481C
:100EC00004F0E8FC63480090634801900020029021
:100ED000032003900020049080200590400006909D
:100EE00080000790202008900002099000200A90BE
:100EF0006946574804F070FD0121554804F097FDFC
:100F000054484C3804F0F0FD00200C9001208DF87E
:100F100034008DF835004FF460200E9000200F90C3
:100F200003208DF840000CA94A484C3804F003FE19
:100F30004FF4404003F02EFA0523012208214548D2
:100F40004C3804F090FE05230222092141484C3818
:100F500004F089FE052303220F213E484C3804F09B
:100F600082FE01213B484C3804F01CFE0121394827
:100F70004C3804F00CFE37484C3804F02AFE00BF11
:100F800034484C3804F02AFE0028F9D131484C3856
:100F900004F02EFE00BF2F484C3804F02EFE00282F
:100FA000F9D101212B484C3804F031FE11B000BDBD
:100FB00001467047024670472DE9F0412748006816
:100FC00001283ED12448008825490880098840F638
:100FD0004852501A06F03DF806460022214B05F013
:100FE000B1FE044606F006F81F4908601A4840881A
:100FF0001E490880098840F64852501A06F029F820
:1010000006460022174B05F09DFE044605F0F2FF50
:10101000174908601048808816490880098840F6FA
:101020004852501A06F015F8064600220D4B05F0FE
:1010300089FE044605F0DEFF0F49086001200F49D4
:101040000860BDE8F0810000000C01400010014084
:10105000080002404C24014048000020AC00002061
:101060004E0000200020414054000020500000208D
:1010700058000020520000205C000020600000208A
:101080000020414948800880404908604049088064
:10109000704701463C4B1B88581CC31700EBD353C9
:1010A0005B12A0EB43239AB237484088904205D0A8
:1010B00035480388001DC154001F02807047014657
:1010C00031484088304A128890420FD02E484288DA
:1010D000001D805C08702C4A5288501CC21700EB1F
:1010E000D2525212A0EB4222274B5A807047264818
:1010F000008800F50070244A5288811AC81701EB55
:10110000D0504012A1EB402080B27047F8B50446A1
:101110000D460026002000902FE06846FFF7CFFF25
:101120001B48008820B99DF80000EE2800D024E07C
:1011300017480088A84208DA9DF800101448028871
:101140000088401C124B1880A1549DF800000F49E4
:10115000096840EA01200D490860084600686FF4FC
:101160004031884208D10A480688002007490860B3
:10117000074908803046F8BD00BFFFF7B8FF0028D8
:10118000CBDC0020F7E70000B00100206400002065
:1011900068000020014606E04FF47A7200E0521E1B
:1011A000002AFCDC491E0029F6DC704710B5044615
:1011B00003E0207802F0DAF9641C20780028F8D1E6
:1011C00010BD70B505460E46002404E0285D02F00F
:1011D000CDF9601C84B2B442F8DB70BD70B5054631
:1011E0000E4600240AE035F81410080A02F0BEF991
:1011F00015F8140002F0BAF9601C84B2B442F2DBB4
:1012000070BD10B5EE2002F0B1F9042002F0AEF985
:10121000FF2002F0ABF9FC2002F0A8F9FF2002F059
:10122000A5F9FF2002F0A2F910BD10B50446EE208A
:1012300002F09CF9412002F099F9200A02F096F997
:10124000E0B202F093F9FF2002F090F9FC2002F0E6
:101250008DF9FF2002F08AF9FF2002F087F910BD16
:1012600010B50446EE2002F081F9422002F07EF92A
:10127000200A02F07BF9E0B202F078F9FF2002F0D8
:1012800075F9FC2002F072F9FF2002F06FF9FF20DF
:1012900002F06CF910BD70B506460C461546EE20FE
:1012A00002F064F9A32002F061F9F0B202F05EF9F5
:1012B000200A02F05BF9E0B202F058F9280A02F0C5
:1012C00055F9E8B202F052F9FF2002F04FF9FC2084
:1012D00002F04CF9FF2002F049F9FF2002F046F934
:1012E00070BD10B5EE2002F041F9012002F03EF988
:1012F000FF2002F03BF9FC2002F038F9FF2002F059
:1013000035F9FF2002F032F910BD70B504460D46E4
:10131000EE2002F02BF9432002F028F9E0B202F0AF
:1013200025F9E8B202F022F9FF2002F01FF9FC20B3
:1013300002F01CF9FF2002F019F9FF2002F016F963
:1013400070BD70B506460C461546EE2002F00EF94B
:10135000452002F00BF9F0B202F008F9200A02F081
:1013600005F9E0B202F002F9280A02F0FFF8E8B24B
:1013700002F0FCF8FF2002F0F9F8FC2002F0F6F889
:10138000FF2002F0F3F8FF2002F0F0F870BD70B516
:1013900004460D46EE2002F0E9F8442002F0E6F89B
:1013A000200A02F0E3F8E0B202F0E0F8280A02F0C6
:1013B000DDF8E8B202F0DAF8FF2002F0D7F8FC20FE
:1013C00002F0D4F8FF2002F0D1F8FF2002F0CEF8AE
:1013D00070BD2DE9F04104460D4616461F46DDF866
:1013E0001880EE2002F0C2F8202002F0BFF8200A98
:1013F00002F0BCF8E0B202F0B9F8280A02F0B6F840
:10140000E8B202F0B3F8F0B202F0B0F8F8B202F0CD
:10141000ADF84046FFF7CAFEFF2002F0A7F8FC2017
:1014200002F0A4F8FF2002F0A1F8FF2002F09EF8DD
:10143000BDE8F0812DE9F04106460C4615461F46F1
:10144000DDF81880EE2002F091F8212002F08EF8ED
:10145000F0B202F08BF8200A02F088F8E0B202F055
:1014600085F8280A02F082F8E8B202F07FF8F8B2B4
:1014700002F07CF808F0FF0002F078F8FF2002F09C
:1014800075F8FC2002F072F8FF2002F06FF8FF20E0
:1014900002F06CF8BDE8F08170B504460D46EE2010
:1014A00002F064F8312002F061F8200A02F05EF8E0
:1014B000E0B202F05BF8E8B202F058F8FF2002F068
:1014C00055F8FC2002F052F8FF2002F04FF8FF2000
:1014D00002F04CF870BD2DE9F04104460D46164669
:1014E0001F46EE2002F042F8322002F03FF8200AB8
:1014F00002F03CF8E0B202F039F8280A02F036F8BF
:10150000E8B202F033F8300A02F030F8F0B202F03C
:101510002DF8F8B202F02AF8FF2002F027F8FC209C
:1015200002F024F8FF2002F021F8FF2002F01EF85C
:10153000BDE8F0812DE9F05F04460D4616461F46D2
:10154000DDE90CABDDE90A89EE2002F00FF833206B
:1015500002F00CF8200A02F009F8E0B202F006F8F6
:10156000280A02F003F8E8B202F000F8300A01F0AD
:10157000FDFFF0B201F0FAFF380A01F0F7FFF8B210
:1015800001F0F4FF4FEA182001F0F0FF08F0FF002F
:1015900001F0ECFF4FEA192001F0E8FF09F0FF002D
:1015A00001F0E4FF4FEA1A2001F0E0FF0AF0FF002B
:1015B00001F0DCFF0BF0FF0001F0D8FFFF2001F08D
:1015C000D5FFFC2001F0D2FFFF2001F0CFFFFF206C
:1015D00001F0CCFFBDE8F09F2DE9F04104460D4637
:1015E00016461F46DDF81880EE2001F0BFFF802070
:1015F00001F0BCFF200A01F0B9FFE0B201F0B6FF34
:10160000280A01F0B3FFE8B201F0B0FF300A01F0A0
:10161000ADFFF0B201F0AAFFF8B201F0A7FF08F0A9
:10162000FF0001F0A3FFFF2001F0A0FFFC2001F06C
:101630009DFFFF2001F09AFFFF2001F097FFBDE81A
:10164000F08170B504460D46EE2001F08FFF50206A
:1016500001F08CFF200A01F089FFE0B201F086FF63
:10166000280A01F083FFE8B201F080FFFF2001F0BB
:101670007DFFFC2001F07AFFFF2001F077FFFF20C3
:1016800001F074FF70BD2DE9F04104460D46164689
:101690001F46EE2001F06AFF512001F067FF200A8B
:1016A00001F064FFE0B201F061FF280A01F05EFF83
:1016B000E8B201F05BFF300A01F058FFF0B201F030
:1016C00055FF380A01F052FFF8B201F04FFFFF203A
:1016D00001F04CFFFC2001F049FFFF2001F046FF24
:1016E000FF2001F043FFBDE8F08170B505460E46CE
:1016F0001446EE2001F03AFF632001F037FFE8B214
:1017000001F034FF4FF6FF7000EA44013046FFF766
:1017100065FDFF2001F02AFFFC2001F027FFFF20DC
:1017200001F024FFFF2001F021FF70BD2DE9F04101
:1017300004460D4616461F46EE2001F017FF5920BD
:1017400001F014FF200A01F011FFE0B201F00EFFDA
:10175000280A01F00BFFE8B201F008FF39463046D5
:10176000FFF73CFDFF2001F001FFFC2001F0FEFE31
:10177000FF2001F0FBFEFF2001F0F8FEBDE8F08144
:101780002DE9F04104460D4616461F46EE2001F0B5
:10179000EDFE752001F0EAFE200A01F0E7FEE0B25E
:1017A00001F0E4FE280A01F0E1FEE8B201F0DEFEFD
:1017B00039463046FFF712FDFF2001F0D7FEFC202E
:1017C00001F0D4FEFF2001F0D1FEFF2001F0CEFE9B
:1017D000BDE8F0812DE9F04104460D4616461F464E
:1017E000EE2001F0C3FE762001F0C0FE200A01F0D9
:1017F000BDFEE0B201F0BAFE280A01F0B7FEE8B281
:1018000001F0B4FE39463046FFF7E8FCFF2001F056
:10181000ADFEFC2001F0AAFEFF2001F0A7FEFF2094
:1018200001F0A4FEBDE8F0812DE9F04104460D462B
:1018300016461F46EE2001F099FE772001F096FE35
:10184000E0B201F093FEE8B201F090FEF0B201F0D8
:101850008DFEF8B201F08AFEFF2001F087FEFC2029
:1018600001F084FEFF2001F081FEFF2001F07EFEEA
:10187000BDE8F08170B505460C46EE2001F076FE1D
:10188000682001F073FE4FF6FF7000EA440128461D
:10189000FFF7A4FCFF2001F069FEFC2001F066FECA
:1018A000FF2001F063FEFF2001F060FE70BD70B507
:1018B00005460C46EE2001F059FE692001F056FE67
:1018C0004FF6FF7000EA44012846FFF787FCFF202F
:1018D00001F04CFEFC2001F049FEFF2001F046FE25
:1018E000FF2001F043FE70BD70B504460D4616465C
:1018F000EE2001F03BFE522001F038FE200A01F0FC
:1019000035FEE0B201F032FE280A01F02FFEE8B207
:1019100001F02CFE300A01F029FEF0B201F026FEA3
:10192000FF2001F023FEFC2001F020FEFF2001F04B
:101930001DFEFF2001F01AFE70BD70B504460D4675
:101940001646EE2001F012FE532001F00FFE200A91
:1019500001F00CFEE0B201F009FE280A01F006FEDB
:10196000E8B201F003FE300A01F000FEF0B201F02F
:10197000FDFDFF2001F0FAFDFC2001F0F7FDFF2046
:1019800001F0F4FDFF2001F0F1FD70BD2DE9F04103
:1019900004460D4616461F46DDF81880EE2001F07D
:1019A000E5FD672001F0E2FD200A01F0DFFDE0B275
:1019B00001F0DCFD280A01F0D9FDE8B201F0D6FD06
:1019C000300A01F0D3FDF0B201F0D0FD380A01F089
:1019D000CDFDF8B201F0CAFD4FEA182001F0C6FDB6
:1019E00008F0FF0001F0C2FDFF2001F0BFFDFC2068
:1019F00001F0BCFDFF2001F0B9FDFF2001F0B6FDB4
:101A0000BDE8F0812DE9F04104460D4616461F461B
:101A1000EE2001F0ABFD542001F0A8FD200A01F0FA
:101A2000A5FDE0B201F0A2FD280A01F09FFDE8B299
:101A300001F09CFD300A01F099FDF0B201F096FD35
:101A4000380A01F093FDF8B201F090FDFF2001F09B
:101A50008DFDFC2001F08AFDFF2001F087FDFF20B5
:101A600001F084FDBDE8F0812DE9F04104460D460A
:101A700016461F46EE2001F079FD552001F076FD57
:101A8000200A01F073FDE0B201F070FD280A01F0B8
:101A90006DFDE8B201F06AFD300A01F067FDF0B2B9
:101AA00001F064FD380A01F061FDF8B201F05EFD5D
:101AB000FF2001F05BFDFC2001F058FDFF2001F04C
:101AC00055FDFF2001F052FDBDE8F0812DE9F04108
:101AD00004460D4616461F46EE2001F047FD5620EF
:101AE00001F044FD200A01F041FDE0B201F03EFDAD
:101AF000280A01F03BFDE8B201F038FD300A01F0A0
:101B000035FDF0B201F032FD380A01F02FFDF8B2D8
:101B100001F02CFDFF2001F029FDFC2001F026FD45
:101B2000FF2001F023FDFF2001F020FDBDE8F08142
:101B30002DE9F04104460D4616461F46EE2001F001
:101B400015FD572001F012FD200A01F00FFDE0B253
:101B500001F00CFD280A01F009FDE8B201F006FDD4
:101B6000300A01F003FDF0B201F000FD380A01F087
:101B7000FDFCF8B201F0FAFCFF2001F0F7FCFC20BC
:101B800001F0F4FCFF2001F0F1FCFF2001F0EEFC7D
:101B9000BDE8F08110B50446EE2001F0E7FC6020BE
:101BA00001F0E4FCE0B201F0E1FCFF2001F0DEFC1A
:101BB000FC2001F0DBFCFF2001F0D8FCFF2001F04D
:101BC000D5FC10BD10B50446EE2001F0CFFC61201D
:101BD00001F0CCFCE0B201F0C9FCFF2001F0C6FC32
:101BE000FC2001F0C3FCFF2001F0C0FCFF2001F04D
:101BF000BDFC10BD2DE9F04104460D4616461F46BA
:101C0000EE2001F0B3FC652001F0B0FC200A01F0E9
:101C1000ADFCE0B201F0AAFC280A01F0A7FCE8B292
:101C200001F0A4FC300A01F0A1FCF0B201F09EFC2E
:101C3000380A01F09BFCF8B201F098FCFF2001F09B
:101C400095FCFC2001F092FCFF2001F08FFCFF20AE
:101C500001F08CFCBDE8F0812DE9F0410746884693
:101C600015461E4600240FB144F00104B8F1000FE0
:101C700001D044F0020415B144EA8500C4B216B1A3
:101C800044EA4610C4B2EE2001F070FC702001F06E
:101C90006DFCE0B201F06AFCFF2001F067FCFC2063
:101CA00001F064FCFF2001F061FCFF2001F05EFC0C
:101CB000BDE8F08110B5EE2001F058FC722001F073
:101CC00055FCFF2001F052FCFC2001F04FFCFF20EE
:101CD00001F04CFCFF2001F049FC10BD10B5EE20D6
:101CE00001F044FC732001F041FCFF2001F03EFCB8
:101CF000FC2001F03BFCFF2001F038FCFF2001F04C
:101D000035FC10BD10B5EE2001F030FC092001F0CB
:101D10002DFCDE2001F02AFCED2001F027FC132031
:101D200001F024FC312001F021FCFF2001F01EFC19
:101D3000FC2001F01BFCFF2001F018FCFF2001F04B
:101D400015FC10BD10B5EE2001F010FC082001F0CC
:101D50000DFCA52001F00AFC5A2001F007FC5F20D1
:101D600001F004FCF52001F001FCFF2001F0FEFB76
:101D7000FC2001F0FBFBFF2001F0F8FBFF2001F04D
:101D8000F5FB10BD10B50446EE2001F0EFFBA020DE
:101D900001F0ECFBE0B201F0E9FBFF2001F0E6FB13
:101DA000FC2001F0E3FBFF2001F0E0FBFF2001F04D
:101DB000DDFB10BD10B50446EE2001F0D7FBA120DD
:101DC00001F0D4FBE0B201F0D1FBFF2001F0CEFB2B
:101DD000FC2001F0CBFBFF2001F0C8FBFF2001F04D
:101DE000C5FB10BD10B50446EE2001F0BFFBA220DC
:101DF00001F0BCFBE0B201F0B9FBFF2001F0B6FB43
:101E0000FC2001F0B3FBFF2001F0B0FBFF2001F04C
:101E1000ADFB10BD70B504460D46EE2001F0A6FBEB
:101E2000A42001F0A3FBE0B201F0A0FBE8B201F0B6
:101E30009DFBFF2001F09AFBFC2001F097FBFF20A7
:101E400001F094FBFF2001F091FB70BD10B504463A
:101E5000EE2001F08BFB052001F088FBE0B201F0E1
:101E600085FBFF2001F082FBFC2001F07FFBFF20BF
:101E700001F07CFBFF2001F079FB10BD2DE9F0475C
:101E800005460E4617461C46DDE90889EE2001F09E
:101E90006DFB852001F06AFBE8B201F067FBF0B250
:101EA00001F064FBF8B201F061FB200A01F05EFB77
:101EB000E0B201F05BFB4FEA182001F057FB08F09D
:101EC000FF0001F053FB4FEA192001F04FFB09F02E
:101ED000FF0001F04BFBFF2001F048FBFC2001F06C
:101EE00045FBFF2001F042FBFF2001F03FFBBDE876
:101EF000F08770B504460E461546EE2001F036FB1D
:101F0000872001F033FB200E01F030FBC4F30740C3
:101F100001F02CFBC4F3072001F028FBE0B201F034
:101F200025FB31462846FFF74CF9FF2001F01EFB48
:101F3000FC2001F01BFBFF2001F018FBFF2001F04B
:101F400015FB70BD70B504460D46EE2001F00EFB8A
:101F5000882001F00BFB200E01F008FBC4F30740C2
:101F600001F004FBC4F3072001F000FBE0B201F034
:101F7000FDFA280A01F0FAFAE8B201F0F7FAFF20B8
:101F800001F0F4FAFC2001F0F1FAFF2001F0EEFA82
:101F9000FF2001F0EBFA70BD10B50446EE2001F011
:101FA000E5FAB12001F0E2FA012001F0DFFAFF20AA
:101FB00001F0DCFAFC2001F0D9FAFF2001F0D6FA9A
:101FC000FF2001F0D3FA10BD10B50446EE2001F059
:101FD000CDFAB12001F0CAFA002001F0C7FA200AB8
:101FE00001F0C4FAE0B201F0C1FAFF2001F0BEFA3C
:101FF000FC2001F0BBFAFF2001F0B8FAFF2001F04D
:10200000B5FA10BD10B50446EE2001F0AFFAB320CA
:1020100001F0ACFAE0B201F0A9FAFF2001F0A6FA53
:10202000FC2001F0A3FAFF2001F0A0FAFF2001F04C
:102030009DFA10BD70B504460D461646EE2001F01F
:1020400095FAB12001F092FA022001F08FFA200AED
:1020500001F08CFAE0B201F089FA280A01F086FA60
:10206000E8B201F083FAF0B201F080FAFF2001F04B
:102070007DFAFC2001F07AFAFF2001F077FAFF20C8
:1020800001F074FA70BD70B504460D461646EE2098
:1020900001F06CFAB12001F069FA032001F066FA50
:1020A000200A01F063FAE0B201F060FA280A01F0B8
:1020B0005DFAE8B201F05AFAF0B201F057FAFF20E7
:1020C00001F054FAFC2001F051FAFF2001F04EFA21
:1020D000FF2001F04BFA70BD70B504460D46164660
:1020E000EE2001F043FAB12001F040FA042001F0A3
:1020F0003DFA200A01F03AFAE0B201F037FA280A74
:1021000001F034FAE8B201F031FAF0B201F02EFA3F
:10211000FF2001F02BFAFC2001F028FAFF2001F04B
:1021200025FAFF2001F022FA70BD70B504460D4675
:102130001646EE2001F01AFAB12001F017FA10202D
:1021400001F014FA200A01F011FAE0B201F00EFADF
:10215000280A01F00BFAE8B201F008FAF0B201F037
:1021600005FAFF2001F002FAFC2001F0FFF9FF2040
:1021700001F0FCF9FF2001F0F9F970BD70B50446DB
:102180000D461646EE2001F0F1F9B12001F0EEF90E
:10219000102001F0EBF9200A01F0E8F9E0B201F0BB
:1021A000E5F9280A01F0E2F9E8B201F0DFF930467A
:1021B000FEF7FCFFFF2001F0D9F9FC2001F0D6F971
:1021C000FF2001F0D3F9FF2001F0D0F970BD2DE917
:1021D000F04105460E4614461F46DDF81880EE20F5
:1021E00001F0C4F9B12001F0C1F9072001F0BEF9F6
:1021F000280A01F0BBF9E8B201F0B8F9300A01F0A1
:10220000B5F9F0B201F0B2F90FB1012100E00021FF
:10221000C8B201F0ABF908F00F0141F0800001F005
:10222000A5F9200E01F0A2F9C4F3074001F09EF9D0
:10223000C4F3072001F09AF9E0B201F097F9FF200A
:1022400001F094F9FC2001F091F9FF2001F08EF9E2
:10225000FF2001F08BF9BDE8F0812DE9FF41044634
:102260000D461F46DDF828800026EE2001F07EF99D
:10227000B12001F07BF9072001F078F9200A01F084
:1022800075F9E0B201F072F9280A01F06FF9E8B2CD
:1022900001F06CF9022001F069F907F00F01B8F1C3
:1022A000000F01D0802200E000221143C8B201F0EB
:1022B0005DF9002607E0C6F1030102AA505C01F0B7
:1022C00055F9701CC6B2042EF5DBFF2001F04EF963
:1022D000FC2001F04BF9FF2001F048F9FF2001F04C
:1022E00045F9BDE8FF8170B505460E461446EE205F
:1022F00001F03CF9B12001F039F9102001F036F974
:10230000280A01F033F9E8B201F030F9300A01F09F
:102310002DF9F0B201F02AF9200E01F027F9C4F3EB
:10232000074001F023F9C4F3072001F01FF9E0B2E0
:1023300001F01CF9FF2001F019F9FC2001F016F959
:10234000FF2001F013F9FF2001F010F970BD70B506
:1023500005460E461446EE2001F008F9B12001F0C2
:1023600005F9102001F002F9280A01F0FFF8E8B29F
:1023700001F0FCF8300A01F0F9F8F0B201F0F6F8DB
:10238000200E01F0F3F8C4F3074001F0EFF8C4F3B6
:10239000072001F0EBF8E0B201F0E8F8FF2001F0CF
:1023A000E5F8FC2001F0E2F8FF2001F0DFF8FF2063
:1023B00001F0DCF870BD70B504460D461646EE20FF
:1023C00001F0D4F8B12001F0D1F8102001F0CEF8DE
:1023D000200A01F0CBF8E0B201F0C8F8280A01F0B9
:1023E000C5F8E8B201F0C2F8300A01F0BFF8F0B267
:1023F00001F0BCF8FF2001F0B9F8FC2001F0B6F8BC
:10240000FF2001F0B3F8FF2001F0B0F870BD70B507
:1024100005460E461446EE2001F0A8F8B12001F062
:10242000A5F8102001F0A2F8280A01F09FF8E8B200
:1024300001F09CF8300A01F099F8F0B201F096F83A
:10244000200E01F093F8C4F3074001F08FF8C4F3B5
:10245000072001F08BF8E0B201F088F8FF2001F0CE
:1024600085F8FC2001F082F8FF2001F07FF8FF20C2
:1024700001F07CF870BD70B504460D461646EE209E
:1024800001F074F8B12001F071F8102001F06EF83D
:10249000200A01F06BF8E0B201F068F8280A01F0B8
:1024A00065F8E8B201F062F8F0B201F05FF8FF20E1
:1024B00001F05CF8FC2001F059F8FF2001F056F81B
:1024C000FF2001F053F870BD70B504460D46EE20B4
:1024D00001F04CF8B12001F049F8112001F046F864
:1024E000200A01F043F8E0B201F040F8280A01F0B8
:1024F0003DF8E8B201F03AF8FF2001F037F8FC208F
:1025000001F034F8FF2001F031F8FF2001F02EF83F
:1025100070BD70B504460D46EE2001F027F8B120DD
:1025200001F024F8202001F021F8200A01F01EF823
:10253000E0B201F01BF8280A01F018F8E8B201F047
:1025400015F8FF2001F012F8FC2001F00FF8FF2031
:1025500001F00CF8FF2001F009F870BD70B50446D9
:102560000D46EE2001F002F8B12000F0FFFF21201F
:1025700000F0FCFF200A00F0F9FFE0B200F0F6FFE7
:10258000280A00F0F3FFE8B200F0F0FFFF2000F0AF
:10259000EDFFFC2000F0EAFFFF2000F0E7FFFF2046
:1025A00000F0E4FF70BD70B504460D46EE2000F06B
:1025B000DDFFB12000F0DAFF222000F0D7FF200A73
:1025C00000F0D4FFE0B200F0D1FF280A00F0CEFF07
:1025D000E8B200F0CBFFFF2000F0C8FFFC2000F0C5
:1025E000C5FFFF2000F0C2FFFF2000F0BFFF70BD5D
:1025F00070B504460D461646EE2000F0B7FFB12038
:1026000000F0B4FF232000F0B1FF200A00F0AEFF7D
:10261000E0B200F0ABFF280A00F0A8FFE8B200F03B
:10262000A5FFF0B200F0A2FFFF2000F09FFFFC200A
:1026300000F09CFFFF2000F099FFFF2000F096FFC4
:1026400070BD70B504460D46EE2000F08FFFB1203E
:1026500000F08CFF242000F089FF200A00F086FFA4
:10266000E0B200F083FF280A00F080FFE8B200F03B
:102670007DFFFF2000F07AFFFC2000F077FFFF20B5
:1026800000F074FFFF2000F071FF70BD70B50446CC
:102690000D46EE2000F06AFFB12000F067FF252014
:1026A00000F064FF200A00F061FFE0B200F05EFF7E
:1026B000280A00F05BFFE8B200F058FFFF2000F0AE
:1026C00055FFFC2000F052FFFF2000F04FFFFF20DD
:1026D00000F04CFF70BD2DE9F04104460D46174651
:1026E0001E46EE2000F042FFB12000F03FFF3020F8
:1026F00000F03CFF200A00F039FFE0B200F036FFA6
:10270000280A00F033FFE8B200F030FFF8B200F022
:102710002DFF300A00F02AFFF0B200F027FFFF2063
:1027200000F024FFFC2000F021FFFF2000F01EFF3E
:10273000FF2000F01BFFBDE8F08170B504460D4698
:102740001646EE2000F012FFB12000F00FFF3120FE
:1027500000F00CFF200A00F009FFE0B200F006FFD5
:10276000280A00F003FFE8B200F000FFF0B200F02A
:10277000FDFEFF2000F0FAFEFC2000F0F7FEFF2037
:1027800000F0F4FEFF2000F0F1FE70BD2DE9F041F5
:1027900004460D4617469846069EEE2000F0E6FEDB
:1027A000B12000F0E3FE322000F0E0FE200A00F04D
:1027B000DDFEE0B200F0DAFE280A00F0D7FEE8B253
:1027C00000F0D4FEF8B200F0D1FE300A00F0CEFEE8
:1027D000F0B200F0CBFE31464046FEF7F2FCFF209F
:1027E00000F0C4FEFC2000F0C1FEFF2000F0BEFEA1
:1027F000FF2000F0BBFEBDE8F08170B504460D4639
:102800001646EE2000F0B2FEB12000F0AFFE3320FD
:1028100000F0ACFE200A00F0A9FEE0B200F0A6FE37
:10282000280A00F0A3FEE8B200F0A0FEF0B200F02B
:102830009DFEFF2000F09AFEFC2000F097FEFF2096
:1028400000F094FEFF2000F091FE70BD2DE9F047EE
:1028500004460D4616461F46DDE90889EE2000F0C5
:1028600085FEB12000F082FE342000F07FFE200AB9
:1028700000F07CFEE0B200F079FE280A00F076FE5F
:10288000E8B200F073FEC6F3072000F06FFEF0B26E
:1028900000F06CFE380A00F069FEF8B200F066FE47
:1028A000C8F3072000F062FE08F0FF0000F05EFEB3
:1028B0004FEA192000F05AFE09F0FF0000F056FE22
:1028C000FF2000F053FEFC2000F050FEFF2000F03F
:1028D0004DFEFF2000F04AFEBDE8F08710B504462B
:1028E000EE2000F043FEB12000F040FE122000F088
:1028F0003DFE200A00F03AFEE0B200F037FE10BDC7
:1029000070B504460D46200A00F030FEE0B200F03B
:102910002DFE002000F02AFE012000F027FEE8B284
:1029200000F024FE70BD70B505460C46280A00F084
:102930001DFEE8B200F01AFE002000F017FE042091
:1029400000F014FE200E00F011FEC4F3074000F06A
:102950000DFEC4F3072000F009FEE0B200F006FE11
:1029600070BD70B505460C46280A00F0FFFDE8B2C0
:1029700000F0FCFD002000F0F9FD042000F0F6FD61
:10298000200E00F0F3FDC4F3074000F0EFFDC4F3A8
:10299000072000F0EBFDE0B200F0E8FD70BD70B57F
:1029A00005460C46280A00F0E1FDE8B200F0DEFD25
:1029B000002000F0DBFD042000F0D8FD200E00F028
:1029C000D5FDC4F3074000F0D1FDC4F3072000F0AB
:1029D000CDFDE0B200F0CAFD70BD01460A4600E040
:1029E000491C08780028FBD1881A704770B5044646
:1029F0000D46200A00F0BAFDE0B200F0B7FD28460F
:102A0000FFF7EBFFC0F30726304600F0AFFD284686
:102A1000FFF7E3FFC6B2304600F0A8FD2846FEF7F8
:102A2000C5FB70BD70B504460D46200A00F09EFD42
:102A3000E0B200F09BFD002000F098FD022000F0C5
:102A400095FD280A00F092FDE8B200F08FFD70BD00
:102A500070B504460D46200A00F088FDE0B200F093
:102A600085FD012000F082FDE8B200F07FFD70BD21
:102A700070B504460D46200A00F078FDE0B200F083
:102A800075FD022000F072FDE8B200F06FFD70BD30
:102A900010B5FF2000F06AFDFC2000F067FDFF206C
:102AA00000F064FDFF2000F061FD10BD70B505462B
:102AB0000E461446EE2000F059FDB12000F056FD00
:102AC000402000F053FD280A00F050FDE8B200F06D
:102AD0004DFD300A00F04AFDF0B200F047FD200E37
:102AE00000F044FDC4F3074000F040FDC4F30720AC
:102AF00000F03CFDE0B200F039FDFF2000F036FDB3
:102B0000FC2000F033FDFF2000F030FDFF2000F03E
:102B10002DFD70BD70B504460D46EE2000F026FD7B
:102B2000B12000F023FD412000F020FD200A00F03C
:102B30001DFDE0B200F01AFD280A00F017FDE8B212
:102B400000F014FDFF2000F011FDFC2000F00EFD50
:102B5000FF2000F00BFDFF2000F008FD70BD70B5F8
:102B600004460D46EE2000F001FDB12000F0FEFC11
:102B7000422000F0FBFC200A00F0F8FCE0B200F07C
:102B8000F5FC280A00F0F2FCE8B200F0EFFCFF20B0
:102B900000F0ECFCFC2000F0E9FCFF2000F0E6FC7B
:102BA000FF2000F0E3FC70BD70B504460D46EE203A
:102BB00000F0DCFCB12000F0D9FC442000F0D6FC91
:102BC000200A00F0D3FCE0B200F0D0FC280A00F0AC
:102BD000CDFCE8B200F0CAFCFF2000F0C7FCFC20EE
:102BE00000F0C4FCFF2000F0C1FCFF2000F0BEFCA0
:102BF00070BD70B504460D461646EE2000F0B6FCDA
:102C0000B12000F0B3FC182000F0B0FC200A00F066
:102C1000ADFCE0B200F0AAFC280A00F0A7FCE8B284
:102C200000F0A4FC300A00F0A1FCF0B200F09EFC21
:102C3000FF2000F09BFCFC2000F098FCFF2000F03F
:102C400095FCFF2000F092FC70BD70B504460D4667
:102C50001646EE2000F08AFCB12000F087FC192017
:102C600000F084FC200A00F081FCE0B200F07EFC61
:102C7000280A00F07BFCE8B200F078FC300A00F093
:102C800075FCF0B200F072FCFF2000F06FFCFC203D
:102C900000F06CFCFF2000F069FCFF2000F066FCF7
:102CA00070BD2DE9F04104460D4617461E46EE2044
:102CB00000F05CFCB12000F059FC132000F056FC41
:102CC000200A00F053FCE0B200F050FC280A00F0AB
:102CD0004DFCE8B200F04AFCF8B200F047FC300AC4
:102CE00000F044FCF0B200F041FCFF2000F03EFC9C
:102CF000FC2000F03BFCFF2000F038FCFF2000F03F
:102D000035FCBDE8F0812DE9F04706460C46154636
:102D10001F46DDE90889EE2000F028FC862000F03F
:102D200025FCF0B200F022FC200A00F01FFCE0B20B
:102D300000F01CFC280A00F019FCE8B200F016FCB8
:102D4000F8B200F013FC08F0FF0000F00FFC09F0EF
:102D5000FF0000F00BFCFF2000F008FCFC2000F05E
:102D600005FCFF2000F002FCFF2000F0FFFBBDE8A7
:102D7000F08770B505460E462C460EB144F080042F
:102D8000EE2000F0F3FBC12000F0F0FBE0B200F019
:102D9000EDFB04F1C101C8B200F0E8FBFF2000F038
:102DA000E5FBFC2000F0E2FBFF2000F0DFFBFF2052
:102DB00000F0DCFB70BD70B504460D46EE2000F05F
:102DC000D5FBB12000F0D2FBAA2000F0CFFB200EF3
:102DD00000F0CCFBC4F3074000F0C8FBC4F30720AD
:102DE00000F0C4FBE0B200F0C1FB280E00F0BEFB17
:102DF000C5F3074000F0BAFBC5F3072000F0B6FBAF
:102E0000E8B200F0B3FB70BD70B504460D46200A71
:102E100000F0ACFBE0B200F0A9FB280A00F0A6FB32
:102E2000E8B200F0A3FB70BD10B5FF2000F09EFBE0
:102E3000FC2000F09BFBFF2000F098FBFF2000F03F
:102E400095FB10BD70B504460D46EE2000F08EFBDC
:102E5000B12000F08BFBAB2000F088FB200E00F0CF
:102E600085FBC4F3074000F081FBC4F3072000F0AA
:102E70007DFBE0B200F07AFB280E00F077FBC5F393
:102E8000074000F073FBC5F3072000F06FFBE8B2CA
:102E900000F06CFBFF2000F069FBFC2000F066FBFB
:102EA000FF2000F063FBFF2000F060FB70BD2DE908
:102EB000F04104460D4616461F46EE2000F056FB34
:102EC000B12000F053FB602000F050FB200A00F01E
:102ED0004DFBE0B200F04AFB280A00F047FBE8B2E5
:102EE00000F044FB39463046FEF76BF9FF2000F056
:102EF0003DFBFC2000F03AFBFF2000F037FBFF20F9
:102F000000F034FBBDE8F0812DE9F04104460D46A8
:102F100016461F46EE2000F029FBB12000F026FBEC
:102F2000602000F023FB200A00F020FBE0B200F05C
:102F30001DFB280A00F01AFBE8B200F017FB394627
:102F40003046FEF74BF9FF2000F010FBFC2000F0AC
:102F50000DFBFF2000F00AFBFF2000F007FBBDE89F
:102F6000F0812DE9F04106460F46154698460024AB
:102F7000EE2000F0FBFAB12000F0F8FA602000F03B
:102F8000F5FA300A00F0F2FAF0B200F0EFFA380A7F
:102F900000F0ECFAF8B200F0E9FA16E055F8241067
:102FA000080E00F0E3FA55F82410C1F3074000F0D2
:102FB000DDFA35F82410C1F3072000F0D7FA15F830
:102FC000240000F0D3FA601CC4B24445E6DBFF20C5
:102FD00000F0CCFAFC2000F0C9FAFF2000F0C6FA9D
:102FE000FF2000F0C3FABDE8F0812DE9F047054667
:102FF0000E469046994600270024EE2000F0B6FACF
:10300000B12000F0B3FA602000F0B0FA280A00F016
:10301000ADFAE8B200F0AAFA300A00F0A7FAF0B26E
:1030200000F0A4FA11E058F82740200E00F09EFAB4
:10303000C4F3074000F09AFAC4F3072000F096FAB0
:10304000E0B200F093FA781CC7B24F45EBDBFF20EB
:1030500000F08CFAFC2000F089FAFF2000F086FADC
:10306000FF2000F083FABDE8F08770B504460D46F6
:103070001646EE2000F07AFAB12000F077FA6120CF
:1030800000F074FA200A00F071FAE0B200F06EFA73
:10309000280A00F06BFAE8B200F068FAF0B200F02B
:1030A00065FAFF2000F062FAFC2000F05FFAFF20D2
:1030B00000F05CFAFF2000F059FA70BD2DE9F041F4
:1030C00004460D4616461F46EE2000F04FFAB1208A
:1030D00000F04CFA622000F049FA200A00F046FAAB
:1030E000E0B200F043FA280A00F040FAE8B200F03B
:1030F0003DFAF0B200F03AFAF8B200F037FAFF20E9
:1031000000F034FAFC2000F031FAFF2000F02EFA33
:10311000FF2000F02BFABDE8F08170B504460D46A3
:103120001646EE2000F022FAB12000F01FFA6320CC
:1031300000F01CFA200A00F019FAE0B200F016FACA
:10314000280A00F013FAE8B200F010FA002000F0AC
:103150000DFA300A00F00AFAF0B200F007FAFF2088
:1031600000F004FAFC2000F001FAFF2000F0FEF964
:10317000FF2000F0FBF970BD70B504460D46EE204F
:1031800000F0F4F9B12000F0F1F9632000F0EEF95D
:10319000200A00F0EBF9E0B200F0E8F9280A00F0AC
:1031A000E5F9E8B200F0E2F9012000F0DFF9FF20D4
:1031B00000F0DCF9FC2000F0D9F9FF2000F0D6F98E
:1031C000FF2000F0D3F970BD2DE9F04104460D4613
:1031D00016461F46DDF81880EE2000F0C7F9B12032
:1031E00000F0C4F9632000F0C1F9200A00F0BEF934
:1031F000E0B200F0BBF9280A00F0B8F9E8B200F03C
:10320000B5F9022000F0B2F9300A00F0AFF9F0B2DF
:1032100000F0ACF9380A00F0A9F9F8B200F0A6F90C
:103220004FEA182000F0A2F908F0FF0000F09EF924
:10323000FF2000F09BF9FC2000F098F9FF2000F03F
:1032400095F9FF2000F092F9BDE8F0812DE9F041F9
:1032500004460D4616461F464FF00008EE2000F0CB
:1032600085F9B12000F082F9502000F07FF9200AA2
:1032700000F07CF9E0B200F079F9280A00F076F964
:10328000E8B200F073F9300A00F070F9F0B200F023
:103290006DF967B100BF07E017F8080000F066F9A4
:1032A00008F1010000F0FF08B8F1070FF4DBFF2080
:1032B00000F05CF9FC2000F059F9FF2000F056F90D
:1032C000FF2000F053F9BDE8F0812DE9F0410446FC
:1032D0000D4616461F464FF00008EE2000F046F956
:1032E000B12000F043F9512000F040F9200A00F02D
:1032F0003DF9E0B200F03AF9280A00F037F9E8B2F7
:1033000000F034F9300A00F031F9F0B200F02EF993
:1033100067B100BF07E017F8080000F027F908F1CF
:10332000010000F0FF08B8F1070FF4DBFF2000F008
:103330001DF9FC2000F01AF9FF2000F017F9FF201A
:1033400000F014F9BDE8F08170B504460D4616464C
:10335000EE2000F00BF9B12000F008F9522000F047
:1033600005F9200A00F002F9E0B200F0FFF8280A9F
:1033700000F0FCF8E8B200F0F9F83046FDF716FF6F
:10338000FF2000F0F3F8FC2000F0F0F8FF2000F040
:10339000EDF8FF2000F0EAF870BD70B504460D4668
:1033A000EE2000F0E3F8B12000F0E0F8532000F048
:1033B000DDF8200A00F0DAF8E0B200F0D7F8280AC9
:1033C00000F0D4F8E8B200F0D1F8FF2000F0CEF819
:1033D000FC2000F0CBF8FF2000F0C8F8FF2000F040
:1033E000C5F870BD70B504460D461646EE2000F0D7
:1033F000BDF8B12000F0BAF8542000F0B7F8200A68
:1034000000F0B4F8E0B200F0B1F8280A00F0AEF82D
:10341000E8B200F0ABF8300A00F0A8F8F0B200F023
:10342000A5F8FF2000F0A2F8FC2000F09FF8FF2094
:1034300000F09CF8FF2000F099F870BD70B50446CC
:103440000D46EE2000F092F8B12000F08FF85520E4
:1034500000F08CF8200A00F089F8E0B200F086F85D
:10346000280A00F083F8E8B200F080F8FF2000F0AE
:103470007DF8FC2000F07AF8FF2000F077F8FF20BC
:1034800000F074F870BD10B5EE2000F06FF88220E7
:1034900000F06CF8FF2000F069F8FC2000F066F8FE
:1034A000FF2000F063F8FF2000F060F810BD70B559
:1034B00004460025EE2000F059F844B100BF04E0B6
:1034C000605D00F053F8681CC5B2132DF8DBFF20D7
:1034D00000F04CF8FC2000F049F8FF2000F046F81E
:1034E000FF2000F043F870BD10B586B004460121FE
:1034F000052000F0EBFF0121480400F0F4FF042058
:10350000ADF8140018208DF8170003208DF8160070
:1035100005A9214800F01EFD0820ADF81400042084
:103520008DF8170005A91C4800F014FD1B4801F098
:1035300031F801940020ADF80800ADF80A00ADF8AC
:103540000C00ADF810000C20ADF80E0001A91348D6
:1035500001F063F8012240F22551104801F0F5F81E
:1035600001210E4801F0E5F806B010BD10B5044683
:1035700021460A4801F04AF900BF8021074801F0BE
:10358000B3F90028F9D000BF4021044801F0ACF99C
:103590000028F9D010BD00000008014000440040A0
:1035A00010B500F025FE012000F0A7FE00BF21208D
:1035B00000F061FE0028FAD0102002F0D1FC0220B9
:1035C00002F0BAFC002000F0B8FE002000F0C7FEB8
:1035D0004FF4806000F0BAFE4FF42011002000F09C
:1035E0008FFE012000F098FE00BF392000F043FE5E
:1035F0000028FAD0022000F092FE00BF00F098FEF2
:103600000828FBD110BD08B54FF4C06001F0C6F921
:1036100026208DF8000001208DF80100684601F099
:10362000C2F908BD08B5F448008814282DD101203E
:10363000F2490860F2480068012807D1F14A0121E7
:103640001420FEF79BFD0020ED4908600120EE49A3
:103650000860EE480068012817D1ED480068424232
:1036600002211420FEF73FFEEA4800684242092189
:103670001420FEF738FEE84800684242102114206A
:10368000FEF731FE0020E1490860DB48008816287B
:1036900031D10120DC490860DC480068012820D1D4
:1036A000022001230090DA480068424207211620D8
:1036B000FEF78DFD022001230090D64800684242AB
:1036C0000E211620FEF783FD022001230090D24830
:1036D0000068424215211620FEF779FD0020CB49F3
:1036E0000860CEA203211620FEF748FDCCA20421DB
:1036F0001620FEF743FDC048008819282DD101206F
:10370000BE490860BE480068012807D1BD4A0121B2
:103710001920FEF733FD0020B94908600120BA499D
:103720000860BA480068012817D1B94800684242C9
:1037300002211920FEF7D7FDB64800684242092150
:103740001920FEF7D0FDB44800684242102119202C
:10375000FEF7C9FD0020AD490860A7480088182879
:1037600004D10020A5490860A749086008BD10B52C
:10377000012202210320FEF7D8FC10BD70477047DC
:103780007047704770477047F8B506460F461546B4
:10379000022E15D1012F13D10020009000246A467B
:1037A000A1A1284602F0A8FEA0480021016000BFA8
:1037B00003E0285D9D490855641C042CF9DB00BF1B
:1037C000F8BD70478C490880704770B504AC70CC68
:1037D00070BD7047704770472DE9FE4F04460D4697
:1037E0006678A77894F807802079E17840EA012983
:1037F000A079617940EA012A207A0106607A41EADB
:103800000041A07A41EA0020E17A40EA010B0D2E46
:103810002CD008DC012E0FD0032E0ED00B2E29D079
:103820000C2E6FD11EE00F2E2CD0552E6BD0B12E4A
:1038300043D0F72EF5D12BE000BF7D4B5B79DFF84D
:10384000F0C19CF804C043EA0C22794BDB78DFF826
:10385000E0C19CF802C043EA0C21754B5878FFF791
:10386000BAFF76E00120FFF7B5FF72E00020FFF716
:10387000B1FF6EE0A81F82B26D49891C0120FFF7DD
:10388000A8FF66E0002211461046FFF7A2FF60E0A5
:103890006748017AC079664A9279DFF894C1CDE928
:1038A000002002919CF805309CF804209CF803103D
:1038B0009CF80200FFF789FF4BE0012F03D1484637
:1038C000FFF780FF40E0A8F110000C283AD2DFE8B3
:1038D00000F0060C131B213939343939272E627A4E
:1038E00051464846FFF76DFF2DE004F108025146AE
:1038F0004846FFF749FF26E05A4651464846FFF73B
:1039000042FF20E024E020E05A4651464846FFF7B7
:1039100039FF18E05A4651464846FFF732FF12E099
:10392000637A227A51464846FFF72AFF0BE0227A53
:1039300051464846FFF723FF05E051464846FFF74A
:103940001DFF00E000BF00BF03E0FFF710FF00E035
:1039500000BF00BFBDE8FE8F10B540213448FDF721
:10396000D5FB3449088008460088002809DD304826
:103970004078072805D0084601882D48FFF72CFF1E
:1039800017E02C480088002813DD294840780728D4
:103990000FD171B600BF2848006800F4E0602749E5
:1039A0000843001D24490860BFF34F8F00BF00BFCC
:1039B000FEE72348007801280FD100202049087035
:1039C000204801780078401C1E4A1070022904DB50
:1039D000002011460870FFF725FE0748008818B937
:1039E0000421194800F065FB0348008818B1042140
:1039F000154800F05CFB10BD70000020A8000020FE
:103A0000440000209E010020AC0000206000002047
:103A100054000020580000205C000020CEDE000092
:103A2000B9A4D7F700000000256C6400A2000020B4
:103A3000B4030020A00000200CED00E00000FA0517
:103A400002000020B00000200010014008B5012154
:103A5000342000F03BFD4FF48070ADF800001020E2
:103A60008DF8030003208DF8020069462D4800F010
:103A700071FA4FF480712B4800F019FB0420ADF867
:103A800000006946284800F065FA0421264800F045
:103A90000EFB0120ADF800006946244800F05AFAF8
:103AA0000121224800F005FB0220ADF80000694624
:103AB0001E4800F04FFA02211C4800F0F8FA0420DA
:103AC000ADF800006946194800F044FA042117488F
:103AD00000F0EDFA0820ADF800006946134800F048
:103AE00039FA0821114800F0E2FA08BD10480078C0
:103AF000012815D100200E4908700E480178007881
:103B0000401C0C4A107032290ADB00201146087054
:103B10000948006808B9012000E000200649086053
:103B200070470000000801400014014000100140EF
:103B300001000020B200002080012242704770473F
:103B400010B56FF0040000F078FF2E4800682E4991
:103B5000B0FBF1F02D4908700846007800EB4001F9
:103B6000C1EBC0104FF6FF7101EAC0002849088080
:103B700010BD0146254A12784A434FF0E0235A61AE
:103B800000229A611A46126942F001021A6100BFCE
:103B90004FF0E022106900F001021AB100F4803207
:103BA000002AF5D04FF0E022126922F001024FF016
:103BB000E0231A6100229A6170470146144A128874
:103BC0004A434FF0E0235A6100229A611A46126973
:103BD00042F001021A6100BF4FF0E022106900F0CC
:103BE00001021AB100F48032002AF5D04FF0E02231
:103BF000126922F001024FF0E0231A6100229A615B
:103C0000704700000800002000127A00B400002075
:103C1000B600002003E04A1ED1B20022425400291F
:103C2000F9D1704703E04A1ED1B200224254002964
:103C3000F9D1704770B506460C4600250CE0615D71
:103C4000304600F0E3FD00BF8021304600F04CFE1E
:103C50000028F9D0681C85B2605D0028EFD170BDE6
:103C60002DE9F04107460D461646002400BF0CE042
:103C7000295D384600F0CAFD00BF8021384600F0BB
:103C800033FE0028F9D0601C84B2B442F0DB0D2171
:103C9000384600F0BBFD00BF8021384600F024FE0E
:103CA0000028F9D00A21384600F0B0FD00BF80217D
:103CB000384600F019FE0028F9D0BDE8F0812DE962
:103CC000F04305460E46DDE907C8099C281DC7B22A
:103CD0000021AA206054491C55206054491C281D0D
:103CE0006054491C6654491C6254491C6354491C65
:103CF00004F801C0491C002106E018F80190E01DFD
:103D000000F80190481C81B2A942F6DB032103E0D0
:103D1000605C4740481C81B2E81D8842F8DCE91D20
:103D20006754481C81B255206054481C81B2AA20B7
:103D30006054481C81B205F10A00C0B2BDE8F083AE
:103D4000F0B502460C46214606250020384EF2709A
:103D5000CE78374F3E710AB9032306E0012A01D11C
:103D6000A72302E0202A00D17223314EB3718E784E
:103D70002F4FFE708F78CE1CF65D2D4FFE70032006
:103D800004E02B4E365C7540461CF0B20928F8DB87
:103D9000274E3554461CF0B25526254F3E54461C3E
:103DA000F0B2AA263E54461CF0B2F0BD2DE9F04711
:103DB00081460E4600270025A846344694F805A003
:103DC0002078AA2802D16078552802D00120BDE8C9
:103DD000F087A57860190079552803D160194079DA
:103DE000AA2801D00220F2E7A846032704E0E05DFC
:103DF00080EA0808781CC7B2E81C8742F7DB601924
:103E0000C078404501D00320E1E7BAF1000F0DD0A2
:103E100007210748C01CFFF705FF31462020FFF7A8
:103E20008FFF0C2202494846FFF71AFF0020CEE719
:103E3000B800002000BF704700BF054A128802F09A
:103E40004002002AF9D0C2B2014B1B1D1A807047F4
:103E5000003801400948804709480047FEE7FEE76F
:103E6000FEE7FEE7FEE7FEE7FEE7FEE7FEE7FEE72A
:103E700004480549054A064B70470000DB0300086B
:103E80003101000860040020600A00206006002064
:103E90006006002010B50446CC48844208D10121B8
:103EA000042000F02DFB0021042000F029FB46E057
:103EB000C748844208D10121082000F021FB0021DD
:103EC000082000F01DFB3AE0C248844208D10121DD
:103ED000102000F015FB0021102000F011FB2EE057
:103EE000BD48844208D10121202000F009FB0021B7
:103EF000202000F005FB22E0B848844208D10121CF
:103F0000402000F0FDFA0021402000F0F9FA16E010
:103F1000B348844208D10121802000F0F1FA002149
:103F2000802000F0EDFA0AE0AE48844207D101217A
:103F3000801500F0E5FA0021A01500F0E1FA10BDAF
:103F400010B50121084600F0DBFA0021012000F045
:103F5000D7FA10BD2DE9F0410246002500260020C9
:103F600000230024002791F803C00CF00F0591F8FE
:103F700003C00CF0100CBCF1000F03D091F802C08C
:103F80004CEA050591F800C0BCF1000F31D014686F
:103F900000202BE04FF0010C0CFA00F3B1F800C048
:103FA0000CEA03069E4220D183004FF00F0C0CFA5E
:103FB00003F7BC4305FA03FC4CEA040491F803C080
:103FC000BCF1280F06D14FF0010C0CFA00FCC2F82E
:103FD00014C00AE091F803C0BCF1480F05D14FF0BE
:103FE000010C0CFA00FCC2F810C0401C0828D1D308
:103FF0001460B1F800C0BCF1FF0F34DD546800203C
:104000002EE000F1080C4FF0010808FA0CF3B1F8AB
:1040100000C00CEA03069E4221D183004FF00F0C32
:104020000CFA03F7BC4305FA03FC4CEA040491F8CC
:1040300003C0BCF1280F05D100F1080C08FA0CF8F8
:10404000C2F8148091F803C0BCF1480F07D100F109
:10405000080C4FF0010808FA0CF8C2F81080401C58
:104060000828CED35460BDE8F0814FF6FF7101807F
:10407000022181700421C1707047024600209368BC
:104080000B400BB1012000E000207047014688681A
:1040900080B2704702460020D3680B400BB101206C
:1040A00000E0002070470146C86880B27047016197
:1040B0007047416170470AB1016100E0416170479A
:1040C000C16070474FF480320A438261816182612E
:1040D00082698269704702460020434B18684FF698
:1040E0008073184040EA021008433F4B1860704745
:1040F0003E49C8617047F0B50A46002300240021FC
:10410000002500F00046B6F1004F02D1364EF169AD
:1041100001E0354E7168C0F3034583B200F44016E8
:10412000B6F5401F08D121F070612F4E766826F059
:1041300070662D4F7E6012E000F48016B6F5801F89
:1041400006D1032606FA05F4A14341F0706106E0AA
:10415000460D360103FA06F6B14341F0706122B113
:10416000460D360103FA06F6314300F00046B6F17B
:10417000004F02D11C4EF16101E01B4E7160F0BD99
:1041800030B500228B071C0F0F2303FA04F2164BE5
:1041900008338C1053F824309343134C08348D109B
:1041A00044F8253023468C1053F824308C07240F14
:1041B00000FA04F423430C4C08348D1044F82530E5
:1041C00030BD0A49DC31086070470000000801403A
:1041D000000C014000100140001401400018014093
:1041E000001C01400020014000000140000020426E
:1041F000DF48006840F00100DD490860084640687B
:10420000DC490840DA49486008460068DA49084055
:10421000D74908600846006820F4802008600846F6
:10422000406820F4FE0048604FF41F00886070472B
:10423000CF49096821F48031CD4A116011460968DF
:1042400021F480211160B0F5803F03D0B0F5802FBC
:104250000ED106E0C649096841F48031C44A1160B4
:1042600007E0C349096841F4A021C14A116000E098
:1042700000BF00BF704710B5014600220023002098
:104280004A11012A02D1BA4C236806E0022A02D15F
:10429000B74C236A01E0B64C636A01F01F020124A7
:1042A00094401C400CB1012000E0002010BD38B546
:1042B000002000900024002500BF3120FFF7DBFF25
:1042C00005460098401C00900098B0F5A06F01D002
:1042D000002DF2D03120FFF7CEFF08B1012400E01D
:1042E0000024204638BD01460020A14A106820F075
:1042F000F80040EAC10010607047A04908607047AC
:10430000024600209A4B586820F47C1042EA0103D0
:104310001843974B586070479849086670470146A4
:104320000020934A506820F0030008435060704713
:104330008F48406800F00C007047014600208C4A0E
:10434000506820F0F000084350607047014600209C
:10435000874A506820F4E060084350607047014687
:104360000020834A506820F4605040EAC100506049
:10437000704729B17E4A527A02437D4B5A7204E05B
:104380007B4A527A82437A4B5A7270477B49D831C2
:104390000860704701460020754A506820F440408C
:1043A0000843506070470021714A20321170704AF2
:1043B00082F82010012802D004280AD104E001214B
:1043C0006B4A2032117005E00521694A20321170D4
:1043D00000E000BF00BF704769490860704764494A
:1043E000096A0143624A11627047654944390860AD
:1043F000704730B500210022002400235C4D6D6819
:1044000005F00C0121B1042905D0082923D105E0CC
:104410005C4D056022E05B4D05601FE0544D6D680A
:1044200005F47012524D6D6805F48034022505EBD9
:1044300092421CB9544D554305600BE04C4D6D68DC
:1044400005F400351DB1504D5543056002E04D4D5A
:104450005543056002E04B4D056000BF00BF444D71
:104460006D6805F0F0010909484D6B5C0568DD4099
:1044700045603F4D6D6805F4E061090A434D6B5C92
:104480004568DD4085603A4D6D6805F46051C90AA4
:104490003E4D6B5C4568DD40C560354D6D6805F48B
:1044A0004041890B3A4D6B5CC568B5FBF3F505617E
:1044B00030BD29B12E4A526902432D4B5A6104E0A6
:1044C0002B4A526982432A4B5A61704729B1284AC4
:1044D00092690243264B9A6104E0254A926982431D
:1044E000234B9A61704729B1214AD2690243204B7C
:1044F000DA6104E01E4AD26982431D4BDA617047DB
:1045000029B11B4AD2680243194BDA6004E0184A09
:10451000D2688243164BDA60704729B1144A126997
:104520000243134B1A6104E0114A12698243104B93
:104530001A61704712494039086070470F49C864D2
:1045400070470B49C87170470948406A40F0807055
:1045500007494862704701460020054A92680A40B0
:104560000AB1012000E000207047014988727047BD
:10457000001002400000FFF8FFFFF6FE000042427C
:104580008004424200127A0000093D00C40000206D
:10459000D400002010B50446FB48844209D1012113
:1045A0008803FFF7ADFF00214FF48040FFF7A8FF1D
:1045B00032E0F648844209D101214804FFF7ADFFFB
:1045C00000214FF40030FFF7A8FF25E0F0488442B7
:1045D00009D101218804FFF7A0FF00214FF48020BA
:1045E000FFF79BFF18E0EB48844209D10121C80482
:1045F000FFF793FF00214FF40020FFF78EFF0BE041
:10460000E548844208D101210805FFF786FF002113
:104610004FF48010FFF781FF10BD2DE9F04786B001
:1046200005460E460024A24600BFA1460027B089D9
:1046300000B100BF2F462C8A4CF6FF700440F08872
:1046400004432C82AC894EF6F3100440B0883189C3
:104650000843718908430443AC81AC8A4FF6FF409C
:104660000440B0890443AC8201A8FFF7C2FEC648EB
:10467000874202D1DDF810A001E0DDF80CA0A88986
:1046800000F4004040B10AEBCA0000EB0A103168A8
:104690004900B0FBF1F807E00AEBCA0000EB0A1092
:1046A00031688900B0FBF1F86420B8FBF0F0040138
:1046B0002009642101FB1089A88900F4004040B161
:1046C000322000EBC900B0FBF1F000F0070004431A
:1046D00008E0322000EB09106421B0FBF1F000F09B
:1046E0000F0004432C8106B0BDE8F0874FF416514B
:1046F000016000218180C18001810C214181002164
:104700008181704710B502460020108A4FF2FF03E6
:1047100018400B884C8823438C882343CC88234340
:104720001843108210BD0021018041808180C1802A
:10473000704721B1828942F40052828104E082896B
:104740004DF6FF731A4082817047F0B5034600248E
:1047500000260025002040F66A17B94200D100BFAC
:104760001846C1F3421401F01F06012707FA06F5A7
:10477000012C01D10C3004E0022C01D1103000E0FA
:1047800014301AB107682F43076002E00768AF438F
:104790000760F0BD1AB1838A0B43838202E0838AEB
:1047A0008B4383827047028A4FF6F0731A4002826D
:1047B000028A0A430282704782894FF2FF731A40CD
:1047C000828182890A438281704721B1828942F0C5
:1047D0000202828104E082894FF6FD731A408281D1
:1047E0007047028A4FF6DF731A400282028A0A4338
:1047F0000282704721B1028A42F48042028204E0C0
:10480000028A4BF6FF731A4002827047C1F3080216
:104810008280704701468888C0F30800704781890C
:1048200041F0010181817047028BD2B20283028B79
:1048300042EA012202837047028B02F47F42028324
:10484000028B0A430283704721B1828A42F0200220
:10485000828204E0828A4FF6DF731A4082827047B8
:1048600021B1828A42F01002828204E0828A4FF6ED
:10487000EF731A408282704721B1828A42F00802A7
:10488000828204E0828A4FF6F7731A408282704770
:1048900021B1828942F40042828103E08289C2F31D
:1048A0000E028281704721B1828A42F400628282C4
:1048B00004E0828A4FF2FF731A4082827047828A34
:1048C0004FF6FB731A408282828A0A4382827047C3
:1048D00021B1828A42F00202828204E0828A4FF68B
:1048E000FD731A408282704702460020B1F5007FB6
:1048F00000D100BF13880B400BB1012000E0002065
:10490000704701F40072B2F5007F00D100BFCA43C6
:104910000280704770B50246002400230025002065
:1049200040F66A16B14200D100BFC1F3421501F052
:104930001F03012606FA03F3012D02D196893340A5
:1049400006E0022D02D1168A334001E0968A3340F8
:104950000C12012606FA04F41688344013B10CB187
:10496000012000E0002070BD10B50022002340F6B9
:104970006A14A14200D100BF0A1201249440A3B2DC
:10498000DC43048010BD00000038014000440040BA
:1049900000480040004C00400050004031490143B5
:1049A000314A1160704770B5002100230F22C4788E
:1049B00004B32D4C246804F4E064C4F5E064210AD7
:1049C000C1F10403CA40447804FA03F18478144026
:1049D00021430901254C0678A155047804F01F05F0
:1049E0000124AC4005786D11AD0005F1E025C5F856
:1049F000004109E0047804F01F050124AC401C4D7F
:104A00000678761145F8264070BD1A4A0A400243DE
:104A1000154B1B1F1A60704739B1134A121D1268DB
:104A20000243114B1B1D1A6006E00F4A121D12684B
:104A300082430D4B1B1D1A607047042808D14FF0AC
:104A4000E021096941F004014FF0E022116107E023
:104A50004FF0E021096921F004014FF0E0221161DB
:104A6000704700000000FA050CED00E000E400E0F3
:104A700080E100E080FFFF1F10B50446FE4884423D
:104A800008D10121C014FFF73BFD0021E014FFF71E
:104A900037FDC4E0B4F1804F08D101210846FFF78B
:104AA0003CFD00210120FFF738FDB8E0F3488442C7
:104AB00008D101210220FFF730FD00210220FFF77D
:104AC0002CFDACE0EE48844208D101210420FFF720
:104AD00024FD00210420FFF720FDA0E0E9488442E6
:104AE00008D101210820FFF718FD00210820FFF759
:104AF00014FD94E0E448844208D101211020FFF71E
:104B00000CFD00211020FFF708FD88E0DF488442FB
:104B100008D101212020FFF700FD00212020FFF710
:104B2000FCFC7CE0DA48844208D101214014FFF704
:104B3000E7FC00216014FFF7E3FC70E0D5488442F5
:104B400009D10121C804FFF7DBFC00214FF400204C
:104B5000FFF7D6FC63E0D048844209D10121080563
:104B6000FFF7CEFC00214FF48010FFF7C9FC56E0A0
:104B7000CA48844209D101214805FFF7C1FC002140
:104B80004FF40010FFF7BCFC49E0C548844208D14F
:104B900001214020FFF7C1FC00214020FFF7BDFCB0
:104BA0003DE0C048844208D101218020FFF7B5FCD8
:104BB00000218020FFF7B1FC31E0BB48844208D1DE
:104BC00001218015FFF7A9FC0021A015FFF7A5FC26
:104BD00025E0B648844209D101210804FFF790FC82
:104BE00000214FF48030FFF78BFC18E0B04884427E
:104BF00009D101214804FFF783FC00214FF4003064
:104C0000FFF77EFC0BE0AB48844208D10121880409
:104C1000FFF776FC00214FF48020FFF771FC10BDF8
:104C200000220288944B98420ED0994B98420BD0A8
:104C3000B0F1804F08D0914B984205D0904B9842EC
:104C400002D0904B984204D14FF68F731A404B8894
:104C50001A438D4B984207D08C4B984204D04FF6A4
:104C6000FF431A40CB881A4302808B8883850B88C8
:104C70000385814B98420BD0854B984208D08B4BD3
:104C8000984205D08A4B984202D08A4B984201D173
:104C90000B7A038601238382704770B500240022BB
:104CA0000023058C4FF6FE7635400584028C838800
:104CB000048B4FF68F752C40B51E2C400D882C436D
:104CC000751E2A400D892A434D882A436A4DA84201
:104CD0000BD06F4DA84208D0744DA84205D0744D3A
:104CE000A84202D0734DA84213D14FF6F7752A405F
:104CF0004D892A434FF6FB752A408D882A434FF68B
:104D0000FF652B404FF6FF552B408D892B43CD89F6
:104D10002B4383800483CD888586028470BD70B563
:104D2000002400220023058C4FF6EF7635400584E1
:104D3000028C8388048B48F6FF752C404FF6FF45A4
:104D40002C400D884FF6FF7606EA05252C434FF6DA
:104D5000DF752A400D8906EA05152A434D8806EAC3
:104D600005152A43444DA84202D0494DA8421DD101
:104D70004FF67F752A404D894FF6FF7606EA0515F6
:104D80002A434FF6BF752A408D8806EA05152A4347
:104D90004FF6FF352B404FF2FF752B408D8906EA09
:104DA00085052B43CD8906EA85052B438380048343
:104DB000CD880587028470BD70B5002400220023D1
:104DC000058C4FF6FF6635400584028C8388848B02
:104DD0004FF68F752C404FF6FC752C400D882C43F8
:104DE0004FF6FF552A400D894FF6FF7606EA052556
:104DF0002A434D8806EA05252A431F4DA84202D0C2
:104E0000234DA8421DD14FF2FF752A404D894FF620
:104E1000FF7606EA05252A434FF6FF352A408D889E
:104E200006EA05252A434EF6FF752B404DF6FF7521
:104E30002B408D8906EA05152B43CD8906EA051519
:104E40002B4383808483CD888587028470BD70B5B1
:104E5000002200230024058C4EF6FF7635400584A1
:104E6000038C8488828B48F6FF752A404FF6FF45F5
:104E70002A400D8820E00000002C01400004004082
:104E800000080040000C00400010004000140040EA
:104E900000340140004C01400050014000540140EA
:104EA00000180040001C004000200040004001406D
:104EB00000440140004801404FF6FF7606EA052510
:104EC0002A434DF6FF752B400D8906EA05352B4325
:104ED0004D8806EA05352B43FA4DA84202D0FA4D1B
:104EE000A84208D14BF6FF752C408D894FF6FF760E
:104EF00006EA85152C4384808283CD88A0F8405033
:104F0000038470BD828B4FF2FF331A408283828B01
:104F10004FF6FF7303EA01231A4382837047F0B50B
:104F20000C461546002200210026078C4EF6FF7C19
:104F300007EA0C070784828B018C4FF6FF7707EA9C
:104F4000043640F6FF473A404FF6FF7707EA052759
:104F50003A434FF6FF7707EA03373A43D94FB8424F
:104F60000ED0D94FB8420BD0B0F1804F08D0D74FF8
:104F7000B84205D0D64FB84202D0D64FB84206D17B
:104F80004DF6FF77394046F48057394305E047F640
:104F9000FF57394044F48057394382830184F0BD80
:104FA000828B4FF6F3731A408283828B0A4382838B
:104FB0007047F0B50C461546002200210026078CEC
:104FC0004FF6FF6C07EA0C070784828B018C4FF6C3
:104FD000FF7707EA04264FF60C773A404FF6FF7743
:104FE00007EA03172F433A43B64FB8420ED0B64FE5
:104FF000B8420BD0B0F1804F08D0B44FB84205D0C2
:10500000B34FB84202D0B34FB84206D14FF6FF5764
:10501000394046F48077394305E04FF2FF57394075
:1050200044F48077394382830184F0BD028B4FF2D0
:10503000FF331A400283028B4FF6FF7303EA01230A
:105040001A4302837047F0B50C4615460022002132
:105050000026078C4FF6EF7C07EA0C070784028BCB
:10506000018C4FF6FF7707EA041640F6FF473A40F7
:105070004FF6FF7707EA03373A434FF6FF7707EA21
:1050800005273A438F4FB8420ED08F4FB8420BD00E
:10509000B0F1804F08D08D4FB84205D08C4FB84248
:1050A00002D08C4FB84206D14FF6DF77394046F038
:1050B0001007394305E04FF65F77394044F0100799
:1050C000394302830184F0BD028B4FF6F3731A401B
:1050D0000283028B0A4302837047F0B50C461546E3
:1050E00000220021068C4FF6FE773E400684028B9C
:1050F000018C4FF60C7632407E1C06EA03162E43D6
:105100003243704EB0420ED06F4EB0420BD0B0F171
:10511000804F08D06D4EB04205D06D4EB04202D0E7
:105120006C4EB04206D14FF6FD76314044F0010698
:10513000314305E04FF6F576314044F00106314346
:1051400002830184F0BD70B505460C465D4885427A
:105150000ED05D4885420BD0B5F1804F08D05B483A
:10516000854205D05A48854202D05A48854200D12E
:1051700000E000BF208850B92389A28861882846B2
:10518000FFF7ABFFE1882846FFF79EFF25E0208868
:1051900004280AD12389A28861882846FFF753FF93
:1051A000E1882846FFF742FF17E0208808280AD147
:1051B0002389A28861882846FFF7FBFEE1882846FC
:1051C000FFF7EEFE09E02389A28861882846FFF7F1
:1051D000A6FEE1882846FFF795FE70BD2DE9F04157
:1051E00005460C4600260127608808B9022600E023
:1051F0000026A088012801D1022700E0012720888D
:10520000A0B92389A28861882846FFF766FFE18854
:105210002846FFF759FF23893A4631462846FFF7CB
:1052200012FFE1882846FFF701FF13E02389A288D7
:1052300061882846FFF707FFE1882846FFF7F6FE5A
:1052400023893A4631462846FFF747FFE18828463A
:10525000FFF73AFFBDE8F0810A884B881A438B8834
:105260001A43CB881A430B891A434B891A438B89FB
:105270001A43A0F8442070474FF6FF718180002147
:105280000180C1804180017270470021018041800E
:105290008180C180018141818181C181704700216C
:1052A00001804180012181800021C18001817047FE
:1052B0000021018041808180C18001814181818103
:1052C00070470000002C0140003401400004004001
:1052D00000080040000C004021B1028842F00102A9
:1052E000028004E002884FF6FE731A400280704785
:1052F00031B1B0F8442042F40042A0F8442005E067
:10530000B0F84420C2F30E02A0F8442070471AB14E
:1053100083890B43838102E083898B4383817047B8
:105320008182704741EA0203A0F8483070471AB101
:1053300083890B43838102E083898B438381704798
:1053400001894FF6F8721140018170470A46002129
:1053500001894FF68F73194011430181704730B5B1
:1053600004460D4629462046FFF7F0FF208940F00D
:105370000700208130BD2DE9F04104460D46164658
:105380001F46602D06D13B46012231462046FFF7DD
:105390005AFE05E03B46012231462046FFF79DFEBE
:1053A00029462046FFF7D2FF208940F007002081E0
:1053B000BDE8F08130B50C4600210189C9B24FF635
:1053C000FF7505EA0325154325432943018130BDB7
:1053D0002DE9F04105460E461746984600244346FF
:1053E0003A4631462846FFF7E5FF2C894FF6F8701C
:1053F000044044F007044FF68F70044044F07004FA
:105400002C81BDE8F081F0B504460D4616461F46D6
:105410003B46324629462046FFF7CCFF208940F420
:1054200080402081F0BD0185828270470A460021BC
:1054300001884FF68F731940114301807047F0B512
:105440000C4615461E460021002200230189028BCE
:10545000038C4FF6F877394021434FF6FC473A402A
:1054600040F201173A434FF6DD773B404FF6FF77A6
:1054700007EA06172F433B43018102830384F0BDF3
:105480000A460021018B4FF68F73194011430183A7
:1054900070470A460021018B48F6FF7319404FF60A
:1054A000FF7303EA02231943018370470A46002170
:1054B000818B4FF68F7319401143818370470A46E1
:1054C0000021818B48F6FF7319404FF6FF7303EA02
:1054D000022319438183704721B1028842F0800280
:1054E000028004E002884FF67F731A400280704702
:1054F00021B1828842F00402828004E082884FF663
:10550000FB731A408280704721B1828842F0080202
:10551000828004E082884FF6F7731A4082807047D9
:1055200021B1828842F00102828004E082884FF635
:10553000FE731A40828070470A460021018B4FF6A5
:10554000F77319401143018370470A460021018B0C
:105550004FF2FF7319404FF6FF7303EA022319431A
:10556000018370470A460021818B4FF6F77319407B
:105570001143818370470A460021818B4FF2FF73EC
:1055800019404FF6FF7303EA0223194381837047E2
:105590000A460021018B4FF6FB731940114301832A
:1055A00070470A460021018B4FF6FF3319404FF632
:1055B000FF7303EA02231943018370470A4600215F
:1055C000818B4FF6FB7319401143818370470A4664
:1055D0000021818B4FF6FF3319404FF6FF7303EA2A
:1055E00002231943818370470A460021018B4FF63D
:1055F0007F7319401143018370470A460021018BD4
:10560000C1F30E014FF6FF7303EA0223194301832E
:1056100070470A460021818B4FF67F731940114372
:10562000818370470A460021818BC1F30E014FF63A
:10563000FF7303EA02231943818370470A4600215E
:10564000018C4FF6FD7319401143018470470A46DF
:105650000021018C4FF6F773194011430184704704
:105660000A460021018C4FF6DF7319404FF6FF7395
:1056700003EA02131943018470470A460021018C92
:105680004FF67F7319404FF6FF7303EA0213194375
:10569000018470470A460021018C4FF6FF531940E0
:1056A0004FF6FF7303EA02231943018470470A4649
:1056B0000021018C4FF2FF7319404FF6FF7303EA8C
:1056C00002231943018470470A460021018C4DF6DC
:1056D000FF7319404FF6FF7303EA02331943018445
:1056E000704730B5002301248C40A3B2048C9C4346
:1056F0000484048C02FA01F5ADB22C43048430BD5D
:1057000030B5002304248C40A3B2048C9C43048451
:10571000048C02FA01F5ADB22C43048430BD70B59F
:105720000346002000241846183001258D40ACB2F5
:105730001D8CA5431D8409B1082909D100EB610026
:10574000056825F0700505600568154305600EE0E5
:105750000D1FC5F34E052844056825F4E045056096
:1057600005684FF6FF7606EA02263543056070BDF0
:1057700021B1028842F00202028004E002884FF662
:10578000FD731A400280704721B1028842F0040282
:10579000028004E002884FF6FB731A4002807047D3
:1057A00021B1828842F08002828004E082884FF634
:1057B0007F731A408280704702884FF6F7731A4051
:1057C000028002880A430280704782884FF68F73F6
:1057D0001A40828082880A438280704702894FF68D
:1057E000F8731A40028102890A43028170470289D4
:1057F0004FF67F731A40028102890A430281704783
:105800008184704781857047818670470187704722
:1058100081877047A0F84010704702884FF6FF4319
:105820001A40028002880A43028070470146888E2F
:1058300070470146088F70470146888F70470146C0
:10584000B1F8400070470146888C70470146088DCA
:10585000704702460020138A0B400BB1012000E084
:1058600000207047CA430282704730B502460020CC
:1058700000230024158A05EA0103958905EA01043D
:1058800013B10CB1012000E0002030BDCA430282F8
:105890007047000001684FF6FE7211400160002160
:1058A000016041608160C1608D49884208D18C49A6
:1058B0000839496841F00F01894A083A51608AE085
:1058C00087491431884208D185490839496841F02F
:1058D000F001834A083A51607DE0814928318842CD
:1058E00008D17F490839496841F470617C4A083A17
:1058F000516070E07A493C31884208D178490839D2
:10590000496841F47041764A083A516063E074494D
:105910005031884208D172490839496841F47021F0
:105920006F4A083A516056E06D496431884208D1A7
:105930006B490839496841F47001694A083A516075
:1059400049E067497831884208D165490839496892
:1059500041F07061624A083A51603CE06149884216
:1059600006D1011F096841F00F01021F116032E0EA
:105970005C491431884208D15A49091F096841F02D
:10598000F001584A121F116025E05649283188421B
:1059900008D15449091F096841F47061514A121F26
:1059A000116018E04F493C31884208D14D49091F28
:1059B000096841F470414B4A121F11600BE04949DC
:1059C0005031884207D14749091F096841F47021C5
:1059D000444A121F1160704710B50022026847F652
:1059E000F0739A430C6A8B6823430C6923434C6918
:1059F00023438C692343CC6923434C6A23438C6A39
:105A000023431A430260CB6843600B6883604B6892
:105A1000C36010BD0021016041608160C16001610F
:105A200041618161C161016241628162704721B15E
:105A3000026842F00102026004E002684FF6FE7361
:105A40001A40026070471AB103680B43036002E01A
:105A500003688B43036070474160704701464868A4
:105A600080B2704701460020002201F080531BB134
:105A70001C4B083B1A6802E0194B083B1A6802EA03
:105A800001030BB1012000E00020704700F08051BD
:105A900019B11449091F086002E01149083948602A
:105AA000704701460020002201F080531BB10D4BCE
:105AB000083B1A6802E00A4B083B1A6802EA010335
:105AC0000BB1012000E00020704700F0805119B1B7
:105AD0000449091F086002E001490839486070471D
