:020000040800F2
:1000000060070020CD010008290900083F0600080C
:100010002509000809030008A114000800000000D9
:10002000000000000000000000000000F30C0008C9
:100030001F05000800000000B10900080D100008AD
:10004000E7010008E7010008E7010008E7010008F0
:10005000E7010008E7010008E7010008E7010008E0
:10006000E7010008E7010008E7010008E7010008D0
:10007000E7010008E7010008E7010008E7010008C0
:10008000E7010008E7010008E7010008E7010008B0
:10009000E7010008E7010008E7010008E7010008A0
:1000A000E7010008E7010008E7010008E701000890
:1000B000E7010008E7010008E7010008E701000880
:1000C000E7010008E7010008E7010008E701000870
:1000D000E7010008E7010008E7010008E701000860
:1000E000E7010008E7010008E7010008E701000850
:1000F000E7010008E7010008E7010008E701000840
:10010000E7010008E7010008E7010008E70100082F
:1001100071100008ED100008E7010008E701000871
:10012000E7010008E7010008E7010008E70100080F
:1001300000F002F800F03AF80AA090E8000C8244BF
:100140008344AAF10107DA4501D100F02FF8AFF29C
:10015000090EBAE80F0013F0010F18BFFB1A43F0A5
:10016000010318477016000090160000103A24BFD3
:1001700078C878C1FAD8520724BF30C830C144BF0C
:1001800004680C607047000000230024002500264E
:10019000103A28BF78C1FBD8520728BF30C148BFEA
:1001A0000B6070471FB51FBD10B510BD00F05AF8A9
:1001B0001146FFF7F7FF01F0E5F900F078F803B416
:1001C000FFF7F2FF03BC01F06DF90000094880471A
:1001D00009480047FEE7FEE7FEE7FEE7FEE7FEE729
:1001E000FEE7FEE7FEE7FEE704480549054A064B41
:1001F0007047000011100008310100086001002064
:1002000060070020600300206003002070474FF06B
:10021000000200B5134694469646203922BFA0E856
:100220000C50A0E80C50B1F12001BFF4F7AF090762
:1002300028BFA0E80C5048BF0CC05DF804EB890053
:1002400028BF40F8042B08BF704748BF20F8022B96
:1002500011F0804F18BF00F8012B704770477047AE
:1002600070477047754600F02BF8AE4605006946AA
:10027000534620F00700854618B020B5FFF7B4FFBD
:10028000BDE820404FF000064FF000074FF0000897
:100290004FF0000B21F00701AC46ACE8C009ACE818
:1002A000C009ACE8C009ACE8C0098D46704710B57C
:1002B0000446AFF300802046BDE81040FFF77FBF43
:1002C00000487047FC00002008B50121082000F01C
:1002D0003BFCC020ADF8000010208DF80300032087
:1002E0008DF802006946054800F01AF9012004491A
:1002F00008600449C1F89C0108BD0000000C0140E1
:10030000988121420080214200BFFEE703E04A1E9F
:10031000D1B2002242540029F9D1704721B10268BC
:1003200042F00102026004E002684FF6FE731A40D8
:100330000260704701684FF6FE72114001600021B3
:10034000016041608160C1604B49884208D14A49DF
:100350000839496841F00F01474A083A51608AE07C
:1003600045491431884208D143490839496841F068
:10037000F001414A083A51607DE03F492831884206
:1003800008D13D490839496841F470613A4A083A50
:10039000516070E038493C31884208D1364908390B
:1003A000496841F47041344A083A516063E0324987
:1003B0005031884208D130490839496841F47021E8
:1003C0002D4A083A516056E02B496431884208D1E1
:1003D00029490839496841F47001274A083A5160AF
:1003E00049E025497831884208D1234908394968CC
:1003F00041F07061204A083A51603CE01F49884250
:1004000006D1011F096841F00F01021F116032E09F
:100410001A491431884208D11849091F096841F066
:10042000F001164A121F116025E014492831884254
:1004300008D11249091F096841F470610F4A121F5F
:10044000116018E00D493C31884208D10B49091F61
:10045000096841F47041094A121F11600BE0074915
:100460005031884207D10549091F096841F47021BC
:10047000024A121F1160704708000240080402403F
:100480000146486880B2704710B50022026847F6FE
:10049000F0739A430C6A8B6823430C6923434C69BD
:1004A00023438C692343CC6923434C6A23438C6ADE
:1004B00023431A430260CB6843600B6883604B6838
:1004C000C36010BD4160704730B503460024002270
:1004D000002519460878AA2802D14878552801D065
:1004E000012030BD8A7888180079552803D18818F2
:1004F0004079AA2801D00220F3E71546032403E03F
:10050000085D4540601CC4B2D01C8442F8DB8818EA
:10051000C078A84201D00320E3E70020E1E770475C
:100520002DE9F0410246002500260020002300248A
:10053000002791F803C00CF00F0591F803C00CF0F0
:10054000100CBCF1000F03D091F802C04CEA050575
:1005500091F800C0BCF1000F31D0146800202BE0EE
:100560004FF0010C0CFA00F3B1F800C00CEA0306DE
:100570009E4220D183004FF00F0C0CFA03F7BC43CE
:1005800005FA03FC4CEA040491F803C0BCF1280FFF
:1005900006D14FF0010C0CFA00FCC2F814C00AE0BE
:1005A00091F803C0BCF1480F05D14FF0010C0CFAD3
:1005B00000FCC2F810C0401C0828D1D31460B1F868
:1005C00000C0BCF1FF0F34DD546800202EE000F1C4
:1005D000080C4FF0010808FA0CF3B1F800C00CEA5F
:1005E00003069E4221D183004FF00F0C0CFA03F753
:1005F000BC4305FA03FC4CEA040491F803C0BCF1C7
:10060000280F05D100F1080C08FA0CF8C2F8148084
:1006100091F803C0BCF1480F07D100F1080C4FF06E
:10062000010808FA0CF8C2F81080401C0828CED344
:100630005460BDE8F081416170470161704700BFBF
:10064000FEE7000010B500200F4908600F48006861
:1006500020F070400D4908600846006840F04050A6
:10066000086000200A49C1F89C01022000F064FFE4
:10067000012005490860022000F05EFF00200449C7
:10068000C1F8980110BD000098812142000C014082
:100690000080214210B500200F4908600F48006813
:1006A00020F070400D4908600846006840F0405056
:1006B000086001200A49C1F89C01022000F03CFFBB
:1006C000012005490860022000F036FF002004499F
:1006D000C1F8980110BD000098812142000C014032
:1006E0000080214270B5054600241748006820F0BC
:1006F0007040154908600846006840F000400860F6
:10070000002616E0002011490860022000F014FFC6
:1007100001200F49C1F898016006040E0B487C388F
:10072000006808B1601CC4B2012000F005FF701C15
:10073000C6B2082EE6DB15B9FFF7ACFF01E0FFF704
:1007400081FF204670BD0000000C014098812142CD
:100750000080214270B504461548006820F07040C2
:10076000134908600846006840F0405008600020C7
:1007700010490860002517E0E0090E49091D0860CE
:100780006006040E022000F0D7FE01200A49C1F8DD
:100790009801022000F0D0FE0020064908600220E7
:1007A00000F0CAFE681CC5B2082DE5DB70BD000074
:1007B000000C0140988121420080214210B50F4871
:1007C000006820F070400D4908600846006840F05D
:1007D0004050086001200A4908600A49C1F89801A0
:1007E000042000F0A9FE002005490860042000F064
:1007F000A3FE00200349C1F8980110BD000C014080
:100800009C8121420080214210B50F48006820F0F1
:1008100070400D4908600846006840F0405008608C
:1008200000200A4908600A49C1F89C01042000F030
:1008300083FE0120054908600549C1F89C01042098
:1008400000F07AFE10BD0000000C014098812142AA
:100850000080214210B500241448006820F0704048
:10086000124908600846006840F000400860012016
:100870000F49086000F060FE01200E49C1F89801A0
:1008800000F05AFE07E0601CC4B2FA2C03DDFFF74B
:10089000BBFF012010BD0648803800680028F2D157
:1008A0000349091F086000BFF4E70000000C014085
:1008B0009C8121420080214208B50121102000F0D6
:1008C00043F90F20ADF8000010208DF8030003203D
:1008D0008DF8020069460448FFF722FE0F21024806
:1008E000FFF7ABFE08BD00000010014008B5012174
:1008F000082000F029F94FF40040ADF80000102066
:100900008DF8030002208DF8020069460448FFF7C5
:1009100007FE4FF400410248FFF78DFE08BD0000BE
:10092000000C014000BFFEE77047000070B50021D9
:1009300000230F22C47804B3154C246804F4E06447
:10094000C4F5E064210AC1F10403CA40447804FA02
:1009500003F184781440214309010E4C0678A15517
:10096000047804F01F050124AC4005786D11AD003A
:1009700005F1E025C5F8004109E0047804F01F0501
:100980000124AC40044D0678761145F8264070BD30
:100990000CED00E000E400E080E100E002490143EA
:1009A000024A1160704700000000FA050CED00E0FB
:1009B00070470000F0B589B00527062500241221F4
:1009C00004A8FFF724FC434A07CA01AB07C38DF80C
:1009D00006502E46032404E001A8005D4640601C3A
:1009E000C4B2E81C8442F7DB01A80655601CC4B2FF
:1009F000552001A90855601CC4B2AA200855601CE6
:100A0000C4B232213448FFF781FCAA1D01A9334842
:100A100000F0C3FC00203249087053E0052000F0CC
:100A200065FD2F48007800284CD03FE02D48008815
:100A30000C2800D03EE028480078AA2810D126488B
:100A4000407855280CD127480088401E2249085C70
:100A5000AA2805D1084623490988405CAA2800D065
:100A600028E01D488678032404E001A8005D464084
:100A7000601CC4B218488078C01CA042F5DC19483C
:100A80000088801E1449085CB04200D012E015486E
:100A90000088C01E1049095C12480088001F0E4AD9
:100AA000105C01EB002080B209B0F0BD0C4800786A
:100AB0000028BBD100BF0020094908703221064838
:100AC000FFF724FC781EC0B2071EA7D14FF6FF70B7
:100AD000EAE700008817000866000020004C00408C
:100AE000280000202A00002029B1064A526902434A
:100AF000044B5A6104E0034A52698243014B5A6134
:100B0000704700000010024029B1064AD269024332
:100B1000044BDA6104E0034AD2698243014BDA6193
:100B2000704700000010024029B1064A12690243D2
:100B3000044B1A6104E0034A12698243014B1A61B3
:100B4000704700000010024029B1064A9269024332
:100B5000044B9A6104E0034A92698243014B9A6113
:100B6000704700000010024029B1064AD2680243D3
:100B7000044BDA6004E0034AD2688243014BDA6036
:100B8000704700000010024030B500210022002410
:100B900000232D4D6D6805F00C0121B1042905D00D
:100BA000082923D105E0294D056022E0274D056085
:100BB0001FE0254D6D6805F47012234D6D6805F436
:100BC0008034022505EB92421CB9214D5543056046
:100BD0000BE01D4D6D6805F400351DB11C4D5543EE
:100BE000056002E0194D5543056002E0174D0560B0
:100BF00000BF00BF144D6D6805F0F0010909154DE7
:100C00006B5C0568DD4045600F4D6D6805F4E06183
:100C1000090A104D6B5C4568DD4085600A4D6D68C2
:100C200005F46051C90A0B4D6B5C4568DD40C56039
:100C3000054D6D6805F44041890B074D6B5CC56837
:100C4000B5FBF3F5056130BD0010024000127A00DB
:100C500000093D00140000202400002010B50021F0
:100C60000548FFF75BFB32210348FFF72BFC01210E
:100C70000148FFF753FB10BD3004024070B5064633
:100C80000C46154608E03046721C96B200F007F894
:100C900004F8010B681EC5B2002DF4D170BD70B50B
:100CA00004460026FFF78AFDA020FFF753FDFFF75B
:100CB000D1FD2012FFF74EFDFFF7CCFD2546E117D1
:100CC00004EB11610912A4EB0121C8B2FFF742FD48
:100CD000FFF7C0FDFFF772FDA120FFF73BFDFFF717
:100CE000B9FD0020FFF7FEFC0646FFF78DFD3046FC
:100CF00070BD70472DE9FF5F83460D46924606267C
:100D0000D04600240DB9032706E0012D01D1A72705
:100D100002E0202D00D172271C4B0FCB8DE80F0075
:100D20008DF802608DF8035098F803008DF80400E8
:100D30008DF8067098F802008DF8070098F8020008
:100D40004044C0788DF80800B146032405E01DF842
:100D5000040080EA0909601CC4B2F01C8442F6DB7E
:100D60000DF80490601CC4B255200DF80400601CFE
:100D7000C4B2AA200DF80400601CC4B2B21D6946BA
:100D8000584600F00AFBBDE8FF9F0000B4170008BA
:100D900010B500F001F810BD0CB5002001900090D6
:100DA0003348006840F480303149086000BF304863
:100DB000006800F4003000900198401C01900098F9
:100DC00018B90198B0F5A06FF1D12948006800F476
:100DD000003010B10120009001E000200090009848
:100DE000012843D12348006840F0100021490860E1
:100DF0000846006820F0030008600846006840F0DC
:100E0000020008601A48406819494860084640686E
:100E100048600846406840F4806048600846406882
:100E200020F47C1048600846406840F4E8104860B0
:100E30000846006840F08070086000BF0C480068F9
:100E400000F000700028F9D00948406820F0030045
:100E5000074948600846406840F00200486000BF0B
:100E60000348406800F00C000828F9D10CBD0000D0
:100E7000001002400020024000B597B0012102207E
:100E8000FFF732FE1E48FFF755FA32200F90102070
:100E90000E90002016901B480D900020139080208B
:100EA00011900020149018480C900020129010907F
:100EB0004FF4005015900CA91148FFF7E5FA1048BF
:100EC0002838FFF737FA32200490002003900B9067
:100ED0000E48029000200890802006900020099083
:100EE000094801900020079005904FF480500A9027
:100EF00001A903482838FFF7C7FA17B000BD000062
:100F000058040240CA000020044C00409800002011
:100F100010B50446204600F019F8FFF7ADFF012296
:100F200040F22441084800F09EF901224021064881
:100F300000F00BF901228021034800F006F901219D
:100F4000014800F0F6F810BD004C004010B586B026
:100F5000044601211020FFF7F7FD0121C804FFF727
:100F6000D3FD4FF48060ADF8140003208DF8160017
:100F700018208DF8170005A91848FFF7D1FA4FF48B
:100F80000060ADF8140004208DF8170005A913487F
:100F9000FFF7C6FA124800F0E1F801940020ADF81E
:100FA0000800ADF80A00ADF80C00ADF810000C20F8
:100FB000ADF80E0001A90A4800F07AF934208DF846
:100FC000000003208DF801008DF8020001208DF84B
:100FD00003006846FFF7AAFC06B010BD00100140F0
:100FE000004C0040042808D14FF0E021096941F08D
:100FF00004014FF0E022116107E04FF0E0210969A0
:1010000021F004014FF0E0221161704770470000A9
:1010100010B51348006840F0010011490860084607
:101020004068104908400E494860084600680E496B
:1010300008400B4908600846006820F480200860DA
:101040000846406820F4FE0048604FF41F008860A6
:10105000FFF79EFE4FF000600449086010BD0000DD
:10106000001002400000FFF8FFFFF6FE08ED00E070
:1010700010B5002440F22441154800F0CAF830B3FE
:10108000134800F081F913480078C8B91248FFF7F7
:10109000F7F91249088008460088C0F1320010496B
:1010A000088000BF05E00F48005D0F490855601C2F
:1010B000C4B20B4800888442F5DB01200549087062
:1010C00040F22441024800F025F8FFF7C7FD10BDAB
:1010D000004C004028000020300402402C0000207A
:1010E0002A000020980000206600002010B540F281
:1010F0002551064800F08DF838B1044800F044F955
:10110000C4B22146024800F044F910BD005000402E
:10111000004C004010B50022002340F66A14A142A2
:1011200000D100BF0A1201249440A3B2DC43048022
:1011300010BD21B1828942F40052828104E082898B
:101140004DF6FF731A40828170471AB1838A0B43B0
:10115000838202E0838A8B438382704710B5044602
:101160002048844209D101218803FFF7FDFC0021BA
:101170004FF48040FFF7F8FC32E01B48844209D16D
:1011800001214804FFF7D0FC00214FF40030FFF7A5
:10119000CBFC25E01548844209D101218804FFF7E2
:1011A000C3FC00214FF48020FFF7BEFC18E010487C
:1011B000844209D10121C804FFF7B6FC00214FF495
:1011C0000020FFF7B1FC0BE00A48844208D101215E
:1011D0000805FFF7A9FC00214FF48010FFF7A4FCDD
:1011E00010BD0000003801400044004000480040AD
:1011F000004C00400050004002460020B1F5007F46
:1012000000D100BF13880B400BB1012000E000208B
:10121000704770B50246002400230025002040F6E8
:101220006A16B14200D100BFC1F3421501F01F039D
:10123000012606FA03F3012D02D19689334006E018
:10124000022D02D1168A334001E0968A33400C12F7
:10125000012606FA04F41688344013B10CB10120BB
:1012600000E0002070BDF0B50346002400260025F4
:10127000002040F66A17B94200D100BF1846C1F3FA
:10128000421401F01F06012707FA06F5012C01D1CF
:101290000C3004E0022C01D1103000E014301AB1FF
:1012A00007682F43076002E00768AF430760F0BD9F
:1012B0002DE9F04786B005460E460024A24600BF41
:1012C000A1460027B08900B100BF2F462C8A4CF6FA
:1012D000FF700440F08804432C82AC894EF6F31072
:1012E0000440B08831890843718908430443AC81C4
:1012F000AC8A4FF6FF400440B0890443AC8201A899
:10130000FFF742FC1F48874202D1DDF810A001E040
:10131000DDF80CA0A88900F4004040B10AEBCA0037
:1013200000EB0A1031684900B0FBF1F807E00AEB66
:10133000CA0000EB0A1031688900B0FBF1F86420A4
:10134000B8FBF0F004012009642101FB1089A88991
:1013500000F4004040B1322000EBC900B0FBF1F0D6
:1013600000F00700044308E0322000EB091064217C
:10137000B0FBF1F000F00F0004432C8106B0BDE893
:10138000F08700000038014001468888C0F308005B
:101390007047C1F30802828070472DE9F04107468B
:1013A0000D461646002400BF0CE0295D3846FFF7C5
:1013B000F0FF00BF80213846FFF71EFF0028F9D05C
:1013C000601C84B2B442F0DBBDE8F08170B5064623
:1013D0000C4600250CE0615D3046FFF7DAFF00BFE8
:1013E00080213046FFF708FF0028F9D0681C85B23D
:1013F000605D0028EFD170BD10B586B004460121B4
:101400003020FFF7A1FB01210805FFF77DFB4FF41A
:101410008050ADF8140003208DF8160018208DF8C8
:10142000170005A91B48FFF77BF80420ADF814004E
:101430008DF8170005A91848FFF772F801940020ED
:10144000ADF80800ADF80A00ADF80C00ADF81000DA
:101450000C20ADF80E0001A91048FFF729FF352038
:101460008DF8000003208DF801008DF802000120A6
:101470008DF803006846FFF759FA012240F2255122
:101480000648FFF7F0FE01210448FFF752FE06B0C0
:1014900010BD000000100140001401400050004049
:1014A00000BFFEE700BF704710B56FF00400FFF704
:1014B00099FD0A4800680A49B0FBF1F00949087033
:1014C0000846007800EB4001C1EBC0104FF6FF71F9
:1014D00001EAC0000449088010BD0000000000209F
:1014E00000127A002E000020300000200146114A30
:1014F00012884A434FF0E0235A6100229A611A464B
:10150000126942F001021A6100BF4FF0E022106937
:1015100000F001021AB100F48032002AF5D04FF039
:10152000E022126922F001024FF0E0231A6100224A
:101530009A617047300000200146114A12784A43F0
:101540004FF0E0235A6100229A611A46126942F074
:1015500001021A6100BF4FF0E022106900F00102A1
:101560001AB100F48032002AF5D04FF0E02212695F
:1015700022F001024FF0E0231A6100229A617047C5
:101580002E00002090B000BF0024202108A8FEF704
:101590003EFE20216846FEF73AFE4FF4A060FFF7BA
:1015A000FDF9FFF781FFFFF787F9FEF78DFE4FF496
:1015B000E130FFF721FFFFF799F94FF41650FFF7DD
:1015C000A7FC39A13D48FFF701FF192208A94FF4F4
:1015D0008070FFF753FB1E2208A93848FFF7DDFE95
:1015E00037A13648FFF7F2FEC820FFF77FFF36A18C
:1015F0003248FFF7EBFEC820FFF778FFFFF7DAF974
:1016000004464FF6FF70844204D133A12B48FFF704
:10161000DDFE07E035A12948FFF7D8FE214627481F
:10162000FFF7B7FE002035490870C8213448FEF79F
:101630006DFE37E04FF4FA70FFF758FF314800684D
:1016400008B9012000E000202E4908602B480078EE
:10165000002827D02A48FEF737FF04464CB92AA1B4
:101660001648FFF7B3FE2648017902462A48FFF7DD
:1016700041FB012C03D129A11048FFF7A7FE022C42
:1016800003D12EA10D48FFF7A1FE032C03D133A1F6
:101690000A48FFF79BFE002018490870C821184827
:1016A000FEF734FEC6E7000041543234433235368B
:1016B00020546578743A0D0A000000000050004084
:1016C000200D0A0D0A0000000D0A444D412054650A
:1016D0007874200D0A0D0A000D0A51756572792083
:1016E0004572726F72210D0A0D0A00000D0A5175C4
:1016F000657279204F4B210D0A0D0A002800002049
:1017000066000020800122420D0A436865636B2059
:101710004F4B210D0A000000004C00400D0A4368A9
:1017200065636B204572726F722120486561646544
:1017300072204572726F72210D0A00000D0A436813
:1017400065636B204572726F7221205461696C2051
:101750004572726F72210D0A000000000D0A436885
:1017600065636B204572726F7221205061726974DB
:1017700079204572726F72210D0A0000AA5500206F
:101780002100570000000000AA550020210058FF4A
:10179000FF000000AA550020210073000000000097
:1017A000AA550020210072FFFF000000AA5500206A
:1017B00021005500AA5500000000000000000000B4
:1017C00000000000AA55000000000000000000001A
:1017D00000000000F41700080000002034000000A2
:1017E0006C01000828180008340000202C070000B5
:1017F0008801000800A24A04000000000000000068
:1018000001020304060708090000000001020304A6
:10181000010203040607080902040608000000008C
:081820000000000000000000C0
:0400000508000131BD
:00000001FF
