:020000040800F2
:1000000080070020CD010008C10600084B0600084B
:10001000BD060008C9020008550F000800000000D6
:10002000000000000000000000000000E1080008DF
:100030002B0500080000000049070008610B0008BC
:10004000E7010008E7010008E7010008E7010008F0
:10005000E7010008E7010008E7010008E7010008E0
:10006000E7010008E7010008E7010008E7010008D0
:10007000E7010008E7010008E7010008E7010008C0
:10008000E7010008E7010008E7010008E7010008B0
:10009000E7010008E7010008E7010008E7010008A0
:1000A000E7010008E7010008E7010008E701000890
:1000B000E7010008E7010008E7010008E701000880
:1000C000E7010008E7010008E7010008E701000870
:1000D000E7010008E7010008E7010008E701000860
:1000E000E7010008E7010008E7010008E701000850
:1000F000E7010008E7010008E7010008E701000840
:10010000E7010008E7010008E7010008E70100082F
:10011000C50B0008490C0008E7010008E7010008CA
:10012000E7010008E7010008E7010008E70100080F
:1001300000F002F800F03AF80AA090E8000C8244BF
:100140008344AAF10107DA4501D100F02FF8AFF29C
:10015000090EBAE80F0013F0010F18BFFB1A43F0A5
:1001600001031847540F0000740F0000103A24BF19
:1001700078C878C1FAD8520724BF30C830C144BF0C
:1001800004680C607047000000230024002500264E
:10019000103A28BF78C1FBD8520728BF30C148BFEA
:1001A0000B6070471FB51FBD10B510BD00F05AF8A9
:1001B0001146FFF7F7FF00F019FF00F078F803B4DD
:1001C000FFF7F2FF03BC00F0C7FE000009488047BC
:1001D00009480047FEE7FEE7FEE7FEE7FEE7FEE729
:1001E000FEE7FEE7FEE7FEE704480549054A064B41
:1001F00070470000650B00083101000880010020F5
:1002000080070020800300208003002070474FF00B
:10021000000200B5134694469646203922BFA0E856
:100220000C50A0E80C50B1F12001BFF4F7AF090762
:1002300028BFA0E80C5048BF0CC05DF804EB890053
:1002400028BF40F8042B08BF704748BF20F8022B96
:1002500011F0804F18BF00F8012B704770477047AE
:1002600070477047754600F02BF8AE4605006946AA
:10027000534620F00700854618B020B5FFF7B4FFBD
:10028000BDE820404FF000064FF000074FF0000897
:100290004FF0000B21F00701AC46ACE8C009ACE818
:1002A000C009ACE8C009ACE8C0098D46704710B57C
:1002B0000446AFF300802046BDE81040FFF77FBF43
:1002C000004870471C01002000BFFEE703E04A1E03
:1002D000D1B2002242540029F9D1704721B10268FD
:1002E00042F00102026004E002684FF6FE731A4019
:1002F0000260704701684FF6FE72114001600021F4
:10030000016041608160C1604B49884208D14A491F
:100310000839496841F00F01474A083A51608AE0BC
:1003200045491431884208D143490839496841F0A8
:10033000F001414A083A51607DE03F492831884246
:1003400008D13D490839496841F470613A4A083A90
:10035000516070E038493C31884208D1364908394B
:10036000496841F47041344A083A516063E03249C7
:100370005031884208D130490839496841F4702128
:100380002D4A083A516056E02B496431884208D121
:1003900029490839496841F47001274A083A5160EF
:1003A00049E025497831884208D12349083949680C
:1003B00041F07061204A083A51603CE01F49884290
:1003C00006D1011F096841F00F01021F116032E0E0
:1003D0001A491431884208D11849091F096841F0A7
:1003E000F001164A121F116025E014492831884295
:1003F00008D11249091F096841F470610F4A121FA0
:10040000116018E00D493C31884208D10B49091FA1
:10041000096841F47041094A121F11600BE0074955
:100420005031884207D10549091F096841F47021FC
:10043000024A121F1160704708000240080402407F
:100440000146486880B2704710B50022026847F63E
:10045000F0739A430C6A8B6823430C6923434C69FD
:1004600023438C692343CC6923434C6A23438C6A1E
:1004700023431A430260CB6843600B6883604B6878
:10048000C36010BD416070472DE9F04305460E463C
:10049000DDE9077C099C294600204FF0AA0804F8F2
:1004A0000080401C4FF0550804F80080401C255483
:1004B000401C2654401C2254401C2354401C2754EA
:1004C000401C002009E01CF8009004F1070808F81F
:1004D000009000F101081FFA88F0A842F3DB032026
:1004E00007E014F8008088EA010100F101081FFA12
:1004F00088F005F107088045F3DCE81D215400F180
:1005000001081FFA88F04FF0550804F8008000F148
:1005100001081FFA88F04FF0AA0804F8008000F1E3
:1005200001081FFA88F0BDE8F08370472DE9F0411B
:10053000024600250026002000230024002791F811
:1005400003C00CF00F0591F803C00CF0100CBCF1C7
:10055000000F03D091F802C04CEA050591F800C0E5
:10056000BCF1000F31D0146800202BE04FF0010CDB
:100570000CFA00F3B1F800C00CEA03069E4220D149
:1005800083004FF00F0C0CFA03F7BC4305FA03FC91
:100590004CEA040491F803C0BCF1280F06D14FF0D7
:1005A000010C0CFA00FCC2F814C00AE091F803C078
:1005B000BCF1480F05D14FF0010C0CFA00FCC2F859
:1005C00010C0401C0828D1D31460B1F800C0BCF1A1
:1005D000FF0F34DD546800202EE000F1080C4FF0CE
:1005E000010808FA0CF3B1F800C00CEA03069E42B9
:1005F00021D183004FF00F0C0CFA03F7BC4305FA2E
:1006000003FC4CEA040491F803C0BCF1280F05D1A7
:1006100000F1080C08FA0CF8C2F8148091F803C035
:10062000BCF1480F07D100F1080C4FF0010808FA9F
:100630000CF8C2F81080401C0828CED35460BDE8E6
:10064000F081416170470161704700BFFEE7000023
:1006500008B50121102000F0A9F80F20ADF8000026
:1006600010208DF8030003208DF80200694604482D
:10067000FFF75CFF0F210248FFF7E5FF08BD000010
:100680000010014008B50121082000F08FF84FF458
:100690000040ADF8000010208DF8030002208DF816
:1006A000020069460448FFF741FF4FF40041024849
:1006B000FFF7C7FF08BD0000000C014000BFFEE7C8
:1006C0007047000070B5002100230F22C47804B3E6
:1006D000154C246804F4E064C4F5E064210AC1F117
:1006E0000403CA40447804FA03F184781440214397
:1006F00009010E4C0678A155047804F01F05012469
:10070000AC4005786D11AD0005F1E025C5F800415C
:1007100009E0047804F01F050124AC40044D06787C
:10072000761145F8264070BD0CED00E000E400E0D5
:1007300080E100E002490143024A11607047000075
:100740000000FA050CED00E07047000029B1064AF0
:1007500052690243044B5A6104E0034A52698243DE
:10076000014B5A61704700000010024029B1064A4F
:10077000D2690243044BDA6104E0034AD26982433E
:10078000014BDA61704700000010024029B1064AAF
:1007900012690243044B1A6104E0034A126982435E
:1007A000014B1A61704700000010024029B1064A4F
:1007B00092690243044B9A6104E0034A92698243BE
:1007C000014B9A61704700000010024029B1064AAF
:1007D000D2680243044BDA6004E0034AD2688243E1
:1007E000014BDA60704700000010024030B5002174
:1007F0000022002400232D4D6D6805F00C0121B16D
:10080000042905D0082923D105E0294D056022E0FF
:10081000274D05601FE0254D6D6805F47012234DCE
:100820006D6805F48034022505EB92421CB9214D18
:10083000554305600BE01D4D6D6805F400351DB195
:100840001C4D5543056002E0194D5543056002E01B
:10085000174D056000BF00BF144D6D6805F0F00135
:100860000909154D6B5C0568DD4045600F4D6D68ED
:1008700005F4E061090A104D6B5C4568DD40856058
:100880000A4D6D6805F46051C90A0B4D6B5C4568F3
:10089000DD40C560054D6D6805F44041890B074D8D
:1008A0006B5CC568B5FBF3F5056130BD0010024017
:1008B00000127A0000093D001400002024000020EE
:1008C00010B500210548FFF709FD32210348FFF765
:1008D000D9FD01210148FFF701FD10BD30040240A0
:1008E000704710B500F002F810BD00000CB50020F4
:1008F000019000903348006840F48030314908602E
:1009000000BF3048006800F4003000900198401C9F
:100910000190009818B90198B0F5A06FF1D129485D
:10092000006800F4003010B10120009001E00020C8
:1009300000900098012843D12348006840F010003F
:10094000214908600846006820F003000860084656
:10095000006840F0020008601A4840681949486081
:100960000846406848600846406840F48060486037
:100970000846406820F47C1048600846406840F40F
:10098000E81048600846006840F08070086000BFCA
:100990000C48006800F000700028F9D00948406851
:1009A00020F00300074948600846406840F0020014
:1009B000486000BF0348406800F00C000828F9D1E7
:1009C0000CBD0000001002400020024000B597B0AE
:1009D00001210220FFF7BAFE1E48FFF78BFC3220F0
:1009E0000F9010200E90002016901B480D900020B4
:1009F0001390802011900020149018480C90002033
:100A0000129010904FF4005015900CA91148FFF768
:100A10001BFD10482838FFF76DFC322004900020A1
:100A200003900B900E4802900020089080200690C2
:100A300000200990094801900020079005904FF48C
:100A400080500A9001A903482838FFF7FDFC17B031
:100A500000BD000058040240E8000020044C0040A3
:100A6000B600002010B50446204600F019F8FFF744
:100A7000ADFF012240F22441084800F0A2F9012212
:100A80004021064800F00FF901228021034800F0C0
:100A90000AF90121014800F0FAF810BD004C0040AD
:100AA00010B586B0044601211020FFF77FFE01211A
:100AB000C804FFF75BFE4FF48060ADF8140003201C
:100AC0008DF8160018208DF8170005A91848FFF7B3
:100AD0002DFD4FF40060ADF8140004208DF81700D0
:100AE00005A91348FFF722FD124800F0E5F801942C
:100AF0000020ADF80800ADF80A00ADF80C00ADF824
:100B000010000C20ADF80E0001A90A4800F07EF993
:100B100034208DF8000003208DF801008DF80200CC
:100B200001208DF803006846FFF7CCFD06B010BD2C
:100B300000100140004C0040042808D14FF0E02193
:100B4000096941F004014FF0E022116107E04FF024
:100B5000E021096921F004014FF0E02211617047A2
:100B60007047000010B51348006840F001001149BB
:100B7000086008464068104908400E494860084629
:100B800000680E4908400B4908600846006820F4D8
:100B9000802008600846406820F4FE0048604FF45A
:100BA0001F008860FFF79DFE4FF000600449086059
:100BB00010BD0000001002400000FFF8FFFFF6FE2D
:100BC00008ED00E010B5002440F22441174800F081
:100BD000CEF848B3154800F085F915480078E0B91B
:100BE0000120134908701348FFF72AFC12490880B6
:100BF00008460088C0F132001049088000BF05E0B7
:100C00000F48005D0F490855601CC4B20B480088AE
:100C10008442F5DB01200649087040F22441034874
:100C200000F026F8FFF74CFE10BD0000004C00401D
:100C300028000020300402402C0000202A00002060
:100C4000B60000208400002010B540F2255106486F
:100C500000F08DF838B1044800F044F9C4B22146E0
:100C6000024800F044F910BD00500040004C004024
:100C700010B50022002340F66A14A14200D100BF43
:100C80000A1201249440A3B2DC43048010BD21B1B8
:100C9000828942F40052828104E082894DF6FF731A
:100CA0001A40828170471AB1838A0B43838202E023
:100CB000838A8B438382704710B504462048844260
:100CC00009D101218803FFF781FD00214FF4804005
:100CD000FFF77CFD32E01B48844209D10121480422
:100CE000FFF754FD00214FF40030FFF74FFD25E0E2
:100CF0001548844209D101218804FFF747FD0021EE
:100D00004FF48020FFF742FD18E01048844209D1DB
:100D10000121C804FFF73AFD00214FF40020FFF73E
:100D200035FD0BE00A48844208D101210805FFF790
:100D30002DFD00214FF48010FFF728FD10BD0000AD
:100D4000003801400044004000480040004C004092
:100D50000050004002460020B1F5007F00D100BFE6
:100D600013880B400BB1012000E00020704770B5E4
:100D70000246002400230025002040F66A16B142F6
:100D800000D100BFC1F3421501F01F03012606FA8E
:100D900003F3012D02D19689334006E0022D02D1E2
:100DA000168A334001E0968A33400C12012606FA77
:100DB00004F41688344013B10CB1012000E0002087
:100DC00070BDF0B50346002400260025002040F643
:100DD0006A17B94200D100BF1846C1F3421401F0AE
:100DE0001F06012707FA06F5012C01D10C3004E09B
:100DF000022C01D1103000E014301AB107682F43E3
:100E0000076002E00768AF430760F0BD2DE9F047D7
:100E100086B005460E460024A24600BFA146002724
:100E2000B08900B100BF2F462C8A4CF6FF700440F9
:100E3000F08804432C82AC894EF6F3100440B0884D
:100E400031890843718908430443AC81AC8A4FF669
:100E5000FF400440B0890443AC8201A8FFF7C6FC00
:100E60001F48874202D1DDF810A001E0DDF80CA098
:100E7000A88900F4004040B10AEBCA0000EB0A1058
:100E800031684900B0FBF1F807E00AEBCA0000EB5B
:100E90000A1031688900B0FBF1F86420B8FBF0F06B
:100EA00004012009642101FB1089A88900F4004095
:100EB00040B1322000EBC900B0FBF1F000F00700B8
:100EC000044308E0322000EB09106421B0FBF1F08C
:100ED00000F00F0004432C8106B0BDE8F08700004D
:100EE0000038014001468888C0F308007047C1F30C
:100EF0000802828070472DE9F04107460D461646EC
:100F0000002400BF0CE0295D3846FFF7F0FF00BF6A
:100F100080213846FFF71EFF0028F9D0601C84B2FC
:100F2000B442F0DBBDE8F08170B506460C46002502
:100F30000CE0615D3046FFF7DAFF00BF80213046EC
:100F4000FFF708FF0028F9D0681C85B2605D002813
:100F5000EFD170BD00BFFEE700BF704710B56FF066
:100F60000400FFF7E9FD0A4800680A49B0FBF1F008
:100F7000094908700846007800EB4001C1EBC01039
:100F80004FF6FF7101EAC0000449088010BD00005F
:100F90000000002000127A002E0000203000002007
:100FA0000146114A12884A434FF0E0235A61002259
:100FB0009A611A46126942F001021A6100BF4FF0AD
:100FC000E022106900F001021AB100F48032002A18
:100FD000F5D04FF0E022126922F001024FF0E02339
:100FE0001A6100229A6170473000002094B000BF5F
:100FF00000BF20210CA8FFF70AF9202104A8FFF761
:1010000006F94FF4A060FFF795FBFFF7A7FFFFF786
:101010001FFBFFF737FB4FF41650FFF723FD1EA110
:101020002048FFF781FF00201F490870C8211F4892
:10103000FFF74CF92EE0C820FFF7B2FF1C4800680C
:1010400008B9012000E0002019490860164800781E
:1010500000B31E211748FFF739F916491348401C01
:101060005822CDE900200291411E08780123212257
:101070002021FFF709FA0D48007800F10A020D4916
:101080000848FFF738FF002007490870C8210748C3
:10109000FFF71CF9CFE700007063636B205465789D
:1010A00074000000004C0040280000208400002054
:1010B0008001224234000020D810000800000020E7
:1010C000340000006C0100080C11000834000020FE
:1010D0004C0700008801000800A24A04000000003C
:1010E00000000000010203040607080900000000D8
:1010F00001020304010203040607080902040608AA
:0C110000000000000000000000000000E3
:0400000508000131BD
:00000001FF
