:020000040800F2
:10000000B0070020CD010008290D00083F0A0008B4
:10001000250D00080D05000861190008000000000A
:100020000000000000000000000000000D100008AB
:100030007108000800000000B10D00088D120008D2
:10004000E7010008E7010008E7010008E7010008F0
:10005000E7010008E7010008E7010008E7010008E0
:10006000E7010008E7010008E7010008E7010008D0
:10007000E7010008E7010008E7010008E7010008C0
:10008000E7010008E7010008E7010008E7010008B0
:10009000E7010008E7010008E7010008E7010008A0
:1000A000E7010008E7010008E7010008E701000890
:1000B000E7010008E7010008E7010008E701000880
:1000C000E7010008E7010008E7010008E701000870
:1000D000E7010008E7010008E7010008E701000860
:1000E000E7010008E7010008E7010008E701000850
:1000F000E7010008E7010008E7010008E701000840
:10010000E7010008E7010008E7010008E70100082F
:10011000F112000875130008E7010008E701000864
:10012000E7010008E7010008E7010008E70100080F
:1001300000F002F800F03AF80AA090E8000C8244BF
:100140008344AAF10107DA4501D100F02FF8AFF29C
:10015000090EBAE80F0013F0010F18BFFB1A43F0A5
:1001600001031847901A0000B01A0000103A24BF8B
:1001700078C878C1FAD8520724BF30C830C144BF0C
:1001800004680C607047000000230024002500264E
:10019000103A28BF78C1FBD8520728BF30C148BFEA
:1001A0000B6070471FB51FBD10B510BD00F08CF877
:1001B0001146FFF7F7FF01F045FC00F0AAF803B481
:1001C000FFF7F2FF03BC01F0CDFB000009488047B8
:1001D00009480047FEE7FEE7FEE7FEE7FEE7FEE729
:1001E000FEE7FEE7FEE7FEE704480549054A064B41
:1001F000704700009112000831010008B001002092
:10020000B0070020B0030020B0030020704710B5F5
:10021000203AC0F00B80B1E81850203AA0E81850FE
:10022000B1E81850A0E81850BFF4F5AF5FEA027CBF
:1002300024BFB1E81850A0E8185044BF18C918C02E
:10024000BDE810405FEA827C24BF51F8043B40F8CF
:10025000043B08BF7047D20728BF31F8023B48BFB4
:1002600011F8012B28BF20F8023B48BF00F8012BF2
:1002700070474FF0000200B5134694469646203969
:1002800022BFA0E80C50A0E80C50B1F12001BFF44F
:10029000F7AF090728BFA0E80C5048BF0CC05DF8B5
:1002A00004EB890028BF40F8042B08BF704748BF03
:1002B00020F8022B11F0804F18BF00F8012B704777
:1002C0007047704770477047754600F02BF8AE4690
:1002D00005006946534620F00700854618B020B552
:1002E000FFF782FFBDE820404FF000064FF0000707
:1002F0004FF000084FF0000B21F00701AC46ACE8CE
:10030000C009ACE8C009ACE8C009ACE8C0098D463A
:10031000704710B50446AFF300802046BDE810409A
:10032000FFF74DBF004870474C01002008B5012180
:10033000082000F06FFDC020ADF8000010208DF8FF
:10034000030003208DF802006946054800F0E8FA32
:100350000120044908600449C1F89C0108BD00005F
:10036000000C014098812142008021420FB478B5F1
:1003700004460D460023002600210022412060543F
:10038000491C54206054491C2B206054491C00BF58
:1003900003E0A85C6054491C521CA85C0028F8D1FA
:1003A000079800783F280BD16054491C0D206054F9
:1003B000491C0A206054491CC8B278BC5DF814FB83
:1003C0003D206054491C002204E00798805C605482
:1003D000491C521C0798805C0028F6D108A80090A0
:1003E00013E0009808C800901878232801D101264E
:1003F0000BE02C206054491C002203E0985C605400
:10040000491C521C985C0028F8D10EB97829E8DB09
:10041000002000900D206054491C0A206054491CA3
:10042000C8B2CAE72DE9F04105460E460A27002466
:100430003221144800F06CF8002013490880294646
:10044000124801F0F8F807E00A2001F0AFFA0E4870
:100450000088042800DD03E0781EC0B2071EF3D137
:1004600000BF17B90120BDE8F081002404E0054871
:10047000005D3055601CC4B2034800888442F6DB3E
:100480000020F0E75200002028000020005000402B
:100490002DE9F04194B005460F4650221A496846AE
:1004A000FFF7B5FE00240026A04601E0601CC4B2A0
:1004B0001DF804000028F9D1002606E0A85D0DF81B
:1004C0000400601CC4B2701CC6B2A85D0028F5D13F
:1004D0003F200DF80400601CC4B20D200DF804008C
:1004E000601CC4B20A200DF8040039466846FFF7C4
:1004F00099FF8046B8F1000F03D0012014B0BDE889
:10050000F0810020FAE70000D41A000800BFFEE7DF
:1005100003E04A1ED1B2002242540029F9D17047AB
:100520002DE9F0419AB004460D461646502106A822
:10053000FFF79FFE154B0FCB02AF0FC70027B84642
:1005400013A02B46224613A1CDE9006006A8FFF7B1
:100550000DFF804602A906A8FFF764FF07461FB1FA
:1005600006201AB0BDE8F0819DF80A002B2809D1B9
:100570009DF80B004F2805D19DF80C004B2801D1A8
:100580000020EEE79DF81000EBE70000E41B0008F8
:1005900023000000534F434B000000002DE9F04FB3
:1005A0009DB004460D4616461F46DDF89880502241
:1005B0001C4909A8FFF72BFE1A4B50330FCBCDE98E
:1005C0000723CDE905014FF0000AD346D1460020AC
:1005D000049015A02B46224614A18DE8C00103907B
:1005E00009A8FFF7C3FE049005A909A8FFF71AFFA1
:1005F0008146B9F1000F03D006201DB0BDE8F08F91
:100600009DF816002B2809D19DF817004F2805D119
:100610009DF818004B2801D10020EEE79DF81C0042
:10062000EBE70000841B00082300000055415254F2
:10063000000000002DE9F04F9BB004460D46164621
:100640001F4650221B4907A8FFF7E1FD194B503305
:100650000FCBCDE90523CDE903014FF00009CA46D0
:10066000C846C34614A02B46224614A1CDE9006714
:10067000029007A8FFF77AFE834603A907A8FFF7B1
:10068000D1FE8046B8F1000F03D006201BB0BDE8B4
:10069000F08F9DF80E002B2809D19DF80F004F28F0
:1006A00005D19DF810004B2801D10020EEE79DF800
:1006B0001400EBE7241B00082300000057414E4EB6
:1006C0000000000021B1026842F00102026004E073
:1006D00002684FF6FE731A400260704701684FF6D9
:1006E000FE72114001600021016041608160C160C3
:1006F0004B49884208D14A490839496841F00F01FD
:10070000474A083A51608AE045491431884208D185
:1007100043490839496841F0F001414A083A5160BB
:100720007DE03F492831884208D13D490839496870
:1007300041F470613A4A083A516070E038493C31FE
:10074000884208D136490839496841F47041344A31
:10075000083A516063E032495031884208D130494B
:100760000839496841F470212D4A083A516056E031
:100770002B496431884208D129490839496841F434
:100780007001274A083A516049E02549783188428A
:1007900008D123490839496841F07061204A083A74
:1007A00051603CE01F49884206D1011F096841F0B1
:1007B0000F01021F116032E01A491431884208D13A
:1007C0001849091F096841F0F001164A121F11600B
:1007D00025E014492831884208D11249091F0968C7
:1007E00041F470610F4A121F116018E00D493C314D
:1007F000884208D10B49091F096841F47041094A30
:10080000121F11600BE007495031884207D105499A
:10081000091F096841F47021024A121F11607047D4
:1008200008000240080402400146486880B2704750
:1008300010B50022026847F6F0739A430C6A8B6881
:1008400023430C6923434C6923438C692343CC69BC
:1008500023434C6A23438C6A23431A430260CB68C8
:1008600043600B6883604B68C36010BD4160704794
:100870007047000010B50A2432212448FFF748FED3
:1008800000202349088023A1234800F0D4FE0BE078
:10089000052001F08BF81D480078612804D11C4820
:1008A0000088012800D103E0601EC0B2041EEFD111
:1008B00000BF0CB9012010BD32211448FFF728FEFB
:1008C00000201349088015A1134800F0B4FE15E07C
:1008D000052001F06BF80E48008802280EDB0B485B
:1008E00000782B2809D1094840786F2805D107489E
:1008F00080786B2801D10020DDE703E0601EC0B2E4
:10090000041EE5D100BF0120D5E700005200002001
:10091000280000202B2B2B0000500040610000001D
:100920002DE9F04102460025002600200023002486
:10093000002791F803C00CF00F0591F803C00CF0EC
:10094000100CBCF1000F03D091F802C04CEA050571
:1009500091F800C0BCF1000F31D0146800202BE0EA
:100960004FF0010C0CFA00F3B1F800C00CEA0306DA
:100970009E4220D183004FF00F0C0CFA03F7BC43CA
:1009800005FA03FC4CEA040491F803C0BCF1280FFB
:1009900006D14FF0010C0CFA00FCC2F814C00AE0BA
:1009A00091F803C0BCF1480F05D14FF0010C0CFACF
:1009B00000FCC2F810C0401C0828D1D31460B1F864
:1009C00000C0BCF1FF0F34DD546800202EE000F1C0
:1009D000080C4FF0010808FA0CF3B1F800C00CEA5B
:1009E00003069E4221D183004FF00F0C0CFA03F74F
:1009F000BC4305FA03FC4CEA040491F803C0BCF1C3
:100A0000280F05D100F1080C08FA0CF8C2F8148080
:100A100091F803C0BCF1480F07D100F1080C4FF06A
:100A2000010808FA0CF8C2F81080401C0828CED340
:100A30005460BDE8F081416170470161704700BFBB
:100A4000FEE7000010B500200F4908600F4800685D
:100A500020F070400D4908600846006840F04050A2
:100A6000086000200A49C1F89C01022000F0C4FF80
:100A7000012005490860022000F0BEFF0020044963
:100A8000C1F8980110BD000098812142000C01407E
:100A90000080214210B500200F4908600F4800680F
:100AA00020F070400D4908600846006840F0405052
:100AB000086001200A49C1F89C01022000F09CFF57
:100AC000012005490860022000F096FF002004493B
:100AD000C1F8980110BD000098812142000C01402E
:100AE0000080214270B5054600241748006820F0B8
:100AF0007040154908600846006840F000400860F2
:100B0000002616E0002011490860022000F074FF62
:100B100001200F49C1F898016006040E0B487C388B
:100B2000006808B1601CC4B2012000F065FF701CB1
:100B3000C6B2082EE6DB15B9FFF7ACFF01E0FFF700
:100B400081FF204670BD0000000C014098812142C9
:100B50000080214270B504461548006820F07040BE
:100B6000134908600846006840F0405008600020C3
:100B700010490860002517E0E0090E49091D0860CA
:100B80006006040E022000F037FF01200A49C1F878
:100B90009801022000F030FF002006490860022082
:100BA00000F02AFF681CC5B2082DE5DB70BD00000F
:100BB000000C0140988121420080214210B50F486D
:100BC000006820F070400D4908600846006840F059
:100BD0004050086001200A4908600A49C1F898019C
:100BE000042000F009FF002005490860042000F0FF
:100BF00003FF00200349C1F8980110BD000C01401B
:100C00009C8121420080214210B50F48006820F0ED
:100C100070400D4908600846006840F04050086088
:100C200000200A4908600A49C1F89C01042000F02C
:100C3000E3FE0120054908600549C1F89C01042034
:100C400000F0DAFE10BD0000000C01409881214246
:100C50000080214210B500241448006820F0704044
:100C6000124908600846006840F000400860012012
:100C70000F49086000F0C0FE01200E49C1F898013C
:100C800000F0BAFE07E0601CC4B2FA2C03DDFFF7E7
:100C9000BBFF012010BD0648803800680028F2D153
:100CA0000349091F086000BFF4E70000000C014081
:100CB0009C8121420080214208B50121102000F0D2
:100CC000A9F80F20ADF8000010208DF803000320D4
:100CD0008DF8020069460448FFF722FE0F21024802
:100CE000FFF7ABFE08BD00000010014008B5012170
:100CF000082000F08FF84FF40040ADF800001020FD
:100D00008DF8030002208DF8020069460448FFF7C1
:100D100007FE4FF400410248FFF78DFE08BD0000BA
:100D2000000C014000BFFEE77047000070B50021D5
:100D300000230F22C47804B3154C246804F4E06443
:100D4000C4F5E064210AC1F10403CA40447804FAFE
:100D500003F184781440214309010E4C0678A15513
:100D6000047804F01F050124AC4005786D11AD0036
:100D700005F1E025C5F8004109E0047804F01F05FD
:100D80000124AC40044D0678761145F8264070BD2C
:100D90000CED00E000E400E080E100E002490143E6
:100DA000024A1160704700000000FA050CED00E0F7
:100DB0007047000029B1064A52690243044B5A6148
:100DC00004E0034A52698243014B5A6170470000B4
:100DD0000010024029B1064AD2690243044BDA618D
:100DE00004E0034AD2698243014BDA617047000094
:100DF0000010024029B1064A12690243044B1A61ED
:100E000004E0034A12698243014B1A6170470000F3
:100E10000010024029B1064A92690243044B9A61CC
:100E200004E0034A92698243014B9A6170470000D3
:100E30000010024029B1064AD2680243044BDA602E
:100E400004E0034AD2688243014BDA607047000035
:100E50000010024030B500210022002400232D4D57
:100E60006D6805F00C0121B1042905D0082923D1B2
:100E700005E0294D056022E0274D05601FE0254D66
:100E80006D6805F47012234D6D6805F480340225F9
:100E900005EB92421CB9214D554305600BE01D4DF9
:100EA0006D6805F400351DB11C4D5543056002E029
:100EB000194D5543056002E0174D056000BF00BFA6
:100EC000144D6D6805F0F0010909154D6B5C05685E
:100ED000DD4045600F4D6D6805F4E061090A104D75
:100EE0006B5C4568DD4085600A4D6D6805F46051B6
:100EF000C90A0B4D6B5C4568DD40C560054D6D68EA
:100F000005F44041890B074D6B5CC568B5FBF3F5F3
:100F1000056130BD0010024000127A0000093D005A
:100F2000140000202400002010B500210548FFF720
:100F3000C9FB32210348FFF799FC01210148FFF763
:100F4000C1FB10BD3004024070B506460C46154684
:100F500008E03046721C96B200F007F804F8010B66
:100F6000681EC5B2002DF4D170BD70B504460026D0
:100F7000FFF724FEA020FFF7EDFDFFF76BFE201228
:100F8000FFF7E8FDFFF766FE2546E11704EB116168
:100F90000912A4EB0121C8B2FFF7DCFDFFF75AFEEE
:100FA000FFF70CFEA120FFF7D5FDFFF753FE002051
:100FB000FFF798FD0646FFF727FE304670BD00009C
:100FC0001FB50F4B0FCB8DE80F00002469460DA015
:100FD000FFF728FA044614B1062004B010BD9DF8AE
:100FE00002002B2809D19DF803004F2805D19DF858
:100FF00004004B2801D10020EFE79DF80800ECE742
:10100000B41A000841542B5A0D0A0000704710B55D
:1010100000F002F810BD00000CB500200190009017
:101020003348006840F480303149086000BF3048E0
:10103000006800F4003000900198401C0190009876
:1010400018B90198B0F5A06FF1D12948006800F4F3
:10105000003010B10120009001E0002000900098C5
:10106000012843D12348006840F01000214908605E
:101070000846006820F0030008600846006840F059
:10108000020008601A4840681949486008464068EC
:1010900048600846406840F4806048600846406800
:1010A00020F47C1048600846406840F4E81048602E
:1010B0000846006840F08070086000BF0C48006877
:1010C00000F000700028F9D00948406820F00300C3
:1010D000074948600846406840F00200486000BF89
:1010E0000348406800F00C000828F9D10CBD00004E
:1010F000001002400020024000B597B001210220FC
:10110000FFF758FE1E48FFF7E9FA32200F90102033
:101110000E90002016901B480D9000201390802008
:1011200011900020149018480C90002012901090FC
:101130004FF4005015900CA91148FFF779FB1048A7
:101140002838FFF7CBFA32200490002003900B9050
:101150000E48029000200890802006900020099000
:10116000094801900020079005904FF480500A90A4
:1011700001A903482838FFF75BFB17B000BD00004A
:10118000580402401A010020044C0040E8000020EE
:1011900010B50446204600F019F8FFF7ADFF012214
:1011A00040F22441084800F0ACF9012240210648F1
:1011B00000F019F901228021034800F014F90121FF
:1011C000014800F004F910BD004C004010B586B095
:1011D000044601211020FFF71DFE0121C804FFF77E
:1011E000F9FD4FF48060ADF8140003208DF816006F
:1011F00018208DF8170005A91848FFF791FB4FF448
:101200000060ADF8140004208DF8170005A91348FC
:10121000FFF786FB124800F0EFF801940020ADF8CC
:101220000800ADF80A00ADF80C00ADF810000C2075
:10123000ADF80E0001A90A4800F088F934208DF8B5
:10124000000003208DF801008DF8020001208DF8C8
:1012500003006846FFF76AFD06B010BD00100140AC
:10126000004C0040042808D14FF0E021096941F00A
:1012700004014FF0E022116107E04FF0E02109691D
:1012800021F004014FF0E022116170477047000027
:1012900010B51348006840F0010011490860084685
:1012A0004068104908400E494860084600680E49E9
:1012B00008400B4908600846006820F48020086058
:1012C0000846406820F4FE0048604FF41F00886024
:1012D000FFF79DFE4FF000600449086010BD00005C
:1012E000001002400000FFF8FFFFF6FE08ED00E0EE
:1012F00010B5002440F22441174800F0D8F848B354
:10130000154800F08FF915480078E0B9012013491D
:1013100008701348FFF788FA1249088008460088C9
:10132000C0F132001049088000BF05E00F48005DA1
:101330000F490855601CC4B20B4800888442F5DB95
:1013400001200649087040F22441034800F030F8BB
:10135000FFF7EAFD10BD0000004C00402A0000200D
:10136000300402402E0000202C000020E800002065
:10137000B600002010B540F225510A4800F097F859
:1013800070B1084800F04EF9C4B207480088C0F3B5
:101390000D0006490C5404480088401C024908808E
:1013A00010BD000000500040280000205200002026
:1013B00010B50022002340F66A14A14200D100BFFC
:1013C0000A1201249440A3B2DC43048010BD21B171
:1013D000828942F40052828104E082894DF6FF73D3
:1013E0001A40828170471AB1838A0B43838202E0DC
:1013F000838A8B438382704710B504462048844219
:1014000009D101218803FFF715FD00214FF4804029
:10141000FFF710FD32E01B48844209D10121480446
:10142000FFF7E8FC00214FF40030FFF7E3FC25E074
:101430001548844209D101218804FFF7DBFC002113
:101440004FF48020FFF7D6FC18E01048844209D101
:101450000121C804FFF7CEFC00214FF40020FFF764
:10146000C9FC0BE00A48844208D101210805FFF7B6
:10147000C1FC00214FF48010FFF7BCFC10BD000040
:10148000003801400044004000480040004C00404B
:101490000050004002460020B1F5007F00D100BF9F
:1014A00013880B400BB1012000E00020704770B59D
:1014B0000246002400230025002040F66A16B142AF
:1014C00000D100BFC1F3421501F01F03012606FA47
:1014D00003F3012D02D19689334006E0022D02D19B
:1014E000168A334001E0968A33400C12012606FA30
:1014F00004F41688344013B10CB1012000E0002040
:1015000070BDF0B50346002400260025002040F6FB
:101510006A17B94200D100BF1846C1F3421401F066
:101520001F06012707FA06F5012C01D10C3004E053
:10153000022C01D1103000E014301AB107682F439B
:10154000076002E00768AF430760F0BD2DE9F04790
:1015500086B005460E460024A24600BFA1460027DD
:10156000B08900B100BF2F462C8A4CF6FF700440B2
:10157000F08804432C82AC894EF6F3100440B08806
:1015800031890843718908430443AC81AC8A4FF622
:10159000FF400440B0890443AC8201A8FFF75AFC25
:1015A0001F48874202D1DDF810A001E0DDF80CA051
:1015B000A88900F4004040B10AEBCA0000EB0A1011
:1015C00031684900B0FBF1F807E00AEBCA0000EB14
:1015D0000A1031688900B0FBF1F86420B8FBF0F024
:1015E00004012009642101FB1089A88900F400404E
:1015F00040B1322000EBC900B0FBF1F000F0070071
:10160000044308E0322000EB09106421B0FBF1F044
:1016100000F00F0004432C8106B0BDE8F087000005
:101620000038014001468888C0F308007047C1F3C4
:1016300008028280704770B506460C4600250CE013
:10164000615D3046FFF7F3FF00BF80213046FFF7B2
:1016500021FF0028F9D0681C85B2605D0028EFD119
:1016600070BD000030B595B00B24002500BF0DE023
:101670004FF4FA7000F09AF946A14B48FFF7DBFFF0
:10168000681EC5B2142D01DD15B030BDFFF7F2F8AC
:101690000028EDD145A14448FFF7CDFF102211A944
:1016A0004FF4E060FFF750FC10220DA94FF4E26008
:1016B000FFF74AFC102209A94FF4E460FFF744FC4D
:1016C000102205A94FF4E660FFF73EFC102201A9A5
:1016D0004FF4E860FFF738FC01A805AB09AA0DA993
:1016E000009011A8FEF75AFF044624B933A12E48F2
:1016F000FFF7A1FF03E036A12B48FFF79CFF2BA1CA
:101700002948FFF798FF38A238A13CA0FEF708FF50
:10171000044624B93BA12448FFF78DFF03E03EA116
:101720002148FFF788FF42A344A230A147A0FEF75B
:1017300081FF044624B947A11B48FFF77CFF03E063
:1017400049A11948FFF777FF4DA04EA34FA250A122
:10175000009050A0FEF722FF044624B917A11248BA
:10176000FFF769FF03E01AA10F48FFF764FF4B4939
:101770004BA0FEF78DFE49490B48FFF75CFFFFF7D2
:101780001FFC04461CB148A10748FFF754FF00BFE7
:101790007AE70000456E7465722041542046616905
:1017A0006C65640D0A000000004C0040456E7465D5
:1017B00072204154204F4B0D0A000000436F6E66AB
:1017C00069672055415254204F4B0D0A000000001C
:1017D000436F6E6669672055415254204661696CBB
:1017E00065642C0D0A000000343000003139322EBF
:1017F0003136382E302E31313700000054435053EB
:1018000000000000436F6E66696720534F434B2012
:101810004F4B0D0A00000000436F6E66696720534E
:101820004F434B204661696C65642C0D0A00000033
:101830003139322E3136382E302E31003235352EB8
:101840003235352E3235352E300000005354415498
:1018500049430000436F6E6669672057414E4E2032
:101860004F4B0D0A00000000436F6E6669672057FA
:10187000414E4E204661696C65642C0D0A000000E3
:101880004E4643004E4F4E45000000003100000020
:101890003800000031313532303000003400002093
:1018A00055415254000000005265626F6F7420462B
:1018B00061696C65640D0A0010B586B004460121AB
:1018C0003020FFF7A7FA01210805FFF783FA4FF44C
:1018D0008050ADF8140003208DF8160018208DF804
:1018E000170005A91B48FFF71BF80420ADF81400EA
:1018F0008DF8170005A91848FFF712F80194002089
:10190000ADF80800ADF80A00ADF80C00ADF8100015
:101910000C20ADF80E0001A91048FFF717FE352086
:101920008DF8000003208DF801008DF802000120E1
:101930008DF803006846FFF7F9F9012240F22551BE
:101940000648FFF7DEFD01210448FFF740FD06B021
:1019500010BD000000100140001401400050004084
:1019600000BFFEE700BF704710B56FF00400FFF73F
:1019700079FC0A4800680A49B0FBF1F0094908708F
:101980000846007800EB4001C1EBC0104FF6FF7134
:1019900001EAC0000449088010BD000000000020DA
:1019A00000127A0030000020320000200146114A67
:1019B00012884A434FF0E0235A6100229A611A4686
:1019C000126942F001021A6100BF4FF0E022106973
:1019D00000F001021AB100F48032002AF5D04FF075
:1019E000E022126922F001024FF0E0231A61002286
:1019F0009A617047320000200146114A12784A432A
:101A00004FF0E0235A6100229A611A46126942F0AF
:101A100001021A6100BF4FF0E022106900F00102DC
:101A20001AB100F48032002AF5D04FF0E02212699A
:101A300022F001024FF0E0231A6100229A61704700
:101A40003000002090B000BF00BF202108A8FEF7A2
:101A500010FC20216846FEF70CFC4FF4A060FFF755
:101A60009DF9FFF781FFFFF727F9FEF75FFC4FF4C1
:101A7000E130FFF721FFFFF739F94FF41650FFF778
:101A800087FBFFF7EFFD0AE0C820FFF78FFF044850
:101A9000006808B9012000E0002001490860F3E770
:101AA0008001224230000000000000000000000021
:101AB00000000000300000000000000000000000F6
:101AC00000000000300000000000000000000000E6
:101AD0000000000041542B00000000000000000046
:101AE00000000000000000000000000000000000F6
:101AF00000000000000000000000000000000000E6
:101B000000000000000000000000000000000000D5
:101B100000000000000000000000000000000000C5
:101B20000000000041542B57414E4E3D0000000084
:101B300000000000000000000000000000000000A5
:101B40000000000000000000000000000000000095
:101B50000000000000000000000000000000000085
:101B60000000000000000000000000000000000075
:101B70000000000030000000000000000000000035
:101B80000000000041542B554152543D000000001C
:101B90000000000000000000000000000000000045
:101BA0000000000000000000000000000000000035
:101BB0000000000000000000000000000000000025
:101BC0000000000000000000000000000000000015
:101BD00000000000300000000000000000000000D5
:101BE00000000000300000000000000000000000C5
:101BF00000000000141C0008000000203400000059
:101C00006C010008481C0008340000207C0700001C
:101C10008801000800A24A04000000000000000043
:101C20000102030406070809000000000102030482
:101C30000102030406070809020406080000000068
:081C400000000000000000009C
:0400000508000131BD
:00000001FF
