:0F1293007D527C03ED1D70011C144C70F7DFF1D0
:0112A2002229
:0E12A300E4F5C7F5C5F5C675C3FF75C4FF2297
:1010E400AD07AC06C2AF75C78375C501ECF5C3AFD8
:1010F400058FC475C65A75C6A500E5C21204D30D82
:10110400BD00010C740129F9E43AFA9002B274FFAB
:0F111400F5F01204E545F070D31212A3D2AF220A
:10125800AD07AC06C2AFECF5C3AF058FC475C78345
:1012680075C50375C65A75C6A5001212A3D2AF225A
:10112300AD07AC06C2AF75C78375C502ECF5C3AF97
:10113300058FC412048DF5C275C65A75C6A5000D78
:10114300BD00010C740129F9E43AFA9002B974FF65
:0F115300F5F01204E545F070D31212A3D2AF22CB
:10080000EFD3940540037F012212048DFED394039D
:1008100040037F0222EF7041EE700B900001120442
:10082000A6F45293529412048DB4010B900001125D
:1008300004A64293F4529412048DFEB4020A90006E
:10084000011204A642934294EEB4030D90000112EB
:1008500004A6FEF45293EE4294EF64017043120436
:100860008DFE700B9000011204A6F452915292EE8C
:10087000B4010B9000011204A64291F452921204AA
:100880008DB4020A9000011204A642914292120411
:100890008DB4030D9000011204A6FEF45291EE42B5
:1008A00092EF6402704312048DFE700B90000112EF
:1008B00004A6F452955296EEB4010B900001120476
:1008C000A64295F4529612048DB4020A90000112C9
:1008D00004A64295429612048DB4030D90000112B5
:1008E00004A6FEF45295EE4296EF640370431204A0
:1008F0008DFE700B9000011204A6F452B152B2EEBC
:10090000B4010B9000011204A642B1F452B21204D9
:100910008DB4020A9000011204A642B142B2120440
:100920008DB4030D9000011204A6FEF452B1EE4204
:10093000B2EF6404704312048DFE700B900001123C
:1009400004A6F452B352B4EEB4010B9000011204A9
:10095000A642B3F452B412048DB4020A90000112FC
:1009600004A642B342B412048DB4030D90000112E8
:1009700004A6FEF452B3EE42B4EF640570431204D1
:100980008DFF700B9000011204A6F452C952CAEFF9
:10099000B4010B9000011204A642C9F452CA120419
:1009A0008DB4020A9000011204A642C942CA120480
:1009B0008DB4030D9000011204A6FFF452C9EF425A
:0409C000CA7F0022C8
:1009C400AD07EDD3940240037F0122ED600241574D
:1009D400C28C9000021204A6B40104D2A98002C2FF
:1009E400A99000011204A6B40104D2B98002C2B9CC
:1009F40012048DFED3940340037F0222E58954FC44
:100A04004EF5899000031204A6FFB40103538E7FB0
:100A1400EF7003438E80EFB40205438904800353CF
:100A240089FB9000041204A6B40105438F018003DE
:100A3400538FFE9000051204FBE5F0F58C90000541
:100A44001204FBF58A9000071204A6B40102D28CAA
:100A54007F0022ED6401600241E1C28E9000021227
:100A640004A6B40104D2AB8002C2AB90000112040C
:100A7400A6B40104D2BB8002C2BB12048DFEC3948F
:100A84000340037F0222E58954CF4EF58990000389
:100A94001204A6FFB40103538EBFEF7003438E40CC
:100AA400EFB4020543894080035389BF90000412C8
:100AB40004A6B40105438F028003538FFD90000503
:100AC4001204FBE5F0F58D9000051204FBF58B9004
:100AD40000071204A6B40102D28E7F0022ED640244
:100AE4007074538EEF9000021204A6B4010543AF54
:100AF40004800353AFFB9000031204A6FED39402B8
:100B040040037F0222EEB40103538EFB90000312D4
:100B140004A67003438E049000031204A6B40205D5
:100B2400438E088003538EF79000041204A6B40188
:100B340005438F048003538FFB9000051204FBFDD3
:100B4400ACF0ECF5D68DD79000071204A6B40103DF
:090B5400438E107F00227F022273
:1000260090025FEBF0A3EAF0A3E9F090025EEFF036
:1000360064016002413690000004F0E4A3F0A3F0EE
:10004600A3F0A3F0A3F0A3F0900262F0900262E0A6
:10005600FFC394805014740E2FF582E43401F583A7
:10006600E4F0900262E004F080E2E4900262F09034
:100076000262E0FFC394805014740E2FF582E434BC
:1000860000F583E4F0900262E004F080E290025F03
:10009600E0FBA3E0FAA3E0F912048DD394C0400379
:1000A6007F022290000A1204A6B40104D2BC800288
:1000B600C2BC12048DFFE598543F4FF598EF64C01B
:1000C6006007EF6440600221B09000021206257FAF
:1000D600007E307D2A7C0012056F90026312065561
:1000E600E4FFFE7D01FC900263E0F8A3E0F9A3E0E3
:1000F600FAA3E0FBC312060140037F0222900263CB
:10010600E0F8A3E0F9A3E0FAA3E0FBC3E49BFFE475
:100116009AFE740199FDE498FC90026312065590CC
:10012600025FE0FBA3E0FAA3E0F99000011204A647
:10013600FB64017038C28E538EFE5389BF5389CF3C
:10014600438E40900263E0FCA3E0FDA3E0FEA3E043
:10015600FF78081206128F8D900263A3A3A3E0F521
:100166008BC2AB5389BF538FFDD28E8076EB640270
:100176007035538EEF438E01538EF7438E049002F3
:1001860063E0FCA3E0FDA3E0FEA3E0FF780812060F
:10019600128FD6900263A3A3A3E0F5D753AFFB5308
:1001A6008EF7438E10803C7F022290025FE0FBA315
:1001B600E0FAA3E0F912048DFF7013900008120410
:1001C600A6B40105438E20801A538EDF8015EFB446
:1001D60080119000081204A6B401054387808003AD
:1001E60053877F90025FE0FBA3E0FAA3E0F990005B
:1001F600091204A6B40104D2AC8002C2AC90000776
:100206001204A6B40104D29C8002C29C90000B1278
:1002160004A654C0FFE5A2543F4FF5A290000C126D
:1002260004A6B4010543971080035397EF7F00227D
:1002360090025EE06402600261969000077402F02C
:10024600E4A3F0A3F0A3F0A3F0A3F0A3F09002625E
:10025600F0900262E0FFC394805014748E2FF582F2
:10026600E43401F583E4F0900262E004F080E2E415
:10027600900262F0900262E0FFC394805014748E84
:100286002FF582E43400F583E4F0900262E004F096
:1002960080E290025FE0FBA3E0FAA3E0F912048D8E
:1002A600FF64C06007EF64406002615690000A1266
:1002B60004A6B4010543B501800353B5FE12048DAF
:1002C600B4C005439A808003539A7F9000021206B9
:1002D600257F007E307D2A7C0012056F9002631216
:1002E6000655E4FFFE7D01FC900263E0F8A3E0F909
:1002F600A3E0FAA3E0FBC312060140037F022290AB
:100306000263E0F8A3E0F9A3E0FAA3E0FBC3E49BF1
:10031600FFE49AFE740199FDE498FC9002631206CC
:1003260055538EEF538EF7438E04900263E0FCA381
:10033600E0FDA3E0FEA3E0FF78081206128FD69038
:100346000263A3A3A3E0F5D753AFFB438E1080034C
:100356007F022290025FE0FBA3E0FAA3E0F990009F
:10036600091204A6B4010543AF01800353AFFE9002
:1003760000071204A6B40105439A108003539AEFAE
:1003860090000B1204A65401FFE5BA54FE4FF5BACD
:010396002244
:1011C700900002E0240EF582E43401F583EFF090FD
:1011D7000002E004F0C394804002E4F0900003E0D2
:0711E700700404F0D299220C
:1007D700900009E0248EF582E43401F583EFF09070
:1007E7000009E004F0C394804002E4F090000AE0BE
:0807F700700504F0439A022290
:10102F0041022D0041022C0041024E0041022E00D0
:10103F0041024D005E020E000000000000000000A3
:10104F000000000000000000000000000000000091
:10105F0000000000005E022F0000000000000000F2
:10106F000000000000000000000000000000000071
:06107F000000000000006B
:100E6900120CA21212351211EE7F007EC21211620B
:100E79007B017A02790E7F701206C8D2C17FF41203
:100E89001293C2C17FF4121293D2C17FF41212934A
:100E9900D2AFE4900243F090022DE060207B017A0A
:100EA900027984120D98EF700BB2C17B017A027935
:100EB90084120B5DE4900283F090022DF090022CD5
:100EC900E06007E4F07F3212129390024EE0600D69
:100ED900E4F07B017A02790E7F711206C890022E26
:100EE900E06015900244E0900223F0900245E09002
:100EF9000224F0E490022EF090024DE06099E4F0B3
:0D0F09007B017A02792F7D1A12119A808ADD
:10121200AA55FF212000FF0000000000000000008E
:1012220000000000000000000000000000000000BC
:03123200000000B9
:08108500410283004102AC00AE
:0811620090024FEEF0A3EFF044
:10116A00A37440F0A37402F0A31206610001C20046
:10117A009002587401F0E4A3F0A304F0A3F0A3745E
:10118A0040F0E4A3F07B017A0279517F0102002644
:03002300020F16B3
:0F0F1600C0E0C083C082C0D075D000C006C00745
:100F250030986EAF999002ACE0FE04F074842EF513
:100F350082E43402F583EFF09002ACE0D3942440D0
:100F4500037424F0900283E0FE640260429002ACD8
:100F5500E4F0EE14600F047036EF64AA703190026D
:100F65008304F0802AEFB455189002837402F0A32D
:100F750074AAF0A37455F09002AC7402F0D28E807E
:100F85000EEF900283B4AA057401F08002E4F0C26A
:010F950098C3
:0D0F9600D007D006D0D0D082D083D0E0327A
:100D9800E490024FF0A3F0A3F0A3EBF0A3EAF0A3D2
:100DA800E9F012048DB4AA15900252E0FBA3E0FA10
:100DB800A3E0F99000011204A6645560037F0122A4
:100DC8009000021204A6900250F07E0029F9EE3A33
:100DD800FA9000041204A6B4550A9000051204A65D
:100DE80064AA60037F0222900250E0A3F090024FB1
:100DF8007403F0900250E02403FFE433FE90024FA6
:100E0800E0C39FEE6480F87480985029900251E006
:100E1800FFA3E0FBA3E0FAA3E0F990024FE0F5821C
:100E28007583001204A6FEEF6E900251F090024FF7
:100E3800E004F080BE900252E0FBA3E0FAA3E0F9E0
:100E4800900250E0FF7E00E92FF9EE3AFA90000395
:100E58001204A6FF900251E06F60037F03227F0017
:010E68002267
:0B0B5D0090024FEBF0A3EAF0A3E9F0D8
:100B6800A3E0FBA3E0FAA3E0F99000061204A6FEB6
:100B780090024FE0F9A3E0FAA3E0A3C9F0A3EAF0DA
:100B8800A3E9F0EE24A47002813A1470028168147B
:100B98007002817324FE7002817A2405600281A1AB
:100BA800E4FF900252E0FBA3E0FAA3E02407F9E493
:100BB8003AFAEF7C0029F9EC3AFA12048DFE742F08
:100BC8002FF582E43402F583EEF00FEFB406D3E498
:100BD800FF900252E0FBA3E0FAA3E02413F9E43A01
:100BE800FAEF7C0029F9EC3AFA12048DFE743B2FD7
:100BF800F582E43402F583EEF00FEFB407D3E4FF97
:100C0800900252E0FBA3E0FAA3E0241EF9E43AFACA
:100C1800EF7C0029F9EC3AFA12048DFE74462FF5A0
:100C280082E43402F583EEF00FEFB403D390024D63
:100C3800803C900252E0FBA3E0FAA3E0F9900007A1
:100C48001204A6FF900255F09000081204A6FE9028
:100C58000256F0900244EFF0A3EEF090022E800EC0
:100C68007B017A0279237F700206C890024E7401D4
:100C7800F022900252E0FBA3E0FAA3E0F99000070B
:100C88001204A6900255F09000081204A69002568D
:090C9800F0900222F0900243F0FA
:010CA1002230
:0506C800900257EFF065
:1006CD00900259EBF0A3EAF0A3E9F0E4A3F0785D12
:1006DD007C027D017BFF7A127912FE7F2312046763
:1006ED00900257E0FFB47006A37402F0800AEFB4D5
:1006FD0071069002587417F0900258E0240490028D
:10070D005FF0900257E0900263F0E490025CF0908D
:10071D000258E0FF90025CE0FEC39F502890025902
:10072D00E0FBA3E0FAA3E0F98E827583001204A624
:10073D00FF74642EF582E43402F583EFF090025CD1
:10074D00E004F080CA90025FE0FF90025C7403F059
:10075D0090025FE02403FDE433FC90025CE0FEC3F5
:10076D009DEC6480F87480985015745D2EF582E4CC
:10077D003402F583E06FFF90025CE004F080D190CD
:10078D00025CE0245DF582E43402F583EFF0900223
:10079D005CE004F0E0245DF582E43402F5837455E9
:1007AD00F090025CE004F0E0245DF582E43402F5A3
:1007BD008374AAF090025CE004F07B017A02795D0B
:0A07CD00900258E0240AFD02119A80
:0C000E00C2AC8F993099FDC299D2AC228F
:10119A00E4FE900280EBF0A3EAF0A3E9F0EEC39D2F
:1011AA00501A900280E0FBA3E0FAA3E0F98E827560
:0C11BA0083001204A6FF12000E0E80E15C
:0111C6002206
:08108D004102BC004102BB005E
:10123500E490024FF0A304F0A3F0A3F0E4A3F0A31D
:1012450074DCF0A3E4F0A304F0FB7A02794FE4FF29
:031255000209C4C7
:1011EE0090024F7401F0E4A3F0A304F0E4A3F0A383
:1011FE00F0A37450F0A3E4F0A304F0FB7A02794F4D
:04120E00FF0209C40E
:03000B000210964A
:10109600C0E0C083C082C0D075D000C0079002BC3B
:1010A600E004F0E0C3940A400EE4F09002BBE004D2
:1010B600F090022C7401F0900243E0FF6010900261
:1010C600BBE0C39F400D90024E7401F08000900279
:0E10D600BBE4F0D007D0D0D082D083D0E0327F
:03001B0002127856
:10127800C0E0C083C082C28E90022D7401F0758DCB
:0B12880050758B00D082D083D0E03284
:100CA20090025074DFF090024F7403F07B017A02DD
:100CB200794FE4FF1208009002507420F0E4900291
:100CC2004FF07B017A02794FFF12080090025074B4
:100CD20025F0E490024FF07B017A02794F7F0112F6
:100CE200080090025074DAF090024F7403F07B0116
:100CF2007A02794F7F011208009002507480F090BE
:100D0200024F7403F07B017A02794F7F02120800CE
:100D12009002507403F0E490024FF07B017A027962
:100D22004F7F0212080090025074C0F0E490024F0C
:100D3200F07B017A02794F7F03120800900250740F
:100D4200E2F090024F7403F07B017A02794F7F0444
:100D5200120800900250741CF0E490024FF07B01E4
:100D62007A02794F7F04120800900250740CF090BE
:100D7200024F7403F07B017A02794F7F051208005B
:100D82009002507410F0E490024FF07B017A0279E5
:060D92004F7F050208007E
:03000000020FA349
:0C0FA300787FE4F6D8FD758107020FEAA4
:10039700E709F608DFFA8046E709F208DFFA803E48
:1003A70088828C83E709F0A3DFFA8032E309F60835
:1003B700DFFA8078E309F208DFFA807088828C839D
:1003C700E309F0A3DFFA806489828A83E0A3F60851
:1003D700DFFA805889828A83E0A3F208DFFA804C2B
:1003E70080D280FA80C680D4806980F28033801002
:1003F70080A680EA809A80A880DA80E280CA80336B
:1004070089828A83ECFAE493A3C8C582C8CCC583E2
:10041700CCF0A3C8C582C8CCC583CCDFE9DEE780B2
:100427000D89828A83E493A3F608DFF9ECFAA9F031
:10043700EDFB2289828A83ECFAE0A3C8C582C8CC87
:10044700C583CCF0A3C8C582C8CCC583CCDFEADEA0
:10045700E880DB89828A83E493A3F208DFF980CC02
:1004670088F0EF60010E4E60C388F0ED2402B404FB
:100477000050B9F582EB2402B4040050AF232345A2
:0604870082239003E773DD
:10048D00BB010689828A83E0225002E722BBFE026D
:09049D00E32289828A83E49322A0
:1004A600BB010CE58229F582E5833AF583E022500B
:1004B60006E92582F8E622BBFE06E92582F8E22255
:0D04C600E58229F582E5833AF583E493226F
:1004D300BB010689828A83F0225002F722BBFE0108
:0204E300F32202
:1004E500C5F0F8A3E028F0C5F0F8E58215827002A2
:0604F5001583E038F0223F
:1004FB00BB0110E58229F582E5833AF583E0F5F03F
:10050B00A3E0225009E92582F886F008E622BBFE1B
:10051B000AE92582F8E2F5F008E222E5832AF58361
:08052B00E993F5F0A3E9932226
:1005330075F008758200EF2FFFEE33FECD33CDCC7F
:1005430033CCC58233C5829BED9AEC99E582984002
:100553000CF582EE9BFEED9AFDEC99FC0FD5F0D6DF
:10056300E4CEFBE4CDFAE4CCF9A88222B800C1B909
:100573000059BA002DEC8BF084CFCECDFCE5F0CB47
:10058300F97818EF2FFFEE33FEED33FDEC33FCEB80
:1005930033FB10D703994004EB99FB0FD8E5E4F93B
:1005A300FA227818EF2FFFEE33FEED33FDEC33FC28
:1005B300C933C910D7059BE99A4007EC9BFCE99A1C
:1005C300F90FD8E0E4C9FAE4CCFB2275F010EF2F61
:1005D300FFEE33FEED33FDCC33CCC833C810D70761
:1005E3009BEC9AE899400AED9BFDEC9AFCE899F89C
:0E05F3000FD5F0DAE4CDFBE4CCFAE4C8F9222F
:10060100EB9FF5F0EA9E42F0E99D42F0E89C45F04F
:0106110022C6
:10061200E8600FECC313FCED13FDEE13FEEF13FFC6
:03062200D8F122EA
:10062500BB010DE58229F582E5833AF58302069F34
:100635005007E92582F8020692BBFE07E92582F8F4
:100645000206ABE58229F582E5833AF5830206B811
:0C065500ECF0A3EDF0A3EEF0A3EFF02218
:10066100A8828583F0D083D0821206781206781290
:100671000678120678E473E493A3C583C5F0C583B5
:10068100C8C582C8F0A3C583C5F0C583C8C582C8E3
:010691002246
:100FAF00020E69E493A3F8E493A34003F68001F2E1
:100FBF0008DFF48029E493A3F85407240CC8C33343
:100FCF00C4540F4420C8834004F456800146F6DF12
:100FDF00E4800B010204081020408090102FE47E63
:100FEF00019360BCA3FF543F30E509541FFEE49307
:100FFF00A360010ECF54C025E060A840B8E493A3CE
:10100F00FAE493A3F8E493A3C8C582C8CAC583CAF8
:10101F00F0A3C8C582C8CAC583CADFE9DEE780BEB0
:01109500005A
:0D069200E6FB08E6F908E6FA08E6CBF822D8
:0C069F00E0F8A3E0F9A3E0FAA3E0FB22DE
:0D06AB00E2FB08E2F908E2FA08E2CBF822CF
:1006B800E493F8740193F9740293FA740393FB2298
:00000001FF
