:020000040800F2
:10000000F8060020D5010008550700081907000868
:1000100051070008F9040008490E0008000000001C
:10002000000000000000000000000000F5080008CB
:10003000FD05000800000000DD070008A90A00080F
:10004000EF010008EF010008EF010008EF010008D0
:10005000EF010008EF010008EF010008EF010008C0
:10006000EF010008EF010008EF010008EF010008B0
:10007000EF010008EF010008EF010008EF010008A0
:10008000EF010008EF010008EF010008EF01000890
:10009000EF010008EF010008EF010008EF01000880
:1000A000EF010008EF010008EF010008EF01000870
:1000B000EF010008EF010008EF010008EF01000860
:1000C000EF010008EF010008EF010008EF01000850
:1000D000EF010008610B0008EF010008EF010008C4
:1000E000EF010008EF010008EF010008EF01000830
:1000F000EF010008EF010008EF010008EF01000820
:10010000EF010008EF010008EF010008EF0100080F
:10011000EF0100080D0B0008EF010008EF010008D7
:10012000EF010008EF010008EF010008EF010008EF
:1001300000F002F800F03FF80AA090E8000C8244BA
:100140008344AAF10107DA4501D100F034F8AFF297
:10015000090EBAE80F0013F0010F18BFFB1A43F0A5
:1001600001031847400E0000600E0000103A24BF43
:1001700078C878C1FAD8520724BF30C830C144BF0C
:1001800004680C607047000000230024002500264E
:10019000103A28BF78C1FBD8520728BF30C148BFEA
:1001A0000B607047782900F07780002070471FB5FA
:1001B0001FBD10B510BD00F04DF91146FFF7F7FF58
:1001C00000F09CFE00F06BF903B4FFF7F2FF03BCF4
:1001D00000F03CFE0948804709480047FEE7FEE77B
:1001E000FEE7FEE7FEE7FEE7FEE7FEE7FEE7FEE7E7
:1001F00004480549054A064B70470000AD0A00084F
:1002000031010008F8000020F8060020F802002064
:10021000F8020020704700000FB4044910B503AA8B
:10022000029800F0E9F810BC5DF814FB30000020E3
:100230002DE9F0410E460446002020622046E16888
:10024000884730B3252805D0D4E901219047206A9A
:10025000401CF2E7E168204600278847050018D0D7
:10026000A5F14100192802D820354FF40067324625
:10027000294620462760FFF795FF40B1012804D0AA
:10028000F61D26F007060836D8E7361DD6E72846BD
:10029000DAE7206ABDE8F08170B504460D462146D4
:1002A0001068AFF300802188090502D50F4A7A440F
:1002B00002E00E4A7A440E32002104F1240305E0E4
:1002C00000F00F060009965D5E54491C0028F7D126
:1002D00020780023000704D5702D02D009B1022335
:1002E00011322046BDE8704000F02DB8CA0C000065
:1002F0004FF0000200B5134694469646203922BFBF
:10030000A0E80C50A0E80C50B1F12001BFF4F7AF09
:10031000090728BFA0E80C5048BF0CC05DF804EBEB
:10032000890028BF40F8042B08BF704748BF20F859
:10033000022B11F0804F18BF00F8012B7047704757
:100340007047704770472DE9F0470D469946924631
:10035000044600F124080168880604D5E06921F00C
:100360001001216000E00120A84201DD471B00E0F0
:100370000027A1697A1902EB0900081AA061207808
:10038000C00602D42046AFF30080002608E0D4E97E
:1003900001211AF806009047206A401C761C206252
:1003A0004E45F4DB2078C0060AD52046AFF3008026
:1003B00006E0D4E9012130209047206A401C2062E9
:1003C000381EA7F10107F4DC07E0D4E9012118F891
:1003D00005009047206A401C2062281EA5F10105F7
:1003E000F3DC2046AFF300802078000602D502201F
:1003F000BDE8F0870120FBE7074B70B50D467B4455
:1004000000F011F80446284600F020F810B14FF033
:10041000FF3070BD204670BDDF0A000001694A1C34
:1004200002610878704700B58FB0CDE90131002135
:10043000059105497944CDE9031011466846FFF757
:10044000F7FE0FB000BD0000E5FFFFFF007B00F0EE
:1004500080007047754600F02BF8AE4605006946EF
:10046000534620F00700854618B020B5FFF7C0FEC0
:10047000BDE820404FF000064FF000074FF00008A5
:100480004FF0000B21F00701AC46ACE8C009ACE826
:10049000C009ACE8C009ACE8C0098D46704710B58A
:1004A0000446AFF300802046BDE81040FFF78CBE45
:1004B000004870479800002008B50121082000F08E
:1004C0009FF9C020ADF8000010208DF80300032034
:1004D0008DF802006946054800F091F801200449B2
:1004E00008600449C1F89C0108BD0000000C0140EF
:1004F000988121420080214200BFFEE703E04A1EAE
:10050000D1B2002242540029F9D170472DE9F04FB1
:1005100089B006460F464FF0050906254FEA262A00
:1005200006F0FF0B0024122104A8FFF7E1FE2F4A7A
:1005300007CA01AB07C38DF806508DF809708DF816
:100540000BA08DF80CB0A846032405E001A8005DBF
:1005500080EA0808601CC4B2E81C8442F6DB01A8EB
:1005600000F80480601CC4B2552001A90855601C25
:10057000C4B2AA200855601CC4B232211C48FFF73F
:10058000BDFF00201B490880AA1D01A91A4800F0E0
:10059000EEFB47B31CE0052000F07CFC154800880A
:1005A000042815DB1248007821280FD11048407824
:1005B00020280BD10E488078A84207D10C48C0787B
:1005C000404503D1002009B0BDE8F08F0220FAE7D2
:1005D000A9F10100C0B2B0F10009DCD1B9F1000FFE
:1005E00001D10120EFE70020EDE70000700F0008C7
:1005F000660000202A0000200038014070472DE9E5
:10060000F041024600250026002000230024002798
:1006100091F803C00CF00F0591F803C00CF0100C1A
:10062000BCF1000F03D091F802C04CEA050591F827
:1006300000C0BCF1000F31D0146800202BE04FF057
:10064000010C0CFA00F3B1F800C00CEA03069E425C
:1006500020D183004FF00F0C0CFA03F7BC4305FACE
:1006600003FC4CEA040491F803C0BCF1280F06D146
:100670004FF0010C0CFA00FCC2F814C00AE091F82B
:1006800003C0BCF1480F05D14FF0010C0CFA00FC7F
:10069000C2F810C0401C0828D1D31460B1F800C0C3
:1006A000BCF1FF0F34DD546800202EE000F1080C8F
:1006B0004FF0010808FA0CF3B1F800C00CEA030689
:1006C0009E4221D183004FF00F0C0CFA03F7BC437C
:1006D00005FA03FC4CEA040491F803C0BCF1280FAE
:1006E00005D100F1080C08FA0CF8C2F8148091F852
:1006F00003C0BCF1480F07D100F1080C4FF001080E
:1007000008FA0CF8C2F81080401C0828CED35460B8
:10071000BDE8F0810161704700BFFEE708B5012127
:10072000102000F06DF80F20ADF8000010208DF8BB
:10073000030003208DF8020069460448FFF75FFFBD
:100740000F210248FFF7E6FF08BD0000001001403E
:1007500000BFFEE77047000070B5002100230F22A4
:10076000C47804B3154C246804F4E064C4F5E06470
:10077000210AC1F10403CA40447804FA03F18478E1
:100780001440214309010E4C0678A155047804F069
:100790001F050124AC4005786D11AD0005F1E02581
:1007A000C5F8004109E0047804F01F050124AC40BD
:1007B000044D0678761145F8264070BD0CED00E03A
:1007C00000E400E080E100E002490143024A1160D8
:1007D000704700000000FA050CED00E070470000D3
:1007E00029B1064AD2690243044BDA6104E0034AA4
:1007F000D2698243014BDA61704700000010024069
:1008000029B1064A92690243044B9A6104E0034A03
:1008100092698243014B9A617047000000100240C8
:1008200030B500210022002400232D4D6D6805F015
:100830000C0121B1042905D0082923D105E0294D57
:10084000056022E0274D05601FE0254D6D6805F429
:100850007012234D6D6805F48034022505EB924239
:100860001CB9214D554305600BE01D4D6D6805F425
:1008700000351DB11C4D5543056002E0194D55432F
:10088000056002E0174D056000BF00BF144D6D68A4
:1008900005F0F0010909154D6B5C0568DD40456008
:1008A0000F4D6D6805F4E061090A104D6B5C4568F9
:1008B000DD4085600A4D6D6805F46051C90A0B4D35
:1008C0006B5C4568DD40C560054D6D6805F44041D1
:1008D000890B074D6B5CC568B5FBF3F5056130BD51
:1008E0000010024000127A0000093D0014000020B0
:1008F00024000020704710B500F002F810BD000081
:100900000CB50020019000903348006840F480301E
:100910003149086000BF3048006800F400300090A2
:100920000198401C0190009818B90198B0F5A06F8B
:10093000F1D12948006800F4003010B10120009086
:1009400001E0002000900098012843D1234800686E
:1009500040F01000214908600846006820F00300BC
:1009600008600846006840F0020008601A484068C5
:10097000194948600846406848600846406840F4A5
:10098000806048600846406820F47C104860084653
:10099000406840F4E81048600846006840F0807005
:1009A000086000BF0C48006800F000700028F9D013
:1009B0000948406820F0030007494860084640683D
:1009C00040F00200486000BF0348406800F00C009F
:1009D0000828F9D10CBD00000010024000200240A0
:1009E00010B586B00446012144F20400FFF708FF69
:1009F0004FF40070ADF8140003208DF81600182095
:100A00008DF8170005A91C48FFF7F9FD4FF4806029
:100A1000ADF8140004208DF8170005A91648FFF75B
:100A2000EEFD01940020ADF80800ADF80A00ADF825
:100A30000C00ADF810000C20ADF80E0001A90F4815
:100A400000F020F925208DF8000003208DF801002A
:100A50008DF8020001208DF803006846FFF77CFE48
:100A6000012240F22551054800F0E7F80121034832
:100A700000F0A0F806B010BD0008014000380140A9
:100A8000042808D14FF0E021096941F004014FF03A
:100A9000E022116107E04FF0E021096921F0040133
:100AA0004FF0E022116170477047000010B5134805
:100AB000006840F00100114908600846406810498C
:100AC00008400E494860084600680E4908400B4936
:100AD00008600846006820F48020086008464068E6
:100AE00020F4FE0048604FF41F008860FFF703FF0A
:100AF0004FF000600449086010BD00000010024083
:100B00000000FFF8FFFFF6FE08ED00E010B540F230
:100B10002551104800F067F8D8B10E4800F01EF9D2
:100B2000C4B20D48008800F4004090B90A4800881B
:100B3000C0F30D0009490C5407480088401C0649C1
:100B4000088008460088C0F30D00312801DD002030
:100B5000088010BD00500040280000203400002014
:100B600010B540F22551104800F03DF8D8B10E48BC
:100B700000F0F4F8C4B20D48008800F4004090B9C9
:100B80000A480088C0F30D0009490C540748008842
:100B9000401C0649088008460088C0F30D00312833
:100BA00001DD0020088010BD003801402A0000202F
:100BB0006600002021B1828942F40052828104E063
:100BC00082894DF6FF731A408281704702460020E9
:100BD000B1F5007F00D100BF13880B400BB101209D
:100BE00000E00020704770B5024600240023002575
:100BF000002040F66A16B14200D100BFC1F3421591
:100C000001F01F03012606FA03F3012D02D1968994
:100C1000334006E0022D02D1168A334001E0968A65
:100C200033400C12012606FA04F41688344013B13E
:100C30000CB1012000E0002070BDF0B50346002497
:100C400000260025002040F66A17B94200D100BFF7
:100C50001846C1F3421401F01F06012707FA06F5F2
:100C6000012C01D10C3004E0022C01D1103000E045
:100C700014301AB107682F43076002E00768AF43DA
:100C80000760F0BD2DE9F04786B005460E4600240A
:100C9000A24600BFA1460027B08900B100BF2F4681
:100CA0002C8A4CF6FF700440F08804432C82AC89F7
:100CB0004EF6F3100440B088318908437189084327
:100CC0000443AC81AC8A4FF6FF400440B089044332
:100CD000AC8201A8FFF7A4FD1F48874202D1DDF8CE
:100CE00010A001E0DDF80CA0A88900F4004040B19C
:100CF0000AEBCA0000EB0A1031684900B0FBF1F8BA
:100D000007E00AEBCA0000EB0A1031688900B0FB6B
:100D1000F1F86420B8FBF0F004012009642101FB24
:100D20001089A88900F4004040B1322000EBC900CE
:100D3000B0FBF1F000F00700044308E0322000EBC4
:100D400009106421B0FBF1F000F00F0004432C8186
:100D500006B0BDE8F08700000038014001468888F1
:100D6000C0F308007047C1F30802828070472DE984
:100D7000F04107460D461646002400BF0CE0295DF1
:100D80003846FFF7F0FF00BF80213846FFF71EFF0F
:100D90000028F9D0601C84B2B442F0DBBDE8F081D9
:100DA00010B586B0044601213020FFF729FD01214E
:100DB0000805FFF715FD4FF48050ADF8140003202F
:100DC0008DF8160018208DF8170005A91B48FFF7AD
:100DD00016FC0420ADF814008DF8170005A918487A
:100DE000FFF70DFC01940020ADF80800ADF80A00F3
:100DF000ADF80C00ADF810000C20ADF80E0001A904
:100E00001048FFF73FFF35208DF8000003208DF8D4
:100E100001008DF8020001208DF803006846FFF7FD
:100E20009BFC012240F225510648FFF706FF0121F5
:100E30000448FFF7BFFE06B010BD000000100140DF
:100E4000001401400050004000BFFEE700BF7047A3
:100E500010B56FF00400FFF713FE0A4800680A4956
:100E6000B0FBF1F0094908700846007800EB40013A
:100E7000C1EBC0104FF6FF7101EAC00004490880C1
:100E800010BD00000000002000127A002C0000209D
:100E90002E0000200146114A12884A434FF0E023F9
:100EA0005A6100229A611A46126942F001021A61DF
:100EB00000BF4FF0E022106900F001021AB100F407
:100EC0008032002AF5D04FF0E022126922F00102B0
:100ED0004FF0E0231A6100229A6170472E00002033
:100EE00000BF054A128802F04002002AF9D0C2B2BF
:100EF000014B1B1D1A8070470038014000244FF43D
:100F0000A060FFF761FCFFF7A3FF4FF4E130FFF7AC
:100F100067FDFFF703FCFFF7CFFA4FF4E130FFF76F
:100F20003FFF012141F2E100FFF7F0FA04462146BC
:100F30000DA0FFF771F9002140F2D240FFF7E6FA69
:100F40000446214608A0FFF767F90BE04FF49670BE
:100F5000FFF7A0FF0548006808B9012000E0002065
:100F600002490860F2E70000257800008001224273
:100F7000AA55002021005700000000003031323314
:100F800034353637383941424344454640305800BD
:100F900030313233343536373839616263646566EF
:100FA00040307800C40F000800000020340000002A
:100FB0006C010008F80F000834000020C40600008F
:100FC0008801000800A24A040000000000000000A0
:100FD00001020304060708090000000001020304DF
:100FE00001020304060708090204060800000000C5
:080FF0000000000000000000F9
:0400000508000131BD
:00000001FF
